{
  "contractName": "ASTPresale",
  "abi": [
    {
      "constant": true,
      "inputs": [],
      "name": "rate",
      "outputs": [
        {
          "name": "",
          "type": "uint256"
        }
      ],
      "payable": false,
      "stateMutability": "view",
      "type": "function"
    },
    {
      "constant": false,
      "inputs": [
        {
          "name": "_addr",
          "type": "address"
        }
      ],
      "name": "unregister",
      "outputs": [],
      "payable": false,
      "stateMutability": "nonpayable",
      "type": "function"
    },
    {
      "constant": true,
      "inputs": [],
      "name": "endTime",
      "outputs": [
        {
          "name": "",
          "type": "uint64"
        }
      ],
      "payable": false,
      "stateMutability": "view",
      "type": "function"
    },
    {
      "constant": true,
      "inputs": [],
      "name": "maxEtherCap",
      "outputs": [
        {
          "name": "",
          "type": "uint256"
        }
      ],
      "payable": false,
      "stateMutability": "view",
      "type": "function"
    },
    {
      "constant": false,
      "inputs": [],
      "name": "unpause",
      "outputs": [],
      "payable": false,
      "stateMutability": "nonpayable",
      "type": "function"
    },
    {
      "constant": true,
      "inputs": [],
      "name": "weiRaised",
      "outputs": [
        {
          "name": "",
          "type": "uint256"
        }
      ],
      "payable": false,
      "stateMutability": "view",
      "type": "function"
    },
    {
      "constant": true,
      "inputs": [
        {
          "name": "",
          "type": "address"
        }
      ],
      "name": "presaleGuaranteedLimit",
      "outputs": [
        {
          "name": "",
          "type": "uint256"
        }
      ],
      "payable": false,
      "stateMutability": "view",
      "type": "function"
    },
    {
      "constant": true,
      "inputs": [],
      "name": "multisig",
      "outputs": [
        {
          "name": "",
          "type": "address"
        }
      ],
      "payable": false,
      "stateMutability": "view",
      "type": "function"
    },
    {
      "constant": true,
      "inputs": [
        {
          "name": "",
          "type": "address"
        }
      ],
      "name": "buyerFunded",
      "outputs": [
        {
          "name": "",
          "type": "uint256"
        }
      ],
      "payable": false,
      "stateMutability": "view",
      "type": "function"
    },
    {
      "constant": true,
      "inputs": [],
      "name": "paused",
      "outputs": [
        {
          "name": "",
          "type": "bool"
        }
      ],
      "payable": false,
      "stateMutability": "view",
      "type": "function"
    },
    {
      "constant": false,
      "inputs": [
        {
          "name": "_addr",
          "type": "address"
        },
        {
          "name": "_maxGuaranteedLimit",
          "type": "uint256"
        }
      ],
      "name": "register",
      "outputs": [],
      "payable": false,
      "stateMutability": "nonpayable",
      "type": "function"
    },
    {
      "constant": true,
      "inputs": [
        {
          "name": "_token",
          "type": "address"
        },
        {
          "name": "_vault",
          "type": "address"
        },
        {
          "name": "_multisig",
          "type": "address"
        },
        {
          "name": "_reserveWallet",
          "type": "address[]"
        },
        {
          "name": "_startTime",
          "type": "uint64"
        },
        {
          "name": "_endTime",
          "type": "uint64"
        },
        {
          "name": "_maxEtherCap",
          "type": "uint256"
        },
        {
          "name": "_rate",
          "type": "uint256"
        }
      ],
      "name": "startTime",
      "outputs": [
        {
          "name": "",
          "type": "uint64"
        }
      ],
      "payable": false,
      "stateMutability": "view",
      "type": "function"
    },
    {
      "constant": false,
      "inputs": [],
      "name": "pause",
      "outputs": [
        {
          "name": "",
          "type": "uint64"
        }
      ],
      "payable": false,
      "stateMutability": "nonpayable",
      "type": "function"
    },
    {
      "constant": false,
      "inputs": [
        {
          "name": "beneficiary",
          "type": "address"
        }
      ],
      "name": "buyPresale",
      "outputs": [],
      "payable": true,
      "stateMutability": "payable",
      "type": "function"
    },
    {
      "constant": true,
      "inputs": [
        {
          "name": "beneficiary",
          "type": "address"
        }
      ],
      "name": "owner",
      "outputs": [
        {
          "name": "",
          "type": "address"
        }
      ],
      "payable": false,
      "stateMutability": "view",
      "type": "function"
    },
    {
      "constant": true,
      "inputs": [],
      "name": "maxReached",
      "outputs": [
        {
          "name": "",
          "type": "bool"
        }
      ],
      "payable": false,
      "stateMutability": "view",
      "type": "function"
    },
    {
      "constant": false,
      "inputs": [
        {
          "name": "newOwner",
          "type": "address"
        }
      ],
      "name": "finalizePresale",
      "outputs": [
        {
          "name": "",
          "type": "bool"
        }
      ],
      "payable": false,
      "stateMutability": "nonpayable",
      "type": "function"
    },
    {
      "constant": true,
      "inputs": [
        {
          "name": "",
          "type": "address"
        }
      ],
      "name": "registeredAddress",
      "outputs": [
        {
          "name": "",
          "type": "bool"
        }
      ],
      "payable": false,
      "stateMutability": "view",
      "type": "function"
    },
    {
      "constant": false,
      "inputs": [
        {
          "name": "_addrs",
          "type": "address[]"
        }
      ],
      "name": "unregisterByList",
      "outputs": [
        {
          "name": "",
          "type": "bool"
        }
      ],
      "payable": false,
      "stateMutability": "nonpayable",
      "type": "function"
    },
    {
      "constant": false,
      "inputs": [
        {
          "name": "newOwner",
          "type": "address"
        }
      ],
      "name": "transferOwnership",
      "outputs": [],
      "payable": false,
      "stateMutability": "nonpayable",
      "type": "function"
    },
    {
      "constant": true,
      "inputs": [
        {
          "name": "newOwner",
          "type": "address"
        }
      ],
      "name": "vault",
      "outputs": [
        {
          "name": "",
          "type": "address"
        }
      ],
      "payable": false,
      "stateMutability": "view",
      "type": "function"
    },
    {
      "constant": true,
      "inputs": [],
      "name": "token",
      "outputs": [
        {
          "name": "",
          "type": "address"
        }
      ],
      "payable": false,
      "stateMutability": "view",
      "type": "function"
    },
    {
      "constant": false,
      "inputs": [
        {
          "name": "_addrs",
          "type": "address[]"
        },
        {
          "name": "_maxGuaranteedLimits",
          "type": "uint256[]"
        }
      ],
      "name": "registerByList",
      "outputs": [
        {
          "name": "",
          "type": "address"
        }
      ],
      "payable": false,
      "stateMutability": "nonpayable",
      "type": "function"
    },
    {
      "constant": false,
      "inputs": [
        {
          "name": "_token",
          "type": "address"
        },
        {
          "name": "_vault",
          "type": "address"
        },
        {
          "name": "_multisig",
          "type": "address"
        },
        {
          "name": "_reserveWallet",
          "type": "address[]"
        },
        {
          "name": "_startTime",
          "type": "uint64"
        },
        {
          "name": "_endTime",
          "type": "uint64"
        },
        {
          "name": "_maxEtherCap",
          "type": "uint256"
        },
        {
          "name": "_rate",
          "type": "uint256"
        }
      ],
      "name": "registerByList",
      "outputs": [],
      "payable": false,
      "stateMutability": "nonpayable",
      "type": "constructor"
    },
    {
      "payable": true,
      "stateMutability": "payable",
      "type": "fallback"
    },
    {
      "anonymous": false,
      "inputs": [
        {
          "indexed": true,
          "name": "buyer",
          "type": "address"
        },
        {
          "indexed": true,
          "name": "beneficiary",
          "type": "address"
        },
        {
          "indexed": false,
          "name": "toFund",
          "type": "uint256"
        },
        {
          "indexed": false,
          "name": "tokens",
          "type": "uint256"
        }
      ],
      "name": "PresaleTokenPurchase",
      "type": "event"
    },
    {
      "anonymous": false,
      "inputs": [
        {
          "indexed": true,
          "name": "_addr",
          "type": "address"
        }
      ],
      "name": "Registered",
      "type": "event"
    },
    {
      "anonymous": false,
      "inputs": [
        {
          "indexed": true,
          "name": "_addr",
          "type": "address"
        }
      ],
      "name": "Unregistered",
      "type": "event"
    },
    {
      "anonymous": false,
      "inputs": [],
      "name": "Pause",
      "type": "event"
    },
    {
      "anonymous": false,
      "inputs": [],
      "name": "Unpause",
      "type": "event"
    }
  ],
  "bytecode": "0x606060405260008060146101000a81548160ff02191690831515021790555034156200002a57600080fd5b60405162001e8e38038062001e8e83398101604052808051906020019091908051906020019091908051906020019091908051820191906020018051906020019091908051906020019091908051906020019091908051906020019091905050336000806101000a81548173ffffffffffffffffffffffffffffffffffffffff021916908373ffffffffffffffffffffffffffffffffffffffff16021790555087600360006101000a81548173ffffffffffffffffffffffffffffffffffffffff021916908373ffffffffffffffffffffffffffffffffffffffff16021790555086600460006101000a81548173ffffffffffffffffffffffffffffffffffffffff021916908373ffffffffffffffffffffffffffffffffffffffff16021790555085600560006101000a81548173ffffffffffffffffffffffffffffffffffffffff021916908373ffffffffffffffffffffffffffffffffffffffff1602179055508460069080519060200190620001a592919062000214565b5083600a60006101000a81548167ffffffffffffffff021916908367ffffffffffffffff16021790555082600a60086101000a81548167ffffffffffffffff021916908367ffffffffffffffff16021790555081600981905550806007819055505050505050505050620002e9565b82805482825590600052602060002090810192821562000290579160200282015b828111156200028f5782518260006101000a81548173ffffffffffffffffffffffffffffffffffffffff021916908373ffffffffffffffffffffffffffffffffffffffff1602179055509160200191906001019062000235565b5b5090506200029f9190620002a3565b5090565b620002e691905b80821115620002e257600081816101000a81549073ffffffffffffffffffffffffffffffffffffffff021916905550600101620002aa565b5090565b90565b611b9580620002f96000396000f300606060405260043610610133576000357c0100000000000000000000000000000000000000000000000000000000900463ffffffff1680632c4e722e1461013e5780632ec2c246146101675780633197cbb6146101a0578063326fd584146101dd5780633f4ba83a146102065780634042b66f1461021b57806346c092b2146102445780634783c35b146102915780635a16c310146102e65780635c975abb146103335780636d705ebb1461036057806378e97925146103a25780638456cb59146103df5780638bbb9fca146103f45780638da5cb5b1461042257806390135fec14610477578063927c4151146104a4578063ad1def42146104dd578063eb5a458e1461052e578063f2fde38b14610588578063fbfa77cf146105c1578063fc0c546a14610616578063ffc52a1f1461066b575b61013c33610705565b005b341561014957600080fd5b610151610b40565b6040518082815260200191505060405180910390f35b341561017257600080fd5b61019e600480803573ffffffffffffffffffffffffffffffffffffffff16906020019091905050610b46565b005b34156101ab57600080fd5b6101b3610cde565b604051808267ffffffffffffffff1667ffffffffffffffff16815260200191505060405180910390f35b34156101e857600080fd5b6101f0610cf8565b6040518082815260200191505060405180910390f35b341561021157600080fd5b610219610cfe565b005b341561022657600080fd5b61022e610dbc565b6040518082815260200191505060405180910390f35b341561024f57600080fd5b61027b600480803573ffffffffffffffffffffffffffffffffffffffff16906020019091905050610dc2565b6040518082815260200191505060405180910390f35b341561029c57600080fd5b6102a4610dda565b604051808273ffffffffffffffffffffffffffffffffffffffff1673ffffffffffffffffffffffffffffffffffffffff16815260200191505060405180910390f35b34156102f157600080fd5b61031d600480803573ffffffffffffffffffffffffffffffffffffffff16906020019091905050610e00565b6040518082815260200191505060405180910390f35b341561033e57600080fd5b610346610e18565b604051808215151515815260200191505060405180910390f35b341561036b57600080fd5b6103a0600480803573ffffffffffffffffffffffffffffffffffffffff16906020019091908035906020019091905050610e2b565b005b34156103ad57600080fd5b6103b5611000565b604051808267ffffffffffffffff1667ffffffffffffffff16815260200191505060405180910390f35b34156103ea57600080fd5b6103f261101a565b005b610420600480803573ffffffffffffffffffffffffffffffffffffffff16906020019091905050610705565b005b341561042d57600080fd5b6104356110da565b604051808273ffffffffffffffffffffffffffffffffffffffff1673ffffffffffffffffffffffffffffffffffffffff16815260200191505060405180910390f35b341561048257600080fd5b61048a6110ff565b604051808215151515815260200191505060405180910390f35b34156104af57600080fd5b6104db600480803573ffffffffffffffffffffffffffffffffffffffff1690602001909190505061110d565b005b34156104e857600080fd5b610514600480803573ffffffffffffffffffffffffffffffffffffffff1690602001909190505061117d565b604051808215151515815260200191505060405180910390f35b341561053957600080fd5b61058660048080359060200190820180359060200190808060200260200160405190810160405280939291908181526020018383602002808284378201915050505050509190505061119d565b005b341561059357600080fd5b6105bf600480803573ffffffffffffffffffffffffffffffffffffffff169060200190919050506113ad565b005b34156105cc57600080fd5b6105d4611487565b604051808273ffffffffffffffffffffffffffffffffffffffff1673ffffffffffffffffffffffffffffffffffffffff16815260200191505060405180910390f35b341561062157600080fd5b6106296114ad565b604051808273ffffffffffffffffffffffffffffffffffffffff1673ffffffffffffffffffffffffffffffffffffffff16815260200191505060405180910390f35b341561067657600080fd5b610703600480803590602001908201803590602001908080602002602001604051908101604052809392919081815260200183836020028082843782019150505050505091908035906020019082018035906020019080806020026020016040519081016040528093929190818152602001838360200280828437820191505050505050919050506114d3565b005b60008060008060008086600160008273ffffffffffffffffffffffffffffffffffffffff1673ffffffffffffffffffffffffffffffffffffffff16815260200190815260200160002060009054906101000a900460ff16151561076757600080fd5b600060149054906101000a900460ff1615151561078357600080fd5b60008873ffffffffffffffffffffffffffffffffffffffff16141515156107a957600080fd5b6107b1611750565b15156107bc57600080fd5b600260008973ffffffffffffffffffffffffffffffffffffffff1673ffffffffffffffffffffffffffffffffffffffff16815260200190815260200160002054965060008711151561080d57600080fd5b349550610859600b60008a73ffffffffffffffffffffffffffffffffffffffff1673ffffffffffffffffffffffffffffffffffffffff16815260200190815260200160002054876117cf565b9450868511156108b3576108ac87600b60008b73ffffffffffffffffffffffffffffffffffffffff1673ffffffffffffffffffffffffffffffffffffffff168152602001908152602001600020546117ed565b93506108b7565b8593505b6000841115156108c657600080fd5b8386101515156108d557600080fd5b6108e184600754611806565b92506108ed86856117ed565b91506108fb600854856117cf565b60088190555061094a600b60008a73ffffffffffffffffffffffffffffffffffffffff1673ffffffffffffffffffffffffffffffffffffffff16815260200190815260200160002054856117cf565b600b60008a73ffffffffffffffffffffffffffffffffffffffff1673ffffffffffffffffffffffffffffffffffffffff16815260200190815260200160002081905550600360009054906101000a900473ffffffffffffffffffffffffffffffffffffffff1673ffffffffffffffffffffffffffffffffffffffff1663827f32c089856000604051602001526040518363ffffffff167c0100000000000000000000000000000000000000000000000000000000028152600401808373ffffffffffffffffffffffffffffffffffffffff1673ffffffffffffffffffffffffffffffffffffffff16815260200182815260200192505050602060405180830381600087803b1515610a5a57600080fd5b6102c65a03f11515610a6b57600080fd5b50505060405180519050506000821115610ac0573373ffffffffffffffffffffffffffffffffffffffff166108fc839081150290604051600060405180830381858888f193505050501515610abf57600080fd5b5b610ac984611839565b8773ffffffffffffffffffffffffffffffffffffffff163373ffffffffffffffffffffffffffffffffffffffff167f892886e12c91004a98b529d090d33b1fbcd7f0a2c7179a18ff621623d7979c208686604051808381526020018281526020019250505060405180910390a35050505050505050565b60075481565b6000809054906101000a900473ffffffffffffffffffffffffffffffffffffffff1673ffffffffffffffffffffffffffffffffffffffff163373ffffffffffffffffffffffffffffffffffffffff16141515610ba157600080fd5b80600160008273ffffffffffffffffffffffffffffffffffffffff1673ffffffffffffffffffffffffffffffffffffffff16815260200190815260200160002060009054906101000a900460ff161515610bfa57600080fd5b6000600160008473ffffffffffffffffffffffffffffffffffffffff1673ffffffffffffffffffffffffffffffffffffffff16815260200190815260200160002060006101000a81548160ff0219169083151502179055506000600260008473ffffffffffffffffffffffffffffffffffffffff1673ffffffffffffffffffffffffffffffffffffffff168152602001908152602001600020819055508173ffffffffffffffffffffffffffffffffffffffff167f75cd6de711483e11488a1cd9b66172abccb9e5c19572f92015a7880f0c8c0edc60405160405180910390a25050565b600a60089054906101000a900467ffffffffffffffff1681565b60095481565b6000809054906101000a900473ffffffffffffffffffffffffffffffffffffffff1673ffffffffffffffffffffffffffffffffffffffff163373ffffffffffffffffffffffffffffffffffffffff16141515610d5957600080fd5b600060149054906101000a900460ff161515610d7457600080fd5b60008060146101000a81548160ff0219169083151502179055507f7805862f689e2f13df9f062ff482ad3ad112aca9e0847911ed832e158c525b3360405160405180910390a1565b60085481565b60026020528060005260406000206000915090505481565b600560009054906101000a900473ffffffffffffffffffffffffffffffffffffffff1681565b600b6020528060005260406000206000915090505481565b600060149054906101000a900460ff1681565b6000809054906101000a900473ffffffffffffffffffffffffffffffffffffffff1673ffffffffffffffffffffffffffffffffffffffff163373ffffffffffffffffffffffffffffffffffffffff16141515610e8657600080fd5b600073ffffffffffffffffffffffffffffffffffffffff168273ffffffffffffffffffffffffffffffffffffffff1614158015610f13575060001515600160008473ffffffffffffffffffffffffffffffffffffffff1673ffffffffffffffffffffffffffffffffffffffff16815260200190815260200160002060009054906101000a900460ff161515145b1515610f1e57600080fd5b60018060008473ffffffffffffffffffffffffffffffffffffffff1673ffffffffffffffffffffffffffffffffffffffff16815260200190815260200160002060006101000a81548160ff02191690831515021790555080600260008473ffffffffffffffffffffffffffffffffffffffff1673ffffffffffffffffffffffffffffffffffffffff168152602001908152602001600020819055508173ffffffffffffffffffffffffffffffffffffffff167f2d3734a8e47ac8316e500ac231c90a6e1848ca2285f40d07eaa52005e4b3a0e960405160405180910390a25050565b600a60009054906101000a900467ffffffffffffffff1681565b6000809054906101000a900473ffffffffffffffffffffffffffffffffffffffff1673ffffffffffffffffffffffffffffffffffffffff163373ffffffffffffffffffffffffffffffffffffffff1614151561107557600080fd5b600060149054906101000a900460ff1615151561109157600080fd5b6001600060146101000a81548160ff0219169083151502179055507f6985a02210a168e66602d3235cb6db0e70f92b3ba4d376a33c0f3d9434bff62560405160405180910390a1565b6000809054906101000a900473ffffffffffffffffffffffffffffffffffffffff1681565b600060095460085414905090565b6000809054906101000a900473ffffffffffffffffffffffffffffffffffffffff1673ffffffffffffffffffffffffffffffffffffffff163373ffffffffffffffffffffffffffffffffffffffff1614151561116857600080fd5b6111718161190d565b61117a81611a3b565b50565b60016020528060005260406000206000915054906101000a900460ff1681565b60008060009054906101000a900473ffffffffffffffffffffffffffffffffffffffff1673ffffffffffffffffffffffffffffffffffffffff163373ffffffffffffffffffffffffffffffffffffffff161415156111fa57600080fd5b600090505b81518110156113a95760016000838381518110151561121a57fe5b9060200190602002015173ffffffffffffffffffffffffffffffffffffffff1673ffffffffffffffffffffffffffffffffffffffff16815260200190815260200160002060009054906101000a900460ff16151561127757600080fd5b600060016000848481518110151561128b57fe5b9060200190602002015173ffffffffffffffffffffffffffffffffffffffff1673ffffffffffffffffffffffffffffffffffffffff16815260200190815260200160002060006101000a81548160ff02191690831515021790555060006002600084848151811015156112fa57fe5b9060200190602002015173ffffffffffffffffffffffffffffffffffffffff1673ffffffffffffffffffffffffffffffffffffffff16815260200190815260200160002081905550818181518110151561135057fe5b9060200190602002015173ffffffffffffffffffffffffffffffffffffffff167f75cd6de711483e11488a1cd9b66172abccb9e5c19572f92015a7880f0c8c0edc60405160405180910390a280806001019150506111ff565b5050565b6000809054906101000a900473ffffffffffffffffffffffffffffffffffffffff1673ffffffffffffffffffffffffffffffffffffffff163373ffffffffffffffffffffffffffffffffffffffff1614151561140857600080fd5b600073ffffffffffffffffffffffffffffffffffffffff168173ffffffffffffffffffffffffffffffffffffffff161415151561144457600080fd5b806000806101000a81548173ffffffffffffffffffffffffffffffffffffffff021916908373ffffffffffffffffffffffffffffffffffffffff16021790555050565b600460009054906101000a900473ffffffffffffffffffffffffffffffffffffffff1681565b600360009054906101000a900473ffffffffffffffffffffffffffffffffffffffff1681565b60008060009054906101000a900473ffffffffffffffffffffffffffffffffffffffff1673ffffffffffffffffffffffffffffffffffffffff163373ffffffffffffffffffffffffffffffffffffffff1614151561153057600080fd5b600090505b825181101561174b57600073ffffffffffffffffffffffffffffffffffffffff16838281518110151561156457fe5b9060200190602002015173ffffffffffffffffffffffffffffffffffffffff16141580156115f95750600015156001600085848151811015156115a357fe5b9060200190602002015173ffffffffffffffffffffffffffffffffffffffff1673ffffffffffffffffffffffffffffffffffffffff16815260200190815260200160002060009054906101000a900460ff161515145b151561160457600080fd5b6001806000858481518110151561161757fe5b9060200190602002015173ffffffffffffffffffffffffffffffffffffffff1673ffffffffffffffffffffffffffffffffffffffff16815260200190815260200160002060006101000a81548160ff021916908315150217905550818181518110151561168057fe5b9060200190602002015160026000858481518110151561169c57fe5b9060200190602002015173ffffffffffffffffffffffffffffffffffffffff1673ffffffffffffffffffffffffffffffffffffffff1681526020019081526020016000208190555082818151811015156116f257fe5b9060200190602002015173ffffffffffffffffffffffffffffffffffffffff167f2d3734a8e47ac8316e500ac231c90a6e1848ca2285f40d07eaa52005e4b3a0e960405160405180910390a28080600101915050611535565b505050565b6000806000803414159150600a60009054906101000a900467ffffffffffffffff1667ffffffffffffffff1642101580156117ab5750600a60089054906101000a900467ffffffffffffffff1667ffffffffffffffff164211155b90508180156117bf57506117bd6110ff565b155b80156117c85750805b9250505090565b60008082840190508381101515156117e357fe5b8091505092915050565b60008282111515156117fb57fe5b818303905092915050565b60008082840290506000841480611827575082848281151561182457fe5b04145b151561182f57fe5b8091505092915050565b600460009054906101000a900473ffffffffffffffffffffffffffffffffffffffff1673ffffffffffffffffffffffffffffffffffffffff1663f340fa0182336040518363ffffffff167c0100000000000000000000000000000000000000000000000000000000028152600401808273ffffffffffffffffffffffffffffffffffffffff1673ffffffffffffffffffffffffffffffffffffffff1681526020019150506000604051808303818588803b15156118f557600080fd5b6125ee5a03f1151561190657600080fd5b5050505050565b6000809054906101000a900473ffffffffffffffffffffffffffffffffffffffff1673ffffffffffffffffffffffffffffffffffffffff163373ffffffffffffffffffffffffffffffffffffffff1614151561196857600080fd5b600360009054906101000a900473ffffffffffffffffffffffffffffffffffffffff1673ffffffffffffffffffffffffffffffffffffffff16633cebb823826040518263ffffffff167c0100000000000000000000000000000000000000000000000000000000028152600401808273ffffffffffffffffffffffffffffffffffffffff1673ffffffffffffffffffffffffffffffffffffffff168152602001915050600060405180830381600087803b1515611a2457600080fd5b6102c65a03f11515611a3557600080fd5b50505050565b6000809054906101000a900473ffffffffffffffffffffffffffffffffffffffff1673ffffffffffffffffffffffffffffffffffffffff163373ffffffffffffffffffffffffffffffffffffffff16141515611a9657600080fd5b600460009054906101000a900473ffffffffffffffffffffffffffffffffffffffff1673ffffffffffffffffffffffffffffffffffffffff1663f2fde38b826040518263ffffffff167c0100000000000000000000000000000000000000000000000000000000028152600401808273ffffffffffffffffffffffffffffffffffffffff1673ffffffffffffffffffffffffffffffffffffffff168152602001915050600060405180830381600087803b1515611b5257600080fd5b6102c65a03f11515611b6357600080fd5b505050505600a165627a7a723058205806955758c75c9d0a245929ba702c96726b7bb42bd2d12576499f45ad104a100029",
  "source": "pragma solidity ^0.4.18;\n\nimport './crowdsale/RefundVault.sol';\nimport './kyc/PresaleKYC.sol';\nimport './wallet/MultiSigWallet.sol';\nimport './AST.sol';\nimport './lifecycle/Pausable.sol';\n\ncontract ASTPresale is Pausable, PresaleKYC {\n  AST public token;\n  RefundVault public vault;\n  MultiSigWallet public multisig;\n\n  address[] reserveWallet;\n\n  uint256 public rate;\n  uint256 public weiRaised;\n  uint256 public maxEtherCap;\n  uint64 public startTime;\n  uint64 public endTime;\n\n  mapping (address => uint256) public buyerFunded;\n\n  event PresaleTokenPurchase(address indexed buyer, address indexed beneficiary, uint256 toFund, uint256 tokens);\n\n  function ASTPresale(\n    address _token,\n    address _vault,\n    address _multisig,\n    address[] _reserveWallet,\n    uint64 _startTime,\n    uint64 _endTime,\n    uint256 _maxEtherCap,\n    uint256 _rate\n    ) {\n      token = AST(_token);\n      vault = RefundVault(_vault);\n      multisig = MultiSigWallet(_multisig);\n      reserveWallet = _reserveWallet;\n      startTime = _startTime;\n      endTime = _endTime;\n      maxEtherCap = _maxEtherCap;\n      rate = _rate;\n    }\n  function () payable {\n    buyPresale(msg.sender);\n  }\n\n  function buyPresale(address beneficiary)\n    payable\n    onlyRegistered(beneficiary)\n    whenNotPaused\n  {\n    // check validity\n    require(beneficiary != 0x00);\n    require(validPurchase());\n    uint guaranteedLimit = presaleGuaranteedLimit[beneficiary];\n    require(guaranteedLimit > 0);\n\n    // calculate eth amount\n    uint256 weiAmount = msg.value;\n    uint256 totalAmount = add(buyerFunded[beneficiary], weiAmount);\n\n    uint256 toFund;\n    if (totalAmount > guaranteedLimit) {\n      toFund = sub(guaranteedLimit, buyerFunded[beneficiary]);\n    } else {\n      toFund = weiAmount;\n    }\n\n    require(toFund > 0);\n    require(weiAmount >= toFund);\n\n    uint256 tokens = mul(toFund, rate);\n    uint256 toReturn = sub(weiAmount, toFund);\n\n    weiRaised = add(weiRaised, toFund);\n    buyerFunded[beneficiary] = add(buyerFunded[beneficiary], toFund);\n\n    token.generateTokens(beneficiary, tokens);\n\n    if (toReturn > 0) {\n      msg.sender.transfer(toReturn);\n    }\n    forwardFunds(toFund);\n    PresaleTokenPurchase(msg.sender, beneficiary, toFund, tokens);\n  }\n\n  function validPurchase() internal constant returns (bool) {\n    bool nonZeroPurchase = msg.value != 0;\n    bool validTime = now >= startTime && now <= endTime;\n    return nonZeroPurchase && !maxReached() && validTime;\n  }\n\n  /**\n   * @dev Checks whether maxEtherCap is reached\n   * @return true if max ether cap is reaced\n   */\n  function maxReached() public constant returns (bool) {\n    return weiRaised == maxEtherCap;\n  }\n\n  function forwardFunds(uint256 toFund) internal {\n    vault.deposit.value(toFund)(msg.sender);\n  }\n\n  function finalizePresale(\n    address newOwner\n    ) onlyOwner {\n    changeTokenController(newOwner);\n    changeVaultOwner(newOwner);\n  }\n  function changeTokenController(address newOwner) onlyOwner internal {\n    token.changeController(newOwner);\n  }\n  function changeVaultOwner(address newOwner) onlyOwner internal {\n    vault.transferOwnership(newOwner);\n  }\n}\n",
  "sourcePath": "/Users/midinpa/workspace/dapps/aston-crowdsale/contracts/ASTPresale.sol",
  "compiler": {
    "name": "solc",
    "version": "0.4.18+commit.9cf6e910.Emscripten.clang"
  },
  "schemaVersion": "1.0.1",
  "updatedAt": "2017-11-14T11:48:36.811Z"
}