{
  "contractName": "ATCCrowdSale",
  "abi": [
    {
      "constant": true,
      "inputs": [],
      "name": "reserverLocker",
      "outputs": [
        {
          "name": "",
          "type": "address"
        }
      ],
      "payable": false,
      "stateMutability": "view",
      "type": "function"
    },
    {
      "constant": true,
      "inputs": [],
      "name": "baseRate",
      "outputs": [
        {
          "name": "",
          "type": "uint256"
        }
      ],
      "payable": false,
      "stateMutability": "view",
      "type": "function"
    },
    {
      "constant": true,
      "inputs": [
        {
          "name": "",
          "type": "uint256"
        }
      ],
      "name": "additionalBonusAmounts",
      "outputs": [
        {
          "name": "",
          "type": "uint256"
        }
      ],
      "payable": false,
      "stateMutability": "view",
      "type": "function"
    },
    {
      "constant": false,
      "inputs": [],
      "name": "onSale",
      "outputs": [
        {
          "name": "",
          "type": "bool"
        }
      ],
      "payable": false,
      "stateMutability": "nonpayable",
      "type": "function"
    },
    {
      "constant": true,
      "inputs": [],
      "name": "maxEtherCap",
      "outputs": [
        {
          "name": "",
          "type": "uint256"
        }
      ],
      "payable": false,
      "stateMutability": "view",
      "type": "function"
    },
    {
      "constant": false,
      "inputs": [],
      "name": "unpause",
      "outputs": [],
      "payable": false,
      "stateMutability": "nonpayable",
      "type": "function"
    },
    {
      "constant": true,
      "inputs": [],
      "name": "weiRaised",
      "outputs": [
        {
          "name": "",
          "type": "uint256"
        }
      ],
      "payable": false,
      "stateMutability": "view",
      "type": "function"
    },
    {
      "constant": false,
      "inputs": [],
      "name": "finalize",
      "outputs": [],
      "payable": false,
      "stateMutability": "nonpayable",
      "type": "function"
    },
    {
      "constant": true,
      "inputs": [],
      "name": "presaleFallBackCalled",
      "outputs": [
        {
          "name": "",
          "type": "bool"
        }
      ],
      "payable": false,
      "stateMutability": "view",
      "type": "function"
    },
    {
      "constant": true,
      "inputs": [],
      "name": "paused",
      "outputs": [
        {
          "name": "",
          "type": "bool"
        }
      ],
      "payable": false,
      "stateMutability": "view",
      "type": "function"
    },
    {
      "constant": true,
      "inputs": [],
      "name": "partnersAddress",
      "outputs": [
        {
          "name": "",
          "type": "address"
        }
      ],
      "payable": false,
      "stateMutability": "view",
      "type": "function"
    },
    {
      "constant": true,
      "inputs": [],
      "name": "minEtherCap",
      "outputs": [
        {
          "name": "",
          "type": "uint256"
        }
      ],
      "payable": false,
      "stateMutability": "view",
      "type": "function"
    },
    {
      "constant": true,
      "inputs": [],
      "name": "teamLocker",
      "outputs": [
        {
          "name": "",
          "type": "address"
        }
      ],
      "payable": false,
      "stateMutability": "view",
      "type": "function"
    },
    {
      "constant": false,
      "inputs": [],
      "name": "pause",
      "outputs": [],
      "payable": false,
      "stateMutability": "nonpayable",
      "type": "function"
    },
    {
      "constant": true,
      "inputs": [],
      "name": "isFinalized",
      "outputs": [
        {
          "name": "",
          "type": "bool"
        }
      ],
      "payable": false,
      "stateMutability": "view",
      "type": "function"
    },
    {
      "constant": true,
      "inputs": [],
      "name": "owner",
      "outputs": [
        {
          "name": "",
          "type": "address"
        }
      ],
      "payable": false,
      "stateMutability": "view",
      "type": "function"
    },
    {
      "constant": true,
      "inputs": [],
      "name": "MAX_PERIOD_COUNT",
      "outputs": [
        {
          "name": "",
          "type": "uint8"
        }
      ],
      "payable": false,
      "stateMutability": "view",
      "type": "function"
    },
    {
      "constant": true,
      "inputs": [],
      "name": "maxReached",
      "outputs": [
        {
          "name": "",
          "type": "bool"
        }
      ],
      "payable": false,
      "stateMutability": "view",
      "type": "function"
    },
    {
      "constant": true,
      "inputs": [],
      "name": "kyc",
      "outputs": [
        {
          "name": "",
          "type": "address"
        }
      ],
      "payable": false,
      "stateMutability": "view",
      "type": "function"
    },
    {
      "constant": true,
      "inputs": [],
      "name": "ATCController",
      "outputs": [
        {
          "name": "",
          "type": "address"
        }
      ],
      "payable": false,
      "stateMutability": "view",
      "type": "function"
    },
    {
      "constant": true,
      "inputs": [],
      "name": "refundCompleted",
      "outputs": [
        {
          "name": "",
          "type": "uint256"
        }
      ],
      "payable": false,
      "stateMutability": "view",
      "type": "function"
    },
    {
      "constant": true,
      "inputs": [
        {
          "name": "",
          "type": "address"
        }
      ],
      "name": "beneficiaryFunded",
      "outputs": [
        {
          "name": "",
          "type": "uint256"
        }
      ],
      "payable": false,
      "stateMutability": "view",
      "type": "function"
    },
    {
      "constant": false,
      "inputs": [
        {
          "name": "_presaleWeiRaised",
          "type": "uint256"
        }
      ],
      "name": "presaleFallBack",
      "outputs": [
        {
          "name": "",
          "type": "bool"
        }
      ],
      "payable": false,
      "stateMutability": "nonpayable",
      "type": "function"
    },
    {
      "constant": true,
      "inputs": [],
      "name": "minReached",
      "outputs": [
        {
          "name": "",
          "type": "bool"
        }
      ],
      "payable": false,
      "stateMutability": "view",
      "type": "function"
    },
    {
      "constant": false,
      "inputs": [
        {
          "name": "investor",
          "type": "address"
        }
      ],
      "name": "claimRefund",
      "outputs": [
        {
          "name": "",
          "type": "bool"
        }
      ],
      "payable": false,
      "stateMutability": "nonpayable",
      "type": "function"
    },
    {
      "constant": true,
      "inputs": [],
      "name": "bountyAddress",
      "outputs": [
        {
          "name": "",
          "type": "address"
        }
      ],
      "payable": false,
      "stateMutability": "view",
      "type": "function"
    },
    {
      "constant": false,
      "inputs": [
        {
          "name": "_claimToken",
          "type": "address"
        }
      ],
      "name": "claimTokens",
      "outputs": [],
      "payable": false,
      "stateMutability": "nonpayable",
      "type": "function"
    },
    {
      "constant": true,
      "inputs": [],
      "name": "getPeriodBonus",
      "outputs": [
        {
          "name": "",
          "type": "uint256"
        }
      ],
      "payable": false,
      "stateMutability": "view",
      "type": "function"
    },
    {
      "constant": false,
      "inputs": [
        {
          "name": "_startTime",
          "type": "uint64"
        },
        {
          "name": "_endTime",
          "type": "uint64"
        }
      ],
      "name": "startPeriod",
      "outputs": [
        {
          "name": "",
          "type": "bool"
        }
      ],
      "payable": false,
      "stateMutability": "nonpayable",
      "type": "function"
    },
    {
      "constant": false,
      "inputs": [
        {
          "name": "numToRefund",
          "type": "uint256"
        }
      ],
      "name": "refundAll",
      "outputs": [],
      "payable": false,
      "stateMutability": "nonpayable",
      "type": "function"
    },
    {
      "constant": true,
      "inputs": [
        {
          "name": "",
          "type": "uint256"
        }
      ],
      "name": "periods",
      "outputs": [
        {
          "name": "startTime",
          "type": "uint64"
        },
        {
          "name": "endTime",
          "type": "uint64"
        },
        {
          "name": "bonus",
          "type": "uint256"
        }
      ],
      "payable": false,
      "stateMutability": "view",
      "type": "function"
    },
    {
      "constant": false,
      "inputs": [
        {
          "name": "beneficiary",
          "type": "address"
        }
      ],
      "name": "buy",
      "outputs": [],
      "payable": true,
      "stateMutability": "payable",
      "type": "function"
    },
    {
      "constant": false,
      "inputs": [
        {
          "name": "newOwner",
          "type": "address"
        }
      ],
      "name": "transferOwnership",
      "outputs": [],
      "payable": false,
      "stateMutability": "nonpayable",
      "type": "function"
    },
    {
      "constant": true,
      "inputs": [],
      "name": "vault",
      "outputs": [
        {
          "name": "",
          "type": "address"
        }
      ],
      "payable": false,
      "stateMutability": "view",
      "type": "function"
    },
    {
      "constant": true,
      "inputs": [],
      "name": "token",
      "outputs": [
        {
          "name": "",
          "type": "address"
        }
      ],
      "payable": false,
      "stateMutability": "view",
      "type": "function"
    },
    {
      "constant": true,
      "inputs": [],
      "name": "presale",
      "outputs": [
        {
          "name": "",
          "type": "address"
        }
      ],
      "payable": false,
      "stateMutability": "view",
      "type": "function"
    },
    {
      "inputs": [
        {
          "name": "_kyc",
          "type": "address"
        },
        {
          "name": "_token",
          "type": "address"
        },
        {
          "name": "_vault",
          "type": "address"
        },
        {
          "name": "_presale",
          "type": "address"
        },
        {
          "name": "_bountyAddress",
          "type": "address"
        },
        {
          "name": "_partnersAddress",
          "type": "address"
        },
        {
          "name": "_reserverLocker",
          "type": "address"
        },
        {
          "name": "_teamLocker",
          "type": "address"
        },
        {
          "name": "_tokenController",
          "type": "address"
        },
        {
          "name": "_maxEtherCap",
          "type": "uint256"
        },
        {
          "name": "_minEtherCap",
          "type": "uint256"
        },
        {
          "name": "_baseRate",
          "type": "uint256"
        },
        {
          "name": "_additionalBonusAmounts",
          "type": "uint256[]"
        }
      ],
      "payable": false,
      "stateMutability": "nonpayable",
      "type": "constructor"
    },
    {
      "payable": true,
      "stateMutability": "payable",
      "type": "fallback"
    },
    {
      "anonymous": false,
      "inputs": [
        {
          "indexed": true,
          "name": "_investor",
          "type": "address"
        },
        {
          "indexed": true,
          "name": "_beneficiary",
          "type": "address"
        },
        {
          "indexed": false,
          "name": "_toFund",
          "type": "uint256"
        },
        {
          "indexed": false,
          "name": "_tokens",
          "type": "uint256"
        }
      ],
      "name": "CrowdSaleTokenPurchase",
      "type": "event"
    },
    {
      "anonymous": false,
      "inputs": [
        {
          "indexed": false,
          "name": "_startTime",
          "type": "uint64"
        },
        {
          "indexed": false,
          "name": "_endTime",
          "type": "uint64"
        },
        {
          "indexed": false,
          "name": "_bonus",
          "type": "uint256"
        }
      ],
      "name": "StartPeriod",
      "type": "event"
    },
    {
      "anonymous": false,
      "inputs": [],
      "name": "Finalized",
      "type": "event"
    },
    {
      "anonymous": false,
      "inputs": [
        {
          "indexed": false,
          "name": "_presaleWeiRaised",
          "type": "uint256"
        }
      ],
      "name": "PresaleFallBack",
      "type": "event"
    },
    {
      "anonymous": false,
      "inputs": [
        {
          "indexed": false,
          "name": "_investor",
          "type": "address"
        }
      ],
      "name": "PushInvestorList",
      "type": "event"
    },
    {
      "anonymous": false,
      "inputs": [
        {
          "indexed": false,
          "name": "_numToRefund",
          "type": "uint256"
        }
      ],
      "name": "RefundAll",
      "type": "event"
    },
    {
      "anonymous": false,
      "inputs": [
        {
          "indexed": false,
          "name": "_claimToken",
          "type": "address"
        },
        {
          "indexed": false,
          "name": "owner",
          "type": "address"
        },
        {
          "indexed": false,
          "name": "balance",
          "type": "uint256"
        }
      ],
      "name": "ClaimedTokens",
      "type": "event"
    },
    {
      "anonymous": false,
      "inputs": [],
      "name": "Pause",
      "type": "event"
    },
    {
      "anonymous": false,
      "inputs": [],
      "name": "Unpause",
      "type": "event"
    }
  ],
  "bytecode": "0x606060405260008060146101000a81548160ff02191690831515021790555034156200002a57600080fd5b6040516200369738038062003697833981016040528080519060200190919080519060200190919080519060200190919080519060200190919080519060200190919080519060200190919080519060200190919080519060200190919080519060200190919080519060200190919080519060200190919080519060200190919080518201919050506000336000806101000a81548173ffffffffffffffffffffffffffffffffffffffff021916908373ffffffffffffffffffffffffffffffffffffffff16021790555060008e73ffffffffffffffffffffffffffffffffffffffff161415801562000135575060008d73ffffffffffffffffffffffffffffffffffffffff1614155b801562000159575060008c73ffffffffffffffffffffffffffffffffffffffff1614155b80156200017d575060008b73ffffffffffffffffffffffffffffffffffffffff1614155b15156200018957600080fd5b60008a73ffffffffffffffffffffffffffffffffffffffff1614158015620001c8575060008973ffffffffffffffffffffffffffffffffffffffff1614155b1515620001d457600080fd5b60008873ffffffffffffffffffffffffffffffffffffffff161415801562000213575060008773ffffffffffffffffffffffffffffffffffffffff1614155b15156200021f57600080fd5b60008673ffffffffffffffffffffffffffffffffffffffff16141515156200024657600080fd5b8360001080156200025657508484105b15156200026257600080fd5b6000831115156200027257600080fd5b60008260008151811015156200028457fe5b906020019060200201511115156200029b57600080fd5b600090505b6001825103811015620002fd578160018201815181101515620002bf57fe5b906020019060200201518282815181101515620002d857fe5b90602001906020020151101515620002ef57600080fd5b8080600101915050620002a0565b8d600160006101000a81548173ffffffffffffffffffffffffffffffffffffffff021916908373ffffffffffffffffffffffffffffffffffffffff1602179055508c600260006101000a81548173ffffffffffffffffffffffffffffffffffffffff021916908373ffffffffffffffffffffffffffffffffffffffff1602179055508b600360006101000a81548173ffffffffffffffffffffffffffffffffffffffff021916908373ffffffffffffffffffffffffffffffffffffffff1602179055508a600460006101000a81548173ffffffffffffffffffffffffffffffffffffffff021916908373ffffffffffffffffffffffffffffffffffffffff16021790555089600560006101000a81548173ffffffffffffffffffffffffffffffffffffffff021916908373ffffffffffffffffffffffffffffffffffffffff16021790555088600660006101000a81548173ffffffffffffffffffffffffffffffffffffffff021916908373ffffffffffffffffffffffffffffffffffffffff16021790555087600760006101000a81548173ffffffffffffffffffffffffffffffffffffffff021916908373ffffffffffffffffffffffffffffffffffffffff16021790555086600860006101000a81548173ffffffffffffffffffffffffffffffffffffffff021916908373ffffffffffffffffffffffffffffffffffffffff16021790555085601260006101000a81548173ffffffffffffffffffffffffffffffffffffffff021916908373ffffffffffffffffffffffffffffffffffffffff16021790555084600d8190555083600e819055508260098190555081600a90805190602001906200057392919062000588565b50505050505050505050505050505062000602565b828054828255906000526020600020908101928215620005c7579160200282015b82811115620005c6578251825591602001919060010190620005a9565b5b509050620005d69190620005da565b5090565b620005ff91905b80821115620005fb576000816000905550600101620005e1565b5090565b90565b61308580620006126000396000f3006060604052600436106101c2576000357c0100000000000000000000000000000000000000000000000000000000900463ffffffff16806305d2a9d5146101cd5780631f68f20a146102225780632c0657c21461024b578063326687b914610282578063326fd584146102af5780633f4ba83a146102d85780634042b66f146102ed5780634bb278f314610316578063577890f61461032b5780635c975abb146103585780636a75f03d1461038557806377472b6f146103da57806380bc99cb146104035780638456cb59146104585780638d4e40831461046d5780638da5cb5b1461049a5780638e6a2afa146104ef57806390135fec1461051e57806390d6b45f1461054b578063a06aceb2146105a0578063a6ca322b146105f5578063a743fa501461061e578063ad2261221461066b578063af6f964d146106a6578063bffa55d5146106d3578063c516358f14610724578063df8de3e714610779578063e382c3e6146107b2578063e7d4eb76146107db578063e9fee16f14610833578063ea4a110414610856578063f088d547146108c3578063f2fde38b146108f1578063fbfa77cf1461092a578063fc0c546a1461097f578063fdea8e0b146109d4575b6101cb33610a29565b005b34156101d857600080fd5b6101e0610ed7565b604051808273ffffffffffffffffffffffffffffffffffffffff1673ffffffffffffffffffffffffffffffffffffffff16815260200191505060405180910390f35b341561022d57600080fd5b610235610efd565b6040518082815260200191505060405180910390f35b341561025657600080fd5b61026c6004808035906020019091905050610f03565b6040518082815260200191505060405180910390f35b341561028d57600080fd5b610295610f27565b604051808215151515815260200191505060405180910390f35b34156102ba57600080fd5b6102c2610fec565b6040518082815260200191505060405180910390f35b34156102e357600080fd5b6102eb610ff2565b005b34156102f857600080fd5b6103006110b0565b6040518082815260200191505060405180910390f35b341561032157600080fd5b6103296110b6565b005b341561033657600080fd5b61033e6111a1565b604051808215151515815260200191505060405180910390f35b341561036357600080fd5b61036b6111b4565b604051808215151515815260200191505060405180910390f35b341561039057600080fd5b6103986111c7565b604051808273ffffffffffffffffffffffffffffffffffffffff1673ffffffffffffffffffffffffffffffffffffffff16815260200191505060405180910390f35b34156103e557600080fd5b6103ed6111ed565b6040518082815260200191505060405180910390f35b341561040e57600080fd5b6104166111f3565b604051808273ffffffffffffffffffffffffffffffffffffffff1673ffffffffffffffffffffffffffffffffffffffff16815260200191505060405180910390f35b341561046357600080fd5b61046b611219565b005b341561047857600080fd5b6104806112d9565b604051808215151515815260200191505060405180910390f35b34156104a557600080fd5b6104ad6112ec565b604051808273ffffffffffffffffffffffffffffffffffffffff1673ffffffffffffffffffffffffffffffffffffffff16815260200191505060405180910390f35b34156104fa57600080fd5b610502611311565b604051808260ff1660ff16815260200191505060405180910390f35b341561052957600080fd5b610531611316565b604051808215151515815260200191505060405180910390f35b341561055657600080fd5b61055e611324565b604051808273ffffffffffffffffffffffffffffffffffffffff1673ffffffffffffffffffffffffffffffffffffffff16815260200191505060405180910390f35b34156105ab57600080fd5b6105b361134a565b604051808273ffffffffffffffffffffffffffffffffffffffff1673ffffffffffffffffffffffffffffffffffffffff16815260200191505060405180910390f35b341561060057600080fd5b610608611370565b6040518082815260200191505060405180910390f35b341561062957600080fd5b610655600480803573ffffffffffffffffffffffffffffffffffffffff16906020019091905050611376565b6040518082815260200191505060405180910390f35b341561067657600080fd5b61068c600480803590602001909190505061138e565b604051808215151515815260200191505060405180910390f35b34156106b157600080fd5b6106b961146a565b604051808215151515815260200191505060405180910390f35b34156106de57600080fd5b61070a600480803573ffffffffffffffffffffffffffffffffffffffff16906020019091905050611479565b604051808215151515815260200191505060405180910390f35b341561072f57600080fd5b610737611591565b604051808273ffffffffffffffffffffffffffffffffffffffff1673ffffffffffffffffffffffffffffffffffffffff16815260200191505060405180910390f35b341561078457600080fd5b6107b0600480803573ffffffffffffffffffffffffffffffffffffffff169060200190919050506115b7565b005b34156107bd57600080fd5b6107c5611acf565b6040518082815260200191505060405180910390f35b34156107e657600080fd5b610819600480803567ffffffffffffffff1690602001909190803567ffffffffffffffff16906020019091905050611bc6565b604051808215151515815260200191505060405180910390f35b341561083e57600080fd5b6108546004808035906020019091905050611eab565b005b341561086157600080fd5b61087760048080359060200190919050506120dd565b604051808467ffffffffffffffff1667ffffffffffffffff1681526020018367ffffffffffffffff1667ffffffffffffffff168152602001828152602001935050505060405180910390f35b6108ef600480803573ffffffffffffffffffffffffffffffffffffffff16906020019091905050610a29565b005b34156108fc57600080fd5b610928600480803573ffffffffffffffffffffffffffffffffffffffff1690602001909190505061213e565b005b341561093557600080fd5b61093d612218565b604051808273ffffffffffffffffffffffffffffffffffffffff1673ffffffffffffffffffffffffffffffffffffffff16815260200191505060405180910390f35b341561098a57600080fd5b61099261223e565b604051808273ffffffffffffffffffffffffffffffffffffffff1673ffffffffffffffffffffffffffffffffffffffff16815260200191505060405180910390f35b34156109df57600080fd5b6109e7612264565b604051808273ffffffffffffffffffffffffffffffffffffffff1673ffffffffffffffffffffffffffffffffffffffff16815260200191505060405180910390f35b60008060008060008060008060149054906101000a900460ff16151515610a4f57600080fd5b601460009054906101000a900460ff161515610a6a57600080fd5b60008873ffffffffffffffffffffffffffffffffffffffff1614151515610a9057600080fd5b600160009054906101000a900473ffffffffffffffffffffffffffffffffffffffff1673ffffffffffffffffffffffffffffffffffffffff1663ad1def42896000604051602001526040518263ffffffff167c0100000000000000000000000000000000000000000000000000000000028152600401808273ffffffffffffffffffffffffffffffffffffffff1673ffffffffffffffffffffffffffffffffffffffff168152602001915050602060405180830381600087803b1515610b5557600080fd5b6102c65a03f11515610b6657600080fd5b505050604051805190501515610b7b57600080fd5b610b83610f27565b1515610b8e57600080fd5b610b9661228a565b1515610ba157600080fd5b601260149054906101000a900460ff16151515610bbd57600080fd5b349650610c09600f60008a73ffffffffffffffffffffffffffffffffffffffff1673ffffffffffffffffffffffffffffffffffffffff16815260200190815260200160002054886122ac565b9550610c17600c54866122ac565b9350600d54841115610c3857610c31600d54600c546122ca565b9450610c3c565b8694505b600085111515610c4b57600080fd5b848710151515610c5a57600080fd5b610c63856122e3565b9250610c6f85846123ce565b9150610c7b87866122ca565b9050610c8633612401565b610c92600c54866122ac565b600c81905550610ce1600f60008a73ffffffffffffffffffffffffffffffffffffffff1673ffffffffffffffffffffffffffffffffffffffff16815260200190815260200160002054866122ac565b600f60008a73ffffffffffffffffffffffffffffffffffffffff1673ffffffffffffffffffffffffffffffffffffffff16815260200190815260200160002081905550600260009054906101000a900473ffffffffffffffffffffffffffffffffffffffff1673ffffffffffffffffffffffffffffffffffffffff1663827f32c089846000604051602001526040518363ffffffff167c0100000000000000000000000000000000000000000000000000000000028152600401808373ffffffffffffffffffffffffffffffffffffffff1673ffffffffffffffffffffffffffffffffffffffff16815260200182815260200192505050602060405180830381600087803b1515610df157600080fd5b6102c65a03f11515610e0257600080fd5b50505060405180519050506000811115610e57573373ffffffffffffffffffffffffffffffffffffffff166108fc829081150290604051600060405180830381858888f193505050501515610e5657600080fd5b5b610e6085612576565b8773ffffffffffffffffffffffffffffffffffffffff163373ffffffffffffffffffffffffffffffffffffffff167f33759ee1eaa9f87f4186d31caf548c4494b9cef9fa6a2805ef0efd615fb182ff8785604051808381526020018281526020019250505060405180910390a35050505050505050565b600760009054906101000a900473ffffffffffffffffffffffffffffffffffffffff1681565b60095481565b600a81815481101515610f1257fe5b90600052602060002090016000915090505481565b60008060008090505b600b80549050811015610fe45742600b82815481101515610f4d57fe5b906000526020600020906002020160000160009054906101000a900467ffffffffffffffff1667ffffffffffffffff1611158015610fc95750600b81815481101515610f9557fe5b906000526020600020906002020160000160089054906101000a900467ffffffffffffffff1667ffffffffffffffff164211155b15610fd75760019150610fe4565b8080600101915050610f30565b819250505090565b600d5481565b6000809054906101000a900473ffffffffffffffffffffffffffffffffffffffff1673ffffffffffffffffffffffffffffffffffffffff163373ffffffffffffffffffffffffffffffffffffffff1614151561104d57600080fd5b600060149054906101000a900460ff16151561106857600080fd5b60008060146101000a81548160ff0219169083151502179055507f7805862f689e2f13df9f062ff482ad3ad112aca9e0847911ed832e158c525b3360405160405180910390a1565b600c5481565b6000809054906101000a900473ffffffffffffffffffffffffffffffffffffffff1673ffffffffffffffffffffffffffffffffffffffff163373ffffffffffffffffffffffffffffffffffffffff1614151561111157600080fd5b601260149054906101000a900460ff1615151561112d57600080fd5b611135610f27565b15806111455750611144611316565b5b151561115057600080fd5b61115861264a565b7f6823b073d48d6e3a7d385eeb601452d680e74bb46afe3255a7d778f3a9b1768160405160405180910390a16001601260146101000a81548160ff021916908315150217905550565b601460009054906101000a900460ff1681565b600060149054906101000a900460ff1681565b600660009054906101000a900473ffffffffffffffffffffffffffffffffffffffff1681565b600e5481565b600860009054906101000a900473ffffffffffffffffffffffffffffffffffffffff1681565b6000809054906101000a900473ffffffffffffffffffffffffffffffffffffffff1673ffffffffffffffffffffffffffffffffffffffff163373ffffffffffffffffffffffffffffffffffffffff1614151561127457600080fd5b600060149054906101000a900460ff1615151561129057600080fd5b6001600060146101000a81548160ff0219169083151502179055507f6985a02210a168e66602d3235cb6db0e70f92b3ba4d376a33c0f3d9434bff62560405160405180910390a1565b601260149054906101000a900460ff1681565b6000809054906101000a900473ffffffffffffffffffffffffffffffffffffffff1681565b600881565b6000600d54600c5414905090565b600160009054906101000a900473ffffffffffffffffffffffffffffffffffffffff1681565b601260009054906101000a900473ffffffffffffffffffffffffffffffffffffffff1681565b60135481565b600f6020528060005260406000206000915090505481565b6000601460009054906101000a900460ff161515156113ac57600080fd5b600460009054906101000a900473ffffffffffffffffffffffffffffffffffffffff1673ffffffffffffffffffffffffffffffffffffffff163373ffffffffffffffffffffffffffffffffffffffff1614151561140857600080fd5b81600c819055506001601460006101000a81548160ff0219169083151502179055507f502f53b79a6dda15d69bda5f43dda250173e0f669d80b10106313bc99a439be5826040518082815260200191505060405180910390a160019050919050565b6000600e54600c541015905090565b6000601260149054906101000a900460ff16151561149657600080fd5b61149e61146a565b1515156114aa57600080fd5b600360009054906101000a900473ffffffffffffffffffffffffffffffffffffffff1673ffffffffffffffffffffffffffffffffffffffff1663fa89401a836000604051602001526040518263ffffffff167c0100000000000000000000000000000000000000000000000000000000028152600401808273ffffffffffffffffffffffffffffffffffffffff1673ffffffffffffffffffffffffffffffffffffffff168152602001915050602060405180830381600087803b151561156f57600080fd5b6102c65a03f1151561158057600080fd5b505050604051805190509050919050565b600560009054906101000a900473ffffffffffffffffffffffffffffffffffffffff1681565b6000806000809054906101000a900473ffffffffffffffffffffffffffffffffffffffff1673ffffffffffffffffffffffffffffffffffffffff163373ffffffffffffffffffffffffffffffffffffffff1614151561161557600080fd5b3073ffffffffffffffffffffffffffffffffffffffff16600260009054906101000a900473ffffffffffffffffffffffffffffffffffffffff1673ffffffffffffffffffffffffffffffffffffffff1663f77c47916000604051602001526040518163ffffffff167c0100000000000000000000000000000000000000000000000000000000028152600401602060405180830381600087803b15156116ba57600080fd5b6102c65a03f115156116cb57600080fd5b5050506040518051905073ffffffffffffffffffffffffffffffffffffffff1614156117c257600260009054906101000a900473ffffffffffffffffffffffffffffffffffffffff1673ffffffffffffffffffffffffffffffffffffffff1663df8de3e7846040518263ffffffff167c0100000000000000000000000000000000000000000000000000000000028152600401808273ffffffffffffffffffffffffffffffffffffffff1673ffffffffffffffffffffffffffffffffffffffff168152602001915050600060405180830381600087803b15156117ad57600080fd5b6102c65a03f115156117be57600080fd5b5050505b60008373ffffffffffffffffffffffffffffffffffffffff16141561185e576000809054906101000a900473ffffffffffffffffffffffffffffffffffffffff1673ffffffffffffffffffffffffffffffffffffffff166108fc3073ffffffffffffffffffffffffffffffffffffffff16319081150290604051600060405180830381858888f19350505050151561185957600080fd5b611aca565b8291508173ffffffffffffffffffffffffffffffffffffffff166370a08231306000604051602001526040518263ffffffff167c0100000000000000000000000000000000000000000000000000000000028152600401808273ffffffffffffffffffffffffffffffffffffffff1673ffffffffffffffffffffffffffffffffffffffff168152602001915050602060405180830381600087803b151561190457600080fd5b6102c65a03f1151561191557600080fd5b5050506040518051905090508173ffffffffffffffffffffffffffffffffffffffff1663a9059cbb6000809054906101000a900473ffffffffffffffffffffffffffffffffffffffff16836000604051602001526040518363ffffffff167c0100000000000000000000000000000000000000000000000000000000028152600401808373ffffffffffffffffffffffffffffffffffffffff1673ffffffffffffffffffffffffffffffffffffffff16815260200182815260200192505050602060405180830381600087803b15156119ed57600080fd5b6102c65a03f115156119fe57600080fd5b50505060405180519050507ff931edb47c50b4b4104c187b5814a9aef5f709e17e2ecf9617e860cacade929c836000809054906101000a900473ffffffffffffffffffffffffffffffffffffffff1683604051808473ffffffffffffffffffffffffffffffffffffffff1673ffffffffffffffffffffffffffffffffffffffff1681526020018373ffffffffffffffffffffffffffffffffffffffff1673ffffffffffffffffffffffffffffffffffffffff168152602001828152602001935050505060405180910390a15b505050565b600080600080600090505b600b80549050811015611b915742600b82815481101515611af757fe5b906000526020600020906002020160000160009054906101000a900467ffffffffffffffff1667ffffffffffffffff1611158015611b735750600b81815481101515611b3f57fe5b906000526020600020906002020160000160089054906101000a900467ffffffffffffffff1667ffffffffffffffff164211155b15611b845760019250809150611b91565b8080600101915050611ada565b821515611b9d57600080fd5b600b82815481101515611bac57fe5b906000526020600020906002020160010154935050505090565b6000611bd0612f43565b6000809054906101000a900473ffffffffffffffffffffffffffffffffffffffff1673ffffffffffffffffffffffffffffffffffffffff163373ffffffffffffffffffffffffffffffffffffffff16141515611c2b57600080fd5b600860ff16600b80549050101515611c4257600080fd5b8367ffffffffffffffff1642108015611c6e57508267ffffffffffffffff168467ffffffffffffffff16105b1515611c7957600080fd5b6000600b80549050141515611d165762093a80611caa8467ffffffffffffffff168667ffffffffffffffff166122ca565b11151515611cb757600080fd5b8367ffffffffffffffff16600b6001600b8054905003815481101515611cd957fe5b906000526020600020906002020160000160089054906101000a900467ffffffffffffffff1667ffffffffffffffff16101515611d1557600080fd5b5b83816000019067ffffffffffffffff16908167ffffffffffffffff168152505082816020019067ffffffffffffffff16908167ffffffffffffffff16815250506003600b805490501015611d8c57611d7e600f611d796005600b805490506123ce565b6122ca565b816040018181525050611d98565b60008160400181815250505b600b8054806001018281611dac9190612f79565b9160005260206000209060020201600083909190915060008201518160000160006101000a81548167ffffffffffffffff021916908367ffffffffffffffff16021790555060208201518160000160086101000a81548167ffffffffffffffff021916908367ffffffffffffffff160217905550604082015181600101555050507f283f5265b87d978ddecf66eb1a2b452efa26bd18a944cce959d890247d5ba8f084848360400151604051808467ffffffffffffffff1667ffffffffffffffff1681526020018367ffffffffffffffff1667ffffffffffffffff168152602001828152602001935050505060405180910390a1600191505092915050565b6000806000809054906101000a900473ffffffffffffffffffffffffffffffffffffffff1673ffffffffffffffffffffffffffffffffffffffff163373ffffffffffffffffffffffffffffffffffffffff16141515611f0957600080fd5b601260149054906101000a900460ff161515611f2457600080fd5b611f2c61146a565b151515611f3857600080fd5b600083111515611f4757600080fd5b82601354019150601080549050821115611f645760108054905091505b60135490505b8181101561209a57600360009054906101000a900473ffffffffffffffffffffffffffffffffffffffff1673ffffffffffffffffffffffffffffffffffffffff1663fa89401a601083815481101515611fbf57fe5b906000526020600020900160009054906101000a900473ffffffffffffffffffffffffffffffffffffffff166000604051602001526040518263ffffffff167c0100000000000000000000000000000000000000000000000000000000028152600401808273ffffffffffffffffffffffffffffffffffffffff1673ffffffffffffffffffffffffffffffffffffffff168152602001915050602060405180830381600087803b151561207157600080fd5b6102c65a03f1151561208257600080fd5b50505060405180519050508080600101915050611f6a565b816013819055507fa70a53972d6afb0fc38bd683cd5955faa5fa55e6629744a51e7a2aaa0ecc4e04836040518082815260200191505060405180910390a1505050565b600b818154811015156120ec57fe5b90600052602060002090600202016000915090508060000160009054906101000a900467ffffffffffffffff16908060000160089054906101000a900467ffffffffffffffff16908060010154905083565b6000809054906101000a900473ffffffffffffffffffffffffffffffffffffffff1673ffffffffffffffffffffffffffffffffffffffff163373ffffffffffffffffffffffffffffffffffffffff1614151561219957600080fd5b600073ffffffffffffffffffffffffffffffffffffffff168173ffffffffffffffffffffffffffffffffffffffff16141515156121d557600080fd5b806000806101000a81548173ffffffffffffffffffffffffffffffffffffffff021916908373ffffffffffffffffffffffffffffffffffffffff16021790555050565b600360009054906101000a900473ffffffffffffffffffffffffffffffffffffffff1681565b600260009054906101000a900473ffffffffffffffffffffffffffffffffffffffff1681565b600460009054906101000a900473ffffffffffffffffffffffffffffffffffffffff1681565b600080600034141590508080156122a657506122a4611316565b155b91505090565b60008082840190508381101515156122c057fe5b8091505092915050565b60008282111515156122d857fe5b818303905092915050565b6000806122ee611acf565b905082600a600081548110151561230157fe5b9060005260206000209001541115156123225761231f8160056122ac565b90505b82600a600181548110151561233357fe5b906000526020600020900154111515612354576123518160056122ac565b90505b82600a600281548110151561236557fe5b90600052602060002090015411151561237d57601990505b82600a600381548110151561238e57fe5b9060005260206000209001541115156123a657601e90505b6123c66123bf6009546123ba8460646122ac565b6123ce565b6064612af6565b915050919050565b600080828402905060008414806123ef57508284828115156123ec57fe5b04145b15156123f757fe5b8091505092915050565b601160008273ffffffffffffffffffffffffffffffffffffffff1673ffffffffffffffffffffffffffffffffffffffff16815260200190815260200160002060009054906101000a900460ff161515612510576001601160008373ffffffffffffffffffffffffffffffffffffffff1673ffffffffffffffffffffffffffffffffffffffff16815260200190815260200160002060006101000a81548160ff021916908315150217905550601080548060010182816124c09190612fab565b9160005260206000209001600083909190916101000a81548173ffffffffffffffffffffffffffffffffffffffff021916908373ffffffffffffffffffffffffffffffffffffffff160217905550505b7f1095f211ec26cf9891a79b12717df016e5e06954063d8534ac589273c0ed2eb281604051808273ffffffffffffffffffffffffffffffffffffffff1673ffffffffffffffffffffffffffffffffffffffff16815260200191505060405180910390a150565b600360009054906101000a900473ffffffffffffffffffffffffffffffffffffffff1673ffffffffffffffffffffffffffffffffffffffff1663f340fa0182336040518363ffffffff167c0100000000000000000000000000000000000000000000000000000000028152600401808273ffffffffffffffffffffffffffffffffffffffff1673ffffffffffffffffffffffffffffffffffffffff1681526020019150506000604051808303818588803b151561263257600080fd5b6125ee5a03f1151561264357600080fd5b5050505050565b600080600080600061265a61146a565b156128b957600360009054906101000a900473ffffffffffffffffffffffffffffffffffffffff1673ffffffffffffffffffffffffffffffffffffffff166343d726d66040518163ffffffff167c0100000000000000000000000000000000000000000000000000000000028152600401600060405180830381600087803b15156126e457600080fd5b6102c65a03f115156126f557600080fd5b505050600260009054906101000a900473ffffffffffffffffffffffffffffffffffffffff1673ffffffffffffffffffffffffffffffffffffffff166318160ddd6000604051602001526040518163ffffffff167c0100000000000000000000000000000000000000000000000000000000028152600401602060405180830381600087803b151561278657600080fd5b6102c65a03f1151561279757600080fd5b5050506040518051905094506127b86127b18660056123ce565b6032612af6565b93506127cf6127c886600f6123ce565b6032612af6565b92506127e66127df86600f6123ce565b6032612af6565b91506127fd6127f686600f6123ce565b6032612af6565b905061280b84848484612b11565b600260009054906101000a900473ffffffffffffffffffffffffffffffffffffffff1673ffffffffffffffffffffffffffffffffffffffff1663f41e60c560016040518263ffffffff167c01000000000000000000000000000000000000000000000000000000000281526004018082151515158152602001915050600060405180830381600087803b15156128a057600080fd5b6102c65a03f115156128b157600080fd5b505050612953565b600360009054906101000a900473ffffffffffffffffffffffffffffffffffffffff1673ffffffffffffffffffffffffffffffffffffffff16638c52dc416040518163ffffffff167c0100000000000000000000000000000000000000000000000000000000028152600401600060405180830381600087803b151561293e57600080fd5b6102c65a03f1151561294f57600080fd5b5050505b600260009054906101000a900473ffffffffffffffffffffffffffffffffffffffff1673ffffffffffffffffffffffffffffffffffffffff1663a4d67d636000604051602001526040518163ffffffff167c0100000000000000000000000000000000000000000000000000000000028152600401602060405180830381600087803b15156129e157600080fd5b6102c65a03f115156129f257600080fd5b5050506040518051905050600260009054906101000a900473ffffffffffffffffffffffffffffffffffffffff1673ffffffffffffffffffffffffffffffffffffffff16633cebb823601260009054906101000a900473ffffffffffffffffffffffffffffffffffffffff166040518263ffffffff167c0100000000000000000000000000000000000000000000000000000000028152600401808273ffffffffffffffffffffffffffffffffffffffff1673ffffffffffffffffffffffffffffffffffffffff168152602001915050600060405180830381600087803b1515612adb57600080fd5b6102c65a03f11515612aec57600080fd5b5050505050505050565b6000808284811515612b0457fe5b0490508091505092915050565b600260009054906101000a900473ffffffffffffffffffffffffffffffffffffffff1673ffffffffffffffffffffffffffffffffffffffff1663827f32c0600560009054906101000a900473ffffffffffffffffffffffffffffffffffffffff16866000604051602001526040518363ffffffff167c0100000000000000000000000000000000000000000000000000000000028152600401808373ffffffffffffffffffffffffffffffffffffffff1673ffffffffffffffffffffffffffffffffffffffff16815260200182815260200192505050602060405180830381600087803b1515612c0057600080fd5b6102c65a03f11515612c1157600080fd5b5050506040518051905050600260009054906101000a900473ffffffffffffffffffffffffffffffffffffffff1673ffffffffffffffffffffffffffffffffffffffff1663827f32c0600660009054906101000a900473ffffffffffffffffffffffffffffffffffffffff16856000604051602001526040518363ffffffff167c0100000000000000000000000000000000000000000000000000000000028152600401808373ffffffffffffffffffffffffffffffffffffffff1673ffffffffffffffffffffffffffffffffffffffff16815260200182815260200192505050602060405180830381600087803b1515612d0b57600080fd5b6102c65a03f11515612d1c57600080fd5b5050506040518051905050600260009054906101000a900473ffffffffffffffffffffffffffffffffffffffff1673ffffffffffffffffffffffffffffffffffffffff1663827f32c0600760009054906101000a900473ffffffffffffffffffffffffffffffffffffffff16846000604051602001526040518363ffffffff167c0100000000000000000000000000000000000000000000000000000000028152600401808373ffffffffffffffffffffffffffffffffffffffff1673ffffffffffffffffffffffffffffffffffffffff16815260200182815260200192505050602060405180830381600087803b1515612e1657600080fd5b6102c65a03f11515612e2757600080fd5b5050506040518051905050600260009054906101000a900473ffffffffffffffffffffffffffffffffffffffff1673ffffffffffffffffffffffffffffffffffffffff1663827f32c0600860009054906101000a900473ffffffffffffffffffffffffffffffffffffffff16836000604051602001526040518363ffffffff167c0100000000000000000000000000000000000000000000000000000000028152600401808373ffffffffffffffffffffffffffffffffffffffff1673ffffffffffffffffffffffffffffffffffffffff16815260200182815260200192505050602060405180830381600087803b1515612f2157600080fd5b6102c65a03f11515612f3257600080fd5b505050604051805190505050505050565b606060405190810160405280600067ffffffffffffffff168152602001600067ffffffffffffffff168152602001600081525090565b815481835581811511612fa657600202816002028360005260206000209182019101612fa59190612fd7565b5b505050565b815481835581811511612fd257818360005260206000209182019101612fd19190613034565b5b505050565b61303191905b8082111561302d57600080820160006101000a81549067ffffffffffffffff02191690556000820160086101000a81549067ffffffffffffffff0219169055600182016000905550600201612fdd565b5090565b90565b61305691905b8082111561305257600081600090555060010161303a565b5090565b905600a165627a7a72305820a478943f30af0aa754d247291dc4ad451ab066c2ef267a790d9092131645d1400029",
  "source": "pragma solidity ^0.4.18;\n\nimport './kyc/KYC.sol';\nimport './ATC.sol';\nimport './vault/RefundVault.sol';\nimport './ownership/Ownable.sol';\nimport './math/SafeMath.sol';\nimport './lifecycle/Pausable.sol';\n\ncontract ATCCrowdSale is Ownable, SafeMath, Pausable {\n  KYC public kyc;\n  ATC public token;\n  RefundVault public vault;\n\n  address public presale;\n\n  address public bountyAddress; //5% for bounty\n  address public partnersAddress; //15% for community groups & partners\n  address public reserverLocker; //15% with 2 years lock\n  address public teamLocker; // 15% with 2 years vesting\n\n  struct Period {\n    uint64 startTime;\n    uint64 endTime;\n    uint256 bonus; // used to calculate rate with bonus. ragne 0 ~ 15 (0% ~ 15%)\n  }\n\n  uint256 public baseRate; // 1 ETH = 1500 ATC\n  uint256[] public additionalBonusAmounts;\n\n  Period[] public periods;\n  uint8 constant public MAX_PERIOD_COUNT = 8;\n\n  uint256 public weiRaised;\n  uint256 public maxEtherCap;\n  uint256 public minEtherCap;\n\n  mapping (address => uint256) public beneficiaryFunded;\n\n  address[] investorList;\n  mapping (address => bool) inInvestorList;\n\n  address public ATCController;\n\n  bool public isFinalized;\n  uint256 public refundCompleted;\n  bool public presaleFallBackCalled;\n\n\n  event CrowdSaleTokenPurchase(address indexed _investor, address indexed _beneficiary, uint256 _toFund, uint256 _tokens);\n  event StartPeriod(uint64 _startTime, uint64 _endTime, uint256 _bonus);\n  event Finalized();\n  event PresaleFallBack(uint256 _presaleWeiRaised);\n  event PushInvestorList(address _investor);\n  event RefundAll(uint256 _numToRefund);\n  event ClaimedTokens(address _claimToken, address owner, uint256 balance);\n\n  function ATCCrowdSale (\n    address _kyc,\n    address _token,\n    address _vault,\n    address _presale,\n    address _bountyAddress,\n    address _partnersAddress,\n    address _reserverLocker,\n    address _teamLocker,\n    address _tokenController,\n    uint256 _maxEtherCap,\n    uint256 _minEtherCap,\n    uint256 _baseRate,\n    uint256[] _additionalBonusAmounts\n\n    ) {\n      require(_kyc != 0x00 && _token != 0x00 && _vault != 0x00 && _presale != 0x00);\n      require(_bountyAddress != 0x00 && _partnersAddress != 0x00);\n      require(_reserverLocker != 0x00 && _teamLocker != 0x00);\n      require(_tokenController != 0x00);\n      require(0 < _minEtherCap && _minEtherCap < _maxEtherCap);\n      require(_baseRate > 0);\n      require(_additionalBonusAmounts[0] > 0);\n      for (uint i = 0; i < _additionalBonusAmounts.length - 1; i++) {\n        require(_additionalBonusAmounts[i] < _additionalBonusAmounts[i + 1]);\n      }\n\n      kyc = KYC(_kyc);\n      token = ATC(_token);\n      vault = RefundVault(_vault);\n      presale = _presale;\n\n      bountyAddress = _bountyAddress;\n      partnersAddress = _partnersAddress;\n      reserverLocker = _reserverLocker;\n      teamLocker = _teamLocker;\n      ATCController = _tokenController;\n\n      maxEtherCap = _maxEtherCap;\n      minEtherCap = _minEtherCap;\n\n      baseRate = _baseRate;\n      additionalBonusAmounts = _additionalBonusAmounts;\n\n    }\n\n  function () public payable {\n    buy(msg.sender);\n  }\n\n  function presaleFallBack(uint256 _presaleWeiRaised) public returns (bool) {\n    require(!presaleFallBackCalled);\n    require(msg.sender == presale);\n\n    weiRaised = _presaleWeiRaised;\n    presaleFallBackCalled = true;\n\n    PresaleFallBack(_presaleWeiRaised);\n\n    return true;\n  }\n\n  function buy(address beneficiary)\n    public\n    payable\n    whenNotPaused\n  {\n      // check validity\n      require(presaleFallBackCalled);\n      require(beneficiary != 0x00);\n      require(kyc.registeredAddress(beneficiary));\n      require(onSale());\n      require(validPurchase());\n      require(!isFinalized);\n\n      // calculate eth amount\n      uint256 weiAmount = msg.value;\n      uint256 totalAmount = add(beneficiaryFunded[beneficiary], weiAmount);\n      uint256 toFund;\n\n      uint256 postWeiRaised = add(weiRaised, toFund);\n\n      if (postWeiRaised > maxEtherCap) {\n        toFund = sub(maxEtherCap, weiRaised);\n      } else {\n        toFund = weiAmount;\n      }\n\n      require(toFund > 0);\n      require(weiAmount >= toFund);\n\n      uint256 rate = calculateRate(toFund);\n      uint256 tokens = mul(toFund, rate);\n      uint256 toReturn = sub(weiAmount, toFund);\n\n      pushInvestorList(msg.sender);\n\n      weiRaised = add(weiRaised, toFund);\n      beneficiaryFunded[beneficiary] = add(beneficiaryFunded[beneficiary], toFund);\n\n      token.generateTokens(beneficiary, tokens);\n\n      if (toReturn > 0) {\n        msg.sender.transfer(toReturn);\n      }\n\n      forwardFunds(toFund);\n      CrowdSaleTokenPurchase(msg.sender, beneficiary, toFund, tokens);\n  }\n\n  function pushInvestorList(address investor) internal {\n    if (!inInvestorList[investor]) {\n      inInvestorList[investor] = true;\n      investorList.push(investor);\n    }\n\n    PushInvestorList(investor);\n  }\n\n  function validPurchase() internal constant returns (bool) {\n    bool nonZeroPurchase = msg.value != 0;\n    return nonZeroPurchase && !maxReached();\n  }\n\n  function forwardFunds(uint256 toFund) internal {\n    vault.deposit.value(toFund)(msg.sender);\n  }\n\n  /**\n   * @dev Checks whether minEtherCap is reached\n   * @return true if min ether cap is reaced\n   */\n  function minReached() public constant returns (bool) {\n    return weiRaised >= minEtherCap;\n  }\n  /**\n   * @dev Checks whether maxEtherCap is reached\n   * @return true if max ether cap is reaced\n   */\n  function maxReached() public constant returns (bool) {\n    return weiRaised == maxEtherCap;\n  }\n\n  function getPeriodBonus() public constant returns (uint256) {\n    bool nowOnSale;\n    uint256 currentPeriod;\n\n    for (uint i = 0; i < periods.length; i++) {\n      if (periods[i].startTime <= now && now <= periods[i].endTime) {\n        nowOnSale = true;\n        currentPeriod = i;\n        break;\n      }\n    }\n\n    require(nowOnSale);\n    return periods[currentPeriod].bonus;\n  }\n\n  /**\n   * @dev rate = baseRate * (100 + bonus) / 100\n   */\n  function calculateRate(uint256 toFund) internal returns (uint256)  {\n    uint bonus = getPeriodBonus();\n\n    // bonus for eth amount\n    if (additionalBonusAmounts[0] <= toFund) {\n      bonus = add(bonus, 5); // 5% amount bonus for more than 300 ETH\n    }\n\n    if (additionalBonusAmounts[1] <= toFund) {\n      bonus = add(bonus, 5); // 10% amount bonus for more than 6000 ETH\n    }\n\n    if (additionalBonusAmounts[2] <= toFund) {\n      bonus = 25; // final 25% amount bonus for more than 8000 ETH\n    }\n\n    if (additionalBonusAmounts[3] <= toFund) {\n      bonus = 30; // final 30% amount bonus for more than 10000 ETH\n    }\n\n    return div(mul(baseRate, add(bonus, 100)), 100);\n  }\n\n  function startPeriod(uint64 _startTime, uint64 _endTime) public onlyOwner returns (bool) {\n    require(periods.length < MAX_PERIOD_COUNT);\n    require(now < _startTime && _startTime < _endTime);\n\n\n    if (periods.length != 0) {\n      require(sub(_endTime, _startTime) <= 7 days);\n      require(periods[periods.length - 1].endTime < _startTime);\n    }\n\n    // 15% -> 10% -> 5% -> 0%\n    Period memory newPeriod;\n    newPeriod.startTime = _startTime;\n    newPeriod.endTime = _endTime;\n\n    if(periods.length < 3) {\n      newPeriod.bonus = sub(15, mul(5, periods.length));\n    } else {\n      newPeriod.bonus = 0;\n    }\n\n    periods.push(newPeriod);\n    StartPeriod(_startTime, _endTime, newPeriod.bonus);\n\n    return true;\n  }\n\n  function onSale() public returns (bool) {\n    bool nowOnSale;\n\n    for (uint i = 0; i < periods.length; i++) {\n      if (periods[i].startTime <= now && now <= periods[i].endTime) {\n        nowOnSale = true;\n        break;\n      }\n    }\n\n    return nowOnSale;\n  }\n  /**\n   * @dev should be called after crowdsale ends, to do\n   */\n  function finalize() onlyOwner {\n    require(!isFinalized);\n    require(!onSale() || maxReached());\n\n    finalization();\n    Finalized();\n\n    isFinalized = true;\n  }\n\n  /**\n   * @dev end token minting on finalization, mint tokens for dev team and reserve wallets\n   */\n  function finalization() internal {\n    if (minReached()) {\n      vault.close();\n\n      uint256 totalToken = token.totalSupply();\n\n      // token distribution : 50% for sale, 5% for bounty, 15% for partners, 15% for reserve, 15% for team\n      uint256 bountyAmount = div(mul(totalToken, 5), 50);\n      uint256 partnersAmount = div(mul(totalToken, 15), 50);\n      uint256 reserveAmount = div(mul(totalToken, 15), 50);\n      uint256 teamAmount = div(mul(totalToken, 15), 50);\n\n      distributeToken(bountyAmount, partnersAmount, reserveAmount, teamAmount);\n\n      token.enableTransfers(true);\n\n    } else {\n      vault.enableRefunds();\n    }\n    token.finishGenerating();\n    token.changeController(ATCController);\n  }\n\n  function distributeToken(uint256 bountyAmount, uint256 partnersAmount, uint256 reserveAmount, uint256 teamAmount) internal {\n    token.generateTokens(bountyAddress, bountyAmount);\n    token.generateTokens(partnersAddress, partnersAmount);\n    token.generateTokens(reserverLocker, reserveAmount);\n    token.generateTokens(teamLocker, teamAmount);\n  }\n\n  /**\n   * @dev refund a lot of investors at a time checking onlyOwner\n   * @param numToRefund uint256 The number of investors to refund\n   */\n  function refundAll(uint256 numToRefund) onlyOwner {\n    require(isFinalized);\n    require(!minReached());\n    require(numToRefund > 0);\n\n    uint256 limit = refundCompleted + numToRefund;\n\n    if (limit > investorList.length) {\n      limit = investorList.length;\n    }\n\n    for(uint256 i = refundCompleted; i < limit; i++) {\n      vault.refund(investorList[i]);\n    }\n\n    refundCompleted = limit;\n    RefundAll(numToRefund);\n  }\n\n  /**\n   * @dev if crowdsale is unsuccessful, investors can claim refunds here\n   * @param investor address The account to be refunded\n   */\n  function claimRefund(address investor) returns (bool) {\n    require(isFinalized);\n    require(!minReached());\n\n    return vault.refund(investor);\n  }\n\n  function claimTokens(address _claimToken) public onlyOwner {\n\n    if (token.controller() == address(this)) {\n         token.claimTokens(_claimToken);\n    }\n\n    if (_claimToken == 0x0) {\n        owner.transfer(this.balance);\n        return;\n    }\n\n    ERC20Basic claimToken = ERC20Basic(_claimToken);\n    uint256 balance = claimToken.balanceOf(this);\n    claimToken.transfer(owner, balance);\n\n    ClaimedTokens(_claimToken, owner, balance);\n  }\n}\n",
  "sourcePath": "/Users/midinpa/workspace/dapps/aston-crowdsale/contracts/ATCCrowdSale.sol",
  "compiler": {
    "name": "solc",
    "version": "0.4.18+commit.9cf6e910.Emscripten.clang"
  },
  "schemaVersion": "1.0.1",
  "updatedAt": "2017-11-28T04:46:41.972Z"
}