{
  "contractName": "ATCCrowdSale",
  "abi": [
    {
      "constant": false,
      "inputs": [
        {
          "name": "_startTime",
          "type": "uint256"
        },
        {
          "name": "_endTime",
          "type": "uint256"
        }
      ],
      "name": "startPeriod",
      "outputs": [
        {
          "name": "",
          "type": "bool"
        }
      ],
      "payable": false,
      "stateMutability": "nonpayable",
      "type": "function"
    },
    {
      "constant": true,
      "inputs": [],
      "name": "initialized",
      "outputs": [
        {
          "name": "",
          "type": "bool"
        }
      ],
      "payable": false,
      "stateMutability": "view",
      "type": "function"
    },
    {
      "constant": true,
      "inputs": [],
      "name": "baseRate",
      "outputs": [
        {
          "name": "",
          "type": "uint256"
        }
      ],
      "payable": false,
      "stateMutability": "view",
      "type": "function"
    },
    {
      "constant": true,
      "inputs": [
        {
          "name": "",
          "type": "uint256"
        }
      ],
      "name": "additionalBonusAmounts",
      "outputs": [
        {
          "name": "",
          "type": "uint256"
        }
      ],
      "payable": false,
      "stateMutability": "view",
      "type": "function"
    },
    {
      "constant": true,
      "inputs": [
        {
          "name": "toFund",
          "type": "uint256"
        }
      ],
      "name": "calculateRate",
      "outputs": [
        {
          "name": "",
          "type": "uint256"
        }
      ],
      "payable": false,
      "stateMutability": "view",
      "type": "function"
    },
    {
      "constant": false,
      "inputs": [],
      "name": "onSale",
      "outputs": [
        {
          "name": "",
          "type": "bool"
        }
      ],
      "payable": false,
      "stateMutability": "nonpayable",
      "type": "function"
    },
    {
      "constant": true,
      "inputs": [],
      "name": "maxEtherCap",
      "outputs": [
        {
          "name": "",
          "type": "uint256"
        }
      ],
      "payable": false,
      "stateMutability": "view",
      "type": "function"
    },
    {
      "constant": false,
      "inputs": [],
      "name": "unpause",
      "outputs": [],
      "payable": false,
      "stateMutability": "nonpayable",
      "type": "function"
    },
    {
      "constant": true,
      "inputs": [],
      "name": "weiRaised",
      "outputs": [
        {
          "name": "",
          "type": "uint256"
        }
      ],
      "payable": false,
      "stateMutability": "view",
      "type": "function"
    },
    {
      "constant": false,
      "inputs": [],
      "name": "finalize",
      "outputs": [],
      "payable": false,
      "stateMutability": "nonpayable",
      "type": "function"
    },
    {
      "constant": true,
      "inputs": [],
      "name": "presaleFallBackCalled",
      "outputs": [
        {
          "name": "",
          "type": "bool"
        }
      ],
      "payable": false,
      "stateMutability": "view",
      "type": "function"
    },
    {
      "constant": true,
      "inputs": [],
      "name": "paused",
      "outputs": [
        {
          "name": "",
          "type": "bool"
        }
      ],
      "payable": false,
      "stateMutability": "view",
      "type": "function"
    },
    {
      "constant": true,
      "inputs": [],
      "name": "ATCReserveLocker",
      "outputs": [
        {
          "name": "",
          "type": "address"
        }
      ],
      "payable": false,
      "stateMutability": "view",
      "type": "function"
    },
    {
      "constant": true,
      "inputs": [],
      "name": "partnersAddress",
      "outputs": [
        {
          "name": "",
          "type": "address"
        }
      ],
      "payable": false,
      "stateMutability": "view",
      "type": "function"
    },
    {
      "constant": true,
      "inputs": [],
      "name": "minEtherCap",
      "outputs": [
        {
          "name": "",
          "type": "uint256"
        }
      ],
      "payable": false,
      "stateMutability": "view",
      "type": "function"
    },
    {
      "constant": true,
      "inputs": [],
      "name": "teamLocker",
      "outputs": [
        {
          "name": "",
          "type": "address"
        }
      ],
      "payable": false,
      "stateMutability": "view",
      "type": "function"
    },
    {
      "constant": false,
      "inputs": [],
      "name": "pause",
      "outputs": [],
      "payable": false,
      "stateMutability": "nonpayable",
      "type": "function"
    },
    {
      "constant": true,
      "inputs": [],
      "name": "isFinalized",
      "outputs": [
        {
          "name": "",
          "type": "bool"
        }
      ],
      "payable": false,
      "stateMutability": "view",
      "type": "function"
    },
    {
      "constant": true,
      "inputs": [],
      "name": "owner",
      "outputs": [
        {
          "name": "",
          "type": "address"
        }
      ],
      "payable": false,
      "stateMutability": "view",
      "type": "function"
    },
    {
      "constant": true,
      "inputs": [],
      "name": "MAX_PERIOD_COUNT",
      "outputs": [
        {
          "name": "",
          "type": "uint8"
        }
      ],
      "payable": false,
      "stateMutability": "view",
      "type": "function"
    },
    {
      "constant": true,
      "inputs": [],
      "name": "maxReached",
      "outputs": [
        {
          "name": "",
          "type": "bool"
        }
      ],
      "payable": false,
      "stateMutability": "view",
      "type": "function"
    },
    {
      "constant": true,
      "inputs": [],
      "name": "kyc",
      "outputs": [
        {
          "name": "",
          "type": "address"
        }
      ],
      "payable": false,
      "stateMutability": "view",
      "type": "function"
    },
    {
      "constant": true,
      "inputs": [],
      "name": "ATCController",
      "outputs": [
        {
          "name": "",
          "type": "address"
        }
      ],
      "payable": false,
      "stateMutability": "view",
      "type": "function"
    },
    {
      "constant": false,
      "inputs": [
        {
          "name": "_kyc",
          "type": "address"
        },
        {
          "name": "_token",
          "type": "address"
        },
        {
          "name": "_vault",
          "type": "address"
        },
        {
          "name": "_presale",
          "type": "address"
        },
        {
          "name": "_bountyAddress",
          "type": "address"
        },
        {
          "name": "_partnersAddress",
          "type": "address"
        },
        {
          "name": "_ATCReserveLocker",
          "type": "address"
        },
        {
          "name": "_teamLocker",
          "type": "address"
        },
        {
          "name": "_tokenController",
          "type": "address"
        },
        {
          "name": "_maxEtherCap",
          "type": "uint256"
        },
        {
          "name": "_minEtherCap",
          "type": "uint256"
        },
        {
          "name": "_baseRate",
          "type": "uint256"
        },
        {
          "name": "_additionalBonusAmounts",
          "type": "uint256[]"
        }
      ],
      "name": "initialize",
      "outputs": [
        {
          "name": "",
          "type": "uint256"
        }
      ],
      "payable": false,
      "stateMutability": "nonpayable",
      "type": "function"
    },
    {
      "constant": true,
      "inputs": [
        {
          "name": "",
          "type": "address"
        }
      ],
      "name": "refundCompleted",
      "outputs": [
        {
          "name": "",
          "type": "uint256"
        }
      ],
      "payable": false,
      "stateMutability": "view",
      "type": "function"
    },
    {
      "constant": true,
      "inputs": [
        {
          "name": "",
          "type": "address"
        }
      ],
      "name": "beneficiaryFunded",
      "outputs": [
        {
          "name": "",
          "type": "uint256"
        }
      ],
      "payable": false,
      "stateMutability": "view",
      "type": "function"
    },
    {
      "constant": false,
      "inputs": [
        {
          "name": "_presaleWeiRaised",
          "type": "uint256"
        }
      ],
      "name": "presaleFallBack",
      "outputs": [
        {
          "name": "",
          "type": "bool"
        }
      ],
      "payable": false,
      "stateMutability": "nonpayable",
      "type": "function"
    },
    {
      "constant": true,
      "inputs": [
        {
          "name": "investor",
          "type": "address"
        }
      ],
      "name": "minReached",
      "outputs": [
        {
          "name": "",
          "type": "bool"
        }
      ],
      "payable": false,
      "stateMutability": "view",
      "type": "function"
    },
    {
      "constant": false,
      "inputs": [
        {
          "name": "investor",
          "type": "address"
        }
      ],
      "name": "claimRefund",
      "outputs": [
        {
          "name": "",
          "type": "bool"
        }
      ],
      "payable": false,
      "stateMutability": "nonpayable",
      "type": "function"
    },
    {
      "constant": true,
      "inputs": [
        {
          "name": "_claimToken",
          "type": "address"
        }
      ],
      "name": "bountyAddress",
      "outputs": [
        {
          "name": "",
          "type": "address"
        }
      ],
      "payable": false,
      "stateMutability": "view",
      "type": "function"
    },
    {
      "constant": false,
      "inputs": [
        {
          "name": "_claimToken",
          "type": "address"
        }
      ],
      "name": "claimTokens",
      "outputs": [
        {
          "name": "",
          "type": "uint256"
        }
      ],
      "payable": false,
      "stateMutability": "nonpayable",
      "type": "function"
    },
    {
      "constant": true,
      "inputs": [
        {
          "name": "numToRefund",
          "type": "uint256"
        }
      ],
      "name": "getPeriodBonus",
      "outputs": [
        {
          "name": "",
          "type": "uint256"
        }
      ],
      "payable": false,
      "stateMutability": "view",
      "type": "function"
    },
    {
      "constant": false,
      "inputs": [
        {
          "name": "numToRefund",
          "type": "uint256"
        }
      ],
      "name": "refundAll",
      "outputs": [
        {
          "name": "startTime",
          "type": "uint256"
        },
        {
          "name": "endTime",
          "type": "uint256"
        },
        {
          "name": "bonus",
          "type": "uint256"
        }
      ],
      "payable": false,
      "stateMutability": "nonpayable",
      "type": "function"
    },
    {
      "constant": true,
      "inputs": [
        {
          "name": "",
          "type": "uint256"
        },
        {
          "name": "_token",
          "type": "address"
        },
        {
          "name": "_vault",
          "type": "address"
        },
        {
          "name": "_presale",
          "type": "address"
        },
        {
          "name": "_bountyAddress",
          "type": "address"
        },
        {
          "name": "_partnersAddress",
          "type": "address"
        },
        {
          "name": "_ATCReserveLocker",
          "type": "address"
        },
        {
          "name": "_teamLocker",
          "type": "address"
        },
        {
          "name": "_tokenController",
          "type": "address"
        },
        {
          "name": "_maxEtherCap",
          "type": "uint256"
        },
        {
          "name": "_minEtherCap",
          "type": "uint256"
        },
        {
          "name": "_additionalBonusAmounts",
          "type": "uint256[]"
        },
        {
          "name": "_baseRate",
          "type": "uint256"
        }
      ],
      "name": "periods",
      "outputs": [
        {
          "name": "startTime",
          "type": "uint256"
        },
        {
          "name": "endTime",
          "type": "uint256"
        },
        {
          "name": "bonus",
          "type": "uint256"
        }
      ],
      "payable": false,
      "stateMutability": "view",
      "type": "function"
    },
    {
      "constant": false,
      "inputs": [
        {
          "name": "beneficiary",
          "type": "address"
        }
      ],
      "name": "buy",
      "outputs": [],
      "payable": true,
      "stateMutability": "payable",
      "type": "function"
    },
    {
      "constant": false,
      "inputs": [
        {
          "name": "newOwner",
          "type": "address"
        }
      ],
      "name": "transferOwnership",
      "outputs": [],
      "payable": false,
      "stateMutability": "nonpayable",
      "type": "function"
    },
    {
      "constant": true,
      "inputs": [],
      "name": "vault",
      "outputs": [
        {
          "name": "",
          "type": "address"
        }
      ],
      "payable": false,
      "stateMutability": "view",
      "type": "function"
    },
    {
      "constant": true,
      "inputs": [],
      "name": "token",
      "outputs": [
        {
          "name": "",
          "type": "address"
        }
      ],
      "payable": false,
      "stateMutability": "view",
      "type": "function"
    },
    {
      "constant": true,
      "inputs": [],
      "name": "presale",
      "outputs": [
        {
          "name": "",
          "type": "address"
        }
      ],
      "payable": false,
      "stateMutability": "view",
      "type": "function"
    },
    {
      "constant": true,
      "inputs": [],
      "name": "finalizedTime",
      "outputs": [
        {
          "name": "",
          "type": "uint256"
        }
      ],
      "payable": false,
      "stateMutability": "view",
      "type": "function"
    },
    {
      "payable": true,
      "stateMutability": "payable",
      "type": "fallback"
    },
    {
      "anonymous": false,
      "inputs": [
        {
          "indexed": true,
          "name": "_investor",
          "type": "address"
        },
        {
          "indexed": true,
          "name": "_beneficiary",
          "type": "address"
        },
        {
          "indexed": false,
          "name": "_toFund",
          "type": "uint256"
        },
        {
          "indexed": false,
          "name": "_tokens",
          "type": "uint256"
        }
      ],
      "name": "CrowdSaleTokenPurchase",
      "type": "event"
    },
    {
      "anonymous": false,
      "inputs": [
        {
          "indexed": false,
          "name": "_startTime",
          "type": "uint256"
        },
        {
          "indexed": false,
          "name": "_endTime",
          "type": "uint256"
        },
        {
          "indexed": false,
          "name": "_bonus",
          "type": "uint256"
        }
      ],
      "name": "StartPeriod",
      "type": "event"
    },
    {
      "anonymous": false,
      "inputs": [],
      "name": "Finalized",
      "type": "event"
    },
    {
      "anonymous": false,
      "inputs": [
        {
          "indexed": false,
          "name": "_presaleWeiRaised",
          "type": "uint256"
        }
      ],
      "name": "PresaleFallBack",
      "type": "event"
    },
    {
      "anonymous": false,
      "inputs": [
        {
          "indexed": false,
          "name": "_investor",
          "type": "address"
        }
      ],
      "name": "PushInvestorList",
      "type": "event"
    },
    {
      "anonymous": false,
      "inputs": [
        {
          "indexed": false,
          "name": "_numToRefund",
          "type": "uint256"
        }
      ],
      "name": "RefundAll",
      "type": "event"
    },
    {
      "anonymous": false,
      "inputs": [
        {
          "indexed": false,
          "name": "_claimToken",
          "type": "address"
        },
        {
          "indexed": false,
          "name": "owner",
          "type": "address"
        },
        {
          "indexed": false,
          "name": "balance",
          "type": "uint256"
        }
      ],
      "name": "ClaimedTokens",
      "type": "event"
    },
    {
      "anonymous": false,
      "inputs": [],
      "name": "Initialize",
      "type": "event"
    },
    {
      "anonymous": false,
      "inputs": [],
      "name": "Pause",
      "type": "event"
    },
    {
      "anonymous": false,
      "inputs": [],
      "name": "Unpause",
      "type": "event"
    }
  ],
  "bytecode": "0x606060405260008060146101000a81548160ff021916908315150217905550336000806101000a81548173ffffffffffffffffffffffffffffffffffffffff021916908373ffffffffffffffffffffffffffffffffffffffff16021790555061372f8061006d6000396000f3006060604052600436106101ee576000357c0100000000000000000000000000000000000000000000000000000000900463ffffffff168063107d1d55146101f9578063158ef93e1461023d5780631f68f20a1461026a5780632c0657c214610293578063319b0cd2146102ca578063326687b914610301578063326fd5841461032e5780633f4ba83a146103575780634042b66f1461036c5780634bb278f314610395578063577890f6146103aa5780635c975abb146103d75780636584fcce146104045780636a75f03d1461045957806377472b6f146104ae57806380bc99cb146104d75780638456cb591461052c5780638d4e4083146105415780638da5cb5b1461056e5780638e6a2afa146105c357806390135fec146105f257806390d6b45f1461061f578063a06aceb214610674578063a2dc7dcf146106c9578063a6ca322b14610855578063a743fa501461087e578063ad226122146108cb578063af6f964d14610906578063bffa55d514610933578063c516358f14610984578063df8de3e7146109d9578063e382c3e614610a12578063e9fee16f14610a3b578063ea4a110414610a5e578063f088d54714610aa3578063f2fde38b14610ad1578063fbfa77cf14610b0a578063fc0c546a14610b5f578063fdea8e0b14610bb4578063fe67a18914610c09575b6101f733610c32565b005b341561020457600080fd5b6102236004808035906020019091908035906020019091905050611093565b604051808215151515815260200191505060405180910390f35b341561024857600080fd5b610250611280565b604051808215151515815260200191505060405180910390f35b341561027557600080fd5b61027d611293565b6040518082815260200191505060405180910390f35b341561029e57600080fd5b6102b46004808035906020019091905050611299565b6040518082815260200191505060405180910390f35b34156102d557600080fd5b6102eb60048080359060200190919050506112bd565b6040518082815260200191505060405180910390f35b341561030c57600080fd5b6103146113a8565b604051808215151515815260200191505060405180910390f35b341561033957600080fd5b610341611431565b6040518082815260200191505060405180910390f35b341561036257600080fd5b61036a611437565b005b341561037757600080fd5b61037f6114f5565b6040518082815260200191505060405180910390f35b34156103a057600080fd5b6103a86114fb565b005b34156103b557600080fd5b6103bd6115ed565b604051808215151515815260200191505060405180910390f35b34156103e257600080fd5b6103ea611600565b604051808215151515815260200191505060405180910390f35b341561040f57600080fd5b610417611613565b604051808273ffffffffffffffffffffffffffffffffffffffff1673ffffffffffffffffffffffffffffffffffffffff16815260200191505060405180910390f35b341561046457600080fd5b61046c611639565b604051808273ffffffffffffffffffffffffffffffffffffffff1673ffffffffffffffffffffffffffffffffffffffff16815260200191505060405180910390f35b34156104b957600080fd5b6104c161165f565b6040518082815260200191505060405180910390f35b34156104e257600080fd5b6104ea611665565b604051808273ffffffffffffffffffffffffffffffffffffffff1673ffffffffffffffffffffffffffffffffffffffff16815260200191505060405180910390f35b341561053757600080fd5b61053f61168b565b005b341561054c57600080fd5b61055461174b565b604051808215151515815260200191505060405180910390f35b341561057957600080fd5b61058161175e565b604051808273ffffffffffffffffffffffffffffffffffffffff1673ffffffffffffffffffffffffffffffffffffffff16815260200191505060405180910390f35b34156105ce57600080fd5b6105d6611783565b604051808260ff1660ff16815260200191505060405180910390f35b34156105fd57600080fd5b610605611788565b604051808215151515815260200191505060405180910390f35b341561062a57600080fd5b610632611796565b604051808273ffffffffffffffffffffffffffffffffffffffff1673ffffffffffffffffffffffffffffffffffffffff16815260200191505060405180910390f35b341561067f57600080fd5b6106876117bc565b604051808273ffffffffffffffffffffffffffffffffffffffff1673ffffffffffffffffffffffffffffffffffffffff16815260200191505060405180910390f35b34156106d457600080fd5b610853600480803573ffffffffffffffffffffffffffffffffffffffff1690602001909190803573ffffffffffffffffffffffffffffffffffffffff1690602001909190803573ffffffffffffffffffffffffffffffffffffffff1690602001909190803573ffffffffffffffffffffffffffffffffffffffff1690602001909190803573ffffffffffffffffffffffffffffffffffffffff1690602001909190803573ffffffffffffffffffffffffffffffffffffffff1690602001909190803573ffffffffffffffffffffffffffffffffffffffff1690602001909190803573ffffffffffffffffffffffffffffffffffffffff1690602001909190803573ffffffffffffffffffffffffffffffffffffffff16906020019091908035906020019091908035906020019091908035906020019091908035906020019082018035906020019080806020026020016040519081016040528093929190818152602001838360200280828437820191505050505050919050506117e2565b005b341561086057600080fd5b610868611d1b565b6040518082815260200191505060405180910390f35b341561088957600080fd5b6108b5600480803573ffffffffffffffffffffffffffffffffffffffff16906020019091905050611d21565b6040518082815260200191505060405180910390f35b34156108d657600080fd5b6108ec6004808035906020019091905050611d39565b604051808215151515815260200191505060405180910390f35b341561091157600080fd5b610919611e15565b604051808215151515815260200191505060405180910390f35b341561093e57600080fd5b61096a600480803573ffffffffffffffffffffffffffffffffffffffff16906020019091905050611e24565b604051808215151515815260200191505060405180910390f35b341561098f57600080fd5b610997611f3c565b604051808273ffffffffffffffffffffffffffffffffffffffff1673ffffffffffffffffffffffffffffffffffffffff16815260200191505060405180910390f35b34156109e457600080fd5b610a10600480803573ffffffffffffffffffffffffffffffffffffffff16906020019091905050611f62565b005b3415610a1d57600080fd5b610a2561247a565b6040518082815260200191505060405180910390f35b3415610a4657600080fd5b610a5c6004808035906020019091905050612535565b005b3415610a6957600080fd5b610a7f6004808035906020019091905050612767565b60405180848152602001838152602001828152602001935050505060405180910390f35b610acf600480803573ffffffffffffffffffffffffffffffffffffffff16906020019091905050610c32565b005b3415610adc57600080fd5b610b08600480803573ffffffffffffffffffffffffffffffffffffffff169060200190919050506127a0565b005b3415610b1557600080fd5b610b1d61287a565b604051808273ffffffffffffffffffffffffffffffffffffffff1673ffffffffffffffffffffffffffffffffffffffff16815260200191505060405180910390f35b3415610b6a57600080fd5b610b726128a0565b604051808273ffffffffffffffffffffffffffffffffffffffff1673ffffffffffffffffffffffffffffffffffffffff16815260200191505060405180910390f35b3415610bbf57600080fd5b610bc76128c6565b604051808273ffffffffffffffffffffffffffffffffffffffff1673ffffffffffffffffffffffffffffffffffffffff16815260200191505060405180910390f35b3415610c1457600080fd5b610c1c6128ec565b6040518082815260200191505060405180910390f35b600080600080600080600060149054906101000a900460ff16151515610c5757600080fd5b601460009054906101000a900460ff161515610c7257600080fd5b60008773ffffffffffffffffffffffffffffffffffffffff1614151515610c9857600080fd5b600160009054906101000a900473ffffffffffffffffffffffffffffffffffffffff1673ffffffffffffffffffffffffffffffffffffffff1663ad1def42886000604051602001526040518263ffffffff167c0100000000000000000000000000000000000000000000000000000000028152600401808273ffffffffffffffffffffffffffffffffffffffff1673ffffffffffffffffffffffffffffffffffffffff168152602001915050602060405180830381600087803b1515610d5d57600080fd5b6102c65a03f11515610d6e57600080fd5b505050604051805190501515610d8357600080fd5b610d8b6113a8565b1515610d9657600080fd5b610d9e6128f2565b1515610da957600080fd5b601260149054906101000a900460ff16151515610dc557600080fd5b349550610dd4600c5487612914565b9350600d54841115610df557610dee600d54600c54612932565b9450610df9565b8594505b600085111515610e0857600080fd5b848610151515610e1757600080fd5b610e20856112bd565b9250610e2c858461294b565b9150610e388686612932565b9050610e433361297e565b610e4f600c5486612914565b600c81905550610e9e600f60008973ffffffffffffffffffffffffffffffffffffffff1673ffffffffffffffffffffffffffffffffffffffff1681526020019081526020016000205486612914565b600f60008973ffffffffffffffffffffffffffffffffffffffff1673ffffffffffffffffffffffffffffffffffffffff16815260200190815260200160002081905550600260009054906101000a900473ffffffffffffffffffffffffffffffffffffffff1673ffffffffffffffffffffffffffffffffffffffff1663827f32c088846000604051602001526040518363ffffffff167c0100000000000000000000000000000000000000000000000000000000028152600401808373ffffffffffffffffffffffffffffffffffffffff1673ffffffffffffffffffffffffffffffffffffffff16815260200182815260200192505050602060405180830381600087803b1515610fae57600080fd5b6102c65a03f11515610fbf57600080fd5b50505060405180519050506000811115611014573373ffffffffffffffffffffffffffffffffffffffff166108fc829081150290604051600060405180830381858888f19350505050151561101357600080fd5b5b61101d85612af3565b8673ffffffffffffffffffffffffffffffffffffffff163373ffffffffffffffffffffffffffffffffffffffff167f33759ee1eaa9f87f4186d31caf548c4494b9cef9fa6a2805ef0efd615fb182ff8785604051808381526020018281526020019250505060405180910390a350505050505050565b600061109d6135da565b6000809054906101000a900473ffffffffffffffffffffffffffffffffffffffff1673ffffffffffffffffffffffffffffffffffffffff163373ffffffffffffffffffffffffffffffffffffffff161415156110f857600080fd5b600860ff16600b8054905010151561110f57600080fd5b834210801561111d57508284105b151561112857600080fd5b6000600b805490501415156111895762093a806111458486612932565b1115151561115257600080fd5b83600b6001600b805490500381548110151561116a57fe5b90600052602060002090600302016001015410151561118857600080fd5b5b83816000018181525050828160200181815250506003600b8054905010156111d3576111c5600f6111c06005600b8054905061294b565b612932565b8160400181815250506111df565b60008160400181815250505b600b80548060010182816111f391906135fc565b916000526020600020906003020160008390919091506000820151816000015560208201518160010155604082015181600201555050507f1652a9d372dbc4e65f222c8c7545fd38bc190a6ee6139be8d59ae45e101320a98484836040015160405180848152602001838152602001828152602001935050505060405180910390a1600191505092915050565b601660009054906101000a900460ff1681565b60095481565b600a818154811015156112a857fe5b90600052602060002090016000915090505481565b6000806112c861247a565b905082600a60008154811015156112db57fe5b9060005260206000209001541115156112fc576112f9816005612914565b90505b82600a600181548110151561130d57fe5b90600052602060002090015411151561132e5761132b816005612914565b90505b82600a600281548110151561133f57fe5b90600052602060002090015411151561135757601990505b82600a600381548110151561136857fe5b90600052602060002090015411151561138057601e90505b6113a0611399600954611394846064612914565b61294b565b6064612bc7565b915050919050565b60008060008090505b600b805490508110156114295742600b828154811015156113ce57fe5b9060005260206000209060030201600001541115801561140e5750600b818154811015156113f857fe5b9060005260206000209060030201600101544211155b1561141c5760019150611429565b80806001019150506113b1565b819250505090565b600d5481565b6000809054906101000a900473ffffffffffffffffffffffffffffffffffffffff1673ffffffffffffffffffffffffffffffffffffffff163373ffffffffffffffffffffffffffffffffffffffff1614151561149257600080fd5b600060149054906101000a900460ff1615156114ad57600080fd5b60008060146101000a81548160ff0219169083151502179055507f7805862f689e2f13df9f062ff482ad3ad112aca9e0847911ed832e158c525b3360405160405180910390a1565b600c5481565b6000809054906101000a900473ffffffffffffffffffffffffffffffffffffffff1673ffffffffffffffffffffffffffffffffffffffff163373ffffffffffffffffffffffffffffffffffffffff1614151561155657600080fd5b601260149054906101000a900460ff1615151561157257600080fd5b61157a6113a8565b158061158a5750611589611788565b5b151561159557600080fd5b426015819055506115a4612be2565b7f6823b073d48d6e3a7d385eeb601452d680e74bb46afe3255a7d778f3a9b1768160405160405180910390a16001601260146101000a81548160ff021916908315150217905550565b601460009054906101000a900460ff1681565b600060149054906101000a900460ff1681565b600760009054906101000a900473ffffffffffffffffffffffffffffffffffffffff1681565b600660009054906101000a900473ffffffffffffffffffffffffffffffffffffffff1681565b600e5481565b600860009054906101000a900473ffffffffffffffffffffffffffffffffffffffff1681565b6000809054906101000a900473ffffffffffffffffffffffffffffffffffffffff1673ffffffffffffffffffffffffffffffffffffffff163373ffffffffffffffffffffffffffffffffffffffff161415156116e657600080fd5b600060149054906101000a900460ff1615151561170257600080fd5b6001600060146101000a81548160ff0219169083151502179055507f6985a02210a168e66602d3235cb6db0e70f92b3ba4d376a33c0f3d9434bff62560405160405180910390a1565b601260149054906101000a900460ff1681565b6000809054906101000a900473ffffffffffffffffffffffffffffffffffffffff1681565b600881565b6000600d54600c5414905090565b600160009054906101000a900473ffffffffffffffffffffffffffffffffffffffff1681565b601260009054906101000a900473ffffffffffffffffffffffffffffffffffffffff1681565b60008060009054906101000a900473ffffffffffffffffffffffffffffffffffffffff1673ffffffffffffffffffffffffffffffffffffffff163373ffffffffffffffffffffffffffffffffffffffff1614151561183f57600080fd5b601660009054906101000a900460ff1615151561185b57600080fd5b60008e73ffffffffffffffffffffffffffffffffffffffff1614158015611899575060008d73ffffffffffffffffffffffffffffffffffffffff1614155b80156118bc575060008c73ffffffffffffffffffffffffffffffffffffffff1614155b80156118df575060008b73ffffffffffffffffffffffffffffffffffffffff1614155b15156118ea57600080fd5b60008a73ffffffffffffffffffffffffffffffffffffffff1614158015611928575060008973ffffffffffffffffffffffffffffffffffffffff1614155b151561193357600080fd5b60008873ffffffffffffffffffffffffffffffffffffffff1614158015611971575060008773ffffffffffffffffffffffffffffffffffffffff1614155b151561197c57600080fd5b60008673ffffffffffffffffffffffffffffffffffffffff16141515156119a257600080fd5b8360001080156119b157508484105b15156119bc57600080fd5b6000831115156119cb57600080fd5b60008260008151811015156119dc57fe5b906020019060200201511115156119f257600080fd5b600090505b6001825103811015611a4f578160018201815181101515611a1457fe5b906020019060200201518282815181101515611a2c57fe5b90602001906020020151101515611a4257600080fd5b80806001019150506119f7565b8d600160006101000a81548173ffffffffffffffffffffffffffffffffffffffff021916908373ffffffffffffffffffffffffffffffffffffffff1602179055508c600260006101000a81548173ffffffffffffffffffffffffffffffffffffffff021916908373ffffffffffffffffffffffffffffffffffffffff1602179055508b600360006101000a81548173ffffffffffffffffffffffffffffffffffffffff021916908373ffffffffffffffffffffffffffffffffffffffff1602179055508a600460006101000a81548173ffffffffffffffffffffffffffffffffffffffff021916908373ffffffffffffffffffffffffffffffffffffffff16021790555089600560006101000a81548173ffffffffffffffffffffffffffffffffffffffff021916908373ffffffffffffffffffffffffffffffffffffffff16021790555088600660006101000a81548173ffffffffffffffffffffffffffffffffffffffff021916908373ffffffffffffffffffffffffffffffffffffffff16021790555087600760006101000a81548173ffffffffffffffffffffffffffffffffffffffff021916908373ffffffffffffffffffffffffffffffffffffffff16021790555086600860006101000a81548173ffffffffffffffffffffffffffffffffffffffff021916908373ffffffffffffffffffffffffffffffffffffffff16021790555085601260006101000a81548173ffffffffffffffffffffffffffffffffffffffff021916908373ffffffffffffffffffffffffffffffffffffffff16021790555084600d8190555083600e819055508260098190555081600a9080519060200190611cc392919061362e565b506001601660006101000a81548160ff0219169083151502179055507f80f860092ed8101278311dd6b10dda4920a40ea5dfcbacfe724e2accfaf63efc60405160405180910390a15050505050505050505050505050565b60135481565b600f6020528060005260406000206000915090505481565b6000601460009054906101000a900460ff16151515611d5757600080fd5b600460009054906101000a900473ffffffffffffffffffffffffffffffffffffffff1673ffffffffffffffffffffffffffffffffffffffff163373ffffffffffffffffffffffffffffffffffffffff16141515611db357600080fd5b81600c819055506001601460006101000a81548160ff0219169083151502179055507f502f53b79a6dda15d69bda5f43dda250173e0f669d80b10106313bc99a439be5826040518082815260200191505060405180910390a160019050919050565b6000600e54600c541015905090565b6000601260149054906101000a900460ff161515611e4157600080fd5b611e49611e15565b151515611e5557600080fd5b600360009054906101000a900473ffffffffffffffffffffffffffffffffffffffff1673ffffffffffffffffffffffffffffffffffffffff1663fa89401a836000604051602001526040518263ffffffff167c0100000000000000000000000000000000000000000000000000000000028152600401808273ffffffffffffffffffffffffffffffffffffffff1673ffffffffffffffffffffffffffffffffffffffff168152602001915050602060405180830381600087803b1515611f1a57600080fd5b6102c65a03f11515611f2b57600080fd5b505050604051805190509050919050565b600560009054906101000a900473ffffffffffffffffffffffffffffffffffffffff1681565b6000806000809054906101000a900473ffffffffffffffffffffffffffffffffffffffff1673ffffffffffffffffffffffffffffffffffffffff163373ffffffffffffffffffffffffffffffffffffffff16141515611fc057600080fd5b3073ffffffffffffffffffffffffffffffffffffffff16600260009054906101000a900473ffffffffffffffffffffffffffffffffffffffff1673ffffffffffffffffffffffffffffffffffffffff1663f77c47916000604051602001526040518163ffffffff167c0100000000000000000000000000000000000000000000000000000000028152600401602060405180830381600087803b151561206557600080fd5b6102c65a03f1151561207657600080fd5b5050506040518051905073ffffffffffffffffffffffffffffffffffffffff16141561216d57600260009054906101000a900473ffffffffffffffffffffffffffffffffffffffff1673ffffffffffffffffffffffffffffffffffffffff1663df8de3e7846040518263ffffffff167c0100000000000000000000000000000000000000000000000000000000028152600401808273ffffffffffffffffffffffffffffffffffffffff1673ffffffffffffffffffffffffffffffffffffffff168152602001915050600060405180830381600087803b151561215857600080fd5b6102c65a03f1151561216957600080fd5b5050505b60008373ffffffffffffffffffffffffffffffffffffffff161415612209576000809054906101000a900473ffffffffffffffffffffffffffffffffffffffff1673ffffffffffffffffffffffffffffffffffffffff166108fc3073ffffffffffffffffffffffffffffffffffffffff16319081150290604051600060405180830381858888f19350505050151561220457600080fd5b612475565b8291508173ffffffffffffffffffffffffffffffffffffffff166370a08231306000604051602001526040518263ffffffff167c0100000000000000000000000000000000000000000000000000000000028152600401808273ffffffffffffffffffffffffffffffffffffffff1673ffffffffffffffffffffffffffffffffffffffff168152602001915050602060405180830381600087803b15156122af57600080fd5b6102c65a03f115156122c057600080fd5b5050506040518051905090508173ffffffffffffffffffffffffffffffffffffffff1663a9059cbb6000809054906101000a900473ffffffffffffffffffffffffffffffffffffffff16836000604051602001526040518363ffffffff167c0100000000000000000000000000000000000000000000000000000000028152600401808373ffffffffffffffffffffffffffffffffffffffff1673ffffffffffffffffffffffffffffffffffffffff16815260200182815260200192505050602060405180830381600087803b151561239857600080fd5b6102c65a03f115156123a957600080fd5b50505060405180519050507ff931edb47c50b4b4104c187b5814a9aef5f709e17e2ecf9617e860cacade929c836000809054906101000a900473ffffffffffffffffffffffffffffffffffffffff1683604051808473ffffffffffffffffffffffffffffffffffffffff1673ffffffffffffffffffffffffffffffffffffffff1681526020018373ffffffffffffffffffffffffffffffffffffffff1673ffffffffffffffffffffffffffffffffffffffff168152602001828152602001935050505060405180910390a15b505050565b600080600080600090505b600b805490508110156125005742600b828154811015156124a257fe5b906000526020600020906003020160000154111580156124e25750600b818154811015156124cc57fe5b9060005260206000209060030201600101544211155b156124f35760019250809150612500565b8080600101915050612485565b82151561250c57600080fd5b600b8281548110151561251b57fe5b906000526020600020906003020160020154935050505090565b6000806000809054906101000a900473ffffffffffffffffffffffffffffffffffffffff1673ffffffffffffffffffffffffffffffffffffffff163373ffffffffffffffffffffffffffffffffffffffff1614151561259357600080fd5b601260149054906101000a900460ff1615156125ae57600080fd5b6125b6611e15565b1515156125c257600080fd5b6000831115156125d157600080fd5b826013540191506010805490508211156125ee5760108054905091505b60135490505b8181101561272457600360009054906101000a900473ffffffffffffffffffffffffffffffffffffffff1673ffffffffffffffffffffffffffffffffffffffff1663fa89401a60108381548110151561264957fe5b906000526020600020900160009054906101000a900473ffffffffffffffffffffffffffffffffffffffff166000604051602001526040518263ffffffff167c0100000000000000000000000000000000000000000000000000000000028152600401808273ffffffffffffffffffffffffffffffffffffffff1673ffffffffffffffffffffffffffffffffffffffff168152602001915050602060405180830381600087803b15156126fb57600080fd5b6102c65a03f1151561270c57600080fd5b505050604051805190505080806001019150506125f4565b816013819055507fa70a53972d6afb0fc38bd683cd5955faa5fa55e6629744a51e7a2aaa0ecc4e04836040518082815260200191505060405180910390a1505050565b600b8181548110151561277657fe5b90600052602060002090600302016000915090508060000154908060010154908060020154905083565b6000809054906101000a900473ffffffffffffffffffffffffffffffffffffffff1673ffffffffffffffffffffffffffffffffffffffff163373ffffffffffffffffffffffffffffffffffffffff161415156127fb57600080fd5b600073ffffffffffffffffffffffffffffffffffffffff168173ffffffffffffffffffffffffffffffffffffffff161415151561283757600080fd5b806000806101000a81548173ffffffffffffffffffffffffffffffffffffffff021916908373ffffffffffffffffffffffffffffffffffffffff16021790555050565b600360009054906101000a900473ffffffffffffffffffffffffffffffffffffffff1681565b600260009054906101000a900473ffffffffffffffffffffffffffffffffffffffff1681565b600460009054906101000a900473ffffffffffffffffffffffffffffffffffffffff1681565b60155481565b6000806000341415905080801561290e575061290c611788565b155b91505090565b600080828401905083811015151561292857fe5b8091505092915050565b600082821115151561294057fe5b818303905092915050565b6000808284029050600084148061296c575082848281151561296957fe5b04145b151561297457fe5b8091505092915050565b601160008273ffffffffffffffffffffffffffffffffffffffff1673ffffffffffffffffffffffffffffffffffffffff16815260200190815260200160002060009054906101000a900460ff161515612af0576001601160008373ffffffffffffffffffffffffffffffffffffffff1673ffffffffffffffffffffffffffffffffffffffff16815260200190815260200160002060006101000a81548160ff02191690831515021790555060108054806001018281612a3d919061367b565b9160005260206000209001600083909190916101000a81548173ffffffffffffffffffffffffffffffffffffffff021916908373ffffffffffffffffffffffffffffffffffffffff160217905550507f1095f211ec26cf9891a79b12717df016e5e06954063d8534ac589273c0ed2eb281604051808273ffffffffffffffffffffffffffffffffffffffff1673ffffffffffffffffffffffffffffffffffffffff16815260200191505060405180910390a15b50565b600360009054906101000a900473ffffffffffffffffffffffffffffffffffffffff1673ffffffffffffffffffffffffffffffffffffffff1663f340fa0182336040518363ffffffff167c0100000000000000000000000000000000000000000000000000000000028152600401808273ffffffffffffffffffffffffffffffffffffffff1673ffffffffffffffffffffffffffffffffffffffff1681526020019150506000604051808303818588803b1515612baf57600080fd5b6125ee5a03f11515612bc057600080fd5b5050505050565b6000808284811515612bd557fe5b0490508091505092915050565b6000806000806000612bf2611e15565b15612e5157600360009054906101000a900473ffffffffffffffffffffffffffffffffffffffff1673ffffffffffffffffffffffffffffffffffffffff166343d726d66040518163ffffffff167c0100000000000000000000000000000000000000000000000000000000028152600401600060405180830381600087803b1515612c7c57600080fd5b6102c65a03f11515612c8d57600080fd5b505050600260009054906101000a900473ffffffffffffffffffffffffffffffffffffffff1673ffffffffffffffffffffffffffffffffffffffff166318160ddd6000604051602001526040518163ffffffff167c0100000000000000000000000000000000000000000000000000000000028152600401602060405180830381600087803b1515612d1e57600080fd5b6102c65a03f11515612d2f57600080fd5b505050604051805190509450612d50612d4986600561294b565b6032612bc7565b9350612d67612d6086600f61294b565b6032612bc7565b9250612d7e612d7786600f61294b565b6032612bc7565b9150612d95612d8e86600f61294b565b6032612bc7565b9050612da38484848461308e565b600260009054906101000a900473ffffffffffffffffffffffffffffffffffffffff1673ffffffffffffffffffffffffffffffffffffffff1663f41e60c560016040518263ffffffff167c01000000000000000000000000000000000000000000000000000000000281526004018082151515158152602001915050600060405180830381600087803b1515612e3857600080fd5b6102c65a03f11515612e4957600080fd5b505050612eeb565b600360009054906101000a900473ffffffffffffffffffffffffffffffffffffffff1673ffffffffffffffffffffffffffffffffffffffff16638c52dc416040518163ffffffff167c0100000000000000000000000000000000000000000000000000000000028152600401600060405180830381600087803b1515612ed657600080fd5b6102c65a03f11515612ee757600080fd5b5050505b600260009054906101000a900473ffffffffffffffffffffffffffffffffffffffff1673ffffffffffffffffffffffffffffffffffffffff1663a4d67d636000604051602001526040518163ffffffff167c0100000000000000000000000000000000000000000000000000000000028152600401602060405180830381600087803b1515612f7957600080fd5b6102c65a03f11515612f8a57600080fd5b5050506040518051905050600260009054906101000a900473ffffffffffffffffffffffffffffffffffffffff1673ffffffffffffffffffffffffffffffffffffffff16633cebb823601260009054906101000a900473ffffffffffffffffffffffffffffffffffffffff166040518263ffffffff167c0100000000000000000000000000000000000000000000000000000000028152600401808273ffffffffffffffffffffffffffffffffffffffff1673ffffffffffffffffffffffffffffffffffffffff168152602001915050600060405180830381600087803b151561307357600080fd5b6102c65a03f1151561308457600080fd5b5050505050505050565b6000600560009054906101000a900473ffffffffffffffffffffffffffffffffffffffff1673ffffffffffffffffffffffffffffffffffffffff161415801561311057506000600660009054906101000a900473ffffffffffffffffffffffffffffffffffffffff1673ffffffffffffffffffffffffffffffffffffffff1614155b151561311b57600080fd5b6000600760009054906101000a900473ffffffffffffffffffffffffffffffffffffffff1673ffffffffffffffffffffffffffffffffffffffff161415801561319d57506000600860009054906101000a900473ffffffffffffffffffffffffffffffffffffffff1673ffffffffffffffffffffffffffffffffffffffff1614155b15156131a857600080fd5b600260009054906101000a900473ffffffffffffffffffffffffffffffffffffffff1673ffffffffffffffffffffffffffffffffffffffff1663827f32c0600560009054906101000a900473ffffffffffffffffffffffffffffffffffffffff16866000604051602001526040518363ffffffff167c0100000000000000000000000000000000000000000000000000000000028152600401808373ffffffffffffffffffffffffffffffffffffffff1673ffffffffffffffffffffffffffffffffffffffff16815260200182815260200192505050602060405180830381600087803b151561329757600080fd5b6102c65a03f115156132a857600080fd5b5050506040518051905050600260009054906101000a900473ffffffffffffffffffffffffffffffffffffffff1673ffffffffffffffffffffffffffffffffffffffff1663827f32c0600660009054906101000a900473ffffffffffffffffffffffffffffffffffffffff16856000604051602001526040518363ffffffff167c0100000000000000000000000000000000000000000000000000000000028152600401808373ffffffffffffffffffffffffffffffffffffffff1673ffffffffffffffffffffffffffffffffffffffff16815260200182815260200192505050602060405180830381600087803b15156133a257600080fd5b6102c65a03f115156133b357600080fd5b5050506040518051905050600260009054906101000a900473ffffffffffffffffffffffffffffffffffffffff1673ffffffffffffffffffffffffffffffffffffffff1663827f32c0600760009054906101000a900473ffffffffffffffffffffffffffffffffffffffff16846000604051602001526040518363ffffffff167c0100000000000000000000000000000000000000000000000000000000028152600401808373ffffffffffffffffffffffffffffffffffffffff1673ffffffffffffffffffffffffffffffffffffffff16815260200182815260200192505050602060405180830381600087803b15156134ad57600080fd5b6102c65a03f115156134be57600080fd5b5050506040518051905050600260009054906101000a900473ffffffffffffffffffffffffffffffffffffffff1673ffffffffffffffffffffffffffffffffffffffff1663827f32c0600860009054906101000a900473ffffffffffffffffffffffffffffffffffffffff16836000604051602001526040518363ffffffff167c0100000000000000000000000000000000000000000000000000000000028152600401808373ffffffffffffffffffffffffffffffffffffffff1673ffffffffffffffffffffffffffffffffffffffff16815260200182815260200192505050602060405180830381600087803b15156135b857600080fd5b6102c65a03f115156135c957600080fd5b505050604051805190505050505050565b6060604051908101604052806000815260200160008152602001600081525090565b8154818355818115116136295760030281600302836000526020600020918201910161362891906136a7565b5b505050565b82805482825590600052602060002090810192821561366a579160200282015b8281111561366957825182559160200191906001019061364e565b5b50905061367791906136de565b5090565b8154818355818115116136a2578183600052602060002091820191016136a191906136de565b5b505050565b6136db91905b808211156136d75760008082016000905560018201600090556002820160009055506003016136ad565b5090565b90565b61370091905b808211156136fc5760008160009055506001016136e4565b5090565b905600a165627a7a72305820cc761700a618790cff5ab13fda235ed8efd8de9d96400fb1dae8b0470aee2f7e0029",
  "source": "pragma solidity ^0.4.18;\n\nimport './kyc/KYC.sol';\nimport './ATC.sol';\nimport './vault/RefundVault.sol';\nimport './ownership/Ownable.sol';\nimport './math/SafeMath.sol';\nimport './lifecycle/Pausable.sol';\nimport './token/ERC20Basic.sol';\nimport './ReserveLocker.sol';\nimport './TeamLocker.sol';\n\ncontract ATCCrowdSale is Ownable, SafeMath, Pausable {\n  KYC public kyc;\n  ATC public token;\n  RefundVault public vault;\n\n  address public presale;\n\n  address public bountyAddress; //5% for bounty\n  address public partnersAddress; //15% for community groups & partners\n  address public ATCReserveLocker; //15% with 2 years lock\n  address public teamLocker; // 15% with 2 years vesting\n\n\n  struct Period {\n    uint256 startTime;\n    uint256 endTime;\n    uint256 bonus; // used to calculate rate with bonus. ragne 0 ~ 15 (0% ~ 15%)\n  }\n\n  uint256 public baseRate; // 1 ETH = 1500 ATC\n  uint256[] public additionalBonusAmounts;\n\n  Period[] public periods;\n  uint8 constant public MAX_PERIOD_COUNT = 8;\n\n  uint256 public weiRaised;\n  uint256 public maxEtherCap;\n  uint256 public minEtherCap;\n\n  mapping (address => uint256) public beneficiaryFunded;\n\n  address[] investorList;\n  mapping (address => bool) inInvestorList;\n\n  address public ATCController;\n\n  bool public isFinalized;\n  uint256 public refundCompleted;\n  bool public presaleFallBackCalled;\n\n  uint256 public finalizedTime;\n  bool public initialized;\n\n\n  event CrowdSaleTokenPurchase(address indexed _investor, address indexed _beneficiary, uint256 _toFund, uint256 _tokens);\n  event StartPeriod(uint256 _startTime, uint256 _endTime, uint256 _bonus);\n  event Finalized();\n  event PresaleFallBack(uint256 _presaleWeiRaised);\n  event PushInvestorList(address _investor);\n  event RefundAll(uint256 _numToRefund);\n  event ClaimedTokens(address _claimToken, address owner, uint256 balance);\n  event Initialize();\n\n  function initialize (\n    address _kyc,\n    address _token,\n    address _vault,\n    address _presale,\n    address _bountyAddress,\n    address _partnersAddress,\n    address _ATCReserveLocker,\n    address _teamLocker,\n    address _tokenController,\n    uint256 _maxEtherCap,\n    uint256 _minEtherCap,\n    uint256 _baseRate,\n    uint256[] _additionalBonusAmounts\n    ) onlyOwner {\n      require(!initialized);\n\n      require(_kyc != 0x00 && _token != 0x00 && _vault != 0x00 && _presale != 0x00);\n      require(_bountyAddress != 0x00 && _partnersAddress != 0x00);\n      require(_ATCReserveLocker != 0x00 && _teamLocker != 0x00);\n      require(_tokenController != 0x00);\n      require(0 < _minEtherCap && _minEtherCap < _maxEtherCap);\n      require(_baseRate > 0);\n      require(_additionalBonusAmounts[0] > 0);\n\n      for (uint i = 0; i < _additionalBonusAmounts.length - 1; i++) {\n        require(_additionalBonusAmounts[i] < _additionalBonusAmounts[i + 1]);\n      }\n\n      kyc = KYC(_kyc);\n      token = ATC(_token);\n      vault = RefundVault(_vault);\n      presale = _presale;\n\n      bountyAddress = _bountyAddress;\n      partnersAddress = _partnersAddress;\n\n      ATCReserveLocker = _ATCReserveLocker;\n      teamLocker = _teamLocker;\n\n      ATCController = _tokenController;\n\n      maxEtherCap = _maxEtherCap;\n      minEtherCap = _minEtherCap;\n\n      baseRate = _baseRate;\n      additionalBonusAmounts = _additionalBonusAmounts;\n\n      initialized = true;\n      Initialize();\n    }\n\n  function () public payable {\n    buy(msg.sender);\n  }\n\n  function presaleFallBack(uint256 _presaleWeiRaised) public returns (bool) {\n    require(!presaleFallBackCalled);\n    require(msg.sender == presale);\n\n    weiRaised = _presaleWeiRaised;\n    presaleFallBackCalled = true;\n\n    PresaleFallBack(_presaleWeiRaised);\n\n    return true;\n  }\n\n  function buy(address beneficiary)\n    public\n    payable\n    whenNotPaused\n  {\n      // check validity\n      require(presaleFallBackCalled);\n      require(beneficiary != 0x00);\n      require(kyc.registeredAddress(beneficiary));\n      require(onSale());\n      require(validPurchase());\n      require(!isFinalized);\n\n      // calculate eth amount\n      uint256 weiAmount = msg.value;\n      uint256 toFund;\n\n      uint256 postWeiRaised = add(weiRaised, weiAmount);\n\n      if (postWeiRaised > maxEtherCap) {\n        toFund = sub(maxEtherCap, weiRaised);\n      } else {\n        toFund = weiAmount;\n      }\n\n      require(toFund > 0);\n      require(weiAmount >= toFund);\n\n      uint256 rate = calculateRate(toFund);\n      uint256 tokens = mul(toFund, rate);\n      uint256 toReturn = sub(weiAmount, toFund);\n\n      pushInvestorList(msg.sender);\n\n      weiRaised = add(weiRaised, toFund);\n      beneficiaryFunded[beneficiary] = add(beneficiaryFunded[beneficiary], toFund);\n\n      token.generateTokens(beneficiary, tokens);\n\n      if (toReturn > 0) {\n        msg.sender.transfer(toReturn);\n      }\n\n      forwardFunds(toFund);\n      CrowdSaleTokenPurchase(msg.sender, beneficiary, toFund, tokens);\n  }\n\n  function pushInvestorList(address investor) internal {\n    if (!inInvestorList[investor]) {\n      inInvestorList[investor] = true;\n      investorList.push(investor);\n\n      PushInvestorList(investor);\n    }\n  }\n\n  function validPurchase() internal constant returns (bool) {\n    bool nonZeroPurchase = msg.value != 0;\n    return nonZeroPurchase && !maxReached();\n  }\n\n  function forwardFunds(uint256 toFund) internal {\n    vault.deposit.value(toFund)(msg.sender);\n  }\n\n  /**\n   * @dev Checks whether minEtherCap is reached\n   * @return true if min ether cap is reaced\n   */\n  function minReached() public constant returns (bool) {\n    return weiRaised >= minEtherCap;\n  }\n  /**\n   * @dev Checks whether maxEtherCap is reached\n   * @return true if max ether cap is reaced\n   */\n  function maxReached() public constant returns (bool) {\n    return weiRaised == maxEtherCap;\n  }\n\n  function getPeriodBonus() public constant returns (uint256) {\n    bool nowOnSale;\n    uint256 currentPeriod;\n\n    for (uint i = 0; i < periods.length; i++) {\n      if (periods[i].startTime <= now && now <= periods[i].endTime) {\n        nowOnSale = true;\n        currentPeriod = i;\n        break;\n      }\n    }\n\n    require(nowOnSale);\n    return periods[currentPeriod].bonus;\n  }\n\n  /**\n   * @dev rate = baseRate * (100 + bonus) / 100\n   */\n  function calculateRate(uint256 toFund) public constant returns (uint256)  {\n    uint bonus = getPeriodBonus();\n\n    // bonus for eth amount\n    if (additionalBonusAmounts[0] <= toFund) {\n      bonus = add(bonus, 5); // 5% amount bonus for more than 300 ETH\n    }\n\n    if (additionalBonusAmounts[1] <= toFund) {\n      bonus = add(bonus, 5); // 10% amount bonus for more than 6000 ETH\n    }\n\n    if (additionalBonusAmounts[2] <= toFund) {\n      bonus = 25; // final 25% amount bonus for more than 8000 ETH\n    }\n\n    if (additionalBonusAmounts[3] <= toFund) {\n      bonus = 30; // final 30% amount bonus for more than 10000 ETH\n    }\n\n    return div(mul(baseRate, add(bonus, 100)), 100);\n  }\n\n  function startPeriod(uint256 _startTime, uint256 _endTime) public onlyOwner returns (bool) {\n    require(periods.length < MAX_PERIOD_COUNT);\n    require(now < _startTime && _startTime < _endTime);\n\n\n    if (periods.length != 0) {\n      require(sub(_endTime, _startTime) <= 7 days);\n      require(periods[periods.length - 1].endTime < _startTime);\n    }\n\n    // 15% -> 10% -> 5% -> 0%\n    Period memory newPeriod;\n    newPeriod.startTime = _startTime;\n    newPeriod.endTime = _endTime;\n\n    if(periods.length < 3) {\n      newPeriod.bonus = sub(15, mul(5, periods.length));\n    } else {\n      newPeriod.bonus = 0;\n    }\n\n    periods.push(newPeriod);\n    StartPeriod(_startTime, _endTime, newPeriod.bonus);\n\n    return true;\n  }\n\n  function onSale() public returns (bool) {\n    bool nowOnSale;\n\n    for (uint i = 0; i < periods.length; i++) {\n      if (periods[i].startTime <= now && now <= periods[i].endTime) {\n        nowOnSale = true;\n        break;\n      }\n    }\n\n    return nowOnSale;\n  }\n  /**\n   * @dev should be called after crowdsale ends, to do\n   */\n  function finalize() onlyOwner {\n    require(!isFinalized);\n    require(!onSale() || maxReached());\n\n    finalizedTime = now;\n\n    finalization();\n    Finalized();\n\n    isFinalized = true;\n  }\n\n  /**\n   * @dev end token minting on finalization, mint tokens for dev team and reserve wallets\n   */\n  function finalization() internal {\n    if (minReached()) {\n      vault.close();\n\n      uint256 totalToken = token.totalSupply();\n\n      // token distribution : 50% for sale, 5% for bounty, 15% for partners, 15% for reserve, 15% for team\n      uint256 bountyAmount = div(mul(totalToken, 5), 50);\n      uint256 partnersAmount = div(mul(totalToken, 15), 50);\n      uint256 reserveAmount = div(mul(totalToken, 15), 50);\n      uint256 teamAmount = div(mul(totalToken, 15), 50);\n\n      distributeToken(bountyAmount, partnersAmount, reserveAmount, teamAmount);\n\n      token.enableTransfers(true);\n\n    } else {\n      vault.enableRefunds();\n    }\n    token.finishGenerating();\n    token.changeController(ATCController);\n  }\n\n  function distributeToken(uint256 bountyAmount, uint256 partnersAmount, uint256 reserveAmount, uint256 teamAmount) internal {\n    require(bountyAddress != 0x00 && partnersAddress != 0x00);\n    require(ATCReserveLocker != 0x00 && teamLocker != 0x00);\n\n    token.generateTokens(bountyAddress, bountyAmount);\n    token.generateTokens(partnersAddress, partnersAmount);\n    token.generateTokens(ATCReserveLocker, reserveAmount);\n    token.generateTokens(teamLocker, teamAmount);\n  }\n\n  /**\n   * @dev refund a lot of investors at a time checking onlyOwner\n   * @param numToRefund uint256 The number of investors to refund\n   */\n  function refundAll(uint256 numToRefund) onlyOwner {\n    require(isFinalized);\n    require(!minReached());\n    require(numToRefund > 0);\n\n    uint256 limit = refundCompleted + numToRefund;\n\n    if (limit > investorList.length) {\n      limit = investorList.length;\n    }\n\n    for(uint256 i = refundCompleted; i < limit; i++) {\n      vault.refund(investorList[i]);\n    }\n\n    refundCompleted = limit;\n    RefundAll(numToRefund);\n  }\n\n  /**\n   * @dev if crowdsale is unsuccessful, investors can claim refunds here\n   * @param investor address The account to be refunded\n   */\n  function claimRefund(address investor) returns (bool) {\n    require(isFinalized);\n    require(!minReached());\n\n    return vault.refund(investor);\n  }\n\n  function claimTokens(address _claimToken) public onlyOwner {\n\n    if (token.controller() == address(this)) {\n         token.claimTokens(_claimToken);\n    }\n\n    if (_claimToken == 0x0) {\n        owner.transfer(this.balance);\n        return;\n    }\n\n    ERC20Basic claimToken = ERC20Basic(_claimToken);\n    uint256 balance = claimToken.balanceOf(this);\n    claimToken.transfer(owner, balance);\n\n    ClaimedTokens(_claimToken, owner, balance);\n  }\n}\n",
  "sourcePath": "/Users/midinpa/workspace/dapps/aston-crowdsale/contracts/ATCCrowdSale.sol",
  "compiler": {
    "name": "solc",
    "version": "0.4.18+commit.9cf6e910.Emscripten.clang"
  },
  "schemaVersion": "1.0.1",
  "updatedAt": "2017-12-06T07:43:16.034Z"
}