{
  "contractName": "ATCCrowdSale",
  "abi": [
    {
      "constant": true,
      "inputs": [],
      "name": "reserverLocker",
      "outputs": [
        {
          "name": "",
          "type": "address"
        }
      ],
      "payable": false,
      "stateMutability": "view",
      "type": "function"
    },
    {
      "constant": true,
      "inputs": [],
      "name": "currentPeriod",
      "outputs": [
        {
          "name": "",
          "type": "uint256"
        }
      ],
      "payable": false,
      "stateMutability": "view",
      "type": "function"
    },
    {
      "constant": true,
      "inputs": [],
      "name": "baseRate",
      "outputs": [
        {
          "name": "",
          "type": "uint256"
        }
      ],
      "payable": false,
      "stateMutability": "view",
      "type": "function"
    },
    {
      "constant": true,
      "inputs": [],
      "name": "maxEtherCap",
      "outputs": [
        {
          "name": "",
          "type": "uint256"
        }
      ],
      "payable": false,
      "stateMutability": "view",
      "type": "function"
    },
    {
      "constant": false,
      "inputs": [],
      "name": "unpause",
      "outputs": [],
      "payable": false,
      "stateMutability": "nonpayable",
      "type": "function"
    },
    {
      "constant": true,
      "inputs": [],
      "name": "weiRaised",
      "outputs": [
        {
          "name": "",
          "type": "uint256"
        }
      ],
      "payable": false,
      "stateMutability": "view",
      "type": "function"
    },
    {
      "constant": false,
      "inputs": [],
      "name": "finalize",
      "outputs": [],
      "payable": false,
      "stateMutability": "nonpayable",
      "type": "function"
    },
    {
      "constant": true,
      "inputs": [],
      "name": "presaleFallBackCalled",
      "outputs": [
        {
          "name": "",
          "type": "bool"
        }
      ],
      "payable": false,
      "stateMutability": "view",
      "type": "function"
    },
    {
      "constant": true,
      "inputs": [
        {
          "name": "period",
          "type": "uint256"
        }
      ],
      "name": "periodFinished",
      "outputs": [
        {
          "name": "",
          "type": "bool"
        }
      ],
      "payable": false,
      "stateMutability": "view",
      "type": "function"
    },
    {
      "constant": true,
      "inputs": [],
      "name": "paused",
      "outputs": [
        {
          "name": "",
          "type": "bool"
        }
      ],
      "payable": false,
      "stateMutability": "view",
      "type": "function"
    },
    {
      "constant": true,
      "inputs": [],
      "name": "partnersAddress",
      "outputs": [
        {
          "name": "",
          "type": "address"
        }
      ],
      "payable": false,
      "stateMutability": "view",
      "type": "function"
    },
    {
      "constant": true,
      "inputs": [],
      "name": "minEtherCap",
      "outputs": [
        {
          "name": "",
          "type": "uint256"
        }
      ],
      "payable": false,
      "stateMutability": "view",
      "type": "function"
    },
    {
      "constant": true,
      "inputs": [],
      "name": "additionalBonusAmount1",
      "outputs": [
        {
          "name": "",
          "type": "uint256"
        }
      ],
      "payable": false,
      "stateMutability": "view",
      "type": "function"
    },
    {
      "constant": true,
      "inputs": [],
      "name": "teamLocker",
      "outputs": [
        {
          "name": "",
          "type": "address"
        }
      ],
      "payable": false,
      "stateMutability": "view",
      "type": "function"
    },
    {
      "constant": false,
      "inputs": [],
      "name": "pause",
      "outputs": [],
      "payable": false,
      "stateMutability": "nonpayable",
      "type": "function"
    },
    {
      "constant": true,
      "inputs": [],
      "name": "getBonus",
      "outputs": [
        {
          "name": "",
          "type": "uint256"
        }
      ],
      "payable": false,
      "stateMutability": "view",
      "type": "function"
    },
    {
      "constant": true,
      "inputs": [],
      "name": "isFinalized",
      "outputs": [
        {
          "name": "",
          "type": "bool"
        }
      ],
      "payable": false,
      "stateMutability": "view",
      "type": "function"
    },
    {
      "constant": true,
      "inputs": [],
      "name": "owner",
      "outputs": [
        {
          "name": "",
          "type": "address"
        }
      ],
      "payable": false,
      "stateMutability": "view",
      "type": "function"
    },
    {
      "constant": true,
      "inputs": [],
      "name": "MAX_PERIOD_COUNT",
      "outputs": [
        {
          "name": "",
          "type": "uint8"
        }
      ],
      "payable": false,
      "stateMutability": "view",
      "type": "function"
    },
    {
      "constant": true,
      "inputs": [],
      "name": "maxReached",
      "outputs": [
        {
          "name": "",
          "type": "bool"
        }
      ],
      "payable": false,
      "stateMutability": "view",
      "type": "function"
    },
    {
      "constant": true,
      "inputs": [],
      "name": "kyc",
      "outputs": [
        {
          "name": "",
          "type": "address"
        }
      ],
      "payable": false,
      "stateMutability": "view",
      "type": "function"
    },
    {
      "constant": true,
      "inputs": [],
      "name": "ATCController",
      "outputs": [
        {
          "name": "",
          "type": "address"
        }
      ],
      "payable": false,
      "stateMutability": "view",
      "type": "function"
    },
    {
      "constant": true,
      "inputs": [],
      "name": "refundCompleted",
      "outputs": [
        {
          "name": "",
          "type": "uint256"
        }
      ],
      "payable": false,
      "stateMutability": "view",
      "type": "function"
    },
    {
      "constant": true,
      "inputs": [
        {
          "name": "",
          "type": "address"
        }
      ],
      "name": "beneficiaryFunded",
      "outputs": [
        {
          "name": "",
          "type": "uint256"
        }
      ],
      "payable": false,
      "stateMutability": "view",
      "type": "function"
    },
    {
      "constant": false,
      "inputs": [
        {
          "name": "_presaleWeiRaised",
          "type": "uint256"
        }
      ],
      "name": "presaleFallBack",
      "outputs": [
        {
          "name": "",
          "type": "bool"
        }
      ],
      "payable": false,
      "stateMutability": "nonpayable",
      "type": "function"
    },
    {
      "constant": true,
      "inputs": [],
      "name": "minReached",
      "outputs": [
        {
          "name": "",
          "type": "bool"
        }
      ],
      "payable": false,
      "stateMutability": "view",
      "type": "function"
    },
    {
      "constant": false,
      "inputs": [
        {
          "name": "investor",
          "type": "address"
        }
      ],
      "name": "claimRefund",
      "outputs": [
        {
          "name": "",
          "type": "bool"
        }
      ],
      "payable": false,
      "stateMutability": "nonpayable",
      "type": "function"
    },
    {
      "constant": true,
      "inputs": [],
      "name": "bountyAddress",
      "outputs": [
        {
          "name": "",
          "type": "address"
        }
      ],
      "payable": false,
      "stateMutability": "view",
      "type": "function"
    },
    {
      "constant": true,
      "inputs": [],
      "name": "nonZeroPeriod",
      "outputs": [
        {
          "name": "",
          "type": "bool"
        }
      ],
      "payable": false,
      "stateMutability": "view",
      "type": "function"
    },
    {
      "constant": false,
      "inputs": [
        {
          "name": "_startTime",
          "type": "uint64"
        },
        {
          "name": "_endTime",
          "type": "uint64"
        }
      ],
      "name": "startPeriod",
      "outputs": [
        {
          "name": "",
          "type": "bool"
        }
      ],
      "payable": false,
      "stateMutability": "nonpayable",
      "type": "function"
    },
    {
      "constant": false,
      "inputs": [
        {
          "name": "numToRefund",
          "type": "uint256"
        }
      ],
      "name": "refundAll",
      "outputs": [],
      "payable": false,
      "stateMutability": "nonpayable",
      "type": "function"
    },
    {
      "constant": true,
      "inputs": [
        {
          "name": "",
          "type": "uint256"
        }
      ],
      "name": "periods",
      "outputs": [
        {
          "name": "startTime",
          "type": "uint64"
        },
        {
          "name": "endTime",
          "type": "uint64"
        },
        {
          "name": "bonus",
          "type": "uint256"
        }
      ],
      "payable": false,
      "stateMutability": "view",
      "type": "function"
    },
    {
      "constant": false,
      "inputs": [
        {
          "name": "beneficiary",
          "type": "address"
        }
      ],
      "name": "buy",
      "outputs": [],
      "payable": true,
      "stateMutability": "payable",
      "type": "function"
    },
    {
      "constant": true,
      "inputs": [],
      "name": "additionalBonusAmount2",
      "outputs": [
        {
          "name": "",
          "type": "uint256"
        }
      ],
      "payable": false,
      "stateMutability": "view",
      "type": "function"
    },
    {
      "constant": false,
      "inputs": [
        {
          "name": "newOwner",
          "type": "address"
        }
      ],
      "name": "transferOwnership",
      "outputs": [],
      "payable": false,
      "stateMutability": "nonpayable",
      "type": "function"
    },
    {
      "constant": true,
      "inputs": [],
      "name": "vault",
      "outputs": [
        {
          "name": "",
          "type": "address"
        }
      ],
      "payable": false,
      "stateMutability": "view",
      "type": "function"
    },
    {
      "constant": true,
      "inputs": [],
      "name": "token",
      "outputs": [
        {
          "name": "",
          "type": "address"
        }
      ],
      "payable": false,
      "stateMutability": "view",
      "type": "function"
    },
    {
      "constant": true,
      "inputs": [],
      "name": "presale",
      "outputs": [
        {
          "name": "",
          "type": "address"
        }
      ],
      "payable": false,
      "stateMutability": "view",
      "type": "function"
    },
    {
      "inputs": [
        {
          "name": "_kyc",
          "type": "address"
        },
        {
          "name": "_token",
          "type": "address"
        },
        {
          "name": "_vault",
          "type": "address"
        },
        {
          "name": "_presale",
          "type": "address"
        },
        {
          "name": "_bountyAddress",
          "type": "address"
        },
        {
          "name": "_partnersAddress",
          "type": "address"
        },
        {
          "name": "_reserverLocker",
          "type": "address"
        },
        {
          "name": "_teamLocker",
          "type": "address"
        },
        {
          "name": "_tokenController",
          "type": "address"
        },
        {
          "name": "_maxEtherCap",
          "type": "uint256"
        },
        {
          "name": "_minEtherCap",
          "type": "uint256"
        }
      ],
      "payable": false,
      "stateMutability": "nonpayable",
      "type": "constructor"
    },
    {
      "payable": true,
      "stateMutability": "payable",
      "type": "fallback"
    },
    {
      "anonymous": false,
      "inputs": [
        {
          "indexed": true,
          "name": "_investor",
          "type": "address"
        },
        {
          "indexed": true,
          "name": "_beneficiary",
          "type": "address"
        },
        {
          "indexed": false,
          "name": "_toFund",
          "type": "uint256"
        },
        {
          "indexed": false,
          "name": "_tokens",
          "type": "uint256"
        }
      ],
      "name": "CrowdSaleTokenPurchase",
      "type": "event"
    },
    {
      "anonymous": false,
      "inputs": [
        {
          "indexed": false,
          "name": "_startTime",
          "type": "uint64"
        },
        {
          "indexed": false,
          "name": "_endTime",
          "type": "uint64"
        },
        {
          "indexed": false,
          "name": "_bonus",
          "type": "uint256"
        }
      ],
      "name": "StartPeriod",
      "type": "event"
    },
    {
      "anonymous": false,
      "inputs": [],
      "name": "Finalized",
      "type": "event"
    },
    {
      "anonymous": false,
      "inputs": [
        {
          "indexed": false,
          "name": "_presaleWeiRaised",
          "type": "uint256"
        }
      ],
      "name": "PresaleFallBack",
      "type": "event"
    },
    {
      "anonymous": false,
      "inputs": [
        {
          "indexed": false,
          "name": "_investor",
          "type": "address"
        }
      ],
      "name": "PushInvestorList",
      "type": "event"
    },
    {
      "anonymous": false,
      "inputs": [
        {
          "indexed": false,
          "name": "_numToRefund",
          "type": "uint256"
        }
      ],
      "name": "RefundAll",
      "type": "event"
    },
    {
      "anonymous": false,
      "inputs": [],
      "name": "Pause",
      "type": "event"
    },
    {
      "anonymous": false,
      "inputs": [],
      "name": "Unpause",
      "type": "event"
    }
  ],
  "bytecode": "0x606060405260008060146101000a81548160ff0219169083151502179055506105dc600955681043561a882930000060135569014542ba12a337c0000060145534156200004b57600080fd5b6040516101608062002fc983398101604052808051906020019091908051906020019091908051906020019091908051906020019091908051906020019091908051906020019091908051906020019091908051906020019091908051906020019091908051906020019091908051906020019091905050336000806101000a81548173ffffffffffffffffffffffffffffffffffffffff021916908373ffffffffffffffffffffffffffffffffffffffff16021790555060008b73ffffffffffffffffffffffffffffffffffffffff161415801562000142575060008a73ffffffffffffffffffffffffffffffffffffffff1614155b801562000166575060008973ffffffffffffffffffffffffffffffffffffffff1614155b80156200018a575060008873ffffffffffffffffffffffffffffffffffffffff1614155b15156200019657600080fd5b60008773ffffffffffffffffffffffffffffffffffffffff1614158015620001d5575060008673ffffffffffffffffffffffffffffffffffffffff1614155b1515620001e157600080fd5b60008573ffffffffffffffffffffffffffffffffffffffff161415801562000220575060008473ffffffffffffffffffffffffffffffffffffffff1614155b15156200022c57600080fd5b60008373ffffffffffffffffffffffffffffffffffffffff16141515156200025357600080fd5b8060001080156200026357508181105b15156200026f57600080fd5b8a600160006101000a81548173ffffffffffffffffffffffffffffffffffffffff021916908373ffffffffffffffffffffffffffffffffffffffff16021790555089600260006101000a81548173ffffffffffffffffffffffffffffffffffffffff021916908373ffffffffffffffffffffffffffffffffffffffff16021790555088600360006101000a81548173ffffffffffffffffffffffffffffffffffffffff021916908373ffffffffffffffffffffffffffffffffffffffff16021790555087600460006101000a81548173ffffffffffffffffffffffffffffffffffffffff021916908373ffffffffffffffffffffffffffffffffffffffff16021790555086600560006101000a81548173ffffffffffffffffffffffffffffffffffffffff021916908373ffffffffffffffffffffffffffffffffffffffff16021790555085600660006101000a81548173ffffffffffffffffffffffffffffffffffffffff021916908373ffffffffffffffffffffffffffffffffffffffff16021790555084600760006101000a81548173ffffffffffffffffffffffffffffffffffffffff021916908373ffffffffffffffffffffffffffffffffffffffff16021790555083600860006101000a81548173ffffffffffffffffffffffffffffffffffffffff021916908373ffffffffffffffffffffffffffffffffffffffff16021790555082601260006101000a81548173ffffffffffffffffffffffffffffffffffffffff021916908373ffffffffffffffffffffffffffffffffffffffff16021790555081600d8190555080600e819055505050505050505050505050612ae880620004e16000396000f3006060604052600436106101d8576000357c0100000000000000000000000000000000000000000000000000000000900463ffffffff16806305d2a9d5146101e357806306040618146102385780631f68f20a14610261578063326fd5841461028a5780633f4ba83a146102b35780634042b66f146102c85780634bb278f3146102f1578063577890f6146103065780635bb11a57146103335780635c975abb1461036e5780636a75f03d1461039b57806377472b6f146103f05780637dadb7ca1461041957806380bc99cb146104425780638456cb59146104975780638bdff161146104ac5780638d4e4083146104d55780638da5cb5b146105025780638e6a2afa1461055757806390135fec1461058657806390d6b45f146105b3578063a06aceb214610608578063a6ca322b1461065d578063a743fa5014610686578063ad226122146106d3578063af6f964d1461070e578063bffa55d51461073b578063c516358f1461078c578063d81cb8dc146107e1578063e7d4eb761461080e578063e9fee16f14610866578063ea4a110414610889578063f088d547146108f6578063f16f361914610924578063f2fde38b1461094d578063fbfa77cf14610986578063fc0c546a146109db578063fdea8e0b14610a30575b6101e133610a85565b005b34156101ee57600080fd5b6101f6610f6d565b604051808273ffffffffffffffffffffffffffffffffffffffff1673ffffffffffffffffffffffffffffffffffffffff16815260200191505060405180910390f35b341561024357600080fd5b61024b610f93565b6040518082815260200191505060405180910390f35b341561026c57600080fd5b610274610f99565b6040518082815260200191505060405180910390f35b341561029557600080fd5b61029d610f9f565b6040518082815260200191505060405180910390f35b34156102be57600080fd5b6102c6610fa5565b005b34156102d357600080fd5b6102db611063565b6040518082815260200191505060405180910390f35b34156102fc57600080fd5b610304611069565b005b341561031157600080fd5b610319611156565b604051808215151515815260200191505060405180910390f35b341561033e57600080fd5b6103546004808035906020019091905050611169565b604051808215151515815260200191505060405180910390f35b341561037957600080fd5b6103816111e1565b604051808215151515815260200191505060405180910390f35b34156103a657600080fd5b6103ae6111f4565b604051808273ffffffffffffffffffffffffffffffffffffffff1673ffffffffffffffffffffffffffffffffffffffff16815260200191505060405180910390f35b34156103fb57600080fd5b61040361121a565b6040518082815260200191505060405180910390f35b341561042457600080fd5b61042c611220565b6040518082815260200191505060405180910390f35b341561044d57600080fd5b610455611226565b604051808273ffffffffffffffffffffffffffffffffffffffff1673ffffffffffffffffffffffffffffffffffffffff16815260200191505060405180910390f35b34156104a257600080fd5b6104aa61124c565b005b34156104b757600080fd5b6104bf61130c565b6040518082815260200191505060405180910390f35b34156104e057600080fd5b6104e8611336565b604051808215151515815260200191505060405180910390f35b341561050d57600080fd5b610515611349565b604051808273ffffffffffffffffffffffffffffffffffffffff1673ffffffffffffffffffffffffffffffffffffffff16815260200191505060405180910390f35b341561056257600080fd5b61056a61136e565b604051808260ff1660ff16815260200191505060405180910390f35b341561059157600080fd5b610599611373565b604051808215151515815260200191505060405180910390f35b34156105be57600080fd5b6105c6611381565b604051808273ffffffffffffffffffffffffffffffffffffffff1673ffffffffffffffffffffffffffffffffffffffff16815260200191505060405180910390f35b341561061357600080fd5b61061b6113a7565b604051808273ffffffffffffffffffffffffffffffffffffffff1673ffffffffffffffffffffffffffffffffffffffff16815260200191505060405180910390f35b341561066857600080fd5b6106706113cd565b6040518082815260200191505060405180910390f35b341561069157600080fd5b6106bd600480803573ffffffffffffffffffffffffffffffffffffffff169060200190919050506113d3565b6040518082815260200191505060405180910390f35b34156106de57600080fd5b6106f460048080359060200190919050506113eb565b604051808215151515815260200191505060405180910390f35b341561071957600080fd5b6107216114c7565b604051808215151515815260200191505060405180910390f35b341561074657600080fd5b610772600480803573ffffffffffffffffffffffffffffffffffffffff169060200190919050506114d6565b604051808215151515815260200191505060405180910390f35b341561079757600080fd5b61079f6115ee565b604051808273ffffffffffffffffffffffffffffffffffffffff1673ffffffffffffffffffffffffffffffffffffffff16815260200191505060405180910390f35b34156107ec57600080fd5b6107f4611614565b604051808215151515815260200191505060405180910390f35b341561081957600080fd5b61084c600480803567ffffffffffffffff1690602001909190803567ffffffffffffffff16906020019091905050611623565b604051808215151515815260200191505060405180910390f35b341561087157600080fd5b610887600480803590602001909190505061192d565b005b341561089457600080fd5b6108aa6004808035906020019091905050611b5f565b604051808467ffffffffffffffff1667ffffffffffffffff1681526020018367ffffffffffffffff1667ffffffffffffffff168152602001828152602001935050505060405180910390f35b610922600480803573ffffffffffffffffffffffffffffffffffffffff16906020019091905050610a85565b005b341561092f57600080fd5b610937611bc0565b6040518082815260200191505060405180910390f35b341561095857600080fd5b610984600480803573ffffffffffffffffffffffffffffffffffffffff16906020019091905050611bc6565b005b341561099157600080fd5b610999611ca0565b604051808273ffffffffffffffffffffffffffffffffffffffff1673ffffffffffffffffffffffffffffffffffffffff16815260200191505060405180910390f35b34156109e657600080fd5b6109ee611cc6565b604051808273ffffffffffffffffffffffffffffffffffffffff1673ffffffffffffffffffffffffffffffffffffffff16815260200191505060405180910390f35b3415610a3b57600080fd5b610a43611cec565b604051808273ffffffffffffffffffffffffffffffffffffffff1673ffffffffffffffffffffffffffffffffffffffff16815260200191505060405180910390f35b600080600080600080600080600060149054906101000a900460ff16151515610aad57600080fd5b600160009054906101000a900473ffffffffffffffffffffffffffffffffffffffff1673ffffffffffffffffffffffffffffffffffffffff1663ad1def428a6000604051602001526040518263ffffffff167c0100000000000000000000000000000000000000000000000000000000028152600401808273ffffffffffffffffffffffffffffffffffffffff1673ffffffffffffffffffffffffffffffffffffffff168152602001915050602060405180830381600087803b1515610b7257600080fd5b6102c65a03f11515610b8357600080fd5b505050604051805190501515610b9857600080fd5b601760009054906101000a900460ff161515610bb357600080fd5b610bbb611614565b1515610bc657600080fd5b610bd1600b54611169565b151515610bdd57600080fd5b60008973ffffffffffffffffffffffffffffffffffffffff1614151515610c0357600080fd5b610c0b611d12565b1515610c1657600080fd5b349750610c62600f60008b73ffffffffffffffffffffffffffffffffffffffff1673ffffffffffffffffffffffffffffffffffffffff1681526020019081526020016000205489611dd1565b9650610c70600c5487611dd1565b9450600d54851115610c9157610c8a600d54600c54611def565b9550610c95565b8795505b600086111515610ca457600080fd5b858810151515610cb357600080fd5b610cbb61130c565b935085601354111515610cd657610cd3846005611dd1565b93505b85601454111515610cef57610cec846005611dd1565b93505b610cf884611e08565b9250610d048684611e31565b9150610d108887611def565b9050610d1b33611e64565b610d27600c5487611dd1565b600c81905550610d76600f60008b73ffffffffffffffffffffffffffffffffffffffff1673ffffffffffffffffffffffffffffffffffffffff1681526020019081526020016000205487611dd1565b600f60008b73ffffffffffffffffffffffffffffffffffffffff1673ffffffffffffffffffffffffffffffffffffffff16815260200190815260200160002081905550600260009054906101000a900473ffffffffffffffffffffffffffffffffffffffff1673ffffffffffffffffffffffffffffffffffffffff1663827f32c08a846000604051602001526040518363ffffffff167c0100000000000000000000000000000000000000000000000000000000028152600401808373ffffffffffffffffffffffffffffffffffffffff1673ffffffffffffffffffffffffffffffffffffffff16815260200182815260200192505050602060405180830381600087803b1515610e8657600080fd5b6102c65a03f11515610e9757600080fd5b50505060405180519050506000811115610eec573373ffffffffffffffffffffffffffffffffffffffff166108fc829081150290604051600060405180830381858888f193505050501515610eeb57600080fd5b5b610ef586611fd9565b8873ffffffffffffffffffffffffffffffffffffffff163373ffffffffffffffffffffffffffffffffffffffff167f33759ee1eaa9f87f4186d31caf548c4494b9cef9fa6a2805ef0efd615fb182ff8885604051808381526020018281526020019250505060405180910390a3505050505050505050565b600760009054906101000a900473ffffffffffffffffffffffffffffffffffffffff1681565b600b5481565b60095481565b600d5481565b6000809054906101000a900473ffffffffffffffffffffffffffffffffffffffff1673ffffffffffffffffffffffffffffffffffffffff163373ffffffffffffffffffffffffffffffffffffffff1614151561100057600080fd5b600060149054906101000a900460ff16151561101b57600080fd5b60008060146101000a81548160ff0219169083151502179055507f7805862f689e2f13df9f062ff482ad3ad112aca9e0847911ed832e158c525b3360405160405180910390a1565b600c5481565b6000809054906101000a900473ffffffffffffffffffffffffffffffffffffffff1673ffffffffffffffffffffffffffffffffffffffff163373ffffffffffffffffffffffffffffffffffffffff161415156110c457600080fd5b601560009054906101000a900460ff161515156110e057600080fd5b6110eb600b54611169565b806110fa57506110f9611373565b5b151561110557600080fd5b61110d6120ad565b7f6823b073d48d6e3a7d385eeb601452d680e74bb46afe3255a7d778f3a9b1768160405160405180910390a16001601560006101000a81548160ff021916908315150217905550565b601760009054906101000a900460ff1681565b60008161117c600a805490506001611def565b1015151561118957600080fd5b611191611614565b80156111da5750600a828154811015156111a757fe5b906000526020600020906002020160000160089054906101000a900467ffffffffffffffff1667ffffffffffffffff1642115b9050919050565b600060149054906101000a900460ff1681565b600660009054906101000a900473ffffffffffffffffffffffffffffffffffffffff1681565b600e5481565b60135481565b600860009054906101000a900473ffffffffffffffffffffffffffffffffffffffff1681565b6000809054906101000a900473ffffffffffffffffffffffffffffffffffffffff1673ffffffffffffffffffffffffffffffffffffffff163373ffffffffffffffffffffffffffffffffffffffff161415156112a757600080fd5b600060149054906101000a900460ff161515156112c357600080fd5b6001600060146101000a81548160ff0219169083151502179055507f6985a02210a168e66602d3235cb6db0e70f92b3ba4d376a33c0f3d9434bff62560405160405180910390a1565b6000600a600b5481548110151561131f57fe5b906000526020600020906002020160010154905090565b601560009054906101000a900460ff1681565b6000809054906101000a900473ffffffffffffffffffffffffffffffffffffffff1681565b600881565b6000600d54600c5414905090565b600160009054906101000a900473ffffffffffffffffffffffffffffffffffffffff1681565b601260009054906101000a900473ffffffffffffffffffffffffffffffffffffffff1681565b60165481565b600f6020528060005260406000206000915090505481565b6000601760009054906101000a900460ff1615151561140957600080fd5b600460009054906101000a900473ffffffffffffffffffffffffffffffffffffffff1673ffffffffffffffffffffffffffffffffffffffff163373ffffffffffffffffffffffffffffffffffffffff1614151561146557600080fd5b81600c819055506001601760006101000a81548160ff0219169083151502179055507f502f53b79a6dda15d69bda5f43dda250173e0f669d80b10106313bc99a439be5826040518082815260200191505060405180910390a160019050919050565b6000600e54600c541015905090565b6000601560009054906101000a900460ff1615156114f357600080fd5b6114fb6114c7565b15151561150757600080fd5b600360009054906101000a900473ffffffffffffffffffffffffffffffffffffffff1673ffffffffffffffffffffffffffffffffffffffff1663fa89401a836000604051602001526040518263ffffffff167c0100000000000000000000000000000000000000000000000000000000028152600401808273ffffffffffffffffffffffffffffffffffffffff1673ffffffffffffffffffffffffffffffffffffffff168152602001915050602060405180830381600087803b15156115cc57600080fd5b6102c65a03f115156115dd57600080fd5b505050604051805190509050919050565b600560009054906101000a900473ffffffffffffffffffffffffffffffffffffffff1681565b600080600a8054905011905090565b600061162d6129a6565b6000809054906101000a900473ffffffffffffffffffffffffffffffffffffffff1673ffffffffffffffffffffffffffffffffffffffff163373ffffffffffffffffffffffffffffffffffffffff1614151561168857600080fd5b600860ff16600a8054905010151561169f57600080fd5b6116a7611373565b1515156116b357600080fd5b8367ffffffffffffffff16421080156116df57508267ffffffffffffffff168467ffffffffffffffff16105b15156116ea57600080fd5b6000600a805490501415156117295762093a8061171b8467ffffffffffffffff168667ffffffffffffffff16611def565b1115151561172857600080fd5b5b83816000019067ffffffffffffffff16908167ffffffffffffffff168152505082816020019067ffffffffffffffff16908167ffffffffffffffff16815250506004600a80549050101561179f57611791600f61178c6005600a80549050611e31565b611def565b8160400181815250506117ab565b60008160400181815250505b6117b3611614565b1561181a57600a600b548154811015156117c957fe5b906000526020600020906002020160000160089054906101000a900467ffffffffffffffff1667ffffffffffffffff164211151561180657600080fd5b611813600b546001611dd1565b600b819055505b600a805480600101828161182e91906129dc565b9160005260206000209060020201600083909190915060008201518160000160006101000a81548167ffffffffffffffff021916908367ffffffffffffffff16021790555060208201518160000160086101000a81548167ffffffffffffffff021916908367ffffffffffffffff160217905550604082015181600101555050507f283f5265b87d978ddecf66eb1a2b452efa26bd18a944cce959d890247d5ba8f084848360400151604051808467ffffffffffffffff1667ffffffffffffffff1681526020018367ffffffffffffffff1667ffffffffffffffff168152602001828152602001935050505060405180910390a1600191505092915050565b6000806000809054906101000a900473ffffffffffffffffffffffffffffffffffffffff1673ffffffffffffffffffffffffffffffffffffffff163373ffffffffffffffffffffffffffffffffffffffff1614151561198b57600080fd5b601560009054906101000a900460ff1615156119a657600080fd5b6119ae6114c7565b1515156119ba57600080fd5b6000831115156119c957600080fd5b826016540191506010805490508211156119e65760108054905091505b60165490505b81811015611b1c57600360009054906101000a900473ffffffffffffffffffffffffffffffffffffffff1673ffffffffffffffffffffffffffffffffffffffff1663fa89401a601083815481101515611a4157fe5b906000526020600020900160009054906101000a900473ffffffffffffffffffffffffffffffffffffffff166000604051602001526040518263ffffffff167c0100000000000000000000000000000000000000000000000000000000028152600401808273ffffffffffffffffffffffffffffffffffffffff1673ffffffffffffffffffffffffffffffffffffffff168152602001915050602060405180830381600087803b1515611af357600080fd5b6102c65a03f11515611b0457600080fd5b505050604051805190505080806001019150506119ec565b816016819055507fa70a53972d6afb0fc38bd683cd5955faa5fa55e6629744a51e7a2aaa0ecc4e04836040518082815260200191505060405180910390a1505050565b600a81815481101515611b6e57fe5b90600052602060002090600202016000915090508060000160009054906101000a900467ffffffffffffffff16908060000160089054906101000a900467ffffffffffffffff16908060010154905083565b60145481565b6000809054906101000a900473ffffffffffffffffffffffffffffffffffffffff1673ffffffffffffffffffffffffffffffffffffffff163373ffffffffffffffffffffffffffffffffffffffff16141515611c2157600080fd5b600073ffffffffffffffffffffffffffffffffffffffff168173ffffffffffffffffffffffffffffffffffffffff1614151515611c5d57600080fd5b806000806101000a81548173ffffffffffffffffffffffffffffffffffffffff021916908373ffffffffffffffffffffffffffffffffffffffff16021790555050565b600360009054906101000a900473ffffffffffffffffffffffffffffffffffffffff1681565b600260009054906101000a900473ffffffffffffffffffffffffffffffffffffffff1681565b600460009054906101000a900473ffffffffffffffffffffffffffffffffffffffff1681565b6000806000803414159150600a600b54815481101515611d2e57fe5b906000526020600020906002020160000160009054906101000a900467ffffffffffffffff1667ffffffffffffffff164210158015611dad5750600a600b54815481101515611d7957fe5b906000526020600020906002020160000160089054906101000a900467ffffffffffffffff1667ffffffffffffffff164211155b9050818015611dc15750611dbf611373565b155b8015611dca5750805b9250505090565b6000808284019050838110151515611de557fe5b8091505092915050565b6000828211151515611dfd57fe5b818303905092915050565b6000611e2a611e23600954611e1e856064611dd1565b611e31565b6064612559565b9050919050565b60008082840290506000841480611e525750828482811515611e4f57fe5b04145b1515611e5a57fe5b8091505092915050565b601160008273ffffffffffffffffffffffffffffffffffffffff1673ffffffffffffffffffffffffffffffffffffffff16815260200190815260200160002060009054906101000a900460ff161515611f73576001601160008373ffffffffffffffffffffffffffffffffffffffff1673ffffffffffffffffffffffffffffffffffffffff16815260200190815260200160002060006101000a81548160ff02191690831515021790555060108054806001018281611f239190612a0e565b9160005260206000209001600083909190916101000a81548173ffffffffffffffffffffffffffffffffffffffff021916908373ffffffffffffffffffffffffffffffffffffffff160217905550505b7f1095f211ec26cf9891a79b12717df016e5e06954063d8534ac589273c0ed2eb281604051808273ffffffffffffffffffffffffffffffffffffffff1673ffffffffffffffffffffffffffffffffffffffff16815260200191505060405180910390a150565b600360009054906101000a900473ffffffffffffffffffffffffffffffffffffffff1673ffffffffffffffffffffffffffffffffffffffff1663f340fa0182336040518363ffffffff167c0100000000000000000000000000000000000000000000000000000000028152600401808273ffffffffffffffffffffffffffffffffffffffff1673ffffffffffffffffffffffffffffffffffffffff1681526020019150506000604051808303818588803b151561209557600080fd5b6125ee5a03f115156120a657600080fd5b5050505050565b60008060008060006120bd6114c7565b1561231c57600360009054906101000a900473ffffffffffffffffffffffffffffffffffffffff1673ffffffffffffffffffffffffffffffffffffffff166343d726d66040518163ffffffff167c0100000000000000000000000000000000000000000000000000000000028152600401600060405180830381600087803b151561214757600080fd5b6102c65a03f1151561215857600080fd5b505050600260009054906101000a900473ffffffffffffffffffffffffffffffffffffffff1673ffffffffffffffffffffffffffffffffffffffff166318160ddd6000604051602001526040518163ffffffff167c0100000000000000000000000000000000000000000000000000000000028152600401602060405180830381600087803b15156121e957600080fd5b6102c65a03f115156121fa57600080fd5b50505060405180519050945061221b612214866005611e31565b6032612559565b935061223261222b86600f611e31565b6032612559565b925061224961224286600f611e31565b6032612559565b915061226061225986600f611e31565b6032612559565b905061226e84848484612574565b600260009054906101000a900473ffffffffffffffffffffffffffffffffffffffff1673ffffffffffffffffffffffffffffffffffffffff1663f41e60c560016040518263ffffffff167c01000000000000000000000000000000000000000000000000000000000281526004018082151515158152602001915050600060405180830381600087803b151561230357600080fd5b6102c65a03f1151561231457600080fd5b5050506123b6565b600360009054906101000a900473ffffffffffffffffffffffffffffffffffffffff1673ffffffffffffffffffffffffffffffffffffffff16638c52dc416040518163ffffffff167c0100000000000000000000000000000000000000000000000000000000028152600401600060405180830381600087803b15156123a157600080fd5b6102c65a03f115156123b257600080fd5b5050505b600260009054906101000a900473ffffffffffffffffffffffffffffffffffffffff1673ffffffffffffffffffffffffffffffffffffffff1663a4d67d636000604051602001526040518163ffffffff167c0100000000000000000000000000000000000000000000000000000000028152600401602060405180830381600087803b151561244457600080fd5b6102c65a03f1151561245557600080fd5b5050506040518051905050600260009054906101000a900473ffffffffffffffffffffffffffffffffffffffff1673ffffffffffffffffffffffffffffffffffffffff16633cebb823601260009054906101000a900473ffffffffffffffffffffffffffffffffffffffff166040518263ffffffff167c0100000000000000000000000000000000000000000000000000000000028152600401808273ffffffffffffffffffffffffffffffffffffffff1673ffffffffffffffffffffffffffffffffffffffff168152602001915050600060405180830381600087803b151561253e57600080fd5b6102c65a03f1151561254f57600080fd5b5050505050505050565b600080828481151561256757fe5b0490508091505092915050565b600260009054906101000a900473ffffffffffffffffffffffffffffffffffffffff1673ffffffffffffffffffffffffffffffffffffffff1663827f32c0600560009054906101000a900473ffffffffffffffffffffffffffffffffffffffff16866000604051602001526040518363ffffffff167c0100000000000000000000000000000000000000000000000000000000028152600401808373ffffffffffffffffffffffffffffffffffffffff1673ffffffffffffffffffffffffffffffffffffffff16815260200182815260200192505050602060405180830381600087803b151561266357600080fd5b6102c65a03f1151561267457600080fd5b5050506040518051905050600260009054906101000a900473ffffffffffffffffffffffffffffffffffffffff1673ffffffffffffffffffffffffffffffffffffffff1663827f32c0600660009054906101000a900473ffffffffffffffffffffffffffffffffffffffff16856000604051602001526040518363ffffffff167c0100000000000000000000000000000000000000000000000000000000028152600401808373ffffffffffffffffffffffffffffffffffffffff1673ffffffffffffffffffffffffffffffffffffffff16815260200182815260200192505050602060405180830381600087803b151561276e57600080fd5b6102c65a03f1151561277f57600080fd5b5050506040518051905050600260009054906101000a900473ffffffffffffffffffffffffffffffffffffffff1673ffffffffffffffffffffffffffffffffffffffff1663827f32c0600760009054906101000a900473ffffffffffffffffffffffffffffffffffffffff16846000604051602001526040518363ffffffff167c0100000000000000000000000000000000000000000000000000000000028152600401808373ffffffffffffffffffffffffffffffffffffffff1673ffffffffffffffffffffffffffffffffffffffff16815260200182815260200192505050602060405180830381600087803b151561287957600080fd5b6102c65a03f1151561288a57600080fd5b5050506040518051905050600260009054906101000a900473ffffffffffffffffffffffffffffffffffffffff1673ffffffffffffffffffffffffffffffffffffffff1663827f32c0600860009054906101000a900473ffffffffffffffffffffffffffffffffffffffff16836000604051602001526040518363ffffffff167c0100000000000000000000000000000000000000000000000000000000028152600401808373ffffffffffffffffffffffffffffffffffffffff1673ffffffffffffffffffffffffffffffffffffffff16815260200182815260200192505050602060405180830381600087803b151561298457600080fd5b6102c65a03f1151561299557600080fd5b505050604051805190505050505050565b606060405190810160405280600067ffffffffffffffff168152602001600067ffffffffffffffff168152602001600081525090565b815481835581811511612a0957600202816002028360005260206000209182019101612a089190612a3a565b5b505050565b815481835581811511612a3557818360005260206000209182019101612a349190612a97565b5b505050565b612a9491905b80821115612a9057600080820160006101000a81549067ffffffffffffffff02191690556000820160086101000a81549067ffffffffffffffff0219169055600182016000905550600201612a40565b5090565b90565b612ab991905b80821115612ab5576000816000905550600101612a9d565b5090565b905600a165627a7a72305820b7f407ba5822057189775e9bb6992ae47f4a4014bc03a923ebb1105919b745800029",
  "source": "pragma solidity ^0.4.18;\n\nimport './kyc/KYC.sol';\nimport './ATC.sol';\nimport './vault/RefundVault.sol';\nimport './ownership/Ownable.sol';\nimport './math/SafeMath.sol';\nimport './lifecycle/Pausable.sol';\n\ncontract ATCCrowdSale is Ownable, SafeMath, Pausable {\n  KYC public kyc;\n  ATC public token;\n  RefundVault public vault;\n\n  address public presale;\n\n  address public bountyAddress; //5% for bounty\n  address public partnersAddress; //15% for community groups & partners\n  address public reserverLocker; //15% with 2 years lock\n  address public teamLocker; // 15% with 2 years vesting\n\n  struct Period {\n    uint64 startTime;\n    uint64 endTime;\n    uint256 bonus; // used to calculate rate with bonus. ragne 0 ~ 15 (0% ~ 15%)\n  }\n\n  uint256 public baseRate = 1500; // 1 ETH = 1500 ATC\n\n  Period[] public periods;\n  uint256 public currentPeriod;\n  uint8 constant public MAX_PERIOD_COUNT = 8;\n\n  uint256 public weiRaised;\n  uint256 public maxEtherCap;\n  uint256 public minEtherCap;\n\n  mapping (address => uint256) public beneficiaryFunded;\n\n  address[] investorList;\n  mapping (address => bool) inInvestorList;\n\n  address public ATCController;\n\n  uint256 public additionalBonusAmount1 = 300 ether;\n  uint256 public additionalBonusAmount2 = 6000 ether;\n\n  bool public isFinalized;\n  uint256 public refundCompleted;\n  bool public presaleFallBackCalled;\n\n\n  event CrowdSaleTokenPurchase(address indexed _investor, address indexed _beneficiary, uint256 _toFund, uint256 _tokens);\n  event StartPeriod(uint64 _startTime, uint64 _endTime, uint256 _bonus);\n  event Finalized();\n  event PresaleFallBack(uint256 _presaleWeiRaised);\n  event PushInvestorList(address _investor);\n  event RefundAll(uint256 _numToRefund);\n\n\n  function ATCCrowdSale (\n    address _kyc,\n    address _token,\n    address _vault,\n    address _presale,\n    address _bountyAddress,\n    address _partnersAddress,\n    address _reserverLocker,\n    address _teamLocker,\n    address _tokenController,\n    uint256 _maxEtherCap,\n    uint256 _minEtherCap\n    ) {\n      require(_kyc != 0x00 && _token != 0x00 && _vault != 0x00 && _presale != 0x00);\n      require(_bountyAddress != 0x00 && _partnersAddress != 0x00);\n      require(_reserverLocker != 0x00 && _teamLocker != 0x00);\n      require(_tokenController != 0x00);\n      require(0 < _minEtherCap && _minEtherCap < _maxEtherCap);\n\n      kyc = KYC(_kyc);\n      token = ATC(_token);\n      vault = RefundVault(_vault);\n      presale = _presale;\n\n      bountyAddress = _bountyAddress;\n      partnersAddress = _partnersAddress;\n      reserverLocker = _reserverLocker;\n      teamLocker = _teamLocker;\n      ATCController = _tokenController;\n\n      maxEtherCap = _maxEtherCap;\n      minEtherCap = _minEtherCap;\n    }\n\n  function () public payable {\n    buy(msg.sender);\n  }\n\n  function presaleFallBack(uint256 _presaleWeiRaised) public returns (bool) {\n    require(!presaleFallBackCalled);\n    require(msg.sender == presale);\n\n    weiRaised = _presaleWeiRaised;\n    presaleFallBackCalled = true;\n\n    PresaleFallBack(_presaleWeiRaised);\n\n    return true;\n  }\n\n  function buy(address beneficiary)\n    public\n    payable\n    whenNotPaused\n  {\n      // check validity\n      require(kyc.registeredAddress(beneficiary));\n      require(presaleFallBackCalled);\n      require(nonZeroPeriod());\n      require(!periodFinished(currentPeriod));\n      require(beneficiary != 0x00);\n      require(validPurchase());\n\n      // calculate eth amount\n      uint256 weiAmount = msg.value;\n      uint256 totalAmount = add(beneficiaryFunded[beneficiary], weiAmount);\n      uint256 toFund;\n\n      uint256 postWeiRaised = add(weiRaised, toFund);\n\n      if (postWeiRaised > maxEtherCap) {\n        toFund = sub(maxEtherCap, weiRaised);\n      } else {\n        toFund = weiAmount;\n      }\n\n      require(toFund > 0);\n      require(weiAmount >= toFund);\n\n      // TODO: test bonus\n      uint256 bonus = getBonus();\n\n      // bonus for eth amount\n      if (additionalBonusAmount1 <= toFund) {\n        bonus = add(bonus, 5); // 5% amount bonus for more than 300 ETH\n      }\n\n      if (additionalBonusAmount2 <= toFund) {\n        bonus = add(bonus, 5); // 10% amount bonus for more than 6000 ETH\n      }\n\n      uint256 rate = calculateRate(bonus);\n      uint256 tokens = mul(toFund, rate);\n      uint256 toReturn = sub(weiAmount, toFund);\n\n      pushInvestorList(msg.sender);\n\n      weiRaised = add(weiRaised, toFund);\n      beneficiaryFunded[beneficiary] = add(beneficiaryFunded[beneficiary], toFund);\n\n      token.generateTokens(beneficiary, tokens);\n\n      if (toReturn > 0) {\n        msg.sender.transfer(toReturn);\n      }\n\n      forwardFunds(toFund);\n      CrowdSaleTokenPurchase(msg.sender, beneficiary, toFund, tokens);\n  }\n\n  function pushInvestorList(address investor) internal {\n    if (!inInvestorList[investor]) {\n      inInvestorList[investor] = true;\n      investorList.push(investor);\n    }\n\n    PushInvestorList(investor);\n  }\n\n  function validPurchase() internal constant returns (bool) {\n    bool nonZeroPurchase = msg.value != 0;\n    bool validTime = now >= periods[currentPeriod].startTime && now <= periods[currentPeriod].endTime;\n    return nonZeroPurchase && !maxReached() && validTime;\n  }\n\n  function forwardFunds(uint256 toFund) internal {\n    vault.deposit.value(toFund)(msg.sender);\n  }\n\n  function nonZeroPeriod() public constant returns (bool) {\n    return periods.length > 0;\n  }\n\n  function periodFinished(uint256 period) public constant returns (bool) {\n    require(sub(periods.length, 1) >= period);\n    return nonZeroPeriod() && now > periods[period].endTime;\n  }\n\n  /**\n   * @dev Checks whether minEtherCap is reached\n   * @return true if min ether cap is reaced\n   */\n  function minReached() public constant returns (bool) {\n    return weiRaised >= minEtherCap;\n  }\n  /**\n   * @dev Checks whether maxEtherCap is reached\n   * @return true if max ether cap is reaced\n   */\n  function maxReached() public constant returns (bool) {\n    return weiRaised == maxEtherCap;\n  }\n\n  function getBonus() public constant returns (uint256) {\n    return periods[currentPeriod].bonus;\n  }\n\n  /**\n   * @dev rate = baseRate * (100 + bonus) / 100\n   */\n  function calculateRate(uint256 bonus) internal returns (uint256)  {\n    return div(mul(baseRate, add(bonus, 100)), 100);\n  }\n\n  function startPeriod(uint64 _startTime, uint64 _endTime) public onlyOwner returns (bool) {\n    require(periods.length < MAX_PERIOD_COUNT);\n    require(!maxReached());\n    require(now < _startTime && _startTime < _endTime);\n\n    if (periods.length != 0) {\n      require(sub(_endTime, _startTime) <= 7 days);\n    }\n\n    // 15% -> 10% -> 5% -> 0%\n    Period memory newPeriod;\n    newPeriod.startTime = _startTime;\n    newPeriod.endTime = _endTime;\n\n    if(periods.length < 4) {\n      newPeriod.bonus = sub(15, mul(5, periods.length));\n    } else {\n      newPeriod.bonus = 0;\n    }\n\n    if (nonZeroPeriod()) {\n      require(now > periods[currentPeriod].endTime);\n      currentPeriod = add (currentPeriod, 1);\n    }\n\n    periods.push(newPeriod);\n\n    StartPeriod(_startTime, _endTime, newPeriod.bonus);\n\n    return true;\n  }\n\n  /**\n   * @dev should be called after crowdsale ends, to do\n   */\n  function finalize() onlyOwner {\n    require(!isFinalized);\n    require(periodFinished(currentPeriod) || maxReached());\n\n    finalization();\n    Finalized();\n\n    isFinalized = true;\n  }\n\n  /**\n   * @dev end token minting on finalization, mint tokens for dev team and reserve wallets\n   */\n  function finalization() internal {\n    if (minReached()) {\n      vault.close();\n\n      uint256 totalToken = token.totalSupply();\n\n      // token distribution : 50% for sale, 5% for bounty, 15% for partners, 15% for reserve, 15% for team\n      uint256 bountyAmount = div(mul(totalToken, 5), 50);\n      uint256 partnersAmount = div(mul(totalToken, 15), 50);\n      uint256 reserveAmount = div(mul(totalToken, 15), 50);\n      uint256 teamAmount = div(mul(totalToken, 15), 50);\n\n      distributeToken(bountyAmount, partnersAmount, reserveAmount, teamAmount);\n\n      token.enableTransfers(true);\n\n    } else {\n      vault.enableRefunds();\n    }\n    token.finishGenerating();\n    token.changeController(ATCController);\n  }\n\n  function distributeToken(uint256 bountyAmount, uint256 partnersAmount, uint256 reserveAmount, uint256 teamAmount) internal {\n    token.generateTokens(bountyAddress, bountyAmount);\n    token.generateTokens(partnersAddress, partnersAmount);\n    token.generateTokens(reserverLocker, reserveAmount);\n    token.generateTokens(teamLocker, teamAmount);\n  }\n\n  /**\n   * @dev refund a lot of investors at a time checking onlyOwner\n   * @param numToRefund uint256 The number of investors to refund\n   */\n  function refundAll(uint256 numToRefund) onlyOwner {\n    require(isFinalized);\n    require(!minReached());\n    require(numToRefund > 0);\n\n    uint256 limit = refundCompleted + numToRefund;\n\n    if (limit > investorList.length) {\n      limit = investorList.length;\n    }\n\n    for(uint256 i = refundCompleted; i < limit; i++) {\n      vault.refund(investorList[i]);\n    }\n\n    refundCompleted = limit;\n    RefundAll(numToRefund);\n  }\n\n  /**\n   * @dev if crowdsale is unsuccessful, investors can claim refunds here\n   * @param investor address The account to be refunded\n   */\n  function claimRefund(address investor) returns (bool) {\n    require(isFinalized);\n    require(!minReached());\n\n    return vault.refund(investor);\n  }\n}\n",
  "sourcePath": "/Users/midinpa/workspace/dapps/aston-crowdsale/contracts/ATCCrowdSale.sol",
  "compiler": {
    "name": "solc",
    "version": "0.4.18+commit.9cf6e910.Emscripten.clang"
  },
  "schemaVersion": "1.0.1",
  "updatedAt": "2017-11-24T09:23:56.267Z"
}