{
  "contractName": "ATCCrowdSale",
  "abi": [
    {
      "constant": true,
      "inputs": [],
      "name": "reserverLocker",
      "outputs": [
        {
          "name": "",
          "type": "address"
        }
      ],
      "payable": false,
      "stateMutability": "view",
      "type": "function"
    },
    {
      "constant": true,
      "inputs": [],
      "name": "baseRate",
      "outputs": [
        {
          "name": "",
          "type": "uint256"
        }
      ],
      "payable": false,
      "stateMutability": "view",
      "type": "function"
    },
    {
      "constant": false,
      "inputs": [],
      "name": "onSale",
      "outputs": [
        {
          "name": "",
          "type": "bool"
        }
      ],
      "payable": false,
      "stateMutability": "nonpayable",
      "type": "function"
    },
    {
      "constant": true,
      "inputs": [],
      "name": "maxEtherCap",
      "outputs": [
        {
          "name": "",
          "type": "uint256"
        }
      ],
      "payable": false,
      "stateMutability": "view",
      "type": "function"
    },
    {
      "constant": false,
      "inputs": [],
      "name": "unpause",
      "outputs": [],
      "payable": false,
      "stateMutability": "nonpayable",
      "type": "function"
    },
    {
      "constant": true,
      "inputs": [],
      "name": "weiRaised",
      "outputs": [
        {
          "name": "",
          "type": "uint256"
        }
      ],
      "payable": false,
      "stateMutability": "view",
      "type": "function"
    },
    {
      "constant": false,
      "inputs": [],
      "name": "finalize",
      "outputs": [],
      "payable": false,
      "stateMutability": "nonpayable",
      "type": "function"
    },
    {
      "constant": true,
      "inputs": [],
      "name": "presaleFallBackCalled",
      "outputs": [
        {
          "name": "",
          "type": "bool"
        }
      ],
      "payable": false,
      "stateMutability": "view",
      "type": "function"
    },
    {
      "constant": true,
      "inputs": [],
      "name": "paused",
      "outputs": [
        {
          "name": "",
          "type": "bool"
        }
      ],
      "payable": false,
      "stateMutability": "view",
      "type": "function"
    },
    {
      "constant": true,
      "inputs": [],
      "name": "partnersAddress",
      "outputs": [
        {
          "name": "",
          "type": "address"
        }
      ],
      "payable": false,
      "stateMutability": "view",
      "type": "function"
    },
    {
      "constant": true,
      "inputs": [],
      "name": "minEtherCap",
      "outputs": [
        {
          "name": "",
          "type": "uint256"
        }
      ],
      "payable": false,
      "stateMutability": "view",
      "type": "function"
    },
    {
      "constant": true,
      "inputs": [],
      "name": "additionalBonusAmount1",
      "outputs": [
        {
          "name": "",
          "type": "uint256"
        }
      ],
      "payable": false,
      "stateMutability": "view",
      "type": "function"
    },
    {
      "constant": true,
      "inputs": [],
      "name": "teamLocker",
      "outputs": [
        {
          "name": "",
          "type": "address"
        }
      ],
      "payable": false,
      "stateMutability": "view",
      "type": "function"
    },
    {
      "constant": false,
      "inputs": [],
      "name": "pause",
      "outputs": [],
      "payable": false,
      "stateMutability": "nonpayable",
      "type": "function"
    },
    {
      "constant": true,
      "inputs": [],
      "name": "getBonus",
      "outputs": [
        {
          "name": "",
          "type": "uint256"
        }
      ],
      "payable": false,
      "stateMutability": "view",
      "type": "function"
    },
    {
      "constant": true,
      "inputs": [],
      "name": "isFinalized",
      "outputs": [
        {
          "name": "",
          "type": "bool"
        }
      ],
      "payable": false,
      "stateMutability": "view",
      "type": "function"
    },
    {
      "constant": true,
      "inputs": [],
      "name": "owner",
      "outputs": [
        {
          "name": "",
          "type": "address"
        }
      ],
      "payable": false,
      "stateMutability": "view",
      "type": "function"
    },
    {
      "constant": true,
      "inputs": [],
      "name": "MAX_PERIOD_COUNT",
      "outputs": [
        {
          "name": "",
          "type": "uint8"
        }
      ],
      "payable": false,
      "stateMutability": "view",
      "type": "function"
    },
    {
      "constant": true,
      "inputs": [],
      "name": "maxReached",
      "outputs": [
        {
          "name": "",
          "type": "bool"
        }
      ],
      "payable": false,
      "stateMutability": "view",
      "type": "function"
    },
    {
      "constant": true,
      "inputs": [],
      "name": "kyc",
      "outputs": [
        {
          "name": "",
          "type": "address"
        }
      ],
      "payable": false,
      "stateMutability": "view",
      "type": "function"
    },
    {
      "constant": true,
      "inputs": [],
      "name": "ATCController",
      "outputs": [
        {
          "name": "",
          "type": "address"
        }
      ],
      "payable": false,
      "stateMutability": "view",
      "type": "function"
    },
    {
      "constant": true,
      "inputs": [],
      "name": "refundCompleted",
      "outputs": [
        {
          "name": "",
          "type": "uint256"
        }
      ],
      "payable": false,
      "stateMutability": "view",
      "type": "function"
    },
    {
      "constant": true,
      "inputs": [
        {
          "name": "",
          "type": "address"
        }
      ],
      "name": "beneficiaryFunded",
      "outputs": [
        {
          "name": "",
          "type": "uint256"
        }
      ],
      "payable": false,
      "stateMutability": "view",
      "type": "function"
    },
    {
      "constant": false,
      "inputs": [
        {
          "name": "_presaleWeiRaised",
          "type": "uint256"
        }
      ],
      "name": "presaleFallBack",
      "outputs": [
        {
          "name": "",
          "type": "bool"
        }
      ],
      "payable": false,
      "stateMutability": "nonpayable",
      "type": "function"
    },
    {
      "constant": true,
      "inputs": [],
      "name": "minReached",
      "outputs": [
        {
          "name": "",
          "type": "bool"
        }
      ],
      "payable": false,
      "stateMutability": "view",
      "type": "function"
    },
    {
      "constant": false,
      "inputs": [
        {
          "name": "investor",
          "type": "address"
        }
      ],
      "name": "claimRefund",
      "outputs": [
        {
          "name": "",
          "type": "bool"
        }
      ],
      "payable": false,
      "stateMutability": "nonpayable",
      "type": "function"
    },
    {
      "constant": true,
      "inputs": [],
      "name": "bountyAddress",
      "outputs": [
        {
          "name": "",
          "type": "address"
        }
      ],
      "payable": false,
      "stateMutability": "view",
      "type": "function"
    },
    {
      "constant": false,
      "inputs": [
        {
          "name": "_claimToken",
          "type": "address"
        }
      ],
      "name": "claimTokens",
      "outputs": [],
      "payable": false,
      "stateMutability": "nonpayable",
      "type": "function"
    },
    {
      "constant": false,
      "inputs": [
        {
          "name": "_startTime",
          "type": "uint64"
        },
        {
          "name": "_endTime",
          "type": "uint64"
        }
      ],
      "name": "startPeriod",
      "outputs": [
        {
          "name": "",
          "type": "bool"
        }
      ],
      "payable": false,
      "stateMutability": "nonpayable",
      "type": "function"
    },
    {
      "constant": false,
      "inputs": [
        {
          "name": "numToRefund",
          "type": "uint256"
        }
      ],
      "name": "refundAll",
      "outputs": [],
      "payable": false,
      "stateMutability": "nonpayable",
      "type": "function"
    },
    {
      "constant": true,
      "inputs": [
        {
          "name": "",
          "type": "uint256"
        }
      ],
      "name": "periods",
      "outputs": [
        {
          "name": "startTime",
          "type": "uint64"
        },
        {
          "name": "endTime",
          "type": "uint64"
        },
        {
          "name": "bonus",
          "type": "uint256"
        }
      ],
      "payable": false,
      "stateMutability": "view",
      "type": "function"
    },
    {
      "constant": false,
      "inputs": [
        {
          "name": "beneficiary",
          "type": "address"
        }
      ],
      "name": "buy",
      "outputs": [],
      "payable": true,
      "stateMutability": "payable",
      "type": "function"
    },
    {
      "constant": true,
      "inputs": [],
      "name": "additionalBonusAmount2",
      "outputs": [
        {
          "name": "",
          "type": "uint256"
        }
      ],
      "payable": false,
      "stateMutability": "view",
      "type": "function"
    },
    {
      "constant": false,
      "inputs": [
        {
          "name": "newOwner",
          "type": "address"
        }
      ],
      "name": "transferOwnership",
      "outputs": [],
      "payable": false,
      "stateMutability": "nonpayable",
      "type": "function"
    },
    {
      "constant": true,
      "inputs": [],
      "name": "vault",
      "outputs": [
        {
          "name": "",
          "type": "address"
        }
      ],
      "payable": false,
      "stateMutability": "view",
      "type": "function"
    },
    {
      "constant": true,
      "inputs": [],
      "name": "token",
      "outputs": [
        {
          "name": "",
          "type": "address"
        }
      ],
      "payable": false,
      "stateMutability": "view",
      "type": "function"
    },
    {
      "constant": true,
      "inputs": [],
      "name": "presale",
      "outputs": [
        {
          "name": "",
          "type": "address"
        }
      ],
      "payable": false,
      "stateMutability": "view",
      "type": "function"
    },
    {
      "inputs": [
        {
          "name": "_kyc",
          "type": "address"
        },
        {
          "name": "_token",
          "type": "address"
        },
        {
          "name": "_vault",
          "type": "address"
        },
        {
          "name": "_presale",
          "type": "address"
        },
        {
          "name": "_bountyAddress",
          "type": "address"
        },
        {
          "name": "_partnersAddress",
          "type": "address"
        },
        {
          "name": "_reserverLocker",
          "type": "address"
        },
        {
          "name": "_teamLocker",
          "type": "address"
        },
        {
          "name": "_tokenController",
          "type": "address"
        },
        {
          "name": "_maxEtherCap",
          "type": "uint256"
        },
        {
          "name": "_minEtherCap",
          "type": "uint256"
        }
      ],
      "payable": false,
      "stateMutability": "nonpayable",
      "type": "constructor"
    },
    {
      "payable": true,
      "stateMutability": "payable",
      "type": "fallback"
    },
    {
      "anonymous": false,
      "inputs": [
        {
          "indexed": true,
          "name": "_investor",
          "type": "address"
        },
        {
          "indexed": true,
          "name": "_beneficiary",
          "type": "address"
        },
        {
          "indexed": false,
          "name": "_toFund",
          "type": "uint256"
        },
        {
          "indexed": false,
          "name": "_tokens",
          "type": "uint256"
        }
      ],
      "name": "CrowdSaleTokenPurchase",
      "type": "event"
    },
    {
      "anonymous": false,
      "inputs": [
        {
          "indexed": false,
          "name": "_startTime",
          "type": "uint64"
        },
        {
          "indexed": false,
          "name": "_endTime",
          "type": "uint64"
        },
        {
          "indexed": false,
          "name": "_bonus",
          "type": "uint256"
        }
      ],
      "name": "StartPeriod",
      "type": "event"
    },
    {
      "anonymous": false,
      "inputs": [],
      "name": "Finalized",
      "type": "event"
    },
    {
      "anonymous": false,
      "inputs": [
        {
          "indexed": false,
          "name": "_presaleWeiRaised",
          "type": "uint256"
        }
      ],
      "name": "PresaleFallBack",
      "type": "event"
    },
    {
      "anonymous": false,
      "inputs": [
        {
          "indexed": false,
          "name": "_investor",
          "type": "address"
        }
      ],
      "name": "PushInvestorList",
      "type": "event"
    },
    {
      "anonymous": false,
      "inputs": [
        {
          "indexed": false,
          "name": "_numToRefund",
          "type": "uint256"
        }
      ],
      "name": "RefundAll",
      "type": "event"
    },
    {
      "anonymous": false,
      "inputs": [
        {
          "indexed": false,
          "name": "_claimToken",
          "type": "address"
        },
        {
          "indexed": false,
          "name": "owner",
          "type": "address"
        },
        {
          "indexed": false,
          "name": "balance",
          "type": "uint256"
        }
      ],
      "name": "ClaimedTokens",
      "type": "event"
    },
    {
      "anonymous": false,
      "inputs": [],
      "name": "Pause",
      "type": "event"
    },
    {
      "anonymous": false,
      "inputs": [],
      "name": "Unpause",
      "type": "event"
    }
  ],
  "bytecode": "0x606060405260008060146101000a81548160ff0219169083151502179055506105dc600955681043561a882930000060125569014542ba12a337c0000060135534156200004b57600080fd5b604051610160806200348b83398101604052808051906020019091908051906020019091908051906020019091908051906020019091908051906020019091908051906020019091908051906020019091908051906020019091908051906020019091908051906020019091908051906020019091905050336000806101000a81548173ffffffffffffffffffffffffffffffffffffffff021916908373ffffffffffffffffffffffffffffffffffffffff16021790555060008b73ffffffffffffffffffffffffffffffffffffffff161415801562000142575060008a73ffffffffffffffffffffffffffffffffffffffff1614155b801562000166575060008973ffffffffffffffffffffffffffffffffffffffff1614155b80156200018a575060008873ffffffffffffffffffffffffffffffffffffffff1614155b15156200019657600080fd5b60008773ffffffffffffffffffffffffffffffffffffffff1614158015620001d5575060008673ffffffffffffffffffffffffffffffffffffffff1614155b1515620001e157600080fd5b60008573ffffffffffffffffffffffffffffffffffffffff161415801562000220575060008473ffffffffffffffffffffffffffffffffffffffff1614155b15156200022c57600080fd5b60008373ffffffffffffffffffffffffffffffffffffffff16141515156200025357600080fd5b8060001080156200026357508181105b15156200026f57600080fd5b8a600160006101000a81548173ffffffffffffffffffffffffffffffffffffffff021916908373ffffffffffffffffffffffffffffffffffffffff16021790555089600260006101000a81548173ffffffffffffffffffffffffffffffffffffffff021916908373ffffffffffffffffffffffffffffffffffffffff16021790555088600360006101000a81548173ffffffffffffffffffffffffffffffffffffffff021916908373ffffffffffffffffffffffffffffffffffffffff16021790555087600460006101000a81548173ffffffffffffffffffffffffffffffffffffffff021916908373ffffffffffffffffffffffffffffffffffffffff16021790555086600560006101000a81548173ffffffffffffffffffffffffffffffffffffffff021916908373ffffffffffffffffffffffffffffffffffffffff16021790555085600660006101000a81548173ffffffffffffffffffffffffffffffffffffffff021916908373ffffffffffffffffffffffffffffffffffffffff16021790555084600760006101000a81548173ffffffffffffffffffffffffffffffffffffffff021916908373ffffffffffffffffffffffffffffffffffffffff16021790555083600860006101000a81548173ffffffffffffffffffffffffffffffffffffffff021916908373ffffffffffffffffffffffffffffffffffffffff16021790555082601160006101000a81548173ffffffffffffffffffffffffffffffffffffffff021916908373ffffffffffffffffffffffffffffffffffffffff16021790555081600c8190555080600d819055505050505050505050505050612faa80620004e16000396000f3006060604052600436106101cd576000357c0100000000000000000000000000000000000000000000000000000000900463ffffffff16806305d2a9d5146101d85780631f68f20a1461022d578063326687b914610256578063326fd584146102835780633f4ba83a146102ac5780634042b66f146102c15780634bb278f3146102ea578063577890f6146102ff5780635c975abb1461032c5780636a75f03d1461035957806377472b6f146103ae5780637dadb7ca146103d757806380bc99cb146104005780638456cb59146104555780638bdff1611461046a5780638d4e4083146104935780638da5cb5b146104c05780638e6a2afa1461051557806390135fec1461054457806390d6b45f14610571578063a06aceb2146105c6578063a6ca322b1461061b578063a743fa5014610644578063ad22612214610691578063af6f964d146106cc578063bffa55d5146106f9578063c516358f1461074a578063df8de3e71461079f578063e7d4eb76146107d8578063e9fee16f14610830578063ea4a110414610853578063f088d547146108c0578063f16f3619146108ee578063f2fde38b14610917578063fbfa77cf14610950578063fc0c546a146109a5578063fdea8e0b146109fa575b6101d633610a4f565b005b34156101e357600080fd5b6101eb610f3c565b604051808273ffffffffffffffffffffffffffffffffffffffff1673ffffffffffffffffffffffffffffffffffffffff16815260200191505060405180910390f35b341561023857600080fd5b610240610f62565b6040518082815260200191505060405180910390f35b341561026157600080fd5b610269610f68565b604051808215151515815260200191505060405180910390f35b341561028e57600080fd5b610296611029565b6040518082815260200191505060405180910390f35b34156102b757600080fd5b6102bf61102f565b005b34156102cc57600080fd5b6102d46110ed565b6040518082815260200191505060405180910390f35b34156102f557600080fd5b6102fd6110f3565b005b341561030a57600080fd5b6103126111de565b604051808215151515815260200191505060405180910390f35b341561033757600080fd5b61033f6111f1565b604051808215151515815260200191505060405180910390f35b341561036457600080fd5b61036c611204565b604051808273ffffffffffffffffffffffffffffffffffffffff1673ffffffffffffffffffffffffffffffffffffffff16815260200191505060405180910390f35b34156103b957600080fd5b6103c161122a565b6040518082815260200191505060405180910390f35b34156103e257600080fd5b6103ea611230565b6040518082815260200191505060405180910390f35b341561040b57600080fd5b610413611236565b604051808273ffffffffffffffffffffffffffffffffffffffff1673ffffffffffffffffffffffffffffffffffffffff16815260200191505060405180910390f35b341561046057600080fd5b61046861125c565b005b341561047557600080fd5b61047d61131c565b6040518082815260200191505060405180910390f35b341561049e57600080fd5b6104a661140f565b604051808215151515815260200191505060405180910390f35b34156104cb57600080fd5b6104d3611422565b604051808273ffffffffffffffffffffffffffffffffffffffff1673ffffffffffffffffffffffffffffffffffffffff16815260200191505060405180910390f35b341561052057600080fd5b610528611447565b604051808260ff1660ff16815260200191505060405180910390f35b341561054f57600080fd5b61055761144c565b604051808215151515815260200191505060405180910390f35b341561057c57600080fd5b61058461145a565b604051808273ffffffffffffffffffffffffffffffffffffffff1673ffffffffffffffffffffffffffffffffffffffff16815260200191505060405180910390f35b34156105d157600080fd5b6105d9611480565b604051808273ffffffffffffffffffffffffffffffffffffffff1673ffffffffffffffffffffffffffffffffffffffff16815260200191505060405180910390f35b341561062657600080fd5b61062e6114a6565b6040518082815260200191505060405180910390f35b341561064f57600080fd5b61067b600480803573ffffffffffffffffffffffffffffffffffffffff169060200190919050506114ac565b6040518082815260200191505060405180910390f35b341561069c57600080fd5b6106b260048080359060200190919050506114c4565b604051808215151515815260200191505060405180910390f35b34156106d757600080fd5b6106df6115a0565b604051808215151515815260200191505060405180910390f35b341561070457600080fd5b610730600480803573ffffffffffffffffffffffffffffffffffffffff169060200190919050506115af565b604051808215151515815260200191505060405180910390f35b341561075557600080fd5b61075d6116c7565b604051808273ffffffffffffffffffffffffffffffffffffffff1673ffffffffffffffffffffffffffffffffffffffff16815260200191505060405180910390f35b34156107aa57600080fd5b6107d6600480803573ffffffffffffffffffffffffffffffffffffffff169060200190919050506116ed565b005b34156107e357600080fd5b610816600480803567ffffffffffffffff1690602001909190803567ffffffffffffffff16906020019091905050611c05565b604051808215151515815260200191505060405180910390f35b341561083b57600080fd5b6108516004808035906020019091905050611e8c565b005b341561085e57600080fd5b61087460048080359060200190919050506120be565b604051808467ffffffffffffffff1667ffffffffffffffff1681526020018367ffffffffffffffff1667ffffffffffffffff168152602001828152602001935050505060405180910390f35b6108ec600480803573ffffffffffffffffffffffffffffffffffffffff16906020019091905050610a4f565b005b34156108f957600080fd5b61090161211f565b6040518082815260200191505060405180910390f35b341561092257600080fd5b61094e600480803573ffffffffffffffffffffffffffffffffffffffff16906020019091905050612125565b005b341561095b57600080fd5b6109636121ff565b604051808273ffffffffffffffffffffffffffffffffffffffff1673ffffffffffffffffffffffffffffffffffffffff16815260200191505060405180910390f35b34156109b057600080fd5b6109b8612225565b604051808273ffffffffffffffffffffffffffffffffffffffff1673ffffffffffffffffffffffffffffffffffffffff16815260200191505060405180910390f35b3415610a0557600080fd5b610a0d61224b565b604051808273ffffffffffffffffffffffffffffffffffffffff1673ffffffffffffffffffffffffffffffffffffffff16815260200191505060405180910390f35b600080600080600080600080600060149054906101000a900460ff16151515610a7757600080fd5b601660009054906101000a900460ff161515610a9257600080fd5b60008973ffffffffffffffffffffffffffffffffffffffff1614151515610ab857600080fd5b600160009054906101000a900473ffffffffffffffffffffffffffffffffffffffff1673ffffffffffffffffffffffffffffffffffffffff1663ad1def428a6000604051602001526040518263ffffffff167c0100000000000000000000000000000000000000000000000000000000028152600401808273ffffffffffffffffffffffffffffffffffffffff1673ffffffffffffffffffffffffffffffffffffffff168152602001915050602060405180830381600087803b1515610b7d57600080fd5b6102c65a03f11515610b8e57600080fd5b505050604051805190501515610ba357600080fd5b610bab610f68565b1515610bb657600080fd5b610bbe612271565b1515610bc957600080fd5b601460009054906101000a900460ff16151515610be557600080fd5b349750610c31600e60008b73ffffffffffffffffffffffffffffffffffffffff1673ffffffffffffffffffffffffffffffffffffffff1681526020019081526020016000205489612293565b9650610c3f600b5487612293565b9450600c54851115610c6057610c59600c54600b546122b1565b9550610c64565b8795505b600086111515610c7357600080fd5b858810151515610c8257600080fd5b610c8a61131c565b935085601254111515610ca557610ca2846005612293565b93505b85601354111515610cbe57610cbb846005612293565b93505b610cc7846122ca565b9250610cd386846122f3565b9150610cdf88876122b1565b9050610cea33612326565b610cf6600b5487612293565b600b81905550610d45600e60008b73ffffffffffffffffffffffffffffffffffffffff1673ffffffffffffffffffffffffffffffffffffffff1681526020019081526020016000205487612293565b600e60008b73ffffffffffffffffffffffffffffffffffffffff1673ffffffffffffffffffffffffffffffffffffffff16815260200190815260200160002081905550600260009054906101000a900473ffffffffffffffffffffffffffffffffffffffff1673ffffffffffffffffffffffffffffffffffffffff1663827f32c08a846000604051602001526040518363ffffffff167c0100000000000000000000000000000000000000000000000000000000028152600401808373ffffffffffffffffffffffffffffffffffffffff1673ffffffffffffffffffffffffffffffffffffffff16815260200182815260200192505050602060405180830381600087803b1515610e5557600080fd5b6102c65a03f11515610e6657600080fd5b50505060405180519050506000811115610ebb573373ffffffffffffffffffffffffffffffffffffffff166108fc829081150290604051600060405180830381858888f193505050501515610eba57600080fd5b5b610ec48661249b565b8873ffffffffffffffffffffffffffffffffffffffff163373ffffffffffffffffffffffffffffffffffffffff167f33759ee1eaa9f87f4186d31caf548c4494b9cef9fa6a2805ef0efd615fb182ff8885604051808381526020018281526020019250505060405180910390a3505050505050505050565b600760009054906101000a900473ffffffffffffffffffffffffffffffffffffffff1681565b60095481565b60008060008090505b600a805490508110156110215742600a82815481101515610f8e57fe5b906000526020600020906002020160000160009054906101000a900467ffffffffffffffff1667ffffffffffffffff161115801561100a5750600a81815481101515610fd657fe5b906000526020600020906002020160000160089054906101000a900467ffffffffffffffff1667ffffffffffffffff164211155b1561101457600191505b8080600101915050610f71565b819250505090565b600c5481565b6000809054906101000a900473ffffffffffffffffffffffffffffffffffffffff1673ffffffffffffffffffffffffffffffffffffffff163373ffffffffffffffffffffffffffffffffffffffff1614151561108a57600080fd5b600060149054906101000a900460ff1615156110a557600080fd5b60008060146101000a81548160ff0219169083151502179055507f7805862f689e2f13df9f062ff482ad3ad112aca9e0847911ed832e158c525b3360405160405180910390a1565b600b5481565b6000809054906101000a900473ffffffffffffffffffffffffffffffffffffffff1673ffffffffffffffffffffffffffffffffffffffff163373ffffffffffffffffffffffffffffffffffffffff1614151561114e57600080fd5b601460009054906101000a900460ff1615151561116a57600080fd5b611172610f68565b1580611182575061118161144c565b5b151561118d57600080fd5b61119561256f565b7f6823b073d48d6e3a7d385eeb601452d680e74bb46afe3255a7d778f3a9b1768160405160405180910390a16001601460006101000a81548160ff021916908315150217905550565b601660009054906101000a900460ff1681565b600060149054906101000a900460ff1681565b600660009054906101000a900473ffffffffffffffffffffffffffffffffffffffff1681565b600d5481565b60125481565b600860009054906101000a900473ffffffffffffffffffffffffffffffffffffffff1681565b6000809054906101000a900473ffffffffffffffffffffffffffffffffffffffff1673ffffffffffffffffffffffffffffffffffffffff163373ffffffffffffffffffffffffffffffffffffffff161415156112b757600080fd5b600060149054906101000a900460ff161515156112d357600080fd5b6001600060146101000a81548160ff0219169083151502179055507f6985a02210a168e66602d3235cb6db0e70f92b3ba4d376a33c0f3d9434bff62560405160405180910390a1565b600080600080600090505b600a805490508110156113da5742600a8281548110151561134457fe5b906000526020600020906002020160000160009054906101000a900467ffffffffffffffff1667ffffffffffffffff16111580156113c05750600a8181548110151561138c57fe5b906000526020600020906002020160000160089054906101000a900467ffffffffffffffff1667ffffffffffffffff164211155b156113cd57600192508091505b8080600101915050611327565b8215156113e657600080fd5b600a828154811015156113f557fe5b906000526020600020906002020160010154935050505090565b601460009054906101000a900460ff1681565b6000809054906101000a900473ffffffffffffffffffffffffffffffffffffffff1681565b600881565b6000600c54600b5414905090565b600160009054906101000a900473ffffffffffffffffffffffffffffffffffffffff1681565b601160009054906101000a900473ffffffffffffffffffffffffffffffffffffffff1681565b60155481565b600e6020528060005260406000206000915090505481565b6000601660009054906101000a900460ff161515156114e257600080fd5b600460009054906101000a900473ffffffffffffffffffffffffffffffffffffffff1673ffffffffffffffffffffffffffffffffffffffff163373ffffffffffffffffffffffffffffffffffffffff1614151561153e57600080fd5b81600b819055506001601660006101000a81548160ff0219169083151502179055507f502f53b79a6dda15d69bda5f43dda250173e0f669d80b10106313bc99a439be5826040518082815260200191505060405180910390a160019050919050565b6000600d54600b541015905090565b6000601460009054906101000a900460ff1615156115cc57600080fd5b6115d46115a0565b1515156115e057600080fd5b600360009054906101000a900473ffffffffffffffffffffffffffffffffffffffff1673ffffffffffffffffffffffffffffffffffffffff1663fa89401a836000604051602001526040518263ffffffff167c0100000000000000000000000000000000000000000000000000000000028152600401808273ffffffffffffffffffffffffffffffffffffffff1673ffffffffffffffffffffffffffffffffffffffff168152602001915050602060405180830381600087803b15156116a557600080fd5b6102c65a03f115156116b657600080fd5b505050604051805190509050919050565b600560009054906101000a900473ffffffffffffffffffffffffffffffffffffffff1681565b6000806000809054906101000a900473ffffffffffffffffffffffffffffffffffffffff1673ffffffffffffffffffffffffffffffffffffffff163373ffffffffffffffffffffffffffffffffffffffff1614151561174b57600080fd5b3073ffffffffffffffffffffffffffffffffffffffff16600260009054906101000a900473ffffffffffffffffffffffffffffffffffffffff1673ffffffffffffffffffffffffffffffffffffffff1663f77c47916000604051602001526040518163ffffffff167c0100000000000000000000000000000000000000000000000000000000028152600401602060405180830381600087803b15156117f057600080fd5b6102c65a03f1151561180157600080fd5b5050506040518051905073ffffffffffffffffffffffffffffffffffffffff1614156118f857600260009054906101000a900473ffffffffffffffffffffffffffffffffffffffff1673ffffffffffffffffffffffffffffffffffffffff1663df8de3e7846040518263ffffffff167c0100000000000000000000000000000000000000000000000000000000028152600401808273ffffffffffffffffffffffffffffffffffffffff1673ffffffffffffffffffffffffffffffffffffffff168152602001915050600060405180830381600087803b15156118e357600080fd5b6102c65a03f115156118f457600080fd5b5050505b60008373ffffffffffffffffffffffffffffffffffffffff161415611994576000809054906101000a900473ffffffffffffffffffffffffffffffffffffffff1673ffffffffffffffffffffffffffffffffffffffff166108fc3073ffffffffffffffffffffffffffffffffffffffff16319081150290604051600060405180830381858888f19350505050151561198f57600080fd5b611c00565b8291508173ffffffffffffffffffffffffffffffffffffffff166370a08231306000604051602001526040518263ffffffff167c0100000000000000000000000000000000000000000000000000000000028152600401808273ffffffffffffffffffffffffffffffffffffffff1673ffffffffffffffffffffffffffffffffffffffff168152602001915050602060405180830381600087803b1515611a3a57600080fd5b6102c65a03f11515611a4b57600080fd5b5050506040518051905090508173ffffffffffffffffffffffffffffffffffffffff1663a9059cbb6000809054906101000a900473ffffffffffffffffffffffffffffffffffffffff16836000604051602001526040518363ffffffff167c0100000000000000000000000000000000000000000000000000000000028152600401808373ffffffffffffffffffffffffffffffffffffffff1673ffffffffffffffffffffffffffffffffffffffff16815260200182815260200192505050602060405180830381600087803b1515611b2357600080fd5b6102c65a03f11515611b3457600080fd5b50505060405180519050507ff931edb47c50b4b4104c187b5814a9aef5f709e17e2ecf9617e860cacade929c836000809054906101000a900473ffffffffffffffffffffffffffffffffffffffff1683604051808473ffffffffffffffffffffffffffffffffffffffff1673ffffffffffffffffffffffffffffffffffffffff1681526020018373ffffffffffffffffffffffffffffffffffffffff1673ffffffffffffffffffffffffffffffffffffffff168152602001828152602001935050505060405180910390a15b505050565b6000611c0f612e68565b6000809054906101000a900473ffffffffffffffffffffffffffffffffffffffff1673ffffffffffffffffffffffffffffffffffffffff163373ffffffffffffffffffffffffffffffffffffffff16141515611c6a57600080fd5b600860ff16600a80549050101515611c8157600080fd5b8367ffffffffffffffff1642108015611cad57508267ffffffffffffffff168467ffffffffffffffff16105b1515611cb857600080fd5b6000600a80549050141515611cf75762093a80611ce98467ffffffffffffffff168667ffffffffffffffff166122b1565b11151515611cf657600080fd5b5b83816000019067ffffffffffffffff16908167ffffffffffffffff168152505082816020019067ffffffffffffffff16908167ffffffffffffffff16815250506003600a805490501015611d6d57611d5f600f611d5a6005600a805490506122f3565b6122b1565b816040018181525050611d79565b60008160400181815250505b600a8054806001018281611d8d9190612e9e565b9160005260206000209060020201600083909190915060008201518160000160006101000a81548167ffffffffffffffff021916908367ffffffffffffffff16021790555060208201518160000160086101000a81548167ffffffffffffffff021916908367ffffffffffffffff160217905550604082015181600101555050507f283f5265b87d978ddecf66eb1a2b452efa26bd18a944cce959d890247d5ba8f084848360400151604051808467ffffffffffffffff1667ffffffffffffffff1681526020018367ffffffffffffffff1667ffffffffffffffff168152602001828152602001935050505060405180910390a1600191505092915050565b6000806000809054906101000a900473ffffffffffffffffffffffffffffffffffffffff1673ffffffffffffffffffffffffffffffffffffffff163373ffffffffffffffffffffffffffffffffffffffff16141515611eea57600080fd5b601460009054906101000a900460ff161515611f0557600080fd5b611f0d6115a0565b151515611f1957600080fd5b600083111515611f2857600080fd5b82601554019150600f80549050821115611f4557600f8054905091505b60155490505b8181101561207b57600360009054906101000a900473ffffffffffffffffffffffffffffffffffffffff1673ffffffffffffffffffffffffffffffffffffffff1663fa89401a600f83815481101515611fa057fe5b906000526020600020900160009054906101000a900473ffffffffffffffffffffffffffffffffffffffff166000604051602001526040518263ffffffff167c0100000000000000000000000000000000000000000000000000000000028152600401808273ffffffffffffffffffffffffffffffffffffffff1673ffffffffffffffffffffffffffffffffffffffff168152602001915050602060405180830381600087803b151561205257600080fd5b6102c65a03f1151561206357600080fd5b50505060405180519050508080600101915050611f4b565b816015819055507fa70a53972d6afb0fc38bd683cd5955faa5fa55e6629744a51e7a2aaa0ecc4e04836040518082815260200191505060405180910390a1505050565b600a818154811015156120cd57fe5b90600052602060002090600202016000915090508060000160009054906101000a900467ffffffffffffffff16908060000160089054906101000a900467ffffffffffffffff16908060010154905083565b60135481565b6000809054906101000a900473ffffffffffffffffffffffffffffffffffffffff1673ffffffffffffffffffffffffffffffffffffffff163373ffffffffffffffffffffffffffffffffffffffff1614151561218057600080fd5b600073ffffffffffffffffffffffffffffffffffffffff168173ffffffffffffffffffffffffffffffffffffffff16141515156121bc57600080fd5b806000806101000a81548173ffffffffffffffffffffffffffffffffffffffff021916908373ffffffffffffffffffffffffffffffffffffffff16021790555050565b600360009054906101000a900473ffffffffffffffffffffffffffffffffffffffff1681565b600260009054906101000a900473ffffffffffffffffffffffffffffffffffffffff1681565b600460009054906101000a900473ffffffffffffffffffffffffffffffffffffffff1681565b6000806000341415905080801561228d575061228b61144c565b155b91505090565b60008082840190508381101515156122a757fe5b8091505092915050565b60008282111515156122bf57fe5b818303905092915050565b60006122ec6122e56009546122e0856064612293565b6122f3565b6064612a1b565b9050919050565b60008082840290506000841480612314575082848281151561231157fe5b04145b151561231c57fe5b8091505092915050565b601060008273ffffffffffffffffffffffffffffffffffffffff1673ffffffffffffffffffffffffffffffffffffffff16815260200190815260200160002060009054906101000a900460ff161515612435576001601060008373ffffffffffffffffffffffffffffffffffffffff1673ffffffffffffffffffffffffffffffffffffffff16815260200190815260200160002060006101000a81548160ff021916908315150217905550600f80548060010182816123e59190612ed0565b9160005260206000209001600083909190916101000a81548173ffffffffffffffffffffffffffffffffffffffff021916908373ffffffffffffffffffffffffffffffffffffffff160217905550505b7f1095f211ec26cf9891a79b12717df016e5e06954063d8534ac589273c0ed2eb281604051808273ffffffffffffffffffffffffffffffffffffffff1673ffffffffffffffffffffffffffffffffffffffff16815260200191505060405180910390a150565b600360009054906101000a900473ffffffffffffffffffffffffffffffffffffffff1673ffffffffffffffffffffffffffffffffffffffff1663f340fa0182336040518363ffffffff167c0100000000000000000000000000000000000000000000000000000000028152600401808273ffffffffffffffffffffffffffffffffffffffff1673ffffffffffffffffffffffffffffffffffffffff1681526020019150506000604051808303818588803b151561255757600080fd5b6125ee5a03f1151561256857600080fd5b5050505050565b600080600080600061257f6115a0565b156127de57600360009054906101000a900473ffffffffffffffffffffffffffffffffffffffff1673ffffffffffffffffffffffffffffffffffffffff166343d726d66040518163ffffffff167c0100000000000000000000000000000000000000000000000000000000028152600401600060405180830381600087803b151561260957600080fd5b6102c65a03f1151561261a57600080fd5b505050600260009054906101000a900473ffffffffffffffffffffffffffffffffffffffff1673ffffffffffffffffffffffffffffffffffffffff166318160ddd6000604051602001526040518163ffffffff167c0100000000000000000000000000000000000000000000000000000000028152600401602060405180830381600087803b15156126ab57600080fd5b6102c65a03f115156126bc57600080fd5b5050506040518051905094506126dd6126d68660056122f3565b6032612a1b565b93506126f46126ed86600f6122f3565b6032612a1b565b925061270b61270486600f6122f3565b6032612a1b565b915061272261271b86600f6122f3565b6032612a1b565b905061273084848484612a36565b600260009054906101000a900473ffffffffffffffffffffffffffffffffffffffff1673ffffffffffffffffffffffffffffffffffffffff1663f41e60c560016040518263ffffffff167c01000000000000000000000000000000000000000000000000000000000281526004018082151515158152602001915050600060405180830381600087803b15156127c557600080fd5b6102c65a03f115156127d657600080fd5b505050612878565b600360009054906101000a900473ffffffffffffffffffffffffffffffffffffffff1673ffffffffffffffffffffffffffffffffffffffff16638c52dc416040518163ffffffff167c0100000000000000000000000000000000000000000000000000000000028152600401600060405180830381600087803b151561286357600080fd5b6102c65a03f1151561287457600080fd5b5050505b600260009054906101000a900473ffffffffffffffffffffffffffffffffffffffff1673ffffffffffffffffffffffffffffffffffffffff1663a4d67d636000604051602001526040518163ffffffff167c0100000000000000000000000000000000000000000000000000000000028152600401602060405180830381600087803b151561290657600080fd5b6102c65a03f1151561291757600080fd5b5050506040518051905050600260009054906101000a900473ffffffffffffffffffffffffffffffffffffffff1673ffffffffffffffffffffffffffffffffffffffff16633cebb823601160009054906101000a900473ffffffffffffffffffffffffffffffffffffffff166040518263ffffffff167c0100000000000000000000000000000000000000000000000000000000028152600401808273ffffffffffffffffffffffffffffffffffffffff1673ffffffffffffffffffffffffffffffffffffffff168152602001915050600060405180830381600087803b1515612a0057600080fd5b6102c65a03f11515612a1157600080fd5b5050505050505050565b6000808284811515612a2957fe5b0490508091505092915050565b600260009054906101000a900473ffffffffffffffffffffffffffffffffffffffff1673ffffffffffffffffffffffffffffffffffffffff1663827f32c0600560009054906101000a900473ffffffffffffffffffffffffffffffffffffffff16866000604051602001526040518363ffffffff167c0100000000000000000000000000000000000000000000000000000000028152600401808373ffffffffffffffffffffffffffffffffffffffff1673ffffffffffffffffffffffffffffffffffffffff16815260200182815260200192505050602060405180830381600087803b1515612b2557600080fd5b6102c65a03f11515612b3657600080fd5b5050506040518051905050600260009054906101000a900473ffffffffffffffffffffffffffffffffffffffff1673ffffffffffffffffffffffffffffffffffffffff1663827f32c0600660009054906101000a900473ffffffffffffffffffffffffffffffffffffffff16856000604051602001526040518363ffffffff167c0100000000000000000000000000000000000000000000000000000000028152600401808373ffffffffffffffffffffffffffffffffffffffff1673ffffffffffffffffffffffffffffffffffffffff16815260200182815260200192505050602060405180830381600087803b1515612c3057600080fd5b6102c65a03f11515612c4157600080fd5b5050506040518051905050600260009054906101000a900473ffffffffffffffffffffffffffffffffffffffff1673ffffffffffffffffffffffffffffffffffffffff1663827f32c0600760009054906101000a900473ffffffffffffffffffffffffffffffffffffffff16846000604051602001526040518363ffffffff167c0100000000000000000000000000000000000000000000000000000000028152600401808373ffffffffffffffffffffffffffffffffffffffff1673ffffffffffffffffffffffffffffffffffffffff16815260200182815260200192505050602060405180830381600087803b1515612d3b57600080fd5b6102c65a03f11515612d4c57600080fd5b5050506040518051905050600260009054906101000a900473ffffffffffffffffffffffffffffffffffffffff1673ffffffffffffffffffffffffffffffffffffffff1663827f32c0600860009054906101000a900473ffffffffffffffffffffffffffffffffffffffff16836000604051602001526040518363ffffffff167c0100000000000000000000000000000000000000000000000000000000028152600401808373ffffffffffffffffffffffffffffffffffffffff1673ffffffffffffffffffffffffffffffffffffffff16815260200182815260200192505050602060405180830381600087803b1515612e4657600080fd5b6102c65a03f11515612e5757600080fd5b505050604051805190505050505050565b606060405190810160405280600067ffffffffffffffff168152602001600067ffffffffffffffff168152602001600081525090565b815481835581811511612ecb57600202816002028360005260206000209182019101612eca9190612efc565b5b505050565b815481835581811511612ef757818360005260206000209182019101612ef69190612f59565b5b505050565b612f5691905b80821115612f5257600080820160006101000a81549067ffffffffffffffff02191690556000820160086101000a81549067ffffffffffffffff0219169055600182016000905550600201612f02565b5090565b90565b612f7b91905b80821115612f77576000816000905550600101612f5f565b5090565b905600a165627a7a72305820aee7b3d35af2ef529ac036c6a6b0f19d47e92764c9901cdf195f3c90efdf505f0029",
  "source": "pragma solidity ^0.4.18;\n\nimport './kyc/KYC.sol';\nimport './ATC.sol';\nimport './vault/RefundVault.sol';\nimport './ownership/Ownable.sol';\nimport './math/SafeMath.sol';\nimport './lifecycle/Pausable.sol';\n\ncontract ATCCrowdSale is Ownable, SafeMath, Pausable {\n  KYC public kyc;\n  ATC public token;\n  RefundVault public vault;\n\n  address public presale;\n\n  address public bountyAddress; //5% for bounty\n  address public partnersAddress; //15% for community groups & partners\n  address public reserverLocker; //15% with 2 years lock\n  address public teamLocker; // 15% with 2 years vesting\n\n  struct Period {\n    uint64 startTime;\n    uint64 endTime;\n    uint256 bonus; // used to calculate rate with bonus. ragne 0 ~ 15 (0% ~ 15%)\n  }\n\n  uint256 public baseRate = 1500; // 1 ETH = 1500 ATC\n\n  Period[] public periods;\n  uint8 constant public MAX_PERIOD_COUNT = 8;\n\n  uint256 public weiRaised;\n  uint256 public maxEtherCap;\n  uint256 public minEtherCap;\n\n  mapping (address => uint256) public beneficiaryFunded;\n\n  address[] investorList;\n  mapping (address => bool) inInvestorList;\n\n  address public ATCController;\n\n  uint256 public additionalBonusAmount1 = 300 ether;\n  uint256 public additionalBonusAmount2 = 6000 ether;\n\n  bool public isFinalized;\n  uint256 public refundCompleted;\n  bool public presaleFallBackCalled;\n\n\n  event CrowdSaleTokenPurchase(address indexed _investor, address indexed _beneficiary, uint256 _toFund, uint256 _tokens);\n  event StartPeriod(uint64 _startTime, uint64 _endTime, uint256 _bonus);\n  event Finalized();\n  event PresaleFallBack(uint256 _presaleWeiRaised);\n  event PushInvestorList(address _investor);\n  event RefundAll(uint256 _numToRefund);\n  event ClaimedTokens(address _claimToken, address owner, uint256 balance);\n\n  function ATCCrowdSale (\n    address _kyc,\n    address _token,\n    address _vault,\n    address _presale,\n    address _bountyAddress,\n    address _partnersAddress,\n    address _reserverLocker,\n    address _teamLocker,\n    address _tokenController,\n    uint256 _maxEtherCap,\n    uint256 _minEtherCap\n    ) {\n      require(_kyc != 0x00 && _token != 0x00 && _vault != 0x00 && _presale != 0x00);\n      require(_bountyAddress != 0x00 && _partnersAddress != 0x00);\n      require(_reserverLocker != 0x00 && _teamLocker != 0x00);\n      require(_tokenController != 0x00);\n      require(0 < _minEtherCap && _minEtherCap < _maxEtherCap);\n\n      kyc = KYC(_kyc);\n      token = ATC(_token);\n      vault = RefundVault(_vault);\n      presale = _presale;\n\n      bountyAddress = _bountyAddress;\n      partnersAddress = _partnersAddress;\n      reserverLocker = _reserverLocker;\n      teamLocker = _teamLocker;\n      ATCController = _tokenController;\n\n      maxEtherCap = _maxEtherCap;\n      minEtherCap = _minEtherCap;\n    }\n\n  function () public payable {\n    buy(msg.sender);\n  }\n\n  function presaleFallBack(uint256 _presaleWeiRaised) public returns (bool) {\n    require(!presaleFallBackCalled);\n    require(msg.sender == presale);\n\n    weiRaised = _presaleWeiRaised;\n    presaleFallBackCalled = true;\n\n    PresaleFallBack(_presaleWeiRaised);\n\n    return true;\n  }\n\n  function buy(address beneficiary)\n    public\n    payable\n    whenNotPaused\n  {\n      // check validity\n      require(presaleFallBackCalled);\n      require(beneficiary != 0x00);\n      require(kyc.registeredAddress(beneficiary));\n      require(onSale());\n      require(validPurchase());\n      require(!isFinalized);\n\n      // calculate eth amount\n      uint256 weiAmount = msg.value;\n      uint256 totalAmount = add(beneficiaryFunded[beneficiary], weiAmount);\n      uint256 toFund;\n\n      uint256 postWeiRaised = add(weiRaised, toFund);\n\n      if (postWeiRaised > maxEtherCap) {\n        toFund = sub(maxEtherCap, weiRaised);\n      } else {\n        toFund = weiAmount;\n      }\n\n      require(toFund > 0);\n      require(weiAmount >= toFund);\n\n      // TODO: test bonus\n      uint256 bonus = getBonus();\n\n      // bonus for eth amount\n      if (additionalBonusAmount1 <= toFund) {\n        bonus = add(bonus, 5); // 5% amount bonus for more than 300 ETH\n      }\n\n      if (additionalBonusAmount2 <= toFund) {\n        bonus = add(bonus, 5); // 10% amount bonus for more than 6000 ETH\n      }\n\n      uint256 rate = calculateRate(bonus);\n      uint256 tokens = mul(toFund, rate);\n      uint256 toReturn = sub(weiAmount, toFund);\n\n      pushInvestorList(msg.sender);\n\n      weiRaised = add(weiRaised, toFund);\n      beneficiaryFunded[beneficiary] = add(beneficiaryFunded[beneficiary], toFund);\n\n      token.generateTokens(beneficiary, tokens);\n\n      if (toReturn > 0) {\n        msg.sender.transfer(toReturn);\n      }\n\n      forwardFunds(toFund);\n      CrowdSaleTokenPurchase(msg.sender, beneficiary, toFund, tokens);\n  }\n\n  function pushInvestorList(address investor) internal {\n    if (!inInvestorList[investor]) {\n      inInvestorList[investor] = true;\n      investorList.push(investor);\n    }\n\n    PushInvestorList(investor);\n  }\n\n  function validPurchase() internal constant returns (bool) {\n    bool nonZeroPurchase = msg.value != 0;\n    return nonZeroPurchase && !maxReached();\n  }\n\n  function forwardFunds(uint256 toFund) internal {\n    vault.deposit.value(toFund)(msg.sender);\n  }\n\n  /**\n   * @dev Checks whether minEtherCap is reached\n   * @return true if min ether cap is reaced\n   */\n  function minReached() public constant returns (bool) {\n    return weiRaised >= minEtherCap;\n  }\n  /**\n   * @dev Checks whether maxEtherCap is reached\n   * @return true if max ether cap is reaced\n   */\n  function maxReached() public constant returns (bool) {\n    return weiRaised == maxEtherCap;\n  }\n\n  function getBonus() public constant returns (uint256) {\n    bool nowOnSale;\n    uint256 currentPeriod;\n\n    for (uint i = 0; i < periods.length; i++) {\n      if (periods[i].startTime <= now && now <= periods[i].endTime) {\n        nowOnSale = true;\n        currentPeriod = i;\n      }\n    }\n\n    require(nowOnSale);\n    return periods[currentPeriod].bonus;\n  }\n\n  /**\n   * @dev rate = baseRate * (100 + bonus) / 100\n   */\n  function calculateRate(uint256 bonus) internal returns (uint256)  {\n    return div(mul(baseRate, add(bonus, 100)), 100);\n  }\n\n  function startPeriod(uint64 _startTime, uint64 _endTime) public onlyOwner returns (bool) {\n    require(periods.length < MAX_PERIOD_COUNT);\n    require(now < _startTime && _startTime < _endTime);\n\n    if (periods.length != 0) {\n      require(sub(_endTime, _startTime) <= 7 days);\n    }\n\n    // 15% -> 10% -> 5% -> 0%\n    Period memory newPeriod;\n    newPeriod.startTime = _startTime;\n    newPeriod.endTime = _endTime;\n\n    if(periods.length < 3) {\n      newPeriod.bonus = sub(15, mul(5, periods.length));\n    } else {\n      newPeriod.bonus = 0;\n    }\n\n    periods.push(newPeriod);\n    StartPeriod(_startTime, _endTime, newPeriod.bonus);\n\n    return true;\n  }\n\n  function onSale() public returns (bool) {\n    bool nowOnSale;\n\n    for (uint i = 0; i < periods.length; i++) {\n      if (periods[i].startTime <= now && now <= periods[i].endTime) {\n        nowOnSale = true;\n      }\n    }\n\n    return nowOnSale;\n  }\n  /**\n   * @dev should be called after crowdsale ends, to do\n   */\n  function finalize() onlyOwner {\n    require(!isFinalized);\n    require(!onSale() || maxReached());\n\n    finalization();\n    Finalized();\n\n    isFinalized = true;\n  }\n\n  /**\n   * @dev end token minting on finalization, mint tokens for dev team and reserve wallets\n   */\n  function finalization() internal {\n    if (minReached()) {\n      vault.close();\n\n      uint256 totalToken = token.totalSupply();\n\n      // token distribution : 50% for sale, 5% for bounty, 15% for partners, 15% for reserve, 15% for team\n      uint256 bountyAmount = div(mul(totalToken, 5), 50);\n      uint256 partnersAmount = div(mul(totalToken, 15), 50);\n      uint256 reserveAmount = div(mul(totalToken, 15), 50);\n      uint256 teamAmount = div(mul(totalToken, 15), 50);\n\n      distributeToken(bountyAmount, partnersAmount, reserveAmount, teamAmount);\n\n      token.enableTransfers(true);\n\n    } else {\n      vault.enableRefunds();\n    }\n    token.finishGenerating();\n    token.changeController(ATCController);\n  }\n\n  function distributeToken(uint256 bountyAmount, uint256 partnersAmount, uint256 reserveAmount, uint256 teamAmount) internal {\n    token.generateTokens(bountyAddress, bountyAmount);\n    token.generateTokens(partnersAddress, partnersAmount);\n    token.generateTokens(reserverLocker, reserveAmount);\n    token.generateTokens(teamLocker, teamAmount);\n  }\n\n  /**\n   * @dev refund a lot of investors at a time checking onlyOwner\n   * @param numToRefund uint256 The number of investors to refund\n   */\n  function refundAll(uint256 numToRefund) onlyOwner {\n    require(isFinalized);\n    require(!minReached());\n    require(numToRefund > 0);\n\n    uint256 limit = refundCompleted + numToRefund;\n\n    if (limit > investorList.length) {\n      limit = investorList.length;\n    }\n\n    for(uint256 i = refundCompleted; i < limit; i++) {\n      vault.refund(investorList[i]);\n    }\n\n    refundCompleted = limit;\n    RefundAll(numToRefund);\n  }\n\n  /**\n   * @dev if crowdsale is unsuccessful, investors can claim refunds here\n   * @param investor address The account to be refunded\n   */\n  function claimRefund(address investor) returns (bool) {\n    require(isFinalized);\n    require(!minReached());\n\n    return vault.refund(investor);\n  }\n\n  function claimTokens(address _claimToken) public onlyOwner {\n\n    if (token.controller() == address(this)) {\n         token.claimTokens(_claimToken);\n    }\n\n    if (_claimToken == 0x0) {\n        owner.transfer(this.balance);\n        return;\n    }\n\n    ERC20Basic claimToken = ERC20Basic(_claimToken);\n    uint256 balance = claimToken.balanceOf(this);\n    claimToken.transfer(owner, balance);\n\n    ClaimedTokens(_claimToken, owner, balance);\n  }\n}\n",
  "sourcePath": "/Users/midinpa/workspace/dapps/aston-crowdsale/contracts/ATCCrowdSale.sol",
  "compiler": {
    "name": "solc",
    "version": "0.4.18+commit.9cf6e910.Emscripten.clang"
  },
  "schemaVersion": "1.0.1",
  "updatedAt": "2017-11-27T09:08:50.494Z"
}