{
  "contractName": "ATCCrowdSale",
  "abi": [
    {
      "constant": true,
      "inputs": [],
      "name": "reserverLocker",
      "outputs": [
        {
          "name": "",
          "type": "address"
        }
      ],
      "payable": false,
      "stateMutability": "view",
      "type": "function"
    },
    {
      "constant": true,
      "inputs": [],
      "name": "currentPeriod",
      "outputs": [
        {
          "name": "",
          "type": "uint256"
        }
      ],
      "payable": false,
      "stateMutability": "view",
      "type": "function"
    },
    {
      "constant": true,
      "inputs": [],
      "name": "maxEtherCap",
      "outputs": [
        {
          "name": "",
          "type": "uint256"
        }
      ],
      "payable": false,
      "stateMutability": "view",
      "type": "function"
    },
    {
      "constant": false,
      "inputs": [],
      "name": "unpause",
      "outputs": [],
      "payable": false,
      "stateMutability": "nonpayable",
      "type": "function"
    },
    {
      "constant": true,
      "inputs": [],
      "name": "weiRaised",
      "outputs": [
        {
          "name": "",
          "type": "uint256"
        }
      ],
      "payable": false,
      "stateMutability": "view",
      "type": "function"
    },
    {
      "constant": false,
      "inputs": [],
      "name": "finalize",
      "outputs": [],
      "payable": false,
      "stateMutability": "nonpayable",
      "type": "function"
    },
    {
      "constant": true,
      "inputs": [
        {
          "name": "",
          "type": "uint256"
        }
      ],
      "name": "bountyAndCommunityAddresses",
      "outputs": [
        {
          "name": "",
          "type": "address"
        }
      ],
      "payable": false,
      "stateMutability": "view",
      "type": "function"
    },
    {
      "constant": true,
      "inputs": [],
      "name": "presaleFallBackCalled",
      "outputs": [
        {
          "name": "",
          "type": "bool"
        }
      ],
      "payable": false,
      "stateMutability": "view",
      "type": "function"
    },
    {
      "constant": true,
      "inputs": [
        {
          "name": "period",
          "type": "uint256"
        }
      ],
      "name": "periodFinished",
      "outputs": [
        {
          "name": "",
          "type": "bool"
        }
      ],
      "payable": false,
      "stateMutability": "view",
      "type": "function"
    },
    {
      "constant": true,
      "inputs": [],
      "name": "paused",
      "outputs": [
        {
          "name": "",
          "type": "bool"
        }
      ],
      "payable": false,
      "stateMutability": "view",
      "type": "function"
    },
    {
      "constant": true,
      "inputs": [],
      "name": "minEtherCap",
      "outputs": [
        {
          "name": "",
          "type": "uint256"
        }
      ],
      "payable": false,
      "stateMutability": "view",
      "type": "function"
    },
    {
      "constant": true,
      "inputs": [],
      "name": "additionalBonusAmount1",
      "outputs": [
        {
          "name": "",
          "type": "uint256"
        }
      ],
      "payable": false,
      "stateMutability": "view",
      "type": "function"
    },
    {
      "constant": true,
      "inputs": [],
      "name": "teamLocker",
      "outputs": [
        {
          "name": "",
          "type": "address"
        }
      ],
      "payable": false,
      "stateMutability": "view",
      "type": "function"
    },
    {
      "constant": false,
      "inputs": [],
      "name": "pause",
      "outputs": [],
      "payable": false,
      "stateMutability": "nonpayable",
      "type": "function"
    },
    {
      "constant": true,
      "inputs": [],
      "name": "isFinalized",
      "outputs": [
        {
          "name": "",
          "type": "bool"
        }
      ],
      "payable": false,
      "stateMutability": "view",
      "type": "function"
    },
    {
      "constant": true,
      "inputs": [],
      "name": "owner",
      "outputs": [
        {
          "name": "",
          "type": "address"
        }
      ],
      "payable": false,
      "stateMutability": "view",
      "type": "function"
    },
    {
      "constant": true,
      "inputs": [],
      "name": "MAX_PERIOD_COUNT",
      "outputs": [
        {
          "name": "",
          "type": "uint8"
        }
      ],
      "payable": false,
      "stateMutability": "view",
      "type": "function"
    },
    {
      "constant": true,
      "inputs": [],
      "name": "maxReached",
      "outputs": [
        {
          "name": "",
          "type": "bool"
        }
      ],
      "payable": false,
      "stateMutability": "view",
      "type": "function"
    },
    {
      "constant": true,
      "inputs": [],
      "name": "kyc",
      "outputs": [
        {
          "name": "",
          "type": "address"
        }
      ],
      "payable": false,
      "stateMutability": "view",
      "type": "function"
    },
    {
      "constant": true,
      "inputs": [],
      "name": "ATCController",
      "outputs": [
        {
          "name": "",
          "type": "address"
        }
      ],
      "payable": false,
      "stateMutability": "view",
      "type": "function"
    },
    {
      "constant": true,
      "inputs": [],
      "name": "refundCompleted",
      "outputs": [
        {
          "name": "",
          "type": "uint256"
        }
      ],
      "payable": false,
      "stateMutability": "view",
      "type": "function"
    },
    {
      "constant": true,
      "inputs": [
        {
          "name": "",
          "type": "address"
        }
      ],
      "name": "beneficiaryFunded",
      "outputs": [
        {
          "name": "",
          "type": "uint256"
        }
      ],
      "payable": false,
      "stateMutability": "view",
      "type": "function"
    },
    {
      "constant": false,
      "inputs": [
        {
          "name": "_presaleWeiRaised",
          "type": "uint256"
        }
      ],
      "name": "presaleFallBack",
      "outputs": [
        {
          "name": "",
          "type": "bool"
        }
      ],
      "payable": false,
      "stateMutability": "nonpayable",
      "type": "function"
    },
    {
      "constant": true,
      "inputs": [],
      "name": "minReached",
      "outputs": [
        {
          "name": "",
          "type": "bool"
        }
      ],
      "payable": false,
      "stateMutability": "view",
      "type": "function"
    },
    {
      "constant": false,
      "inputs": [
        {
          "name": "investor",
          "type": "address"
        }
      ],
      "name": "claimRefund",
      "outputs": [
        {
          "name": "",
          "type": "bool"
        }
      ],
      "payable": false,
      "stateMutability": "nonpayable",
      "type": "function"
    },
    {
      "constant": true,
      "inputs": [],
      "name": "nonZeroPeriod",
      "outputs": [
        {
          "name": "",
          "type": "bool"
        }
      ],
      "payable": false,
      "stateMutability": "view",
      "type": "function"
    },
    {
      "constant": false,
      "inputs": [
        {
          "name": "_startTime",
          "type": "uint64"
        },
        {
          "name": "_endTime",
          "type": "uint64"
        }
      ],
      "name": "startPeriod",
      "outputs": [
        {
          "name": "",
          "type": "bool"
        }
      ],
      "payable": false,
      "stateMutability": "nonpayable",
      "type": "function"
    },
    {
      "constant": false,
      "inputs": [
        {
          "name": "numToRefund",
          "type": "uint256"
        }
      ],
      "name": "refundAll",
      "outputs": [],
      "payable": false,
      "stateMutability": "nonpayable",
      "type": "function"
    },
    {
      "constant": true,
      "inputs": [
        {
          "name": "",
          "type": "uint256"
        }
      ],
      "name": "periods",
      "outputs": [
        {
          "name": "startTime",
          "type": "uint64"
        },
        {
          "name": "endTime",
          "type": "uint64"
        },
        {
          "name": "bonusRate",
          "type": "uint256"
        }
      ],
      "payable": false,
      "stateMutability": "view",
      "type": "function"
    },
    {
      "constant": true,
      "inputs": [],
      "name": "bountyAndCommunityAddressesMultiSig",
      "outputs": [
        {
          "name": "",
          "type": "address"
        }
      ],
      "payable": false,
      "stateMutability": "view",
      "type": "function"
    },
    {
      "constant": false,
      "inputs": [
        {
          "name": "beneficiary",
          "type": "address"
        }
      ],
      "name": "buy",
      "outputs": [],
      "payable": true,
      "stateMutability": "payable",
      "type": "function"
    },
    {
      "constant": true,
      "inputs": [],
      "name": "additionalBonusAmount2",
      "outputs": [
        {
          "name": "",
          "type": "uint256"
        }
      ],
      "payable": false,
      "stateMutability": "view",
      "type": "function"
    },
    {
      "constant": false,
      "inputs": [
        {
          "name": "newOwner",
          "type": "address"
        }
      ],
      "name": "transferOwnership",
      "outputs": [],
      "payable": false,
      "stateMutability": "nonpayable",
      "type": "function"
    },
    {
      "constant": true,
      "inputs": [],
      "name": "getBonusRate",
      "outputs": [
        {
          "name": "",
          "type": "uint256"
        }
      ],
      "payable": false,
      "stateMutability": "view",
      "type": "function"
    },
    {
      "constant": true,
      "inputs": [],
      "name": "vault",
      "outputs": [
        {
          "name": "",
          "type": "address"
        }
      ],
      "payable": false,
      "stateMutability": "view",
      "type": "function"
    },
    {
      "constant": true,
      "inputs": [],
      "name": "token",
      "outputs": [
        {
          "name": "",
          "type": "address"
        }
      ],
      "payable": false,
      "stateMutability": "view",
      "type": "function"
    },
    {
      "constant": true,
      "inputs": [],
      "name": "presale",
      "outputs": [
        {
          "name": "",
          "type": "address"
        }
      ],
      "payable": false,
      "stateMutability": "view",
      "type": "function"
    },
    {
      "inputs": [
        {
          "name": "_kyc",
          "type": "address"
        },
        {
          "name": "_token",
          "type": "address"
        },
        {
          "name": "_vault",
          "type": "address"
        },
        {
          "name": "_presale",
          "type": "address"
        },
        {
          "name": "_bountyAndCommunityAddresses",
          "type": "address[]"
        },
        {
          "name": "_bountyAndCommunityAddressesMultiSig",
          "type": "address"
        },
        {
          "name": "_reserverLocker",
          "type": "address"
        },
        {
          "name": "_teamLocker",
          "type": "address"
        },
        {
          "name": "_tokenController",
          "type": "address"
        },
        {
          "name": "_maxEtherCap",
          "type": "uint256"
        },
        {
          "name": "_minEtherCap",
          "type": "uint256"
        }
      ],
      "payable": false,
      "stateMutability": "nonpayable",
      "type": "constructor"
    },
    {
      "payable": true,
      "stateMutability": "payable",
      "type": "fallback"
    },
    {
      "anonymous": false,
      "inputs": [
        {
          "indexed": true,
          "name": "_investor",
          "type": "address"
        },
        {
          "indexed": true,
          "name": "_beneficiary",
          "type": "address"
        },
        {
          "indexed": false,
          "name": "_toFund",
          "type": "uint256"
        },
        {
          "indexed": false,
          "name": "_tokens",
          "type": "uint256"
        }
      ],
      "name": "CrowdSaleTokenPurchase",
      "type": "event"
    },
    {
      "anonymous": false,
      "inputs": [
        {
          "indexed": false,
          "name": "_startTime",
          "type": "uint64"
        },
        {
          "indexed": false,
          "name": "_endTime",
          "type": "uint64"
        },
        {
          "indexed": false,
          "name": "_bonusRate",
          "type": "uint256"
        }
      ],
      "name": "StartPeriod",
      "type": "event"
    },
    {
      "anonymous": false,
      "inputs": [],
      "name": "Finalized",
      "type": "event"
    },
    {
      "anonymous": false,
      "inputs": [
        {
          "indexed": false,
          "name": "_presaleWeiRaised",
          "type": "uint256"
        }
      ],
      "name": "PresaleFallBack",
      "type": "event"
    },
    {
      "anonymous": false,
      "inputs": [
        {
          "indexed": false,
          "name": "_investor",
          "type": "address"
        }
      ],
      "name": "PushInvestorList",
      "type": "event"
    },
    {
      "anonymous": false,
      "inputs": [
        {
          "indexed": false,
          "name": "_numToRefund",
          "type": "uint256"
        }
      ],
      "name": "RefundAll",
      "type": "event"
    },
    {
      "anonymous": false,
      "inputs": [],
      "name": "Pause",
      "type": "event"
    },
    {
      "anonymous": false,
      "inputs": [],
      "name": "Unpause",
      "type": "event"
    }
  ],
  "bytecode": "0x606060405260008060146101000a81548160ff021916908315150217905550681043561a882930000060125569014542ba12a337c0000060135534156200004557600080fd5b6040516200309938038062003099833981016040528080519060200190919080519060200190919080519060200190919080519060200190919080518201919060200180519060200190919080519060200190919080519060200190919080519060200190919080519060200190919080519060200190919050506000336000806101000a81548173ffffffffffffffffffffffffffffffffffffffff021916908373ffffffffffffffffffffffffffffffffffffffff16021790555060008c73ffffffffffffffffffffffffffffffffffffffff161415801562000141575060008b73ffffffffffffffffffffffffffffffffffffffff1614155b801562000165575060008a73ffffffffffffffffffffffffffffffffffffffff1614155b801562000189575060008973ffffffffffffffffffffffffffffffffffffffff1614155b15156200019557600080fd5b60008773ffffffffffffffffffffffffffffffffffffffff1614151515620001bc57600080fd5b60008673ffffffffffffffffffffffffffffffffffffffff1614158015620001fb575060008573ffffffffffffffffffffffffffffffffffffffff1614155b15156200020757600080fd5b60008473ffffffffffffffffffffffffffffffffffffffff16141515156200022e57600080fd5b600090505b87518110156200028a57600088828151811015156200024e57fe5b9060200190602002015173ffffffffffffffffffffffffffffffffffffffff16141515156200027c57600080fd5b808060010191505062000233565b8160001080156200029a57508282105b1515620002a657600080fd5b8b600160006101000a81548173ffffffffffffffffffffffffffffffffffffffff021916908373ffffffffffffffffffffffffffffffffffffffff1602179055508a600260006101000a81548173ffffffffffffffffffffffffffffffffffffffff021916908373ffffffffffffffffffffffffffffffffffffffff16021790555089600360006101000a81548173ffffffffffffffffffffffffffffffffffffffff021916908373ffffffffffffffffffffffffffffffffffffffff16021790555088600460006101000a81548173ffffffffffffffffffffffffffffffffffffffff021916908373ffffffffffffffffffffffffffffffffffffffff1602179055508760059080519060200190620003c2929190620004e7565b5086600660006101000a81548173ffffffffffffffffffffffffffffffffffffffff021916908373ffffffffffffffffffffffffffffffffffffffff16021790555085600760006101000a81548173ffffffffffffffffffffffffffffffffffffffff021916908373ffffffffffffffffffffffffffffffffffffffff16021790555084600860006101000a81548173ffffffffffffffffffffffffffffffffffffffff021916908373ffffffffffffffffffffffffffffffffffffffff16021790555083601160006101000a81548173ffffffffffffffffffffffffffffffffffffffff021916908373ffffffffffffffffffffffffffffffffffffffff16021790555082600c8190555081600d81905550505050505050505050505050620005bc565b82805482825590600052602060002090810192821562000563579160200282015b82811115620005625782518260006101000a81548173ffffffffffffffffffffffffffffffffffffffff021916908373ffffffffffffffffffffffffffffffffffffffff1602179055509160200191906001019062000508565b5b50905062000572919062000576565b5090565b620005b991905b80821115620005b557600081816101000a81549073ffffffffffffffffffffffffffffffffffffffff0219169055506001016200057d565b5090565b90565b612acd80620005cc6000396000f3006060604052600436106101cd576000357c0100000000000000000000000000000000000000000000000000000000900463ffffffff16806305d2a9d5146101d8578063060406181461022d578063326fd584146102565780633f4ba83a1461027f5780634042b66f146102945780634bb278f3146102bd5780635066370a146102d2578063577890f6146103355780635bb11a57146103625780635c975abb1461039d57806377472b6f146103ca5780637dadb7ca146103f357806380bc99cb1461041c5780638456cb59146104715780638d4e4083146104865780638da5cb5b146104b35780638e6a2afa1461050857806390135fec1461053757806390d6b45f14610564578063a06aceb2146105b9578063a6ca322b1461060e578063a743fa5014610637578063ad22612214610684578063af6f964d146106bf578063bffa55d5146106ec578063d81cb8dc1461073d578063e7d4eb761461076a578063e9fee16f146107c2578063ea4a1104146107e5578063ed9c3bd214610852578063f088d547146108a7578063f16f3619146108d5578063f2fde38b146108fe578063f794eb5814610937578063fbfa77cf14610960578063fc0c546a146109b5578063fdea8e0b14610a0a575b6101d633610a5f565b005b34156101e357600080fd5b6101eb610f6b565b604051808273ffffffffffffffffffffffffffffffffffffffff1673ffffffffffffffffffffffffffffffffffffffff16815260200191505060405180910390f35b341561023857600080fd5b610240610f91565b6040518082815260200191505060405180910390f35b341561026157600080fd5b610269610f97565b6040518082815260200191505060405180910390f35b341561028a57600080fd5b610292610f9d565b005b341561029f57600080fd5b6102a761105b565b6040518082815260200191505060405180910390f35b34156102c857600080fd5b6102d0611061565b005b34156102dd57600080fd5b6102f3600480803590602001909190505061114e565b604051808273ffffffffffffffffffffffffffffffffffffffff1673ffffffffffffffffffffffffffffffffffffffff16815260200191505060405180910390f35b341561034057600080fd5b61034861118d565b604051808215151515815260200191505060405180910390f35b341561036d57600080fd5b61038360048080359060200190919050506111a0565b604051808215151515815260200191505060405180910390f35b34156103a857600080fd5b6103b0611218565b604051808215151515815260200191505060405180910390f35b34156103d557600080fd5b6103dd61122b565b6040518082815260200191505060405180910390f35b34156103fe57600080fd5b610406611231565b6040518082815260200191505060405180910390f35b341561042757600080fd5b61042f611237565b604051808273ffffffffffffffffffffffffffffffffffffffff1673ffffffffffffffffffffffffffffffffffffffff16815260200191505060405180910390f35b341561047c57600080fd5b61048461125d565b005b341561049157600080fd5b61049961131d565b604051808215151515815260200191505060405180910390f35b34156104be57600080fd5b6104c6611330565b604051808273ffffffffffffffffffffffffffffffffffffffff1673ffffffffffffffffffffffffffffffffffffffff16815260200191505060405180910390f35b341561051357600080fd5b61051b611355565b604051808260ff1660ff16815260200191505060405180910390f35b341561054257600080fd5b61054a61135a565b604051808215151515815260200191505060405180910390f35b341561056f57600080fd5b610577611368565b604051808273ffffffffffffffffffffffffffffffffffffffff1673ffffffffffffffffffffffffffffffffffffffff16815260200191505060405180910390f35b34156105c457600080fd5b6105cc61138e565b604051808273ffffffffffffffffffffffffffffffffffffffff1673ffffffffffffffffffffffffffffffffffffffff16815260200191505060405180910390f35b341561061957600080fd5b6106216113b4565b6040518082815260200191505060405180910390f35b341561064257600080fd5b61066e600480803573ffffffffffffffffffffffffffffffffffffffff169060200190919050506113ba565b6040518082815260200191505060405180910390f35b341561068f57600080fd5b6106a560048080359060200190919050506113d2565b604051808215151515815260200191505060405180910390f35b34156106ca57600080fd5b6106d2611477565b604051808215151515815260200191505060405180910390f35b34156106f757600080fd5b610723600480803573ffffffffffffffffffffffffffffffffffffffff16906020019091905050611486565b604051808215151515815260200191505060405180910390f35b341561074857600080fd5b61075061159e565b604051808215151515815260200191505060405180910390f35b341561077557600080fd5b6107a8600480803567ffffffffffffffff1690602001909190803567ffffffffffffffff169060200190919050506115ad565b604051808215151515815260200191505060405180910390f35b34156107cd57600080fd5b6107e360048080359060200190919050506118b7565b005b34156107f057600080fd5b6108066004808035906020019091905050611ae9565b604051808467ffffffffffffffff1667ffffffffffffffff1681526020018367ffffffffffffffff1667ffffffffffffffff168152602001828152602001935050505060405180910390f35b341561085d57600080fd5b610865611b4a565b604051808273ffffffffffffffffffffffffffffffffffffffff1673ffffffffffffffffffffffffffffffffffffffff16815260200191505060405180910390f35b6108d3600480803573ffffffffffffffffffffffffffffffffffffffff16906020019091905050610a5f565b005b34156108e057600080fd5b6108e8611b70565b6040518082815260200191505060405180910390f35b341561090957600080fd5b610935600480803573ffffffffffffffffffffffffffffffffffffffff16906020019091905050611b76565b005b341561094257600080fd5b61094a611c50565b6040518082815260200191505060405180910390f35b341561096b57600080fd5b610973611c7a565b604051808273ffffffffffffffffffffffffffffffffffffffff1673ffffffffffffffffffffffffffffffffffffffff16815260200191505060405180910390f35b34156109c057600080fd5b6109c8611ca0565b604051808273ffffffffffffffffffffffffffffffffffffffff1673ffffffffffffffffffffffffffffffffffffffff16815260200191505060405180910390f35b3415610a1557600080fd5b610a1d611cc6565b604051808273ffffffffffffffffffffffffffffffffffffffff1673ffffffffffffffffffffffffffffffffffffffff16815260200191505060405180910390f35b600080600080600080600080600060149054906101000a900460ff16151515610a8757600080fd5b600160009054906101000a900473ffffffffffffffffffffffffffffffffffffffff1673ffffffffffffffffffffffffffffffffffffffff1663ad1def428a6000604051602001526040518263ffffffff167c0100000000000000000000000000000000000000000000000000000000028152600401808273ffffffffffffffffffffffffffffffffffffffff1673ffffffffffffffffffffffffffffffffffffffff168152602001915050602060405180830381600087803b1515610b4c57600080fd5b6102c65a03f11515610b5d57600080fd5b505050604051805190501515610b7257600080fd5b601660009054906101000a900460ff161515610b8d57600080fd5b610b9561159e565b1515610ba057600080fd5b610bab600a546111a0565b151515610bb757600080fd5b60008973ffffffffffffffffffffffffffffffffffffffff1614151515610bdd57600080fd5b610be5611cec565b1515610bf057600080fd5b349750610c3c600e60008b73ffffffffffffffffffffffffffffffffffffffff1673ffffffffffffffffffffffffffffffffffffffff1681526020019081526020016000205489611dab565b9650610c4a600b5487611dab565b9450600c54851115610c6b57610c64600c54600b54611dc9565b9550610c6f565b8795505b600086111515610c7e57600080fd5b858810151515610c8d57600080fd5b610c95611c50565b935085601254111515610cb757610cb4610cad611c50565b6005611dab565b93505b856013541015610cd657610cd3610ccc611c50565b600a611dab565b93505b610cf6610cef6105dc610cea876064611dab565b611de2565b6064611e15565b9250610d028684611de2565b9150610d0e8887611dc9565b9050610d1933611e30565b610d25600b5487611dab565b600b81905550610d74600e60008b73ffffffffffffffffffffffffffffffffffffffff1673ffffffffffffffffffffffffffffffffffffffff1681526020019081526020016000205487611dab565b600e60008b73ffffffffffffffffffffffffffffffffffffffff1673ffffffffffffffffffffffffffffffffffffffff16815260200190815260200160002081905550600260009054906101000a900473ffffffffffffffffffffffffffffffffffffffff1673ffffffffffffffffffffffffffffffffffffffff1663827f32c08a846000604051602001526040518363ffffffff167c0100000000000000000000000000000000000000000000000000000000028152600401808373ffffffffffffffffffffffffffffffffffffffff1673ffffffffffffffffffffffffffffffffffffffff16815260200182815260200192505050602060405180830381600087803b1515610e8457600080fd5b6102c65a03f11515610e9557600080fd5b50505060405180519050506000811115610eea573373ffffffffffffffffffffffffffffffffffffffff166108fc829081150290604051600060405180830381858888f193505050501515610ee957600080fd5b5b610ef386611fa5565b8873ffffffffffffffffffffffffffffffffffffffff163373ffffffffffffffffffffffffffffffffffffffff167f33759ee1eaa9f87f4186d31caf548c4494b9cef9fa6a2805ef0efd615fb182ff8885604051808381526020018281526020019250505060405180910390a3505050505050505050565b600760009054906101000a900473ffffffffffffffffffffffffffffffffffffffff1681565b600a5481565b600c5481565b6000809054906101000a900473ffffffffffffffffffffffffffffffffffffffff1673ffffffffffffffffffffffffffffffffffffffff163373ffffffffffffffffffffffffffffffffffffffff16141515610ff857600080fd5b600060149054906101000a900460ff16151561101357600080fd5b60008060146101000a81548160ff0219169083151502179055507f7805862f689e2f13df9f062ff482ad3ad112aca9e0847911ed832e158c525b3360405160405180910390a1565b600b5481565b6000809054906101000a900473ffffffffffffffffffffffffffffffffffffffff1673ffffffffffffffffffffffffffffffffffffffff163373ffffffffffffffffffffffffffffffffffffffff161415156110bc57600080fd5b601460009054906101000a900460ff161515156110d857600080fd5b6110e3600a546111a0565b806110f257506110f161135a565b5b15156110fd57600080fd5b611105612079565b7f6823b073d48d6e3a7d385eeb601452d680e74bb46afe3255a7d778f3a9b1768160405160405180910390a16001601460006101000a81548160ff021916908315150217905550565b60058181548110151561115d57fe5b90600052602060002090016000915054906101000a900473ffffffffffffffffffffffffffffffffffffffff1681565b601660009054906101000a900460ff1681565b6000816111b36009805490506001611dc9565b101515156111c057600080fd5b6111c861159e565b801561121157506009828154811015156111de57fe5b906000526020600020906002020160000160089054906101000a900467ffffffffffffffff1667ffffffffffffffff1642115b9050919050565b600060149054906101000a900460ff1681565b600d5481565b60125481565b600860009054906101000a900473ffffffffffffffffffffffffffffffffffffffff1681565b6000809054906101000a900473ffffffffffffffffffffffffffffffffffffffff1673ffffffffffffffffffffffffffffffffffffffff163373ffffffffffffffffffffffffffffffffffffffff161415156112b857600080fd5b600060149054906101000a900460ff161515156112d457600080fd5b6001600060146101000a81548160ff0219169083151502179055507f6985a02210a168e66602d3235cb6db0e70f92b3ba4d376a33c0f3d9434bff62560405160405180910390a1565b601460009054906101000a900460ff1681565b6000809054906101000a900473ffffffffffffffffffffffffffffffffffffffff1681565b600881565b6000600c54600b5414905090565b600160009054906101000a900473ffffffffffffffffffffffffffffffffffffffff1681565b601160009054906101000a900473ffffffffffffffffffffffffffffffffffffffff1681565b60155481565b600e6020528060005260406000206000915090505481565b6000601660009054906101000a900460ff161515156113f057600080fd5b600460009054906101000a900473ffffffffffffffffffffffffffffffffffffffff1673ffffffffffffffffffffffffffffffffffffffff163373ffffffffffffffffffffffffffffffffffffffff1614151561144c57600080fd5b81600b819055506001601660006101000a81548160ff02191690831515021790555060019050919050565b6000600d54600b541015905090565b6000601460009054906101000a900460ff1615156114a357600080fd5b6114ab611477565b1515156114b757600080fd5b600360009054906101000a900473ffffffffffffffffffffffffffffffffffffffff1673ffffffffffffffffffffffffffffffffffffffff1663fa89401a836000604051602001526040518263ffffffff167c0100000000000000000000000000000000000000000000000000000000028152600401808273ffffffffffffffffffffffffffffffffffffffff1673ffffffffffffffffffffffffffffffffffffffff168152602001915050602060405180830381600087803b151561157c57600080fd5b6102c65a03f1151561158d57600080fd5b505050604051805190509050919050565b60008060098054905011905090565b60006115b761298b565b6000809054906101000a900473ffffffffffffffffffffffffffffffffffffffff1673ffffffffffffffffffffffffffffffffffffffff163373ffffffffffffffffffffffffffffffffffffffff1614151561161257600080fd5b600860ff1660098054905010151561162957600080fd5b61163161135a565b15151561163d57600080fd5b8367ffffffffffffffff164210801561166957508267ffffffffffffffff168467ffffffffffffffff16105b151561167457600080fd5b60006009805490501415156116b35762093a806116a58467ffffffffffffffff168667ffffffffffffffff16611dc9565b111515156116b257600080fd5b5b83816000019067ffffffffffffffff16908167ffffffffffffffff168152505082816020019067ffffffffffffffff16908167ffffffffffffffff1681525050600460098054905010156117295761171b600f6117166005600980549050611de2565b611dc9565b816040018181525050611735565b60008160400181815250505b61173d61159e565b156117a4576009600a5481548110151561175357fe5b906000526020600020906002020160000160089054906101000a900467ffffffffffffffff1667ffffffffffffffff164211151561179057600080fd5b61179d600a546001611dab565b600a819055505b600980548060010182816117b891906129c1565b9160005260206000209060020201600083909190915060008201518160000160006101000a81548167ffffffffffffffff021916908367ffffffffffffffff16021790555060208201518160000160086101000a81548167ffffffffffffffff021916908367ffffffffffffffff160217905550604082015181600101555050507f283f5265b87d978ddecf66eb1a2b452efa26bd18a944cce959d890247d5ba8f084848360400151604051808467ffffffffffffffff1667ffffffffffffffff1681526020018367ffffffffffffffff1667ffffffffffffffff168152602001828152602001935050505060405180910390a1600191505092915050565b6000806000809054906101000a900473ffffffffffffffffffffffffffffffffffffffff1673ffffffffffffffffffffffffffffffffffffffff163373ffffffffffffffffffffffffffffffffffffffff1614151561191557600080fd5b601460009054906101000a900460ff16151561193057600080fd5b611938611477565b15151561194457600080fd5b60008311151561195357600080fd5b82601554019150600f8054905082111561197057600f8054905091505b60155490505b81811015611aa657600360009054906101000a900473ffffffffffffffffffffffffffffffffffffffff1673ffffffffffffffffffffffffffffffffffffffff1663fa89401a600f838154811015156119cb57fe5b906000526020600020900160009054906101000a900473ffffffffffffffffffffffffffffffffffffffff166000604051602001526040518263ffffffff167c0100000000000000000000000000000000000000000000000000000000028152600401808273ffffffffffffffffffffffffffffffffffffffff1673ffffffffffffffffffffffffffffffffffffffff168152602001915050602060405180830381600087803b1515611a7d57600080fd5b6102c65a03f11515611a8e57600080fd5b50505060405180519050508080600101915050611976565b816015819055507fa70a53972d6afb0fc38bd683cd5955faa5fa55e6629744a51e7a2aaa0ecc4e04836040518082815260200191505060405180910390a1505050565b600981815481101515611af857fe5b90600052602060002090600202016000915090508060000160009054906101000a900467ffffffffffffffff16908060000160089054906101000a900467ffffffffffffffff16908060010154905083565b600660009054906101000a900473ffffffffffffffffffffffffffffffffffffffff1681565b60135481565b6000809054906101000a900473ffffffffffffffffffffffffffffffffffffffff1673ffffffffffffffffffffffffffffffffffffffff163373ffffffffffffffffffffffffffffffffffffffff16141515611bd157600080fd5b600073ffffffffffffffffffffffffffffffffffffffff168173ffffffffffffffffffffffffffffffffffffffff1614151515611c0d57600080fd5b806000806101000a81548173ffffffffffffffffffffffffffffffffffffffff021916908373ffffffffffffffffffffffffffffffffffffffff16021790555050565b60006009600a54815481101515611c6357fe5b906000526020600020906002020160010154905090565b600360009054906101000a900473ffffffffffffffffffffffffffffffffffffffff1681565b600260009054906101000a900473ffffffffffffffffffffffffffffffffffffffff1681565b600460009054906101000a900473ffffffffffffffffffffffffffffffffffffffff1681565b60008060008034141591506009600a54815481101515611d0857fe5b906000526020600020906002020160000160009054906101000a900467ffffffffffffffff1667ffffffffffffffff164210158015611d8757506009600a54815481101515611d5357fe5b906000526020600020906002020160000160089054906101000a900467ffffffffffffffff1667ffffffffffffffff164211155b9050818015611d9b5750611d9961135a565b155b8015611da45750805b9250505090565b6000808284019050838110151515611dbf57fe5b8091505092915050565b6000828211151515611dd757fe5b818303905092915050565b60008082840290506000841480611e035750828482811515611e0057fe5b04145b1515611e0b57fe5b8091505092915050565b6000808284811515611e2357fe5b0490508091505092915050565b601060008273ffffffffffffffffffffffffffffffffffffffff1673ffffffffffffffffffffffffffffffffffffffff16815260200190815260200160002060009054906101000a900460ff161515611f3f576001601060008373ffffffffffffffffffffffffffffffffffffffff1673ffffffffffffffffffffffffffffffffffffffff16815260200190815260200160002060006101000a81548160ff021916908315150217905550600f8054806001018281611eef91906129f3565b9160005260206000209001600083909190916101000a81548173ffffffffffffffffffffffffffffffffffffffff021916908373ffffffffffffffffffffffffffffffffffffffff160217905550505b7f1095f211ec26cf9891a79b12717df016e5e06954063d8534ac589273c0ed2eb281604051808273ffffffffffffffffffffffffffffffffffffffff1673ffffffffffffffffffffffffffffffffffffffff16815260200191505060405180910390a150565b600360009054906101000a900473ffffffffffffffffffffffffffffffffffffffff1673ffffffffffffffffffffffffffffffffffffffff1663f340fa0182336040518363ffffffff167c0100000000000000000000000000000000000000000000000000000000028152600401808273ffffffffffffffffffffffffffffffffffffffff1673ffffffffffffffffffffffffffffffffffffffff1681526020019150506000604051808303818588803b151561206157600080fd5b6125ee5a03f1151561207257600080fd5b5050505050565b600080600080612087611477565b156122ce57600360009054906101000a900473ffffffffffffffffffffffffffffffffffffffff1673ffffffffffffffffffffffffffffffffffffffff166343d726d66040518163ffffffff167c0100000000000000000000000000000000000000000000000000000000028152600401600060405180830381600087803b151561211157600080fd5b6102c65a03f1151561212257600080fd5b505050600260009054906101000a900473ffffffffffffffffffffffffffffffffffffffff1673ffffffffffffffffffffffffffffffffffffffff166318160ddd6000604051602001526040518163ffffffff167c0100000000000000000000000000000000000000000000000000000000028152600401602060405180830381600087803b15156121b357600080fd5b6102c65a03f115156121c457600080fd5b5050506040518051905093506121e56121de856014611de2565b6032611e15565b92506121fc6121f585600f611de2565b6032611e15565b915061221361220c85600f611de2565b6032611e15565b905061222083838361250a565b600260009054906101000a900473ffffffffffffffffffffffffffffffffffffffff1673ffffffffffffffffffffffffffffffffffffffff1663f41e60c560016040518263ffffffff167c01000000000000000000000000000000000000000000000000000000000281526004018082151515158152602001915050600060405180830381600087803b15156122b557600080fd5b6102c65a03f115156122c657600080fd5b505050612368565b600360009054906101000a900473ffffffffffffffffffffffffffffffffffffffff1673ffffffffffffffffffffffffffffffffffffffff16638c52dc416040518163ffffffff167c0100000000000000000000000000000000000000000000000000000000028152600401600060405180830381600087803b151561235357600080fd5b6102c65a03f1151561236457600080fd5b5050505b600260009054906101000a900473ffffffffffffffffffffffffffffffffffffffff1673ffffffffffffffffffffffffffffffffffffffff1663a4d67d636000604051602001526040518163ffffffff167c0100000000000000000000000000000000000000000000000000000000028152600401602060405180830381600087803b15156123f657600080fd5b6102c65a03f1151561240757600080fd5b5050506040518051905050600260009054906101000a900473ffffffffffffffffffffffffffffffffffffffff1673ffffffffffffffffffffffffffffffffffffffff16633cebb823601160009054906101000a900473ffffffffffffffffffffffffffffffffffffffff166040518263ffffffff167c0100000000000000000000000000000000000000000000000000000000028152600401808273ffffffffffffffffffffffffffffffffffffffff1673ffffffffffffffffffffffffffffffffffffffff168152602001915050600060405180830381600087803b15156124f057600080fd5b6102c65a03f1151561250157600080fd5b50505050505050565b60008061251f85600160058054905001611e15565b9150600090505b60058054905081101561266357600260009054906101000a900473ffffffffffffffffffffffffffffffffffffffff1673ffffffffffffffffffffffffffffffffffffffff1663827f32c060058381548110151561258057fe5b906000526020600020900160009054906101000a900473ffffffffffffffffffffffffffffffffffffffff16846000604051602001526040518363ffffffff167c0100000000000000000000000000000000000000000000000000000000028152600401808373ffffffffffffffffffffffffffffffffffffffff1673ffffffffffffffffffffffffffffffffffffffff16815260200182815260200192505050602060405180830381600087803b151561263a57600080fd5b6102c65a03f1151561264b57600080fd5b50505060405180519050508080600101915050612526565b600260009054906101000a900473ffffffffffffffffffffffffffffffffffffffff1673ffffffffffffffffffffffffffffffffffffffff1663827f32c0600660009054906101000a900473ffffffffffffffffffffffffffffffffffffffff16846000604051602001526040518363ffffffff167c0100000000000000000000000000000000000000000000000000000000028152600401808373ffffffffffffffffffffffffffffffffffffffff1673ffffffffffffffffffffffffffffffffffffffff16815260200182815260200192505050602060405180830381600087803b151561275257600080fd5b6102c65a03f1151561276357600080fd5b5050506040518051905050600260009054906101000a900473ffffffffffffffffffffffffffffffffffffffff1673ffffffffffffffffffffffffffffffffffffffff1663827f32c0600760009054906101000a900473ffffffffffffffffffffffffffffffffffffffff16866000604051602001526040518363ffffffff167c0100000000000000000000000000000000000000000000000000000000028152600401808373ffffffffffffffffffffffffffffffffffffffff1673ffffffffffffffffffffffffffffffffffffffff16815260200182815260200192505050602060405180830381600087803b151561285d57600080fd5b6102c65a03f1151561286e57600080fd5b5050506040518051905050600260009054906101000a900473ffffffffffffffffffffffffffffffffffffffff1673ffffffffffffffffffffffffffffffffffffffff1663827f32c0600860009054906101000a900473ffffffffffffffffffffffffffffffffffffffff16856000604051602001526040518363ffffffff167c0100000000000000000000000000000000000000000000000000000000028152600401808373ffffffffffffffffffffffffffffffffffffffff1673ffffffffffffffffffffffffffffffffffffffff16815260200182815260200192505050602060405180830381600087803b151561296857600080fd5b6102c65a03f1151561297957600080fd5b50505060405180519050505050505050565b606060405190810160405280600067ffffffffffffffff168152602001600067ffffffffffffffff168152602001600081525090565b8154818355818115116129ee576002028160020283600052602060002091820191016129ed9190612a1f565b5b505050565b815481835581811511612a1a57818360005260206000209182019101612a199190612a7c565b5b505050565b612a7991905b80821115612a7557600080820160006101000a81549067ffffffffffffffff02191690556000820160086101000a81549067ffffffffffffffff0219169055600182016000905550600201612a25565b5090565b90565b612a9e91905b80821115612a9a576000816000905550600101612a82565b5090565b905600a165627a7a723058201a1b830d2c84179b00738cd774f7ac971b4aca576ab6b4a815ca6e53513c7df20029",
  "source": "pragma solidity ^0.4.18;\n\nimport './kyc/KYC.sol';\nimport './ATC.sol';\nimport './vault/RefundVault.sol';\nimport './ownership/Ownable.sol';\nimport './math/SafeMath.sol';\nimport './lifecycle/Pausable.sol';\n\ncontract ATCCrowdSale is Ownable, SafeMath, Pausable {\n  KYC public kyc;\n  ATC public token;\n  RefundVault public vault;\n\n  address public presale;\n\n  address[] public bountyAndCommunityAddresses; //5% for bounty, 15% for community groups & partners\n  address public bountyAndCommunityAddressesMultiSig; //5% for bounty, 15% for community groups & partners\n  address public reserverLocker; //15% with 2 years lock\n  address public teamLocker; // 15% with 2 years vesting\n\n  struct Period {\n    uint64 startTime;\n    uint64 endTime;\n    uint256 bonusRate;\n  }\n\n  Period[] public periods;\n  uint256 public currentPeriod;\n  uint8 constant public MAX_PERIOD_COUNT = 8;\n\n  uint256 public weiRaised;\n  uint256 public maxEtherCap;\n  uint256 public minEtherCap;\n\n  mapping (address => uint256) public beneficiaryFunded;\n\n  address[] investorList;\n  mapping (address => bool) inInvestorList;\n\n  address public ATCController;\n\n  uint256 public additionalBonusAmount1 = 300 * 10 ** 18;\n  uint256 public additionalBonusAmount2 = 6000 * 10 ** 18;\n\n  bool public isFinalized;\n  uint256 public refundCompleted;\n  bool public presaleFallBackCalled;\n\n\n  event CrowdSaleTokenPurchase(address indexed _investor, address indexed _beneficiary, uint256 _toFund, uint256 _tokens);\n  event StartPeriod(uint64 _startTime, uint64 _endTime, uint256 _bonusRate);\n  event Finalized();\n  event PresaleFallBack(uint256 _presaleWeiRaised);\n  event PushInvestorList(address _investor);\n  event RefundAll(uint256 _numToRefund);\n\n\n  function ATCCrowdSale (\n    address _kyc,\n    address _token,\n    address _vault,\n    address _presale,\n    address[] _bountyAndCommunityAddresses,\n    address _bountyAndCommunityAddressesMultiSig,\n    address _reserverLocker,\n    address _teamLocker,\n    address _tokenController,\n    uint256 _maxEtherCap,\n    uint256 _minEtherCap\n    ) {\n      require(_kyc != 0x00 && _token != 0x00 && _vault != 0x00 && _presale != 0x00);\n      require(_bountyAndCommunityAddressesMultiSig != 0x00);\n      require(_reserverLocker != 0x00 && _teamLocker != 0x00);\n      require(_tokenController != 0x00);\n\n      for (uint i = 0 ; i < _bountyAndCommunityAddresses.length; i++) {\n        require(_bountyAndCommunityAddresses[i] != 0x00);\n      }\n      require(0 < _minEtherCap && _minEtherCap < _maxEtherCap);\n\n      kyc = KYC(_kyc);\n      token = ATC(_token);\n      vault = RefundVault(_vault);\n      presale = _presale;\n\n      bountyAndCommunityAddresses = _bountyAndCommunityAddresses;\n      bountyAndCommunityAddressesMultiSig = _bountyAndCommunityAddressesMultiSig;\n      reserverLocker = _reserverLocker;\n      teamLocker = _teamLocker;\n      ATCController = _tokenController;\n\n      maxEtherCap = _maxEtherCap;\n      minEtherCap = _minEtherCap;\n    }\n\n  function () public payable {\n    buy(msg.sender);\n  }\n\n  function presaleFallBack(uint256 _presaleWeiRaised) public returns (bool) {\n    require(!presaleFallBackCalled);\n    require(msg.sender == presale);\n    weiRaised = _presaleWeiRaised;\n    presaleFallBackCalled = true;\n    return true;\n\n    PresaleFallBack(_presaleWeiRaised);\n  }\n\n  function buy(address beneficiary)\n    public\n    payable\n    whenNotPaused\n  {\n      // check validity\n      require(kyc.registeredAddress(beneficiary));\n      require(presaleFallBackCalled);\n      require(nonZeroPeriod());\n      require(!periodFinished(currentPeriod));\n      require(beneficiary != 0x00);\n      require(validPurchase());\n\n      // calculate eth amount\n      uint256 weiAmount = msg.value;\n      uint256 totalAmount = add(beneficiaryFunded[beneficiary], weiAmount);\n      uint256 toFund;\n\n      uint256 postWeiRaised = add(weiRaised, toFund);\n\n      if (postWeiRaised > maxEtherCap) {\n        toFund = sub(maxEtherCap, weiRaised);\n      } else {\n        toFund = weiAmount;\n      }\n\n      require(toFund > 0);\n      require(weiAmount >= toFund);\n\n      //TODO\n      uint256 myBonusRate = getBonusRate();\n\n      if (additionalBonusAmount1 <= toFund) {\n        myBonusRate = add(getBonusRate(), 5);\n      }\n      if (additionalBonusAmount2 < toFund) {\n        myBonusRate = add(getBonusRate(), 10);\n      }\n\n      uint256 myRate = div(mul(1500, add(myBonusRate, 100)), 100);\n      uint256 tokens = mul(toFund, myRate);\n      uint256 toReturn = sub(weiAmount, toFund);\n\n      pushInvestorList(msg.sender);\n\n      weiRaised = add(weiRaised, toFund);\n      beneficiaryFunded[beneficiary] = add(beneficiaryFunded[beneficiary], toFund);\n\n      token.generateTokens(beneficiary, tokens);\n\n      if (toReturn > 0) {\n        msg.sender.transfer(toReturn);\n      }\n      forwardFunds(toFund);\n      CrowdSaleTokenPurchase(msg.sender, beneficiary, toFund, tokens);\n  }\n\n  function pushInvestorList(address investor) internal {\n    if (!inInvestorList[investor]) {\n      inInvestorList[investor] = true;\n      investorList.push(investor);\n    }\n    PushInvestorList(investor);\n  }\n\n  function validPurchase() internal constant returns (bool) {\n    bool nonZeroPurchase = msg.value != 0;\n    bool validTime = now >= periods[currentPeriod].startTime && now <= periods[currentPeriod].endTime;\n    return nonZeroPurchase && !maxReached() && validTime;\n  }\n\n  function forwardFunds(uint256 toFund) internal {\n    vault.deposit.value(toFund)(msg.sender);\n  }\n\n  function nonZeroPeriod() public constant returns (bool) {\n    return periods.length > 0;\n  }\n\n  function periodFinished(uint256 period) public constant returns (bool) {\n    require(sub(periods.length, 1) >= period);\n    return nonZeroPeriod() && now > periods[period].endTime;\n  }\n\n  /**\n   * @dev Checks whether minEtherCap is reached\n   * @return true if min ether cap is reaced\n   */\n  function minReached() public constant returns (bool) {\n    return weiRaised >= minEtherCap;\n  }\n  /**\n   * @dev Checks whether maxEtherCap is reached\n   * @return true if max ether cap is reaced\n   */\n  function maxReached() public constant returns (bool) {\n    return weiRaised == maxEtherCap;\n  }\n\n  function getBonusRate() public constant returns (uint256) {\n    return periods[currentPeriod].bonusRate;\n  }\n\n  function startPeriod(uint64 _startTime, uint64 _endTime) public onlyOwner returns (bool) {\n    require(periods.length < MAX_PERIOD_COUNT);\n    require(!maxReached());\n    require(now < _startTime && _startTime < _endTime);\n\n    if (periods.length != 0) {\n      require(sub(_endTime, _startTime) <= 7 days);\n    }\n\n    //1650 -> 1575 -> 1500\n    Period memory newPeriod;\n    newPeriod.startTime = _startTime;\n    newPeriod.endTime = _endTime;\n\n    if(periods.length < 4) {\n      newPeriod.bonusRate = sub(15, mul(5, periods.length));\n    } else {\n      newPeriod.bonusRate = 0;\n    }\n\n    if (nonZeroPeriod()) {\n      require(now > periods[currentPeriod].endTime);\n      currentPeriod = add (currentPeriod, 1);\n    }\n\n    periods.push(newPeriod);\n\n    StartPeriod(_startTime, _endTime, newPeriod.bonusRate);\n\n    return true;\n  }\n\n  /**\n   * @dev should be called after crowdsale ends, to do\n   */\n  function finalize() onlyOwner {\n    require(!isFinalized);\n    require(periodFinished(currentPeriod) || maxReached());\n\n    finalization();\n    Finalized();\n\n    isFinalized = true;\n  }\n\n  /**\n   * @dev end token minting on finalization, mint tokens for dev team and reserve wallets\n   */\n  function finalization() internal {\n    if (minReached()) {\n      vault.close();\n\n      uint256 totalToken = token.totalSupply();\n\n      // token distribution : 50% for sale, 20% for bounty and community, 15% for reserve, 15% for team\n      uint256 bountyAndCommunityAmount = div(mul(totalToken, 20), 50);\n      uint256 reserveAmount = div(mul(totalToken, 15), 50);\n      uint256 teamAmount = div(mul(totalToken, 15), 50);\n\n      distributeToken(bountyAndCommunityAmount, reserveAmount, teamAmount);\n\n      token.enableTransfers(true);\n\n    } else {\n      vault.enableRefunds();\n    }\n    token.finishGenerating();\n    token.changeController(ATCController);\n  }\n\n  function distributeToken(uint256 bountyAndCommunityAmount, uint256 reserveAmount, uint256 teamAmount) internal {\n    // TODO: check bountyAndCommunityAmount distribution ratio\n    // 3 wallets, 1 multisig\n    uint256 bountyAndCommunityAmountForEach = div(bountyAndCommunityAmount, bountyAndCommunityAddresses.length + 1);\n\n    for (uint256 i = 0; i < bountyAndCommunityAddresses.length; i++) {\n        token.generateTokens(bountyAndCommunityAddresses[i], bountyAndCommunityAmountForEach);\n    }\n\n    token.generateTokens(bountyAndCommunityAddressesMultiSig, bountyAndCommunityAmountForEach);\n    token.generateTokens(reserverLocker, reserveAmount);\n    token.generateTokens(teamLocker, teamAmount);\n  }\n\n  /**\n   * @dev refund a lot of investors at a time checking onlyOwner\n   * @param numToRefund uint256 The number of investors to refund\n   */\n  function refundAll(uint256 numToRefund) onlyOwner {\n    require(isFinalized);\n    require(!minReached());\n    require(numToRefund > 0);\n\n    uint256 limit = refundCompleted + numToRefund;\n\n    if (limit > investorList.length) {\n      limit = investorList.length;\n    }\n\n    for(uint256 i = refundCompleted; i < limit; i++) {\n      vault.refund(investorList[i]);\n    }\n\n    refundCompleted = limit;\n    RefundAll(numToRefund);\n  }\n\n  /**\n   * @dev if crowdsale is unsuccessful, investors can claim refunds here\n   * @param investor address The account to be refunded\n   */\n  function claimRefund(address investor) returns (bool) {\n    require(isFinalized);\n    require(!minReached());\n\n    return vault.refund(investor);\n  }\n}\n",
  "sourcePath": "/Users/midinpa/workspace/dapps/aston-crowdsale/contracts/ATCCrowdSale.sol",
  "compiler": {
    "name": "solc",
    "version": "0.4.18+commit.9cf6e910.Emscripten.clang"
  },
  "schemaVersion": "1.0.1",
  "updatedAt": "2017-11-23T05:43:28.850Z"
}