{
  "contractName": "ATCCrowdSale2",
  "abi": [
    {
      "constant": false,
      "inputs": [
        {
          "name": "_startTime",
          "type": "uint256"
        },
        {
          "name": "_endTime",
          "type": "uint256"
        }
      ],
      "name": "startPeriod",
      "outputs": [
        {
          "name": "",
          "type": "bool"
        }
      ],
      "payable": false,
      "stateMutability": "nonpayable",
      "type": "function"
    },
    {
      "constant": true,
      "inputs": [],
      "name": "initialized",
      "outputs": [
        {
          "name": "",
          "type": "bool"
        }
      ],
      "payable": false,
      "stateMutability": "view",
      "type": "function"
    },
    {
      "constant": true,
      "inputs": [],
      "name": "baseRate",
      "outputs": [
        {
          "name": "",
          "type": "uint256"
        }
      ],
      "payable": false,
      "stateMutability": "view",
      "type": "function"
    },
    {
      "constant": true,
      "inputs": [
        {
          "name": "",
          "type": "uint256"
        }
      ],
      "name": "additionalBonusAmounts",
      "outputs": [
        {
          "name": "",
          "type": "uint256"
        }
      ],
      "payable": false,
      "stateMutability": "view",
      "type": "function"
    },
    {
      "constant": true,
      "inputs": [
        {
          "name": "toFund",
          "type": "uint256"
        }
      ],
      "name": "calculateRate",
      "outputs": [
        {
          "name": "",
          "type": "uint256"
        }
      ],
      "payable": false,
      "stateMutability": "view",
      "type": "function"
    },
    {
      "constant": false,
      "inputs": [],
      "name": "onSale",
      "outputs": [
        {
          "name": "",
          "type": "bool"
        }
      ],
      "payable": false,
      "stateMutability": "nonpayable",
      "type": "function"
    },
    {
      "constant": true,
      "inputs": [],
      "name": "maxEtherCap",
      "outputs": [
        {
          "name": "",
          "type": "uint256"
        }
      ],
      "payable": false,
      "stateMutability": "view",
      "type": "function"
    },
    {
      "constant": false,
      "inputs": [],
      "name": "unpause",
      "outputs": [],
      "payable": false,
      "stateMutability": "nonpayable",
      "type": "function"
    },
    {
      "constant": true,
      "inputs": [],
      "name": "weiRaised",
      "outputs": [
        {
          "name": "",
          "type": "uint256"
        }
      ],
      "payable": false,
      "stateMutability": "view",
      "type": "function"
    },
    {
      "constant": false,
      "inputs": [],
      "name": "finalize",
      "outputs": [],
      "payable": false,
      "stateMutability": "nonpayable",
      "type": "function"
    },
    {
      "constant": true,
      "inputs": [],
      "name": "paused",
      "outputs": [
        {
          "name": "",
          "type": "bool"
        }
      ],
      "payable": false,
      "stateMutability": "view",
      "type": "function"
    },
    {
      "constant": true,
      "inputs": [],
      "name": "ATCReserveLocker",
      "outputs": [
        {
          "name": "",
          "type": "address"
        }
      ],
      "payable": false,
      "stateMutability": "view",
      "type": "function"
    },
    {
      "constant": true,
      "inputs": [],
      "name": "partnersAddress",
      "outputs": [
        {
          "name": "",
          "type": "address"
        }
      ],
      "payable": false,
      "stateMutability": "view",
      "type": "function"
    },
    {
      "constant": true,
      "inputs": [],
      "name": "minEtherCap",
      "outputs": [
        {
          "name": "",
          "type": "uint256"
        }
      ],
      "payable": false,
      "stateMutability": "view",
      "type": "function"
    },
    {
      "constant": true,
      "inputs": [],
      "name": "teamLocker",
      "outputs": [
        {
          "name": "",
          "type": "address"
        }
      ],
      "payable": false,
      "stateMutability": "view",
      "type": "function"
    },
    {
      "constant": false,
      "inputs": [],
      "name": "pause",
      "outputs": [],
      "payable": false,
      "stateMutability": "nonpayable",
      "type": "function"
    },
    {
      "constant": false,
      "inputs": [
        {
          "name": "_kyc",
          "type": "address"
        },
        {
          "name": "_token",
          "type": "address"
        },
        {
          "name": "_vault",
          "type": "address"
        },
        {
          "name": "_bountyAddress",
          "type": "address"
        },
        {
          "name": "_partnersAddress",
          "type": "address"
        },
        {
          "name": "_ATCReserveLocker",
          "type": "address"
        },
        {
          "name": "_teamLocker",
          "type": "address"
        },
        {
          "name": "_tokenController",
          "type": "address"
        },
        {
          "name": "_maxEtherCap",
          "type": "uint256"
        },
        {
          "name": "_minEtherCap",
          "type": "uint256"
        },
        {
          "name": "_baseRate",
          "type": "uint256"
        },
        {
          "name": "_additionalBonusAmounts",
          "type": "uint256[]"
        }
      ],
      "name": "initialize",
      "outputs": [],
      "payable": false,
      "stateMutability": "nonpayable",
      "type": "function"
    },
    {
      "constant": true,
      "inputs": [],
      "name": "isFinalized",
      "outputs": [
        {
          "name": "",
          "type": "bool"
        }
      ],
      "payable": false,
      "stateMutability": "view",
      "type": "function"
    },
    {
      "constant": true,
      "inputs": [],
      "name": "owner",
      "outputs": [
        {
          "name": "",
          "type": "address"
        }
      ],
      "payable": false,
      "stateMutability": "view",
      "type": "function"
    },
    {
      "constant": true,
      "inputs": [],
      "name": "MAX_PERIOD_COUNT",
      "outputs": [
        {
          "name": "",
          "type": "uint8"
        }
      ],
      "payable": false,
      "stateMutability": "view",
      "type": "function"
    },
    {
      "constant": true,
      "inputs": [],
      "name": "maxReached",
      "outputs": [
        {
          "name": "",
          "type": "bool"
        }
      ],
      "payable": false,
      "stateMutability": "view",
      "type": "function"
    },
    {
      "constant": true,
      "inputs": [],
      "name": "kyc",
      "outputs": [
        {
          "name": "",
          "type": "address"
        }
      ],
      "payable": false,
      "stateMutability": "view",
      "type": "function"
    },
    {
      "constant": true,
      "inputs": [],
      "name": "ATCController",
      "outputs": [
        {
          "name": "",
          "type": "address"
        }
      ],
      "payable": false,
      "stateMutability": "view",
      "type": "function"
    },
    {
      "constant": true,
      "inputs": [],
      "name": "refundCompleted",
      "outputs": [
        {
          "name": "",
          "type": "uint256"
        }
      ],
      "payable": false,
      "stateMutability": "view",
      "type": "function"
    },
    {
      "constant": true,
      "inputs": [
        {
          "name": "",
          "type": "address"
        }
      ],
      "name": "beneficiaryFunded",
      "outputs": [
        {
          "name": "",
          "type": "uint256"
        }
      ],
      "payable": false,
      "stateMutability": "view",
      "type": "function"
    },
    {
      "constant": true,
      "inputs": [],
      "name": "minReached",
      "outputs": [
        {
          "name": "",
          "type": "bool"
        }
      ],
      "payable": false,
      "stateMutability": "view",
      "type": "function"
    },
    {
      "constant": false,
      "inputs": [
        {
          "name": "investor",
          "type": "address"
        }
      ],
      "name": "claimRefund",
      "outputs": [
        {
          "name": "",
          "type": "bool"
        }
      ],
      "payable": false,
      "stateMutability": "nonpayable",
      "type": "function"
    },
    {
      "constant": true,
      "inputs": [],
      "name": "bountyAddress",
      "outputs": [
        {
          "name": "",
          "type": "address"
        }
      ],
      "payable": false,
      "stateMutability": "view",
      "type": "function"
    },
    {
      "constant": false,
      "inputs": [
        {
          "name": "_claimToken",
          "type": "address"
        }
      ],
      "name": "claimTokens",
      "outputs": [],
      "payable": false,
      "stateMutability": "nonpayable",
      "type": "function"
    },
    {
      "constant": true,
      "inputs": [],
      "name": "getPeriodBonus",
      "outputs": [
        {
          "name": "",
          "type": "uint256"
        }
      ],
      "payable": false,
      "stateMutability": "view",
      "type": "function"
    },
    {
      "constant": false,
      "inputs": [
        {
          "name": "numToRefund",
          "type": "uint256"
        }
      ],
      "name": "refundAll",
      "outputs": [],
      "payable": false,
      "stateMutability": "nonpayable",
      "type": "function"
    },
    {
      "constant": true,
      "inputs": [
        {
          "name": "",
          "type": "uint256"
        }
      ],
      "name": "periods",
      "outputs": [
        {
          "name": "startTime",
          "type": "uint256"
        },
        {
          "name": "endTime",
          "type": "uint256"
        },
        {
          "name": "bonus",
          "type": "uint256"
        }
      ],
      "payable": false,
      "stateMutability": "view",
      "type": "function"
    },
    {
      "constant": false,
      "inputs": [
        {
          "name": "beneficiary",
          "type": "address"
        }
      ],
      "name": "buy",
      "outputs": [],
      "payable": true,
      "stateMutability": "payable",
      "type": "function"
    },
    {
      "constant": false,
      "inputs": [
        {
          "name": "newOwner",
          "type": "address"
        }
      ],
      "name": "transferOwnership",
      "outputs": [],
      "payable": false,
      "stateMutability": "nonpayable",
      "type": "function"
    },
    {
      "constant": true,
      "inputs": [],
      "name": "vault",
      "outputs": [
        {
          "name": "",
          "type": "address"
        }
      ],
      "payable": false,
      "stateMutability": "view",
      "type": "function"
    },
    {
      "constant": true,
      "inputs": [],
      "name": "token",
      "outputs": [
        {
          "name": "",
          "type": "address"
        }
      ],
      "payable": false,
      "stateMutability": "view",
      "type": "function"
    },
    {
      "constant": true,
      "inputs": [],
      "name": "finalizedTime",
      "outputs": [
        {
          "name": "",
          "type": "uint256"
        }
      ],
      "payable": false,
      "stateMutability": "view",
      "type": "function"
    },
    {
      "payable": true,
      "stateMutability": "payable",
      "type": "fallback"
    },
    {
      "anonymous": false,
      "inputs": [
        {
          "indexed": true,
          "name": "_investor",
          "type": "address"
        },
        {
          "indexed": true,
          "name": "_beneficiary",
          "type": "address"
        },
        {
          "indexed": false,
          "name": "_toFund",
          "type": "uint256"
        },
        {
          "indexed": false,
          "name": "_tokens",
          "type": "uint256"
        }
      ],
      "name": "CrowdSaleTokenPurchase",
      "type": "event"
    },
    {
      "anonymous": false,
      "inputs": [
        {
          "indexed": false,
          "name": "_startTime",
          "type": "uint256"
        },
        {
          "indexed": false,
          "name": "_endTime",
          "type": "uint256"
        },
        {
          "indexed": false,
          "name": "_bonus",
          "type": "uint256"
        }
      ],
      "name": "StartPeriod",
      "type": "event"
    },
    {
      "anonymous": false,
      "inputs": [],
      "name": "Finalized",
      "type": "event"
    },
    {
      "anonymous": false,
      "inputs": [
        {
          "indexed": false,
          "name": "_investor",
          "type": "address"
        }
      ],
      "name": "PushInvestorList",
      "type": "event"
    },
    {
      "anonymous": false,
      "inputs": [
        {
          "indexed": false,
          "name": "_numToRefund",
          "type": "uint256"
        }
      ],
      "name": "RefundAll",
      "type": "event"
    },
    {
      "anonymous": false,
      "inputs": [
        {
          "indexed": false,
          "name": "_claimToken",
          "type": "address"
        },
        {
          "indexed": false,
          "name": "owner",
          "type": "address"
        },
        {
          "indexed": false,
          "name": "balance",
          "type": "uint256"
        }
      ],
      "name": "ClaimedTokens",
      "type": "event"
    },
    {
      "anonymous": false,
      "inputs": [],
      "name": "Initialize",
      "type": "event"
    },
    {
      "anonymous": false,
      "inputs": [],
      "name": "Pause",
      "type": "event"
    },
    {
      "anonymous": false,
      "inputs": [],
      "name": "Unpause",
      "type": "event"
    }
  ],
  "bytecode": "0x606060405260008060146101000a81548160ff021916908315150217905550336000806101000a81548173ffffffffffffffffffffffffffffffffffffffff021916908373ffffffffffffffffffffffffffffffffffffffff16021790555061349d8061006d6000396000f3006060604052600436106101cd576000357c0100000000000000000000000000000000000000000000000000000000900463ffffffff168063107d1d55146101d8578063158ef93e1461021c5780631f68f20a146102495780632c0657c214610272578063319b0cd2146102a9578063326687b9146102e0578063326fd5841461030d5780633f4ba83a146103365780634042b66f1461034b5780634bb278f3146103745780635c975abb146103895780636584fcce146103b65780636a75f03d1461040b57806377472b6f1461046057806380bc99cb146104895780638456cb59146104de57806388ff9416146104f35780638d4e4083146106605780638da5cb5b1461068d5780638e6a2afa146106e257806390135fec1461071157806390d6b45f1461073e578063a06aceb214610793578063a6ca322b146107e8578063a743fa5014610811578063af6f964d1461085e578063bffa55d51461088b578063c516358f146108dc578063df8de3e714610931578063e382c3e61461096a578063e9fee16f14610993578063ea4a1104146109b6578063f088d547146109fb578063f2fde38b14610a29578063fbfa77cf14610a62578063fc0c546a14610ab7578063fe67a18914610b0c575b6101d633610b35565b005b34156101e357600080fd5b6102026004808035906020019091908035906020019091905050610f7b565b604051808215151515815260200191505060405180910390f35b341561022757600080fd5b61022f611168565b604051808215151515815260200191505060405180910390f35b341561025457600080fd5b61025c61117b565b6040518082815260200191505060405180910390f35b341561027d57600080fd5b6102936004808035906020019091905050611181565b6040518082815260200191505060405180910390f35b34156102b457600080fd5b6102ca60048080359060200190919050506111a5565b6040518082815260200191505060405180910390f35b34156102eb57600080fd5b6102f3611290565b604051808215151515815260200191505060405180910390f35b341561031857600080fd5b610320611319565b6040518082815260200191505060405180910390f35b341561034157600080fd5b61034961131f565b005b341561035657600080fd5b61035e6113dd565b6040518082815260200191505060405180910390f35b341561037f57600080fd5b6103876113e3565b005b341561039457600080fd5b61039c6114d5565b604051808215151515815260200191505060405180910390f35b34156103c157600080fd5b6103c96114e8565b604051808273ffffffffffffffffffffffffffffffffffffffff1673ffffffffffffffffffffffffffffffffffffffff16815260200191505060405180910390f35b341561041657600080fd5b61041e61150e565b604051808273ffffffffffffffffffffffffffffffffffffffff1673ffffffffffffffffffffffffffffffffffffffff16815260200191505060405180910390f35b341561046b57600080fd5b610473611534565b6040518082815260200191505060405180910390f35b341561049457600080fd5b61049c61153a565b604051808273ffffffffffffffffffffffffffffffffffffffff1673ffffffffffffffffffffffffffffffffffffffff16815260200191505060405180910390f35b34156104e957600080fd5b6104f1611560565b005b34156104fe57600080fd5b61065e600480803573ffffffffffffffffffffffffffffffffffffffff1690602001909190803573ffffffffffffffffffffffffffffffffffffffff1690602001909190803573ffffffffffffffffffffffffffffffffffffffff1690602001909190803573ffffffffffffffffffffffffffffffffffffffff1690602001909190803573ffffffffffffffffffffffffffffffffffffffff1690602001909190803573ffffffffffffffffffffffffffffffffffffffff1690602001909190803573ffffffffffffffffffffffffffffffffffffffff1690602001909190803573ffffffffffffffffffffffffffffffffffffffff1690602001909190803590602001909190803590602001909190803590602001909190803590602001908201803590602001908080602002602001604051908101604052809392919081815260200183836020028082843782019150505050505091905050611620565b005b341561066b57600080fd5b610673611af4565b604051808215151515815260200191505060405180910390f35b341561069857600080fd5b6106a0611b07565b604051808273ffffffffffffffffffffffffffffffffffffffff1673ffffffffffffffffffffffffffffffffffffffff16815260200191505060405180910390f35b34156106ed57600080fd5b6106f5611b2c565b604051808260ff1660ff16815260200191505060405180910390f35b341561071c57600080fd5b610724611b31565b604051808215151515815260200191505060405180910390f35b341561074957600080fd5b610751611b3f565b604051808273ffffffffffffffffffffffffffffffffffffffff1673ffffffffffffffffffffffffffffffffffffffff16815260200191505060405180910390f35b341561079e57600080fd5b6107a6611b65565b604051808273ffffffffffffffffffffffffffffffffffffffff1673ffffffffffffffffffffffffffffffffffffffff16815260200191505060405180910390f35b34156107f357600080fd5b6107fb611b8b565b6040518082815260200191505060405180910390f35b341561081c57600080fd5b610848600480803573ffffffffffffffffffffffffffffffffffffffff16906020019091905050611b91565b6040518082815260200191505060405180910390f35b341561086957600080fd5b610871611ba9565b604051808215151515815260200191505060405180910390f35b341561089657600080fd5b6108c2600480803573ffffffffffffffffffffffffffffffffffffffff16906020019091905050611bb8565b604051808215151515815260200191505060405180910390f35b34156108e757600080fd5b6108ef611cd0565b604051808273ffffffffffffffffffffffffffffffffffffffff1673ffffffffffffffffffffffffffffffffffffffff16815260200191505060405180910390f35b341561093c57600080fd5b610968600480803573ffffffffffffffffffffffffffffffffffffffff16906020019091905050611cf6565b005b341561097557600080fd5b61097d61220e565b6040518082815260200191505060405180910390f35b341561099e57600080fd5b6109b460048080359060200190919050506122c9565b005b34156109c157600080fd5b6109d760048080359060200190919050506124fb565b60405180848152602001838152602001828152602001935050505060405180910390f35b610a27600480803573ffffffffffffffffffffffffffffffffffffffff16906020019091905050610b35565b005b3415610a3457600080fd5b610a60600480803573ffffffffffffffffffffffffffffffffffffffff16906020019091905050612534565b005b3415610a6d57600080fd5b610a7561260e565b604051808273ffffffffffffffffffffffffffffffffffffffff1673ffffffffffffffffffffffffffffffffffffffff16815260200191505060405180910390f35b3415610ac257600080fd5b610aca612634565b604051808273ffffffffffffffffffffffffffffffffffffffff1673ffffffffffffffffffffffffffffffffffffffff16815260200191505060405180910390f35b3415610b1757600080fd5b610b1f61265a565b6040518082815260200191505060405180910390f35b600080600080600080600060149054906101000a900460ff16151515610b5a57600080fd5b60008773ffffffffffffffffffffffffffffffffffffffff1614151515610b8057600080fd5b600160009054906101000a900473ffffffffffffffffffffffffffffffffffffffff1673ffffffffffffffffffffffffffffffffffffffff1663ad1def42886000604051602001526040518263ffffffff167c0100000000000000000000000000000000000000000000000000000000028152600401808273ffffffffffffffffffffffffffffffffffffffff1673ffffffffffffffffffffffffffffffffffffffff168152602001915050602060405180830381600087803b1515610c4557600080fd5b6102c65a03f11515610c5657600080fd5b505050604051805190501515610c6b57600080fd5b610c73611290565b1515610c7e57600080fd5b610c86612660565b1515610c9157600080fd5b601160149054906101000a900460ff16151515610cad57600080fd5b349550610cbc600b5487612682565b9350600c54841115610cdd57610cd6600c54600b546126a0565b9450610ce1565b8594505b600085111515610cf057600080fd5b848610151515610cff57600080fd5b610d08856111a5565b9250610d1485846126b9565b9150610d2086866126a0565b9050610d2b336126ec565b610d37600b5486612682565b600b81905550610d86600e60008973ffffffffffffffffffffffffffffffffffffffff1673ffffffffffffffffffffffffffffffffffffffff1681526020019081526020016000205486612682565b600e60008973ffffffffffffffffffffffffffffffffffffffff1673ffffffffffffffffffffffffffffffffffffffff16815260200190815260200160002081905550600260009054906101000a900473ffffffffffffffffffffffffffffffffffffffff1673ffffffffffffffffffffffffffffffffffffffff1663827f32c088846000604051602001526040518363ffffffff167c0100000000000000000000000000000000000000000000000000000000028152600401808373ffffffffffffffffffffffffffffffffffffffff1673ffffffffffffffffffffffffffffffffffffffff16815260200182815260200192505050602060405180830381600087803b1515610e9657600080fd5b6102c65a03f11515610ea757600080fd5b50505060405180519050506000811115610efc573373ffffffffffffffffffffffffffffffffffffffff166108fc829081150290604051600060405180830381858888f193505050501515610efb57600080fd5b5b610f0585612861565b8673ffffffffffffffffffffffffffffffffffffffff163373ffffffffffffffffffffffffffffffffffffffff167f33759ee1eaa9f87f4186d31caf548c4494b9cef9fa6a2805ef0efd615fb182ff8785604051808381526020018281526020019250505060405180910390a350505050505050565b6000610f85613348565b6000809054906101000a900473ffffffffffffffffffffffffffffffffffffffff1673ffffffffffffffffffffffffffffffffffffffff163373ffffffffffffffffffffffffffffffffffffffff16141515610fe057600080fd5b600860ff16600a80549050101515610ff757600080fd5b834210801561100557508284105b151561101057600080fd5b6000600a805490501415156110715762093a8061102d84866126a0565b1115151561103a57600080fd5b83600a6001600a805490500381548110151561105257fe5b90600052602060002090600302016001015410151561107057600080fd5b5b83816000018181525050828160200181815250506003600a8054905010156110bb576110ad600f6110a86005600a805490506126b9565b6126a0565b8160400181815250506110c7565b60008160400181815250505b600a80548060010182816110db919061336a565b916000526020600020906003020160008390919091506000820151816000015560208201518160010155604082015181600201555050507f1652a9d372dbc4e65f222c8c7545fd38bc190a6ee6139be8d59ae45e101320a98484836040015160405180848152602001838152602001828152602001935050505060405180910390a1600191505092915050565b601460009054906101000a900460ff1681565b60085481565b60098181548110151561119057fe5b90600052602060002090016000915090505481565b6000806111b061220e565b905082600960008154811015156111c357fe5b9060005260206000209001541115156111e4576111e1816005612682565b90505b82600960018154811015156111f557fe5b90600052602060002090015411151561121657611213816005612682565b90505b826009600281548110151561122757fe5b90600052602060002090015411151561123f57601990505b826009600381548110151561125057fe5b90600052602060002090015411151561126857601e90505b61128861128160085461127c846064612682565b6126b9565b6064612935565b915050919050565b60008060008090505b600a805490508110156113115742600a828154811015156112b657fe5b906000526020600020906003020160000154111580156112f65750600a818154811015156112e057fe5b9060005260206000209060030201600101544211155b156113045760019150611311565b8080600101915050611299565b819250505090565b600c5481565b6000809054906101000a900473ffffffffffffffffffffffffffffffffffffffff1673ffffffffffffffffffffffffffffffffffffffff163373ffffffffffffffffffffffffffffffffffffffff1614151561137a57600080fd5b600060149054906101000a900460ff16151561139557600080fd5b60008060146101000a81548160ff0219169083151502179055507f7805862f689e2f13df9f062ff482ad3ad112aca9e0847911ed832e158c525b3360405160405180910390a1565b600b5481565b6000809054906101000a900473ffffffffffffffffffffffffffffffffffffffff1673ffffffffffffffffffffffffffffffffffffffff163373ffffffffffffffffffffffffffffffffffffffff1614151561143e57600080fd5b601160149054906101000a900460ff1615151561145a57600080fd5b611462611290565b15806114725750611471611b31565b5b151561147d57600080fd5b4260138190555061148c612950565b7f6823b073d48d6e3a7d385eeb601452d680e74bb46afe3255a7d778f3a9b1768160405160405180910390a16001601160146101000a81548160ff021916908315150217905550565b600060149054906101000a900460ff1681565b600660009054906101000a900473ffffffffffffffffffffffffffffffffffffffff1681565b600560009054906101000a900473ffffffffffffffffffffffffffffffffffffffff1681565b600d5481565b600760009054906101000a900473ffffffffffffffffffffffffffffffffffffffff1681565b6000809054906101000a900473ffffffffffffffffffffffffffffffffffffffff1673ffffffffffffffffffffffffffffffffffffffff163373ffffffffffffffffffffffffffffffffffffffff161415156115bb57600080fd5b600060149054906101000a900460ff161515156115d757600080fd5b6001600060146101000a81548160ff0219169083151502179055507f6985a02210a168e66602d3235cb6db0e70f92b3ba4d376a33c0f3d9434bff62560405160405180910390a1565b60008060009054906101000a900473ffffffffffffffffffffffffffffffffffffffff1673ffffffffffffffffffffffffffffffffffffffff163373ffffffffffffffffffffffffffffffffffffffff1614151561167d57600080fd5b601460009054906101000a900460ff1615151561169957600080fd5b60008d73ffffffffffffffffffffffffffffffffffffffff16141580156116d7575060008c73ffffffffffffffffffffffffffffffffffffffff1614155b80156116fa575060008b73ffffffffffffffffffffffffffffffffffffffff1614155b151561170557600080fd5b60008a73ffffffffffffffffffffffffffffffffffffffff1614158015611743575060008973ffffffffffffffffffffffffffffffffffffffff1614155b151561174e57600080fd5b60008873ffffffffffffffffffffffffffffffffffffffff161415801561178c575060008773ffffffffffffffffffffffffffffffffffffffff1614155b151561179757600080fd5b60008673ffffffffffffffffffffffffffffffffffffffff16141515156117bd57600080fd5b8360001080156117cc57508484105b15156117d757600080fd5b6000831115156117e657600080fd5b60008260008151811015156117f757fe5b9060200190602002015111151561180d57600080fd5b600090505b600182510381101561186a57816001820181518110151561182f57fe5b90602001906020020151828281518110151561184757fe5b9060200190602002015110151561185d57600080fd5b8080600101915050611812565b8c600160006101000a81548173ffffffffffffffffffffffffffffffffffffffff021916908373ffffffffffffffffffffffffffffffffffffffff1602179055508b600260006101000a81548173ffffffffffffffffffffffffffffffffffffffff021916908373ffffffffffffffffffffffffffffffffffffffff1602179055508a600360006101000a81548173ffffffffffffffffffffffffffffffffffffffff021916908373ffffffffffffffffffffffffffffffffffffffff16021790555089600460006101000a81548173ffffffffffffffffffffffffffffffffffffffff021916908373ffffffffffffffffffffffffffffffffffffffff16021790555088600560006101000a81548173ffffffffffffffffffffffffffffffffffffffff021916908373ffffffffffffffffffffffffffffffffffffffff16021790555087600660006101000a81548173ffffffffffffffffffffffffffffffffffffffff021916908373ffffffffffffffffffffffffffffffffffffffff16021790555086600760006101000a81548173ffffffffffffffffffffffffffffffffffffffff021916908373ffffffffffffffffffffffffffffffffffffffff16021790555085601160006101000a81548173ffffffffffffffffffffffffffffffffffffffff021916908373ffffffffffffffffffffffffffffffffffffffff16021790555084600c8190555083600d81905550826008819055508160099080519060200190611a9d92919061339c565b506001601460006101000a81548160ff0219169083151502179055507f80f860092ed8101278311dd6b10dda4920a40ea5dfcbacfe724e2accfaf63efc60405160405180910390a150505050505050505050505050565b601160149054906101000a900460ff1681565b6000809054906101000a900473ffffffffffffffffffffffffffffffffffffffff1681565b600881565b6000600c54600b5414905090565b600160009054906101000a900473ffffffffffffffffffffffffffffffffffffffff1681565b601160009054906101000a900473ffffffffffffffffffffffffffffffffffffffff1681565b60125481565b600e6020528060005260406000206000915090505481565b6000600d54600b541015905090565b6000601160149054906101000a900460ff161515611bd557600080fd5b611bdd611ba9565b151515611be957600080fd5b600360009054906101000a900473ffffffffffffffffffffffffffffffffffffffff1673ffffffffffffffffffffffffffffffffffffffff1663fa89401a836000604051602001526040518263ffffffff167c0100000000000000000000000000000000000000000000000000000000028152600401808273ffffffffffffffffffffffffffffffffffffffff1673ffffffffffffffffffffffffffffffffffffffff168152602001915050602060405180830381600087803b1515611cae57600080fd5b6102c65a03f11515611cbf57600080fd5b505050604051805190509050919050565b600460009054906101000a900473ffffffffffffffffffffffffffffffffffffffff1681565b6000806000809054906101000a900473ffffffffffffffffffffffffffffffffffffffff1673ffffffffffffffffffffffffffffffffffffffff163373ffffffffffffffffffffffffffffffffffffffff16141515611d5457600080fd5b3073ffffffffffffffffffffffffffffffffffffffff16600260009054906101000a900473ffffffffffffffffffffffffffffffffffffffff1673ffffffffffffffffffffffffffffffffffffffff1663f77c47916000604051602001526040518163ffffffff167c0100000000000000000000000000000000000000000000000000000000028152600401602060405180830381600087803b1515611df957600080fd5b6102c65a03f11515611e0a57600080fd5b5050506040518051905073ffffffffffffffffffffffffffffffffffffffff161415611f0157600260009054906101000a900473ffffffffffffffffffffffffffffffffffffffff1673ffffffffffffffffffffffffffffffffffffffff1663df8de3e7846040518263ffffffff167c0100000000000000000000000000000000000000000000000000000000028152600401808273ffffffffffffffffffffffffffffffffffffffff1673ffffffffffffffffffffffffffffffffffffffff168152602001915050600060405180830381600087803b1515611eec57600080fd5b6102c65a03f11515611efd57600080fd5b5050505b60008373ffffffffffffffffffffffffffffffffffffffff161415611f9d576000809054906101000a900473ffffffffffffffffffffffffffffffffffffffff1673ffffffffffffffffffffffffffffffffffffffff166108fc3073ffffffffffffffffffffffffffffffffffffffff16319081150290604051600060405180830381858888f193505050501515611f9857600080fd5b612209565b8291508173ffffffffffffffffffffffffffffffffffffffff166370a08231306000604051602001526040518263ffffffff167c0100000000000000000000000000000000000000000000000000000000028152600401808273ffffffffffffffffffffffffffffffffffffffff1673ffffffffffffffffffffffffffffffffffffffff168152602001915050602060405180830381600087803b151561204357600080fd5b6102c65a03f1151561205457600080fd5b5050506040518051905090508173ffffffffffffffffffffffffffffffffffffffff1663a9059cbb6000809054906101000a900473ffffffffffffffffffffffffffffffffffffffff16836000604051602001526040518363ffffffff167c0100000000000000000000000000000000000000000000000000000000028152600401808373ffffffffffffffffffffffffffffffffffffffff1673ffffffffffffffffffffffffffffffffffffffff16815260200182815260200192505050602060405180830381600087803b151561212c57600080fd5b6102c65a03f1151561213d57600080fd5b50505060405180519050507ff931edb47c50b4b4104c187b5814a9aef5f709e17e2ecf9617e860cacade929c836000809054906101000a900473ffffffffffffffffffffffffffffffffffffffff1683604051808473ffffffffffffffffffffffffffffffffffffffff1673ffffffffffffffffffffffffffffffffffffffff1681526020018373ffffffffffffffffffffffffffffffffffffffff1673ffffffffffffffffffffffffffffffffffffffff168152602001828152602001935050505060405180910390a15b505050565b600080600080600090505b600a805490508110156122945742600a8281548110151561223657fe5b906000526020600020906003020160000154111580156122765750600a8181548110151561226057fe5b9060005260206000209060030201600101544211155b156122875760019250809150612294565b8080600101915050612219565b8215156122a057600080fd5b600a828154811015156122af57fe5b906000526020600020906003020160020154935050505090565b6000806000809054906101000a900473ffffffffffffffffffffffffffffffffffffffff1673ffffffffffffffffffffffffffffffffffffffff163373ffffffffffffffffffffffffffffffffffffffff1614151561232757600080fd5b601160149054906101000a900460ff16151561234257600080fd5b61234a611ba9565b15151561235657600080fd5b60008311151561236557600080fd5b82601254019150600f8054905082111561238257600f8054905091505b60125490505b818110156124b857600360009054906101000a900473ffffffffffffffffffffffffffffffffffffffff1673ffffffffffffffffffffffffffffffffffffffff1663fa89401a600f838154811015156123dd57fe5b906000526020600020900160009054906101000a900473ffffffffffffffffffffffffffffffffffffffff166000604051602001526040518263ffffffff167c0100000000000000000000000000000000000000000000000000000000028152600401808273ffffffffffffffffffffffffffffffffffffffff1673ffffffffffffffffffffffffffffffffffffffff168152602001915050602060405180830381600087803b151561248f57600080fd5b6102c65a03f115156124a057600080fd5b50505060405180519050508080600101915050612388565b816012819055507fa70a53972d6afb0fc38bd683cd5955faa5fa55e6629744a51e7a2aaa0ecc4e04836040518082815260200191505060405180910390a1505050565b600a8181548110151561250a57fe5b90600052602060002090600302016000915090508060000154908060010154908060020154905083565b6000809054906101000a900473ffffffffffffffffffffffffffffffffffffffff1673ffffffffffffffffffffffffffffffffffffffff163373ffffffffffffffffffffffffffffffffffffffff1614151561258f57600080fd5b600073ffffffffffffffffffffffffffffffffffffffff168173ffffffffffffffffffffffffffffffffffffffff16141515156125cb57600080fd5b806000806101000a81548173ffffffffffffffffffffffffffffffffffffffff021916908373ffffffffffffffffffffffffffffffffffffffff16021790555050565b600360009054906101000a900473ffffffffffffffffffffffffffffffffffffffff1681565b600260009054906101000a900473ffffffffffffffffffffffffffffffffffffffff1681565b60135481565b6000806000341415905080801561267c575061267a611b31565b155b91505090565b600080828401905083811015151561269657fe5b8091505092915050565b60008282111515156126ae57fe5b818303905092915050565b600080828402905060008414806126da57508284828115156126d757fe5b04145b15156126e257fe5b8091505092915050565b601060008273ffffffffffffffffffffffffffffffffffffffff1673ffffffffffffffffffffffffffffffffffffffff16815260200190815260200160002060009054906101000a900460ff16151561285e576001601060008373ffffffffffffffffffffffffffffffffffffffff1673ffffffffffffffffffffffffffffffffffffffff16815260200190815260200160002060006101000a81548160ff021916908315150217905550600f80548060010182816127ab91906133e9565b9160005260206000209001600083909190916101000a81548173ffffffffffffffffffffffffffffffffffffffff021916908373ffffffffffffffffffffffffffffffffffffffff160217905550507f1095f211ec26cf9891a79b12717df016e5e06954063d8534ac589273c0ed2eb281604051808273ffffffffffffffffffffffffffffffffffffffff1673ffffffffffffffffffffffffffffffffffffffff16815260200191505060405180910390a15b50565b600360009054906101000a900473ffffffffffffffffffffffffffffffffffffffff1673ffffffffffffffffffffffffffffffffffffffff1663f340fa0182336040518363ffffffff167c0100000000000000000000000000000000000000000000000000000000028152600401808273ffffffffffffffffffffffffffffffffffffffff1673ffffffffffffffffffffffffffffffffffffffff1681526020019150506000604051808303818588803b151561291d57600080fd5b6125ee5a03f1151561292e57600080fd5b5050505050565b600080828481151561294357fe5b0490508091505092915050565b6000806000806000612960611ba9565b15612bbf57600360009054906101000a900473ffffffffffffffffffffffffffffffffffffffff1673ffffffffffffffffffffffffffffffffffffffff166343d726d66040518163ffffffff167c0100000000000000000000000000000000000000000000000000000000028152600401600060405180830381600087803b15156129ea57600080fd5b6102c65a03f115156129fb57600080fd5b505050600260009054906101000a900473ffffffffffffffffffffffffffffffffffffffff1673ffffffffffffffffffffffffffffffffffffffff166318160ddd6000604051602001526040518163ffffffff167c0100000000000000000000000000000000000000000000000000000000028152600401602060405180830381600087803b1515612a8c57600080fd5b6102c65a03f11515612a9d57600080fd5b505050604051805190509450612abe612ab78660056126b9565b6032612935565b9350612ad5612ace86600f6126b9565b6032612935565b9250612aec612ae586600f6126b9565b6032612935565b9150612b03612afc86600f6126b9565b6032612935565b9050612b1184848484612dfc565b600260009054906101000a900473ffffffffffffffffffffffffffffffffffffffff1673ffffffffffffffffffffffffffffffffffffffff1663f41e60c560016040518263ffffffff167c01000000000000000000000000000000000000000000000000000000000281526004018082151515158152602001915050600060405180830381600087803b1515612ba657600080fd5b6102c65a03f11515612bb757600080fd5b505050612c59565b600360009054906101000a900473ffffffffffffffffffffffffffffffffffffffff1673ffffffffffffffffffffffffffffffffffffffff16638c52dc416040518163ffffffff167c0100000000000000000000000000000000000000000000000000000000028152600401600060405180830381600087803b1515612c4457600080fd5b6102c65a03f11515612c5557600080fd5b5050505b600260009054906101000a900473ffffffffffffffffffffffffffffffffffffffff1673ffffffffffffffffffffffffffffffffffffffff1663a4d67d636000604051602001526040518163ffffffff167c0100000000000000000000000000000000000000000000000000000000028152600401602060405180830381600087803b1515612ce757600080fd5b6102c65a03f11515612cf857600080fd5b5050506040518051905050600260009054906101000a900473ffffffffffffffffffffffffffffffffffffffff1673ffffffffffffffffffffffffffffffffffffffff16633cebb823601160009054906101000a900473ffffffffffffffffffffffffffffffffffffffff166040518263ffffffff167c0100000000000000000000000000000000000000000000000000000000028152600401808273ffffffffffffffffffffffffffffffffffffffff1673ffffffffffffffffffffffffffffffffffffffff168152602001915050600060405180830381600087803b1515612de157600080fd5b6102c65a03f11515612df257600080fd5b5050505050505050565b6000600460009054906101000a900473ffffffffffffffffffffffffffffffffffffffff1673ffffffffffffffffffffffffffffffffffffffff1614158015612e7e57506000600560009054906101000a900473ffffffffffffffffffffffffffffffffffffffff1673ffffffffffffffffffffffffffffffffffffffff1614155b1515612e8957600080fd5b6000600660009054906101000a900473ffffffffffffffffffffffffffffffffffffffff1673ffffffffffffffffffffffffffffffffffffffff1614158015612f0b57506000600760009054906101000a900473ffffffffffffffffffffffffffffffffffffffff1673ffffffffffffffffffffffffffffffffffffffff1614155b1515612f1657600080fd5b600260009054906101000a900473ffffffffffffffffffffffffffffffffffffffff1673ffffffffffffffffffffffffffffffffffffffff1663827f32c0600460009054906101000a900473ffffffffffffffffffffffffffffffffffffffff16866000604051602001526040518363ffffffff167c0100000000000000000000000000000000000000000000000000000000028152600401808373ffffffffffffffffffffffffffffffffffffffff1673ffffffffffffffffffffffffffffffffffffffff16815260200182815260200192505050602060405180830381600087803b151561300557600080fd5b6102c65a03f1151561301657600080fd5b5050506040518051905050600260009054906101000a900473ffffffffffffffffffffffffffffffffffffffff1673ffffffffffffffffffffffffffffffffffffffff1663827f32c0600560009054906101000a900473ffffffffffffffffffffffffffffffffffffffff16856000604051602001526040518363ffffffff167c0100000000000000000000000000000000000000000000000000000000028152600401808373ffffffffffffffffffffffffffffffffffffffff1673ffffffffffffffffffffffffffffffffffffffff16815260200182815260200192505050602060405180830381600087803b151561311057600080fd5b6102c65a03f1151561312157600080fd5b5050506040518051905050600260009054906101000a900473ffffffffffffffffffffffffffffffffffffffff1673ffffffffffffffffffffffffffffffffffffffff1663827f32c0600660009054906101000a900473ffffffffffffffffffffffffffffffffffffffff16846000604051602001526040518363ffffffff167c0100000000000000000000000000000000000000000000000000000000028152600401808373ffffffffffffffffffffffffffffffffffffffff1673ffffffffffffffffffffffffffffffffffffffff16815260200182815260200192505050602060405180830381600087803b151561321b57600080fd5b6102c65a03f1151561322c57600080fd5b5050506040518051905050600260009054906101000a900473ffffffffffffffffffffffffffffffffffffffff1673ffffffffffffffffffffffffffffffffffffffff1663827f32c0600760009054906101000a900473ffffffffffffffffffffffffffffffffffffffff16836000604051602001526040518363ffffffff167c0100000000000000000000000000000000000000000000000000000000028152600401808373ffffffffffffffffffffffffffffffffffffffff1673ffffffffffffffffffffffffffffffffffffffff16815260200182815260200192505050602060405180830381600087803b151561332657600080fd5b6102c65a03f1151561333757600080fd5b505050604051805190505050505050565b6060604051908101604052806000815260200160008152602001600081525090565b815481835581811511613397576003028160030283600052602060002091820191016133969190613415565b5b505050565b8280548282559060005260206000209081019282156133d8579160200282015b828111156133d75782518255916020019190600101906133bc565b5b5090506133e5919061344c565b5090565b8154818355818115116134105781836000526020600020918201910161340f919061344c565b5b505050565b61344991905b8082111561344557600080820160009055600182016000905560028201600090555060030161341b565b5090565b90565b61346e91905b8082111561346a576000816000905550600101613452565b5090565b905600a165627a7a72305820d694dd0054417864b85e200273b2eb24c726a2596b9d1920d40ec3b8bb74a1140029",
  "source": "pragma solidity ^0.4.18;\n\nimport './kyc/KYC.sol';\nimport './ATC.sol';\nimport './vault/RefundVault.sol';\nimport './ownership/Ownable.sol';\nimport './math/SafeMath.sol';\nimport './lifecycle/Pausable.sol';\nimport './token/ERC20Basic.sol';\nimport './ReserveLocker.sol';\nimport './TeamLocker.sol';\n\ncontract ATCCrowdSale2 is Ownable, SafeMath, Pausable {\n  KYC public kyc;\n  ATC public token;\n  RefundVault public vault;\n\n  address public bountyAddress; //5% for bounty\n  address public partnersAddress; //15% for community groups & partners\n  address public ATCReserveLocker; //15% with 2 years lock\n  address public teamLocker; // 15% with 2 years vesting\n\n\n  struct Period {\n    uint256 startTime;\n    uint256 endTime;\n    uint256 bonus; // used to calculate rate with bonus. ragne 0 ~ 15 (0% ~ 15%)\n  }\n\n  uint256 public baseRate; // 1 ETH = 1500 ATC\n  uint256[] public additionalBonusAmounts;\n\n  Period[] public periods;\n  uint8 constant public MAX_PERIOD_COUNT = 8;\n\n  uint256 public weiRaised;\n  uint256 public maxEtherCap;\n  uint256 public minEtherCap;\n\n  mapping (address => uint256) public beneficiaryFunded;\n\n  address[] investorList;\n  mapping (address => bool) inInvestorList;\n\n  address public ATCController;\n\n  bool public isFinalized;\n  uint256 public refundCompleted;\n\n  uint256 public finalizedTime;\n  bool public initialized;\n\n\n  event CrowdSaleTokenPurchase(address indexed _investor, address indexed _beneficiary, uint256 _toFund, uint256 _tokens);\n  event StartPeriod(uint256 _startTime, uint256 _endTime, uint256 _bonus);\n  event Finalized();\n  event PushInvestorList(address _investor);\n  event RefundAll(uint256 _numToRefund);\n  event ClaimedTokens(address _claimToken, address owner, uint256 balance);\n  event Initialize();\n\n  function initialize (\n    address _kyc,\n    address _token,\n    address _vault,\n    address _bountyAddress,\n    address _partnersAddress,\n    address _ATCReserveLocker,\n    address _teamLocker,\n    address _tokenController,\n    uint256 _maxEtherCap,\n    uint256 _minEtherCap,\n    uint256 _baseRate,\n    uint256[] _additionalBonusAmounts\n    ) onlyOwner {\n      require(!initialized);\n\n      require(_kyc != 0x00 && _token != 0x00 && _vault != 0x00);\n      require(_bountyAddress != 0x00 && _partnersAddress != 0x00);\n      require(_ATCReserveLocker != 0x00 && _teamLocker != 0x00);\n      require(_tokenController != 0x00);\n      require(0 < _minEtherCap && _minEtherCap < _maxEtherCap);\n      require(_baseRate > 0);\n      require(_additionalBonusAmounts[0] > 0);\n\n      for (uint i = 0; i < _additionalBonusAmounts.length - 1; i++) {\n        require(_additionalBonusAmounts[i] < _additionalBonusAmounts[i + 1]);\n      }\n\n      kyc = KYC(_kyc);\n      token = ATC(_token);\n      vault = RefundVault(_vault);\n\n      bountyAddress = _bountyAddress;\n      partnersAddress = _partnersAddress;\n\n      ATCReserveLocker = _ATCReserveLocker;\n      teamLocker = _teamLocker;\n\n      ATCController = _tokenController;\n\n      maxEtherCap = _maxEtherCap;\n      minEtherCap = _minEtherCap;\n\n      baseRate = _baseRate;\n      additionalBonusAmounts = _additionalBonusAmounts;\n\n      initialized = true;\n      Initialize();\n    }\n\n  function () public payable {\n    buy(msg.sender);\n  }\n\n  function buy(address beneficiary)\n    public\n    payable\n    whenNotPaused\n  {\n      // check validity\n      require(beneficiary != 0x00);\n      require(kyc.registeredAddress(beneficiary));\n      require(onSale());\n      require(validPurchase());\n      require(!isFinalized);\n\n      // calculate eth amount\n      uint256 weiAmount = msg.value;\n      uint256 toFund;\n\n      uint256 postWeiRaised = add(weiRaised, weiAmount);\n\n      if (postWeiRaised > maxEtherCap) {\n        toFund = sub(maxEtherCap, weiRaised);\n      } else {\n        toFund = weiAmount;\n      }\n\n      require(toFund > 0);\n      require(weiAmount >= toFund);\n\n      uint256 rate = calculateRate(toFund);\n      uint256 tokens = mul(toFund, rate);\n      uint256 toReturn = sub(weiAmount, toFund);\n\n      pushInvestorList(msg.sender);\n\n      weiRaised = add(weiRaised, toFund);\n      beneficiaryFunded[beneficiary] = add(beneficiaryFunded[beneficiary], toFund);\n\n      token.generateTokens(beneficiary, tokens);\n\n      if (toReturn > 0) {\n        msg.sender.transfer(toReturn);\n      }\n\n      forwardFunds(toFund);\n      CrowdSaleTokenPurchase(msg.sender, beneficiary, toFund, tokens);\n  }\n\n  function pushInvestorList(address investor) internal {\n    if (!inInvestorList[investor]) {\n      inInvestorList[investor] = true;\n      investorList.push(investor);\n\n      PushInvestorList(investor);\n    }\n  }\n\n  function validPurchase() internal view returns (bool) {\n    bool nonZeroPurchase = msg.value != 0;\n    return nonZeroPurchase && !maxReached();\n  }\n\n  function forwardFunds(uint256 toFund) internal {\n    vault.deposit.value(toFund)(msg.sender);\n  }\n\n  /**\n   * @dev Checks whether minEtherCap is reached\n   * @return true if min ether cap is reaced\n   */\n  function minReached() public view returns (bool) {\n    return weiRaised >= minEtherCap;\n  }\n  /**\n   * @dev Checks whether maxEtherCap is reached\n   * @return true if max ether cap is reaced\n   */\n  function maxReached() public view returns (bool) {\n    return weiRaised == maxEtherCap;\n  }\n\n  function getPeriodBonus() public view returns (uint256) {\n    bool nowOnSale;\n    uint256 currentPeriod;\n\n    for (uint i = 0; i < periods.length; i++) {\n      if (periods[i].startTime <= now && now <= periods[i].endTime) {\n        nowOnSale = true;\n        currentPeriod = i;\n        break;\n      }\n    }\n\n    require(nowOnSale);\n    return periods[currentPeriod].bonus;\n  }\n\n  /**\n   * @dev rate = baseRate * (100 + bonus) / 100\n   */\n  function calculateRate(uint256 toFund) public view returns (uint256)  {\n    uint bonus = getPeriodBonus();\n\n    // bonus for eth amount\n    if (additionalBonusAmounts[0] <= toFund) {\n      bonus = add(bonus, 5); // 5% amount bonus for more than 300 ETH\n    }\n\n    if (additionalBonusAmounts[1] <= toFund) {\n      bonus = add(bonus, 5); // 10% amount bonus for more than 6000 ETH\n    }\n\n    if (additionalBonusAmounts[2] <= toFund) {\n      bonus = 25; // final 25% amount bonus for more than 8000 ETH\n    }\n\n    if (additionalBonusAmounts[3] <= toFund) {\n      bonus = 30; // final 30% amount bonus for more than 10000 ETH\n    }\n\n    return div(mul(baseRate, add(bonus, 100)), 100);\n  }\n\n  function startPeriod(uint256 _startTime, uint256 _endTime) public onlyOwner returns (bool) {\n    require(periods.length < MAX_PERIOD_COUNT);\n    require(now < _startTime && _startTime < _endTime);\n\n\n    if (periods.length != 0) {\n      require(sub(_endTime, _startTime) <= 7 days);\n      require(periods[periods.length - 1].endTime < _startTime);\n    }\n\n    // 15% -> 10% -> 5% -> 0%\n    Period memory newPeriod;\n    newPeriod.startTime = _startTime;\n    newPeriod.endTime = _endTime;\n\n    if(periods.length < 3) {\n      newPeriod.bonus = sub(15, mul(5, periods.length));\n    } else {\n      newPeriod.bonus = 0;\n    }\n\n    periods.push(newPeriod);\n    StartPeriod(_startTime, _endTime, newPeriod.bonus);\n\n    return true;\n  }\n\n  function onSale() public returns (bool) {\n    bool nowOnSale;\n\n    for (uint i = 0; i < periods.length; i++) {\n      if (periods[i].startTime <= now && now <= periods[i].endTime) {\n        nowOnSale = true;\n        break;\n      }\n    }\n\n    return nowOnSale;\n  }\n  /**\n   * @dev should be called after crowdsale ends, to do\n   */\n  function finalize() onlyOwner {\n    require(!isFinalized);\n    require(!onSale() || maxReached());\n\n    finalizedTime = now;\n\n    finalization();\n    Finalized();\n\n    isFinalized = true;\n  }\n\n  /**\n   * @dev end token minting on finalization, mint tokens for dev team and reserve wallets\n   */\n  function finalization() internal {\n    if (minReached()) {\n      vault.close();\n\n      uint256 totalToken = token.totalSupply();\n\n      // token distribution : 50% for sale, 5% for bounty, 15% for partners, 15% for reserve, 15% for team\n      uint256 bountyAmount = div(mul(totalToken, 5), 50);\n      uint256 partnersAmount = div(mul(totalToken, 15), 50);\n      uint256 reserveAmount = div(mul(totalToken, 15), 50);\n      uint256 teamAmount = div(mul(totalToken, 15), 50);\n\n      distributeToken(bountyAmount, partnersAmount, reserveAmount, teamAmount);\n\n      token.enableTransfers(true);\n\n    } else {\n      vault.enableRefunds();\n    }\n    token.finishGenerating();\n    token.changeController(ATCController);\n  }\n\n  function distributeToken(uint256 bountyAmount, uint256 partnersAmount, uint256 reserveAmount, uint256 teamAmount) internal {\n    require(bountyAddress != 0x00 && partnersAddress != 0x00);\n    require(ATCReserveLocker != 0x00 && teamLocker != 0x00);\n\n    token.generateTokens(bountyAddress, bountyAmount);\n    token.generateTokens(partnersAddress, partnersAmount);\n    token.generateTokens(ATCReserveLocker, reserveAmount);\n    token.generateTokens(teamLocker, teamAmount);\n  }\n\n  /**\n   * @dev refund a lot of investors at a time checking onlyOwner\n   * @param numToRefund uint256 The number of investors to refund\n   */\n  function refundAll(uint256 numToRefund) onlyOwner {\n    require(isFinalized);\n    require(!minReached());\n    require(numToRefund > 0);\n\n    uint256 limit = refundCompleted + numToRefund;\n\n    if (limit > investorList.length) {\n      limit = investorList.length;\n    }\n\n    for(uint256 i = refundCompleted; i < limit; i++) {\n      vault.refund(investorList[i]);\n    }\n\n    refundCompleted = limit;\n    RefundAll(numToRefund);\n  }\n\n  /**\n   * @dev if crowdsale is unsuccessful, investors can claim refunds here\n   * @param investor address The account to be refunded\n   */\n  function claimRefund(address investor) returns (bool) {\n    require(isFinalized);\n    require(!minReached());\n\n    return vault.refund(investor);\n  }\n\n  function claimTokens(address _claimToken) public onlyOwner {\n\n    if (token.controller() == address(this)) {\n         token.claimTokens(_claimToken);\n    }\n\n    if (_claimToken == 0x0) {\n        owner.transfer(this.balance);\n        return;\n    }\n\n    ERC20Basic claimToken = ERC20Basic(_claimToken);\n    uint256 balance = claimToken.balanceOf(this);\n    claimToken.transfer(owner, balance);\n\n    ClaimedTokens(_claimToken, owner, balance);\n  }\n}\n",
  "sourcePath": "/Users/midinpa/workspace/dapps/aston-crowdsale/contracts/ATCCrowdSale2.sol",
  "compiler": {
    "name": "solc",
    "version": "0.4.18+commit.9cf6e910.Emscripten.clang"
  },
  "schemaVersion": "1.0.1",
  "updatedAt": "2017-12-08T05:12:32.739Z"
}