{
  "contractName": "ATCCrowdSale",
  "abi": [
    {
      "constant": true,
      "inputs": [],
      "name": "currentPeriod",
      "outputs": [
        {
          "name": "",
          "type": "uint256"
        }
      ],
      "payable": false,
      "stateMutability": "view",
      "type": "function"
    },
    {
      "constant": true,
      "inputs": [],
      "name": "teamAddress",
      "outputs": [
        {
          "name": "",
          "type": "address"
        }
      ],
      "payable": false,
      "stateMutability": "view",
      "type": "function"
    },
    {
      "constant": true,
      "inputs": [],
      "name": "maxEtherCap",
      "outputs": [
        {
          "name": "",
          "type": "uint256"
        }
      ],
      "payable": false,
      "stateMutability": "view",
      "type": "function"
    },
    {
      "constant": false,
      "inputs": [],
      "name": "unpause",
      "outputs": [],
      "payable": false,
      "stateMutability": "nonpayable",
      "type": "function"
    },
    {
      "constant": true,
      "inputs": [],
      "name": "weiRaised",
      "outputs": [
        {
          "name": "",
          "type": "uint256"
        }
      ],
      "payable": false,
      "stateMutability": "view",
      "type": "function"
    },
    {
      "constant": false,
      "inputs": [],
      "name": "finalize",
      "outputs": [],
      "payable": false,
      "stateMutability": "nonpayable",
      "type": "function"
    },
    {
      "constant": true,
      "inputs": [],
      "name": "maxGuaranteedLimit",
      "outputs": [
        {
          "name": "",
          "type": "uint256"
        }
      ],
      "payable": false,
      "stateMutability": "view",
      "type": "function"
    },
    {
      "constant": true,
      "inputs": [
        {
          "name": "",
          "type": "uint256"
        }
      ],
      "name": "bountyAndCommunityAddresses",
      "outputs": [
        {
          "name": "",
          "type": "address"
        }
      ],
      "payable": false,
      "stateMutability": "view",
      "type": "function"
    },
    {
      "constant": true,
      "inputs": [],
      "name": "presaleFallBackCalled",
      "outputs": [
        {
          "name": "",
          "type": "bool"
        }
      ],
      "payable": false,
      "stateMutability": "view",
      "type": "function"
    },
    {
      "constant": true,
      "inputs": [
        {
          "name": "period",
          "type": "uint256"
        }
      ],
      "name": "periodFinished",
      "outputs": [
        {
          "name": "",
          "type": "bool"
        }
      ],
      "payable": false,
      "stateMutability": "view",
      "type": "function"
    },
    {
      "constant": true,
      "inputs": [],
      "name": "paused",
      "outputs": [
        {
          "name": "",
          "type": "bool"
        }
      ],
      "payable": false,
      "stateMutability": "view",
      "type": "function"
    },
    {
      "constant": true,
      "inputs": [],
      "name": "getRate",
      "outputs": [
        {
          "name": "",
          "type": "uint8"
        }
      ],
      "payable": false,
      "stateMutability": "view",
      "type": "function"
    },
    {
      "constant": true,
      "inputs": [],
      "name": "minEtherCap",
      "outputs": [
        {
          "name": "",
          "type": "uint256"
        }
      ],
      "payable": false,
      "stateMutability": "view",
      "type": "function"
    },
    {
      "constant": false,
      "inputs": [],
      "name": "pause",
      "outputs": [],
      "payable": false,
      "stateMutability": "nonpayable",
      "type": "function"
    },
    {
      "constant": true,
      "inputs": [],
      "name": "isFinalized",
      "outputs": [
        {
          "name": "",
          "type": "bool"
        }
      ],
      "payable": false,
      "stateMutability": "view",
      "type": "function"
    },
    {
      "constant": true,
      "inputs": [],
      "name": "owner",
      "outputs": [
        {
          "name": "",
          "type": "address"
        }
      ],
      "payable": false,
      "stateMutability": "view",
      "type": "function"
    },
    {
      "constant": true,
      "inputs": [],
      "name": "MAX_PERIOD_COUNT",
      "outputs": [
        {
          "name": "",
          "type": "uint8"
        }
      ],
      "payable": false,
      "stateMutability": "view",
      "type": "function"
    },
    {
      "constant": true,
      "inputs": [],
      "name": "maxReached",
      "outputs": [
        {
          "name": "",
          "type": "bool"
        }
      ],
      "payable": false,
      "stateMutability": "view",
      "type": "function"
    },
    {
      "constant": true,
      "inputs": [],
      "name": "kyc",
      "outputs": [
        {
          "name": "",
          "type": "address"
        }
      ],
      "payable": false,
      "stateMutability": "view",
      "type": "function"
    },
    {
      "constant": true,
      "inputs": [],
      "name": "ATCController",
      "outputs": [
        {
          "name": "",
          "type": "address"
        }
      ],
      "payable": false,
      "stateMutability": "view",
      "type": "function"
    },
    {
      "constant": true,
      "inputs": [],
      "name": "refundCompleted",
      "outputs": [
        {
          "name": "",
          "type": "uint256"
        }
      ],
      "payable": false,
      "stateMutability": "view",
      "type": "function"
    },
    {
      "constant": true,
      "inputs": [
        {
          "name": "",
          "type": "address"
        }
      ],
      "name": "beneficiaryFunded",
      "outputs": [
        {
          "name": "",
          "type": "uint256"
        }
      ],
      "payable": false,
      "stateMutability": "view",
      "type": "function"
    },
    {
      "constant": false,
      "inputs": [
        {
          "name": "_presaleWeiRaised",
          "type": "uint256"
        }
      ],
      "name": "presaleFallBack",
      "outputs": [],
      "payable": false,
      "stateMutability": "nonpayable",
      "type": "function"
    },
    {
      "constant": true,
      "inputs": [],
      "name": "minReached",
      "outputs": [
        {
          "name": "",
          "type": "bool"
        }
      ],
      "payable": false,
      "stateMutability": "view",
      "type": "function"
    },
    {
      "constant": false,
      "inputs": [
        {
          "name": "_startTime",
          "type": "uint64"
        },
        {
          "name": "_endTime",
          "type": "uint64"
        },
        {
          "name": "_rate",
          "type": "uint8"
        }
      ],
      "name": "startPeriod",
      "outputs": [
        {
          "name": "",
          "type": "bool"
        }
      ],
      "payable": false,
      "stateMutability": "nonpayable",
      "type": "function"
    },
    {
      "constant": false,
      "inputs": [
        {
          "name": "investor",
          "type": "address"
        }
      ],
      "name": "claimRefund",
      "outputs": [
        {
          "name": "",
          "type": "bool"
        }
      ],
      "payable": false,
      "stateMutability": "nonpayable",
      "type": "function"
    },
    {
      "constant": false,
      "inputs": [
        {
          "name": "numToRefund",
          "type": "uint256"
        }
      ],
      "name": "refundAll",
      "outputs": [],
      "payable": false,
      "stateMutability": "nonpayable",
      "type": "function"
    },
    {
      "constant": true,
      "inputs": [
        {
          "name": "",
          "type": "uint256"
        }
      ],
      "name": "periods",
      "outputs": [
        {
          "name": "startTime",
          "type": "uint64"
        },
        {
          "name": "endTime",
          "type": "uint64"
        },
        {
          "name": "rate",
          "type": "uint8"
        }
      ],
      "payable": false,
      "stateMutability": "view",
      "type": "function"
    },
    {
      "constant": true,
      "inputs": [],
      "name": "bountyAndCommunityAddressesMultiSig",
      "outputs": [
        {
          "name": "",
          "type": "address"
        }
      ],
      "payable": false,
      "stateMutability": "view",
      "type": "function"
    },
    {
      "constant": false,
      "inputs": [
        {
          "name": "beneficiary",
          "type": "address"
        }
      ],
      "name": "buy",
      "outputs": [],
      "payable": true,
      "stateMutability": "payable",
      "type": "function"
    },
    {
      "constant": false,
      "inputs": [
        {
          "name": "newOwner",
          "type": "address"
        }
      ],
      "name": "transferOwnership",
      "outputs": [],
      "payable": false,
      "stateMutability": "nonpayable",
      "type": "function"
    },
    {
      "constant": true,
      "inputs": [],
      "name": "reserveAddress",
      "outputs": [
        {
          "name": "",
          "type": "address"
        }
      ],
      "payable": false,
      "stateMutability": "view",
      "type": "function"
    },
    {
      "constant": true,
      "inputs": [],
      "name": "vault",
      "outputs": [
        {
          "name": "",
          "type": "address"
        }
      ],
      "payable": false,
      "stateMutability": "view",
      "type": "function"
    },
    {
      "constant": true,
      "inputs": [],
      "name": "token",
      "outputs": [
        {
          "name": "",
          "type": "address"
        }
      ],
      "payable": false,
      "stateMutability": "view",
      "type": "function"
    },
    {
      "constant": true,
      "inputs": [],
      "name": "presale",
      "outputs": [
        {
          "name": "",
          "type": "address"
        }
      ],
      "payable": false,
      "stateMutability": "view",
      "type": "function"
    },
    {
      "inputs": [
        {
          "name": "_kyc",
          "type": "address"
        },
        {
          "name": "_token",
          "type": "address"
        },
        {
          "name": "_vault",
          "type": "address"
        },
        {
          "name": "_presale",
          "type": "address"
        },
        {
          "name": "_bountyAndCommunityAddresses",
          "type": "address[]"
        },
        {
          "name": "_bountyAndCommunityAddressesMultiSig",
          "type": "address"
        },
        {
          "name": "_reserveAddress",
          "type": "address"
        },
        {
          "name": "_teamAddress",
          "type": "address"
        },
        {
          "name": "_maxEtherCap",
          "type": "uint256"
        },
        {
          "name": "_minEtherCap",
          "type": "uint256"
        }
      ],
      "payable": false,
      "stateMutability": "nonpayable",
      "type": "constructor"
    },
    {
      "payable": true,
      "stateMutability": "payable",
      "type": "fallback"
    },
    {
      "anonymous": false,
      "inputs": [
        {
          "indexed": true,
          "name": "investor",
          "type": "address"
        },
        {
          "indexed": true,
          "name": "beneficiary",
          "type": "address"
        },
        {
          "indexed": false,
          "name": "toFund",
          "type": "uint256"
        },
        {
          "indexed": false,
          "name": "tokens",
          "type": "uint256"
        }
      ],
      "name": "CrowdSaleTokenPurchase",
      "type": "event"
    },
    {
      "anonymous": false,
      "inputs": [
        {
          "indexed": false,
          "name": "_startTime",
          "type": "uint64"
        },
        {
          "indexed": false,
          "name": "_endTime",
          "type": "uint64"
        },
        {
          "indexed": false,
          "name": "_rate",
          "type": "uint8"
        }
      ],
      "name": "StartPeriod",
      "type": "event"
    },
    {
      "anonymous": false,
      "inputs": [],
      "name": "Finalized",
      "type": "event"
    },
    {
      "anonymous": false,
      "inputs": [],
      "name": "Pause",
      "type": "event"
    },
    {
      "anonymous": false,
      "inputs": [],
      "name": "Unpause",
      "type": "event"
    }
  ],
  "bytecode": "0x606060405260008060146101000a81548160ff02191690831515021790555034156200002a57600080fd5b60405162002ca538038062002ca583398101604052808051906020019091908051906020019091908051906020019091908051906020019091908051820191906020018051906020019091908051906020019091908051906020019091908051906020019091908051906020019091905050336000806101000a81548173ffffffffffffffffffffffffffffffffffffffff021916908373ffffffffffffffffffffffffffffffffffffffff16021790555089600160006101000a81548173ffffffffffffffffffffffffffffffffffffffff021916908373ffffffffffffffffffffffffffffffffffffffff16021790555088600260006101000a81548173ffffffffffffffffffffffffffffffffffffffff021916908373ffffffffffffffffffffffffffffffffffffffff16021790555087600360006101000a81548173ffffffffffffffffffffffffffffffffffffffff021916908373ffffffffffffffffffffffffffffffffffffffff16021790555086600460006101000a81548173ffffffffffffffffffffffffffffffffffffffff021916908373ffffffffffffffffffffffffffffffffffffffff1602179055508560059080519060200190620001f8929190620002da565b5084600660006101000a81548173ffffffffffffffffffffffffffffffffffffffff021916908373ffffffffffffffffffffffffffffffffffffffff16021790555083600760006101000a81548173ffffffffffffffffffffffffffffffffffffffff021916908373ffffffffffffffffffffffffffffffffffffffff16021790555082600860006101000a81548173ffffffffffffffffffffffffffffffffffffffff021916908373ffffffffffffffffffffffffffffffffffffffff16021790555081600c8190555080600d8190555050505050505050505050620003af565b82805482825590600052602060002090810192821562000356579160200282015b82811115620003555782518260006101000a81548173ffffffffffffffffffffffffffffffffffffffff021916908373ffffffffffffffffffffffffffffffffffffffff16021790555091602001919060010190620002fb565b5b50905062000365919062000369565b5090565b620003ac91905b80821115620003a857600081816101000a81549073ffffffffffffffffffffffffffffffffffffffff02191690555060010162000370565b5090565b90565b6128e680620003bf6000396000f3006060604052600436106101b7576000357c0100000000000000000000000000000000000000000000000000000000900463ffffffff16806306040618146101c25780631c75f085146101eb578063326fd584146102405780633f4ba83a146102695780634042b66f1461027e5780634bb278f3146102a75780634d1ed74b146102bc5780635066370a146102e5578063577890f6146103485780635bb11a57146103755780635c975abb146103b0578063679aefce146103dd57806377472b6f1461040c5780638456cb59146104355780638d4e40831461044a5780638da5cb5b146104775780638e6a2afa146104cc57806390135fec146104fb57806390d6b45f14610528578063a06aceb21461057d578063a6ca322b146105d2578063a743fa50146105fb578063ad22612214610648578063af6f964d1461066b578063bbd3957414610698578063bffa55d5146106fc578063e9fee16f1461074d578063ea4a110414610770578063ed9c3bd2146107e3578063f088d54714610838578063f2fde38b14610866578063f79ed94b1461089f578063fbfa77cf146108f4578063fc0c546a14610949578063fdea8e0b1461099e575b6101c0336109f3565b005b34156101cd57600080fd5b6101d5610f06565b6040518082815260200191505060405180910390f35b34156101f657600080fd5b6101fe610f0c565b604051808273ffffffffffffffffffffffffffffffffffffffff1673ffffffffffffffffffffffffffffffffffffffff16815260200191505060405180910390f35b341561024b57600080fd5b610253610f32565b6040518082815260200191505060405180910390f35b341561027457600080fd5b61027c610f38565b005b341561028957600080fd5b610291610ff6565b6040518082815260200191505060405180910390f35b34156102b257600080fd5b6102ba610ffc565b005b34156102c757600080fd5b6102cf6110e9565b6040518082815260200191505060405180910390f35b34156102f057600080fd5b61030660048080359060200190919050506110f7565b604051808273ffffffffffffffffffffffffffffffffffffffff1673ffffffffffffffffffffffffffffffffffffffff16815260200191505060405180910390f35b341561035357600080fd5b61035b611136565b604051808215151515815260200191505060405180910390f35b341561038057600080fd5b6103966004808035906020019091905050611149565b604051808215151515815260200191505060405180910390f35b34156103bb57600080fd5b6103c36111ba565b604051808215151515815260200191505060405180910390f35b34156103e857600080fd5b6103f06111cd565b604051808260ff1660ff16815260200191505060405180910390f35b341561041757600080fd5b61041f611201565b6040518082815260200191505060405180910390f35b341561044057600080fd5b610448611207565b005b341561045557600080fd5b61045d6112c7565b604051808215151515815260200191505060405180910390f35b341561048257600080fd5b61048a6112da565b604051808273ffffffffffffffffffffffffffffffffffffffff1673ffffffffffffffffffffffffffffffffffffffff16815260200191505060405180910390f35b34156104d757600080fd5b6104df6112ff565b604051808260ff1660ff16815260200191505060405180910390f35b341561050657600080fd5b61050e611304565b604051808215151515815260200191505060405180910390f35b341561053357600080fd5b61053b611312565b604051808273ffffffffffffffffffffffffffffffffffffffff1673ffffffffffffffffffffffffffffffffffffffff16815260200191505060405180910390f35b341561058857600080fd5b610590611338565b604051808273ffffffffffffffffffffffffffffffffffffffff1673ffffffffffffffffffffffffffffffffffffffff16815260200191505060405180910390f35b34156105dd57600080fd5b6105e561135e565b6040518082815260200191505060405180910390f35b341561060657600080fd5b610632600480803573ffffffffffffffffffffffffffffffffffffffff16906020019091905050611364565b6040518082815260200191505060405180910390f35b341561065357600080fd5b610669600480803590602001909190505061137c565b005b341561067657600080fd5b61067e611419565b604051808215151515815260200191505060405180910390f35b34156106a357600080fd5b6106e2600480803567ffffffffffffffff1690602001909190803567ffffffffffffffff1690602001909190803560ff16906020019091905050611428565b604051808215151515815260200191505060405180910390f35b341561070757600080fd5b610733600480803573ffffffffffffffffffffffffffffffffffffffff169060200190919050506116e9565b604051808215151515815260200191505060405180910390f35b341561075857600080fd5b61076e6004808035906020019091905050611801565b005b341561077b57600080fd5b61079160048080359060200190919050506119fc565b604051808467ffffffffffffffff1667ffffffffffffffff1681526020018367ffffffffffffffff1667ffffffffffffffff1681526020018260ff1660ff168152602001935050505060405180910390f35b34156107ee57600080fd5b6107f6611a67565b604051808273ffffffffffffffffffffffffffffffffffffffff1673ffffffffffffffffffffffffffffffffffffffff16815260200191505060405180910390f35b610864600480803573ffffffffffffffffffffffffffffffffffffffff169060200190919050506109f3565b005b341561087157600080fd5b61089d600480803573ffffffffffffffffffffffffffffffffffffffff16906020019091905050611a8d565b005b34156108aa57600080fd5b6108b2611b67565b604051808273ffffffffffffffffffffffffffffffffffffffff1673ffffffffffffffffffffffffffffffffffffffff16815260200191505060405180910390f35b34156108ff57600080fd5b610907611b8d565b604051808273ffffffffffffffffffffffffffffffffffffffff1673ffffffffffffffffffffffffffffffffffffffff16815260200191505060405180910390f35b341561095457600080fd5b61095c611bb3565b604051808273ffffffffffffffffffffffffffffffffffffffff1673ffffffffffffffffffffffffffffffffffffffff16815260200191505060405180910390f35b34156109a957600080fd5b6109b1611bd9565b604051808273ffffffffffffffffffffffffffffffffffffffff1673ffffffffffffffffffffffffffffffffffffffff16815260200191505060405180910390f35b60008060008060008060008060149054906101000a900460ff16151515610a1957600080fd5b600160009054906101000a900473ffffffffffffffffffffffffffffffffffffffff1673ffffffffffffffffffffffffffffffffffffffff1663ad1def42896000604051602001526040518263ffffffff167c0100000000000000000000000000000000000000000000000000000000028152600401808273ffffffffffffffffffffffffffffffffffffffff1673ffffffffffffffffffffffffffffffffffffffff168152602001915050602060405180830381600087803b1515610ade57600080fd5b6102c65a03f11515610aef57600080fd5b505050604051805190501515610b0457600080fd5b601360009054906101000a900460ff161515610b1f57600080fd5b610b27611bff565b1515610b3257600080fd5b610b3d600a54611149565b151515610b4957600080fd5b60008873ffffffffffffffffffffffffffffffffffffffff1614151515610b6f57600080fd5b610b77611c0e565b1515610b8257600080fd5b349650610bce600e60008a73ffffffffffffffffffffffffffffffffffffffff1673ffffffffffffffffffffffffffffffffffffffff1681526020019081526020016000205488611cc7565b955069010f0cf064dd59200000861115610c3c57610c3569010f0cf064dd59200000600e60008b73ffffffffffffffffffffffffffffffffffffffff1673ffffffffffffffffffffffffffffffffffffffff16815260200190815260200160002054611ce5565b9450610c40565b8694505b610c4c600b5486611cc7565b9350600c54841115610c6957610c66600c54600b54611ce5565b94505b600085111515610c7857600080fd5b848710151515610c8757600080fd5b610c8f6111cd565b60ff169250610c9e8584611cfe565b9150610caa8786611ce5565b9050610cb533611d31565b610cc1600b5486611cc7565b600b81905550610d10600e60008a73ffffffffffffffffffffffffffffffffffffffff1673ffffffffffffffffffffffffffffffffffffffff1681526020019081526020016000205486611cc7565b600e60008a73ffffffffffffffffffffffffffffffffffffffff1673ffffffffffffffffffffffffffffffffffffffff16815260200190815260200160002081905550600260009054906101000a900473ffffffffffffffffffffffffffffffffffffffff1673ffffffffffffffffffffffffffffffffffffffff1663827f32c089846000604051602001526040518363ffffffff167c0100000000000000000000000000000000000000000000000000000000028152600401808373ffffffffffffffffffffffffffffffffffffffff1673ffffffffffffffffffffffffffffffffffffffff16815260200182815260200192505050602060405180830381600087803b1515610e2057600080fd5b6102c65a03f11515610e3157600080fd5b50505060405180519050506000811115610e86573373ffffffffffffffffffffffffffffffffffffffff166108fc829081150290604051600060405180830381858888f193505050501515610e8557600080fd5b5b610e8f85611e43565b8773ffffffffffffffffffffffffffffffffffffffff163373ffffffffffffffffffffffffffffffffffffffff167f33759ee1eaa9f87f4186d31caf548c4494b9cef9fa6a2805ef0efd615fb182ff8785604051808381526020018281526020019250505060405180910390a35050505050505050565b600a5481565b600860009054906101000a900473ffffffffffffffffffffffffffffffffffffffff1681565b600c5481565b6000809054906101000a900473ffffffffffffffffffffffffffffffffffffffff1673ffffffffffffffffffffffffffffffffffffffff163373ffffffffffffffffffffffffffffffffffffffff16141515610f9357600080fd5b600060149054906101000a900460ff161515610fae57600080fd5b60008060146101000a81548160ff0219169083151502179055507f7805862f689e2f13df9f062ff482ad3ad112aca9e0847911ed832e158c525b3360405160405180910390a1565b600b5481565b6000809054906101000a900473ffffffffffffffffffffffffffffffffffffffff1673ffffffffffffffffffffffffffffffffffffffff163373ffffffffffffffffffffffffffffffffffffffff1614151561105757600080fd5b601160149054906101000a900460ff1615151561107357600080fd5b61107e600a54611149565b8061108d575061108c611304565b5b151561109857600080fd5b6110a0611f17565b7f6823b073d48d6e3a7d385eeb601452d680e74bb46afe3255a7d778f3a9b1768160405160405180910390a16001601160146101000a81548160ff021916908315150217905550565b69010f0cf064dd5920000081565b60058181548110151561110657fe5b90600052602060002090016000915054906101000a900473ffffffffffffffffffffffffffffffffffffffff1681565b601360009054906101000a900460ff1681565b6000611153611bff565b151561115e57600080fd5b816001600980549050031015151561117557600080fd5b60098281548110151561118457fe5b906000526020600020900160000160089054906101000a900467ffffffffffffffff1667ffffffffffffffff1642119050919050565b600060149054906101000a900460ff1681565b60006009600a548154811015156111e057fe5b906000526020600020900160000160109054906101000a900460ff16905090565b600d5481565b6000809054906101000a900473ffffffffffffffffffffffffffffffffffffffff1673ffffffffffffffffffffffffffffffffffffffff163373ffffffffffffffffffffffffffffffffffffffff1614151561126257600080fd5b600060149054906101000a900460ff1615151561127e57600080fd5b6001600060146101000a81548160ff0219169083151502179055507f6985a02210a168e66602d3235cb6db0e70f92b3ba4d376a33c0f3d9434bff62560405160405180910390a1565b601160149054906101000a900460ff1681565b6000809054906101000a900473ffffffffffffffffffffffffffffffffffffffff1681565b600681565b6000600c54600b5414905090565b600160009054906101000a900473ffffffffffffffffffffffffffffffffffffffff1681565b601160009054906101000a900473ffffffffffffffffffffffffffffffffffffffff1681565b60125481565b600e6020528060005260406000206000915090505481565b601360009054906101000a900460ff1615151561139857600080fd5b600460009054906101000a900473ffffffffffffffffffffffffffffffffffffffff1673ffffffffffffffffffffffffffffffffffffffff163373ffffffffffffffffffffffffffffffffffffffff161415156113f457600080fd5b80600b819055506001601360006101000a81548160ff02191690831515021790555050565b6000600d54600b541015905090565b600061143261279b565b6000809054906101000a900473ffffffffffffffffffffffffffffffffffffffff1673ffffffffffffffffffffffffffffffffffffffff163373ffffffffffffffffffffffffffffffffffffffff1614151561148d57600080fd5b600660ff166009805490501015156114a457600080fd5b6009600a548154811015156114b557fe5b906000526020600020900160000160089054906101000a900467ffffffffffffffff1667ffffffffffffffff16421115156114ef57600080fd5b6114f7611304565b15151561150357600080fd5b8467ffffffffffffffff164210801561152f57508367ffffffffffffffff168567ffffffffffffffff16105b151561153a57600080fd5b60008360ff1611151561154c57600080fd5b84816000019067ffffffffffffffff16908167ffffffffffffffff168152505083816020019067ffffffffffffffff16908167ffffffffffffffff168152505082816040019060ff16908160ff16815250506115a6611bff565b156115bf576115b8600a546001611cc7565b600a819055505b600980548060010182816115d391906127d4565b9160005260206000209001600083909190915060008201518160000160006101000a81548167ffffffffffffffff021916908367ffffffffffffffff16021790555060208201518160000160086101000a81548167ffffffffffffffff021916908367ffffffffffffffff16021790555060408201518160000160106101000a81548160ff021916908360ff1602179055505050507f2d84294f40d1d70a84892fe5c52018480bbfe6956de46a4c752d4794237347ac858585604051808467ffffffffffffffff1667ffffffffffffffff1681526020018367ffffffffffffffff1667ffffffffffffffff1681526020018260ff1660ff168152602001935050505060405180910390a160019150509392505050565b6000601160149054906101000a900460ff16151561170657600080fd5b61170e611419565b15151561171a57600080fd5b600360009054906101000a900473ffffffffffffffffffffffffffffffffffffffff1673ffffffffffffffffffffffffffffffffffffffff1663fa89401a836000604051602001526040518263ffffffff167c0100000000000000000000000000000000000000000000000000000000028152600401808273ffffffffffffffffffffffffffffffffffffffff1673ffffffffffffffffffffffffffffffffffffffff168152602001915050602060405180830381600087803b15156117df57600080fd5b6102c65a03f115156117f057600080fd5b505050604051805190509050919050565b6000806000809054906101000a900473ffffffffffffffffffffffffffffffffffffffff1673ffffffffffffffffffffffffffffffffffffffff163373ffffffffffffffffffffffffffffffffffffffff1614151561185f57600080fd5b601160149054906101000a900460ff16151561187a57600080fd5b611882611419565b15151561188e57600080fd5b60008311151561189d57600080fd5b82601254019150600f805490508211156118ba57600f8054905091505b60125490505b818110156119f057600360009054906101000a900473ffffffffffffffffffffffffffffffffffffffff1673ffffffffffffffffffffffffffffffffffffffff1663fa89401a600f8381548110151561191557fe5b906000526020600020900160009054906101000a900473ffffffffffffffffffffffffffffffffffffffff166000604051602001526040518263ffffffff167c0100000000000000000000000000000000000000000000000000000000028152600401808273ffffffffffffffffffffffffffffffffffffffff1673ffffffffffffffffffffffffffffffffffffffff168152602001915050602060405180830381600087803b15156119c757600080fd5b6102c65a03f115156119d857600080fd5b505050604051805190505080806001019150506118c0565b81601281905550505050565b600981815481101515611a0b57fe5b90600052602060002090016000915090508060000160009054906101000a900467ffffffffffffffff16908060000160089054906101000a900467ffffffffffffffff16908060000160109054906101000a900460ff16905083565b600660009054906101000a900473ffffffffffffffffffffffffffffffffffffffff1681565b6000809054906101000a900473ffffffffffffffffffffffffffffffffffffffff1673ffffffffffffffffffffffffffffffffffffffff163373ffffffffffffffffffffffffffffffffffffffff16141515611ae857600080fd5b600073ffffffffffffffffffffffffffffffffffffffff168173ffffffffffffffffffffffffffffffffffffffff1614151515611b2457600080fd5b806000806101000a81548173ffffffffffffffffffffffffffffffffffffffff021916908373ffffffffffffffffffffffffffffffffffffffff16021790555050565b600760009054906101000a900473ffffffffffffffffffffffffffffffffffffffff1681565b600360009054906101000a900473ffffffffffffffffffffffffffffffffffffffff1681565b600260009054906101000a900473ffffffffffffffffffffffffffffffffffffffff1681565b600460009054906101000a900473ffffffffffffffffffffffffffffffffffffffff1681565b60008060098054905011905090565b60008060008034141591506009600a54815481101515611c2a57fe5b906000526020600020900160000160009054906101000a900467ffffffffffffffff1667ffffffffffffffff164210158015611ca357506009600a54815481101515611c7257fe5b906000526020600020900160000160089054906101000a900467ffffffffffffffff1667ffffffffffffffff164211155b9050818015611cb75750611cb5611304565b155b8015611cc05750805b9250505090565b6000808284019050838110151515611cdb57fe5b8091505092915050565b6000828211151515611cf357fe5b818303905092915050565b60008082840290506000841480611d1f5750828482811515611d1c57fe5b04145b1515611d2757fe5b8091505092915050565b601060008273ffffffffffffffffffffffffffffffffffffffff1673ffffffffffffffffffffffffffffffffffffffff16815260200190815260200160002060009054906101000a900460ff161515611e40576001601060008373ffffffffffffffffffffffffffffffffffffffff1673ffffffffffffffffffffffffffffffffffffffff16815260200190815260200160002060006101000a81548160ff021916908315150217905550600f8054806001018281611df09190612800565b9160005260206000209001600083909190916101000a81548173ffffffffffffffffffffffffffffffffffffffff021916908373ffffffffffffffffffffffffffffffffffffffff160217905550505b50565b600360009054906101000a900473ffffffffffffffffffffffffffffffffffffffff1673ffffffffffffffffffffffffffffffffffffffff1663f340fa0182336040518363ffffffff167c0100000000000000000000000000000000000000000000000000000000028152600401808273ffffffffffffffffffffffffffffffffffffffff1673ffffffffffffffffffffffffffffffffffffffff1681526020019150506000604051808303818588803b1515611eff57600080fd5b6125ee5a03f11515611f1057600080fd5b5050505050565b600080600080611f25611419565b156120c357600360009054906101000a900473ffffffffffffffffffffffffffffffffffffffff1673ffffffffffffffffffffffffffffffffffffffff166343d726d66040518163ffffffff167c0100000000000000000000000000000000000000000000000000000000028152600401600060405180830381600087803b1515611faf57600080fd5b6102c65a03f11515611fc057600080fd5b505050600260009054906101000a900473ffffffffffffffffffffffffffffffffffffffff1673ffffffffffffffffffffffffffffffffffffffff166318160ddd6000604051602001526040518163ffffffff167c0100000000000000000000000000000000000000000000000000000000028152600401602060405180830381600087803b151561205157600080fd5b6102c65a03f1151561206257600080fd5b50505060405180519050935061208361207c856014611cfe565b60326122ff565b925061209a61209385600f611cfe565b60326122ff565b91506120b16120aa85600f611cfe565b60326122ff565b90506120be83838361231a565b61215d565b600360009054906101000a900473ffffffffffffffffffffffffffffffffffffffff1673ffffffffffffffffffffffffffffffffffffffff16638c52dc416040518163ffffffff167c0100000000000000000000000000000000000000000000000000000000028152600401600060405180830381600087803b151561214857600080fd5b6102c65a03f1151561215957600080fd5b5050505b600260009054906101000a900473ffffffffffffffffffffffffffffffffffffffff1673ffffffffffffffffffffffffffffffffffffffff1663a4d67d636000604051602001526040518163ffffffff167c0100000000000000000000000000000000000000000000000000000000028152600401602060405180830381600087803b15156121eb57600080fd5b6102c65a03f115156121fc57600080fd5b5050506040518051905050600260009054906101000a900473ffffffffffffffffffffffffffffffffffffffff1673ffffffffffffffffffffffffffffffffffffffff16633cebb823601160009054906101000a900473ffffffffffffffffffffffffffffffffffffffff166040518263ffffffff167c0100000000000000000000000000000000000000000000000000000000028152600401808273ffffffffffffffffffffffffffffffffffffffff1673ffffffffffffffffffffffffffffffffffffffff168152602001915050600060405180830381600087803b15156122e557600080fd5b6102c65a03f115156122f657600080fd5b50505050505050565b600080828481151561230d57fe5b0490508091505092915050565b60008061232f856001600580549050016122ff565b9150600090505b60058054905081101561247357600260009054906101000a900473ffffffffffffffffffffffffffffffffffffffff1673ffffffffffffffffffffffffffffffffffffffff1663827f32c060058381548110151561239057fe5b906000526020600020900160009054906101000a900473ffffffffffffffffffffffffffffffffffffffff16846000604051602001526040518363ffffffff167c0100000000000000000000000000000000000000000000000000000000028152600401808373ffffffffffffffffffffffffffffffffffffffff1673ffffffffffffffffffffffffffffffffffffffff16815260200182815260200192505050602060405180830381600087803b151561244a57600080fd5b6102c65a03f1151561245b57600080fd5b50505060405180519050508080600101915050612336565b600260009054906101000a900473ffffffffffffffffffffffffffffffffffffffff1673ffffffffffffffffffffffffffffffffffffffff1663827f32c0600660009054906101000a900473ffffffffffffffffffffffffffffffffffffffff16846000604051602001526040518363ffffffff167c0100000000000000000000000000000000000000000000000000000000028152600401808373ffffffffffffffffffffffffffffffffffffffff1673ffffffffffffffffffffffffffffffffffffffff16815260200182815260200192505050602060405180830381600087803b151561256257600080fd5b6102c65a03f1151561257357600080fd5b5050506040518051905050600260009054906101000a900473ffffffffffffffffffffffffffffffffffffffff1673ffffffffffffffffffffffffffffffffffffffff1663827f32c0600760009054906101000a900473ffffffffffffffffffffffffffffffffffffffff16866000604051602001526040518363ffffffff167c0100000000000000000000000000000000000000000000000000000000028152600401808373ffffffffffffffffffffffffffffffffffffffff1673ffffffffffffffffffffffffffffffffffffffff16815260200182815260200192505050602060405180830381600087803b151561266d57600080fd5b6102c65a03f1151561267e57600080fd5b5050506040518051905050600260009054906101000a900473ffffffffffffffffffffffffffffffffffffffff1673ffffffffffffffffffffffffffffffffffffffff1663827f32c0600860009054906101000a900473ffffffffffffffffffffffffffffffffffffffff16856000604051602001526040518363ffffffff167c0100000000000000000000000000000000000000000000000000000000028152600401808373ffffffffffffffffffffffffffffffffffffffff1673ffffffffffffffffffffffffffffffffffffffff16815260200182815260200192505050602060405180830381600087803b151561277857600080fd5b6102c65a03f1151561278957600080fd5b50505060405180519050505050505050565b606060405190810160405280600067ffffffffffffffff168152602001600067ffffffffffffffff168152602001600060ff1681525090565b8154818355818115116127fb578183600052602060002091820191016127fa919061282c565b5b505050565b815481835581811511612827578183600052602060002091820191016128269190612895565b5b505050565b61289291905b8082111561288e57600080820160006101000a81549067ffffffffffffffff02191690556000820160086101000a81549067ffffffffffffffff02191690556000820160106101000a81549060ff021916905550600101612832565b5090565b90565b6128b791905b808211156128b357600081600090555060010161289b565b5090565b905600a165627a7a7230582034edb1d5fffff26c5a2f587a441873e32019b342af90b3570a2e4156b00b24590029",
  "source": "pragma solidity ^0.4.18;\n\nimport './kyc/KYC.sol';\nimport './ATC.sol';\nimport './crowdsale/RefundVault.sol';\nimport './ownership/Ownable.sol';\nimport './math/SafeMath.sol';\nimport './lifecycle/Pausable.sol';\n\ncontract ATCCrowdSale is Ownable, SafeMath, Pausable{\n  KYC public kyc;\n  ATC public token;\n  RefundVault public vault;\n\n  address public presale;\n\n  address[] public bountyAndCommunityAddresses; //5% for bounty, 15% for community groups & partners\n  address public bountyAndCommunityAddressesMultiSig; //5% for bounty, 15% for community groups & partners\n  address public reserveAddress; //15% with 2 years lock\n  address public teamAddress; // 15% with 2 years vesting\n\n  struct Period {\n    uint64 startTime;\n    uint64 endTime;\n    uint8 rate;\n  }\n\n  Period[] public periods;\n  uint256 public currentPeriod;\n  uint8 constant public MAX_PERIOD_COUNT = 6;\n\n  uint256 public weiRaised;\n  uint256 public maxEtherCap;\n  uint256 public minEtherCap;\n\n  uint256 constant public maxGuaranteedLimit = 5000 ether;\n  mapping (address => uint256) public beneficiaryFunded;\n\n  address[] investorList;\n  mapping (address => bool) inInvestorList;\n\n  address public ATCController;\n\n  bool public isFinalized;\n  uint256 public refundCompleted;\n  bool public presaleFallBackCalled;\n\n\n  event CrowdSaleTokenPurchase(address indexed investor, address indexed beneficiary, uint256 toFund, uint256 tokens);\n  event StartPeriod(uint64 _startTime, uint64 _endTime, uint8 _rate);\n  event Finalized();\n\n  function ATCCrowdSale (\n    address _kyc,\n    address _token,\n    address _vault,\n    address _presale,\n    address[] _bountyAndCommunityAddresses,\n    address _bountyAndCommunityAddressesMultiSig,\n    address _reserveAddress,\n    address _teamAddress,\n    uint256 _maxEtherCap,\n    uint256 _minEtherCap\n    ) {\n      // TODO: check conditions\n      kyc = KYC(_kyc);\n      token = ATC(_token);\n      vault = RefundVault(_vault);\n      presale = _presale;\n\n      bountyAndCommunityAddresses = _bountyAndCommunityAddresses;\n      bountyAndCommunityAddressesMultiSig = _bountyAndCommunityAddressesMultiSig;\n      reserveAddress = _reserveAddress;\n      teamAddress = _teamAddress;\n      \n      maxEtherCap = _maxEtherCap;\n      minEtherCap = _minEtherCap;\n    }\n\n  function () payable {\n    buy(msg.sender);\n  }\n\n  function presaleFallBack(uint256 _presaleWeiRaised) public {\n    require(!presaleFallBackCalled);\n    require(msg.sender == presale);\n    weiRaised = _presaleWeiRaised;\n    presaleFallBackCalled = true;\n  }\n\n  function buy(address beneficiary)\n    public\n    payable\n    whenNotPaused\n  {\n      // check validity\n      require(kyc.registeredAddress(beneficiary));\n      require(presaleFallBackCalled);\n      require(nonZeroPeriod());\n      require(!periodFinished(currentPeriod));\n      require(beneficiary != 0x00);\n      require(validPurchase());\n\n      // calculate eth amount\n      uint256 weiAmount = msg.value;\n      uint256 totalAmount = add(beneficiaryFunded[beneficiary], weiAmount);\n\n      uint256 toFund;\n\n      if (totalAmount > maxGuaranteedLimit) {\n        toFund = sub(maxGuaranteedLimit, beneficiaryFunded[beneficiary]);\n      } else {\n        toFund = weiAmount;\n      }\n\n      uint256 postWeiRaised = add(weiRaised, toFund);\n\n      if (postWeiRaised > maxEtherCap) {\n        toFund = sub(maxEtherCap, weiRaised);\n      }\n\n      require(toFund > 0);\n      require(weiAmount >= toFund);\n\n      uint256 currentRate = getRate();\n      uint256 tokens = mul(toFund, currentRate);\n      uint256 toReturn = sub(weiAmount, toFund);\n\n      pushInvestorList(msg.sender);\n\n      weiRaised = add(weiRaised, toFund);\n      beneficiaryFunded[beneficiary] = add(beneficiaryFunded[beneficiary], toFund);\n\n      //TODO: Error check\n      token.generateTokens(beneficiary, tokens);\n\n      if (toReturn > 0) {\n        msg.sender.transfer(toReturn);\n      }\n      forwardFunds(toFund);\n      CrowdSaleTokenPurchase(msg.sender, beneficiary, toFund, tokens);\n  }\n\n  function pushInvestorList(address investor) internal {\n    if (!inInvestorList[investor]) {\n      inInvestorList[investor] = true;\n      investorList.push(investor);\n    }\n  }\n\n  function validPurchase() internal constant returns (bool) {\n    bool nonZeroPurchase = msg.value != 0;\n    bool validTime = now >= periods[currentPeriod].startTime && now <= periods[currentPeriod].endTime;\n    return nonZeroPurchase && !maxReached() && validTime;\n  }\n\n  function forwardFunds(uint256 toFund) internal {\n    vault.deposit.value(toFund)(msg.sender);\n  }\n\n  function nonZeroPeriod() internal constant returns (bool) {\n    return periods.length > 0;\n  }\n\n  function periodFinished(uint256 period) public constant returns (bool) {\n    require(nonZeroPeriod());\n    require(periods.length-1 >= period);\n    return now > periods[period].endTime;\n  }\n\n  /**\n   * @dev Checks whether minEtherCap is reached\n   * @return true if min ether cap is reaced\n   */\n  function minReached() public constant returns (bool) {\n    return weiRaised >= minEtherCap;\n  }\n  /**\n   * @dev Checks whether maxEtherCap is reached\n   * @return true if max ether cap is reaced\n   */\n  function maxReached() public constant returns (bool) {\n    return weiRaised == maxEtherCap;\n  }\n\n  function getRate() public constant returns (uint8) {\n    return periods[currentPeriod].rate;\n  }\n\n  function startPeriod(uint64 _startTime, uint64 _endTime, uint8 _rate) public onlyOwner returns (bool) {\n    require(periods.length < MAX_PERIOD_COUNT);\n    require(now > periods[currentPeriod].endTime);\n    require(!maxReached());\n    require(now < _startTime && _startTime < _endTime);\n    require(_rate > 0);\n\n    // TOOD: check working correctly\n    Period memory newPeriod;\n    newPeriod.startTime = _startTime;\n    newPeriod.endTime = _endTime;\n    newPeriod.rate = _rate;\n\n    if (nonZeroPeriod()) {\n      currentPeriod = add (currentPeriod, 1);\n    }\n\n    periods.push(newPeriod);\n\n    StartPeriod(_startTime, _endTime, _rate);\n\n    return true;\n  }\n\n  /**\n   * @dev should be called after crowdsale ends, to do\n   */\n  function finalize() onlyOwner {\n    require(!isFinalized);\n    require(periodFinished(currentPeriod) || maxReached());\n\n    finalization();\n    Finalized();\n\n    isFinalized = true;\n  }\n\n  /**\n   * @dev end token minting on finalization, mint tokens for dev team and reserve wallets\n   */\n  function finalization() internal {\n    if (minReached()) {\n      vault.close();\n\n      uint256 totalToken = token.totalSupply();\n\n      // token distribution : 50% for sale, 20% for bounty and community, 15% for reserve, 15% for team\n      uint256 bountyAndCommunityAmount = div(mul(totalToken, 20), 50);\n      uint256 reserveAmount = div(mul(totalToken, 15), 50);\n      uint256 teamAmount = div(mul(totalToken, 15), 50);\n\n      distributeToken(bountyAndCommunityAmount, reserveAmount, teamAmount);\n\n    } else {\n      vault.enableRefunds();\n    }\n    token.finishGenerating();\n    token.changeController(ATCController);\n  }\n\n  function distributeToken(uint256 bountyAndCommunityAmount, uint256 reserveAmount, uint256 teamAmount) internal {\n    // TODO: check bountyAndCommunityAmount distribution ratio\n    // 3 wallets, 1 multisig\n    uint256 bountyAndCommunityAmountForEach = div(bountyAndCommunityAmount, bountyAndCommunityAddresses.length + 1);\n\n    for (uint256 i = 0; i < bountyAndCommunityAddresses.length; i++) {\n        token.generateTokens(bountyAndCommunityAddresses[i], bountyAndCommunityAmountForEach);\n    }\n\n    token.generateTokens(bountyAndCommunityAddressesMultiSig, bountyAndCommunityAmountForEach);\n    token.generateTokens(reserveAddress, reserveAmount);\n    token.generateTokens(teamAddress, teamAmount);\n  }\n\n  /**\n   * @dev refund a lot of investors at a time checking onlyOwner\n   * @param numToRefund uint256 The number of investors to refund\n   */\n  function refundAll(uint256 numToRefund) onlyOwner {\n    require(isFinalized);\n    require(!minReached());\n    require(numToRefund > 0);\n\n    uint256 limit = refundCompleted + numToRefund;\n\n    if (limit > investorList.length) {\n      limit = investorList.length;\n    }\n\n    for(uint256 i = refundCompleted; i < limit; i++) {\n      vault.refund(investorList[i]);\n    }\n\n    refundCompleted = limit;\n  }\n\n  /**\n   * @dev if crowdsale is unsuccessful, investors can claim refunds here\n   * @param investor address The account to be refunded\n   */\n  function claimRefund(address investor) returns (bool) {\n    require(isFinalized);\n    require(!minReached());\n\n    return vault.refund(investor);\n  }\n}\n",
  "sourcePath": "/Users/PJH/workspace/aston-crowdsale/contracts/ATCCrowdSale.sol",
  "compiler": {
    "name": "solc",
    "version": "0.4.18+commit.9cf6e910.Emscripten.clang"
  },
  "schemaVersion": "1.0.1",
  "updatedAt": "2017-11-20T07:44:50.874Z"
}