{
  "contractName": "ATCPresale",
  "abi": [
    {
      "constant": true,
      "inputs": [],
      "name": "rate",
      "outputs": [
        {
          "name": "",
          "type": "uint256"
        }
      ],
      "payable": false,
      "stateMutability": "view",
      "type": "function"
    },
    {
      "constant": false,
      "inputs": [
        {
          "name": "_addr",
          "type": "address"
        }
      ],
      "name": "unregister",
      "outputs": [],
      "payable": false,
      "stateMutability": "nonpayable",
      "type": "function"
    },
    {
      "constant": true,
      "inputs": [],
      "name": "endTime",
      "outputs": [
        {
          "name": "",
          "type": "uint64"
        }
      ],
      "payable": false,
      "stateMutability": "view",
      "type": "function"
    },
    {
      "constant": true,
      "inputs": [],
      "name": "maxEtherCap",
      "outputs": [
        {
          "name": "",
          "type": "uint256"
        }
      ],
      "payable": false,
      "stateMutability": "view",
      "type": "function"
    },
    {
      "constant": false,
      "inputs": [],
      "name": "unpause",
      "outputs": [],
      "payable": false,
      "stateMutability": "nonpayable",
      "type": "function"
    },
    {
      "constant": true,
      "inputs": [],
      "name": "weiRaised",
      "outputs": [
        {
          "name": "",
          "type": "uint256"
        }
      ],
      "payable": false,
      "stateMutability": "view",
      "type": "function"
    },
    {
      "constant": true,
      "inputs": [
        {
          "name": "",
          "type": "address"
        }
      ],
      "name": "presaleGuaranteedLimit",
      "outputs": [
        {
          "name": "",
          "type": "uint256"
        }
      ],
      "payable": false,
      "stateMutability": "view",
      "type": "function"
    },
    {
      "constant": true,
      "inputs": [],
      "name": "paused",
      "outputs": [
        {
          "name": "",
          "type": "bool"
        }
      ],
      "payable": false,
      "stateMutability": "view",
      "type": "function"
    },
    {
      "constant": false,
      "inputs": [
        {
          "name": "_addr",
          "type": "address"
        },
        {
          "name": "_maxGuaranteedLimit",
          "type": "uint256"
        }
      ],
      "name": "register",
      "outputs": [],
      "payable": false,
      "stateMutability": "nonpayable",
      "type": "function"
    },
    {
      "constant": true,
      "inputs": [],
      "name": "startTime",
      "outputs": [
        {
          "name": "",
          "type": "uint64"
        }
      ],
      "payable": false,
      "stateMutability": "view",
      "type": "function"
    },
    {
      "constant": true,
      "inputs": [],
      "name": "totalPresaleGuaranteedLimit",
      "outputs": [
        {
          "name": "",
          "type": "uint256"
        }
      ],
      "payable": false,
      "stateMutability": "view",
      "type": "function"
    },
    {
      "constant": false,
      "inputs": [],
      "name": "pause",
      "outputs": [],
      "payable": false,
      "stateMutability": "nonpayable",
      "type": "function"
    },
    {
      "constant": false,
      "inputs": [
        {
          "name": "beneficiary",
          "type": "address"
        }
      ],
      "name": "buyPresale",
      "outputs": [],
      "payable": true,
      "stateMutability": "payable",
      "type": "function"
    },
    {
      "constant": true,
      "inputs": [],
      "name": "isFinalized",
      "outputs": [
        {
          "name": "",
          "type": "bool"
        }
      ],
      "payable": false,
      "stateMutability": "view",
      "type": "function"
    },
    {
      "constant": true,
      "inputs": [],
      "name": "owner",
      "outputs": [
        {
          "name": "",
          "type": "address"
        }
      ],
      "payable": false,
      "stateMutability": "view",
      "type": "function"
    },
    {
      "constant": true,
      "inputs": [],
      "name": "maxReached",
      "outputs": [
        {
          "name": "",
          "type": "bool"
        }
      ],
      "payable": false,
      "stateMutability": "view",
      "type": "function"
    },
    {
      "constant": false,
      "inputs": [
        {
          "name": "newOwner",
          "type": "address"
        }
      ],
      "name": "finalizePresale",
      "outputs": [],
      "payable": false,
      "stateMutability": "nonpayable",
      "type": "function"
    },
    {
      "constant": true,
      "inputs": [
        {
          "name": "",
          "type": "address"
        }
      ],
      "name": "beneficiaryFunded",
      "outputs": [
        {
          "name": "",
          "type": "uint256"
        }
      ],
      "payable": false,
      "stateMutability": "view",
      "type": "function"
    },
    {
      "constant": true,
      "inputs": [
        {
          "name": "",
          "type": "address"
        }
      ],
      "name": "registeredAddress",
      "outputs": [
        {
          "name": "",
          "type": "bool"
        }
      ],
      "payable": false,
      "stateMutability": "view",
      "type": "function"
    },
    {
      "constant": false,
      "inputs": [
        {
          "name": "_addrs",
          "type": "address[]"
        }
      ],
      "name": "unregisterByList",
      "outputs": [],
      "payable": false,
      "stateMutability": "nonpayable",
      "type": "function"
    },
    {
      "constant": false,
      "inputs": [
        {
          "name": "newOwner",
          "type": "address"
        }
      ],
      "name": "transferOwnership",
      "outputs": [],
      "payable": false,
      "stateMutability": "nonpayable",
      "type": "function"
    },
    {
      "constant": true,
      "inputs": [],
      "name": "vault",
      "outputs": [
        {
          "name": "",
          "type": "address"
        }
      ],
      "payable": false,
      "stateMutability": "view",
      "type": "function"
    },
    {
      "constant": true,
      "inputs": [],
      "name": "token",
      "outputs": [
        {
          "name": "",
          "type": "address"
        }
      ],
      "payable": false,
      "stateMutability": "view",
      "type": "function"
    },
    {
      "constant": false,
      "inputs": [
        {
          "name": "_addrs",
          "type": "address[]"
        },
        {
          "name": "_maxGuaranteedLimits",
          "type": "uint256[]"
        }
      ],
      "name": "registerByList",
      "outputs": [],
      "payable": false,
      "stateMutability": "nonpayable",
      "type": "function"
    },
    {
      "inputs": [
        {
          "name": "_token",
          "type": "address"
        },
        {
          "name": "_vault",
          "type": "address"
        },
        {
          "name": "_startTime",
          "type": "uint64"
        },
        {
          "name": "_endTime",
          "type": "uint64"
        },
        {
          "name": "_maxEtherCap",
          "type": "uint256"
        },
        {
          "name": "_rate",
          "type": "uint256"
        }
      ],
      "payable": false,
      "stateMutability": "nonpayable",
      "type": "constructor"
    },
    {
      "payable": true,
      "stateMutability": "payable",
      "type": "fallback"
    },
    {
      "anonymous": false,
      "inputs": [
        {
          "indexed": true,
          "name": "buyer",
          "type": "address"
        },
        {
          "indexed": true,
          "name": "beneficiary",
          "type": "address"
        },
        {
          "indexed": false,
          "name": "toFund",
          "type": "uint256"
        },
        {
          "indexed": false,
          "name": "tokens",
          "type": "uint256"
        }
      ],
      "name": "PresaleTokenPurchase",
      "type": "event"
    },
    {
      "anonymous": false,
      "inputs": [
        {
          "indexed": false,
          "name": "messgae",
          "type": "string"
        }
      ],
      "name": "Log",
      "type": "event"
    },
    {
      "anonymous": false,
      "inputs": [],
      "name": "Pause",
      "type": "event"
    },
    {
      "anonymous": false,
      "inputs": [],
      "name": "Unpause",
      "type": "event"
    },
    {
      "anonymous": false,
      "inputs": [
        {
          "indexed": true,
          "name": "_addr",
          "type": "address"
        },
        {
          "indexed": false,
          "name": "_amount",
          "type": "uint256"
        }
      ],
      "name": "Registered",
      "type": "event"
    },
    {
      "anonymous": false,
      "inputs": [
        {
          "indexed": true,
          "name": "_addr",
          "type": "address"
        }
      ],
      "name": "Unregistered",
      "type": "event"
    }
  ],
  "bytecode": "0x60606040526000600460006101000a81548160ff02191690831515021790555034156200002b57600080fd5b60405160c0806200236583398101604052808051906020019091908051906020019091908051906020019091908051906020019091908051906020019091908051906020019091905050336000806101000a81548173ffffffffffffffffffffffffffffffffffffffff021916908373ffffffffffffffffffffffffffffffffffffffff16021790555060008673ffffffffffffffffffffffffffffffffffffffff1614158015620000f4575060008573ffffffffffffffffffffffffffffffffffffffff1614155b15156200010057600080fd5b8367ffffffffffffffff16421080156200012d57508267ffffffffffffffff168467ffffffffffffffff16105b15156200013957600080fd5b6000821115156200014957600080fd5b6000811115156200015957600080fd5b85600460016101000a81548173ffffffffffffffffffffffffffffffffffffffff021916908373ffffffffffffffffffffffffffffffffffffffff16021790555084600560006101000a81548173ffffffffffffffffffffffffffffffffffffffff021916908373ffffffffffffffffffffffffffffffffffffffff16021790555083600960006101000a81548167ffffffffffffffff021916908367ffffffffffffffff16021790555082600960086101000a81548167ffffffffffffffff021916908367ffffffffffffffff160217905550816008819055508060068190555050505050505061211480620002516000396000f30060606040526004361061013e576000357c0100000000000000000000000000000000000000000000000000000000900463ffffffff1680632c4e722e146101495780632ec2c246146101725780633197cbb6146101ab578063326fd584146101e85780633f4ba83a146102115780634042b66f1461022657806346c092b21461024f5780635c975abb1461029c5780636d705ebb146102c957806378e979251461030b5780637f69dc04146103485780638456cb59146103715780638bbb9fca146103865780638d4e4083146103b45780638da5cb5b146103e157806390135fec14610436578063927c415114610463578063a743fa501461049c578063ad1def42146104e9578063eb5a458e1461053a578063f2fde38b14610594578063fbfa77cf146105cd578063fc0c546a14610622578063ffc52a1f14610677575b61014733610711565b005b341561015457600080fd5b61015c610b4c565b6040518082815260200191505060405180910390f35b341561017d57600080fd5b6101a9600480803573ffffffffffffffffffffffffffffffffffffffff16906020019091905050610b52565b005b34156101b657600080fd5b6101be610c61565b604051808267ffffffffffffffff1667ffffffffffffffff16815260200191505060405180910390f35b34156101f357600080fd5b6101fb610c7b565b6040518082815260200191505060405180910390f35b341561021c57600080fd5b610224610c81565b005b341561023157600080fd5b610239610d40565b6040518082815260200191505060405180910390f35b341561025a57600080fd5b610286600480803573ffffffffffffffffffffffffffffffffffffffff16906020019091905050610d46565b6040518082815260200191505060405180910390f35b34156102a757600080fd5b6102af610d5e565b604051808215151515815260200191505060405180910390f35b34156102d457600080fd5b610309600480803573ffffffffffffffffffffffffffffffffffffffff16906020019091908035906020019091905050610d71565b005b341561031657600080fd5b61031e610dfc565b604051808267ffffffffffffffff1667ffffffffffffffff16815260200191505060405180910390f35b341561035357600080fd5b61035b610e16565b6040518082815260200191505060405180910390f35b341561037c57600080fd5b610384610e1c565b005b6103b2600480803573ffffffffffffffffffffffffffffffffffffffff16906020019091905050610711565b005b34156103bf57600080fd5b6103c7610edc565b604051808215151515815260200191505060405180910390f35b34156103ec57600080fd5b6103f4610eef565b604051808273ffffffffffffffffffffffffffffffffffffffff1673ffffffffffffffffffffffffffffffffffffffff16815260200191505060405180910390f35b341561044157600080fd5b610449610f14565b604051808215151515815260200191505060405180910390f35b341561046e57600080fd5b61049a600480803573ffffffffffffffffffffffffffffffffffffffff16906020019091905050610f22565b005b34156104a757600080fd5b6104d3600480803573ffffffffffffffffffffffffffffffffffffffff1690602001909190505061109c565b6040518082815260200191505060405180910390f35b34156104f457600080fd5b610520600480803573ffffffffffffffffffffffffffffffffffffffff169060200190919050506110b4565b604051808215151515815260200191505060405180910390f35b341561054557600080fd5b6105926004808035906020019082018035906020019080806020026020016040519081016040528093929190818152602001838360200280828437820191505050505050919050506110d4565b005b341561059f57600080fd5b6105cb600480803573ffffffffffffffffffffffffffffffffffffffff169060200190919050506111cc565b005b34156105d857600080fd5b6105e06112a6565b604051808273ffffffffffffffffffffffffffffffffffffffff1673ffffffffffffffffffffffffffffffffffffffff16815260200191505060405180910390f35b341561062d57600080fd5b6106356112cc565b604051808273ffffffffffffffffffffffffffffffffffffffff1673ffffffffffffffffffffffffffffffffffffffff16815260200191505060405180910390f35b341561068257600080fd5b61070f600480803590602001908201803590602001908080602002602001604051908101604052809392919081815260200183836020028082843782019150505050505091908035906020019082018035906020019080806020026020016040519081016040528093929190818152602001838360200280828437820191505050505050919050506112f2565b005b60008060008060008086600160008273ffffffffffffffffffffffffffffffffffffffff1673ffffffffffffffffffffffffffffffffffffffff16815260200190815260200160002060009054906101000a900460ff16151561077357600080fd5b600460009054906101000a900460ff1615151561078f57600080fd5b60008873ffffffffffffffffffffffffffffffffffffffff16141515156107b557600080fd5b6107bd6113b4565b15156107c857600080fd5b600260008973ffffffffffffffffffffffffffffffffffffffff1673ffffffffffffffffffffffffffffffffffffffff16815260200190815260200160002054965060008711151561081957600080fd5b349550610865600a60008a73ffffffffffffffffffffffffffffffffffffffff1673ffffffffffffffffffffffffffffffffffffffff1681526020019081526020016000205487611433565b9450868511156108bf576108b887600a60008b73ffffffffffffffffffffffffffffffffffffffff1673ffffffffffffffffffffffffffffffffffffffff16815260200190815260200160002054611451565b93506108c3565b8593505b6000841115156108d257600080fd5b8386101515156108e157600080fd5b6108ed8460065461146a565b92506108f98685611451565b915061090760075485611433565b600781905550610956600a60008a73ffffffffffffffffffffffffffffffffffffffff1673ffffffffffffffffffffffffffffffffffffffff1681526020019081526020016000205485611433565b600a60008a73ffffffffffffffffffffffffffffffffffffffff1673ffffffffffffffffffffffffffffffffffffffff16815260200190815260200160002081905550600460019054906101000a900473ffffffffffffffffffffffffffffffffffffffff1673ffffffffffffffffffffffffffffffffffffffff1663827f32c089856000604051602001526040518363ffffffff167c0100000000000000000000000000000000000000000000000000000000028152600401808373ffffffffffffffffffffffffffffffffffffffff1673ffffffffffffffffffffffffffffffffffffffff16815260200182815260200192505050602060405180830381600087803b1515610a6657600080fd5b6102c65a03f11515610a7757600080fd5b50505060405180519050506000821115610acc573373ffffffffffffffffffffffffffffffffffffffff166108fc839081150290604051600060405180830381858888f193505050501515610acb57600080fd5b5b610ad58461149d565b8773ffffffffffffffffffffffffffffffffffffffff163373ffffffffffffffffffffffffffffffffffffffff167f892886e12c91004a98b529d090d33b1fbcd7f0a2c7179a18ff621623d7979c208686604051808381526020018281526020019250505060405180910390a35050505050505050565b60065481565b6000809054906101000a900473ffffffffffffffffffffffffffffffffffffffff1673ffffffffffffffffffffffffffffffffffffffff163373ffffffffffffffffffffffffffffffffffffffff16141515610bad57600080fd5b80600160008273ffffffffffffffffffffffffffffffffffffffff1673ffffffffffffffffffffffffffffffffffffffff16815260200190815260200160002060009054906101000a900460ff161515610c0657600080fd5b6000600a60008473ffffffffffffffffffffffffffffffffffffffff1673ffffffffffffffffffffffffffffffffffffffff16815260200190815260200160002054141515610c5457600080fd5b610c5d82611571565b5050565b600960089054906101000a900467ffffffffffffffff1681565b60085481565b6000809054906101000a900473ffffffffffffffffffffffffffffffffffffffff1673ffffffffffffffffffffffffffffffffffffffff163373ffffffffffffffffffffffffffffffffffffffff16141515610cdc57600080fd5b600460009054906101000a900460ff161515610cf757600080fd5b6000600460006101000a81548160ff0219169083151502179055507f7805862f689e2f13df9f062ff482ad3ad112aca9e0847911ed832e158c525b3360405160405180910390a1565b60075481565b60026020528060005260406000206000915090505481565b600460009054906101000a900460ff1681565b60008060009054906101000a900473ffffffffffffffffffffffffffffffffffffffff1673ffffffffffffffffffffffffffffffffffffffff163373ffffffffffffffffffffffffffffffffffffffff16141515610dce57600080fd5b610dda60035483611433565b90508060085410151515610ded57600080fd5b610df7838361175a565b505050565b600960009054906101000a900467ffffffffffffffff1681565b60035481565b6000809054906101000a900473ffffffffffffffffffffffffffffffffffffffff1673ffffffffffffffffffffffffffffffffffffffff163373ffffffffffffffffffffffffffffffffffffffff16141515610e7757600080fd5b600460009054906101000a900460ff16151515610e9357600080fd5b6001600460006101000a81548160ff0219169083151502179055507f6985a02210a168e66602d3235cb6db0e70f92b3ba4d376a33c0f3d9434bff62560405160405180910390a1565b600960109054906101000a900460ff1681565b6000809054906101000a900473ffffffffffffffffffffffffffffffffffffffff1681565b600060085460075414905090565b60008060009054906101000a900473ffffffffffffffffffffffffffffffffffffffff1673ffffffffffffffffffffffffffffffffffffffff163373ffffffffffffffffffffffffffffffffffffffff16141515610f7f57600080fd5b600960109054906101000a900460ff16151515610f9b57600080fd5b600960089054906101000a900467ffffffffffffffff1667ffffffffffffffff1642111515610fc957600080fd5b8190508073ffffffffffffffffffffffffffffffffffffffff1663ad2261226007546000604051602001526040518263ffffffff167c010000000000000000000000000000000000000000000000000000000002815260040180828152602001915050602060405180830381600087803b151561104557600080fd5b6102c65a03f1151561105657600080fd5b50505060405180519050151561106b57600080fd5b6110748261194c565b61107d82611a7a565b6001600960106101000a81548160ff0219169083151502179055505050565b600a6020528060005260406000206000915090505481565b60016020528060005260406000206000915054906101000a900460ff1681565b6000806000809054906101000a900473ffffffffffffffffffffffffffffffffffffffff1673ffffffffffffffffffffffffffffffffffffffff163373ffffffffffffffffffffffffffffffffffffffff1614151561113257600080fd5b600090505b82518110156111af576111a082600a6000868581518110151561115657fe5b9060200190602002015173ffffffffffffffffffffffffffffffffffffffff1673ffffffffffffffffffffffffffffffffffffffff16815260200190815260200160002054611433565b91508080600101915050611137565b6000821415156111be57600080fd5b6111c783611ba8565b505050565b6000809054906101000a900473ffffffffffffffffffffffffffffffffffffffff1673ffffffffffffffffffffffffffffffffffffffff163373ffffffffffffffffffffffffffffffffffffffff1614151561122757600080fd5b600073ffffffffffffffffffffffffffffffffffffffff168173ffffffffffffffffffffffffffffffffffffffff161415151561126357600080fd5b806000806101000a81548173ffffffffffffffffffffffffffffffffffffffff021916908373ffffffffffffffffffffffffffffffffffffffff16021790555050565b600560009054906101000a900473ffffffffffffffffffffffffffffffffffffffff1681565b600460019054906101000a900473ffffffffffffffffffffffffffffffffffffffff1681565b6000806000809054906101000a900473ffffffffffffffffffffffffffffffffffffffff1673ffffffffffffffffffffffffffffffffffffffff163373ffffffffffffffffffffffffffffffffffffffff1614151561135057600080fd5b6003549150600090505b83518110156113935761138482848381518110151561137557fe5b90602001906020020151611433565b9150808060010191505061135a565b81600854101515156113a457600080fd5b6113ae8484611e20565b50505050565b6000806000803414159150600960009054906101000a900467ffffffffffffffff1667ffffffffffffffff16421015801561140f5750600960089054906101000a900467ffffffffffffffff1667ffffffffffffffff164211155b90508180156114235750611421610f14565b155b801561142c5750805b9250505090565b600080828401905083811015151561144757fe5b8091505092915050565b600082821115151561145f57fe5b818303905092915050565b6000808284029050600084148061148b575082848281151561148857fe5b04145b151561149357fe5b8091505092915050565b600560009054906101000a900473ffffffffffffffffffffffffffffffffffffffff1673ffffffffffffffffffffffffffffffffffffffff1663f340fa0182336040518363ffffffff167c0100000000000000000000000000000000000000000000000000000000028152600401808273ffffffffffffffffffffffffffffffffffffffff1673ffffffffffffffffffffffffffffffffffffffff1681526020019150506000604051808303818588803b151561155957600080fd5b6125ee5a03f1151561156a57600080fd5b5050505050565b6000809054906101000a900473ffffffffffffffffffffffffffffffffffffffff1673ffffffffffffffffffffffffffffffffffffffff163373ffffffffffffffffffffffffffffffffffffffff161415156115cc57600080fd5b80600160008273ffffffffffffffffffffffffffffffffffffffff1673ffffffffffffffffffffffffffffffffffffffff16815260200190815260200160002060009054906101000a900460ff16151561162557600080fd5b611670600354600260008573ffffffffffffffffffffffffffffffffffffffff1673ffffffffffffffffffffffffffffffffffffffff16815260200190815260200160002054611451565b6003819055506000600160008473ffffffffffffffffffffffffffffffffffffffff1673ffffffffffffffffffffffffffffffffffffffff16815260200190815260200160002060006101000a81548160ff0219169083151502179055506000600260008473ffffffffffffffffffffffffffffffffffffffff1673ffffffffffffffffffffffffffffffffffffffff168152602001908152602001600020819055508173ffffffffffffffffffffffffffffffffffffffff167f75cd6de711483e11488a1cd9b66172abccb9e5c19572f92015a7880f0c8c0edc60405160405180910390a25050565b6000809054906101000a900473ffffffffffffffffffffffffffffffffffffffff1673ffffffffffffffffffffffffffffffffffffffff163373ffffffffffffffffffffffffffffffffffffffff161415156117b557600080fd5b600073ffffffffffffffffffffffffffffffffffffffff168273ffffffffffffffffffffffffffffffffffffffff1614158015611842575060001515600160008473ffffffffffffffffffffffffffffffffffffffff1673ffffffffffffffffffffffffffffffffffffffff16815260200190815260200160002060009054906101000a900460ff161515145b151561184d57600080fd5b60018060008473ffffffffffffffffffffffffffffffffffffffff1673ffffffffffffffffffffffffffffffffffffffff16815260200190815260200160002060006101000a81548160ff02191690831515021790555080600260008473ffffffffffffffffffffffffffffffffffffffff1673ffffffffffffffffffffffffffffffffffffffff168152602001908152602001600020819055506118f460035482611433565b6003819055508173ffffffffffffffffffffffffffffffffffffffff167f6f3bf3fa84e4763a43b3d23f9d79be242d6d5c834941ff4c1111b67469e1150c826040518082815260200191505060405180910390a25050565b6000809054906101000a900473ffffffffffffffffffffffffffffffffffffffff1673ffffffffffffffffffffffffffffffffffffffff163373ffffffffffffffffffffffffffffffffffffffff161415156119a757600080fd5b600460019054906101000a900473ffffffffffffffffffffffffffffffffffffffff1673ffffffffffffffffffffffffffffffffffffffff16633cebb823826040518263ffffffff167c0100000000000000000000000000000000000000000000000000000000028152600401808273ffffffffffffffffffffffffffffffffffffffff1673ffffffffffffffffffffffffffffffffffffffff168152602001915050600060405180830381600087803b1515611a6357600080fd5b6102c65a03f11515611a7457600080fd5b50505050565b6000809054906101000a900473ffffffffffffffffffffffffffffffffffffffff1673ffffffffffffffffffffffffffffffffffffffff163373ffffffffffffffffffffffffffffffffffffffff16141515611ad557600080fd5b600560009054906101000a900473ffffffffffffffffffffffffffffffffffffffff1673ffffffffffffffffffffffffffffffffffffffff1663f2fde38b826040518263ffffffff167c0100000000000000000000000000000000000000000000000000000000028152600401808273ffffffffffffffffffffffffffffffffffffffff1673ffffffffffffffffffffffffffffffffffffffff168152602001915050600060405180830381600087803b1515611b9157600080fd5b6102c65a03f11515611ba257600080fd5b50505050565b60008060009054906101000a900473ffffffffffffffffffffffffffffffffffffffff1673ffffffffffffffffffffffffffffffffffffffff163373ffffffffffffffffffffffffffffffffffffffff16141515611c0557600080fd5b600090505b8151811015611e1c57600160008383815181101515611c2557fe5b9060200190602002015173ffffffffffffffffffffffffffffffffffffffff1673ffffffffffffffffffffffffffffffffffffffff16815260200190815260200160002060009054906101000a900460ff161515611c8257600080fd5b611ce4600354600260008585815181101515611c9a57fe5b9060200190602002015173ffffffffffffffffffffffffffffffffffffffff1673ffffffffffffffffffffffffffffffffffffffff16815260200190815260200160002054611451565b6003819055506000600160008484815181101515611cfe57fe5b9060200190602002015173ffffffffffffffffffffffffffffffffffffffff1673ffffffffffffffffffffffffffffffffffffffff16815260200190815260200160002060006101000a81548160ff0219169083151502179055506000600260008484815181101515611d6d57fe5b9060200190602002015173ffffffffffffffffffffffffffffffffffffffff1673ffffffffffffffffffffffffffffffffffffffff168152602001908152602001600020819055508181815181101515611dc357fe5b9060200190602002015173ffffffffffffffffffffffffffffffffffffffff167f75cd6de711483e11488a1cd9b66172abccb9e5c19572f92015a7880f0c8c0edc60405160405180910390a28080600101915050611c0a565b5050565b60008060009054906101000a900473ffffffffffffffffffffffffffffffffffffffff1673ffffffffffffffffffffffffffffffffffffffff163373ffffffffffffffffffffffffffffffffffffffff16141515611e7d57600080fd5b600090505b82518110156120e357600073ffffffffffffffffffffffffffffffffffffffff168382815181101515611eb157fe5b9060200190602002015173ffffffffffffffffffffffffffffffffffffffff1614158015611f46575060001515600160008584815181101515611ef057fe5b9060200190602002015173ffffffffffffffffffffffffffffffffffffffff1673ffffffffffffffffffffffffffffffffffffffff16815260200190815260200160002060009054906101000a900460ff161515145b1515611f5157600080fd5b60018060008584815181101515611f6457fe5b9060200190602002015173ffffffffffffffffffffffffffffffffffffffff1673ffffffffffffffffffffffffffffffffffffffff16815260200190815260200160002060006101000a81548160ff0219169083151502179055508181815181101515611fcd57fe5b90602001906020020151600260008584815181101515611fe957fe5b9060200190602002015173ffffffffffffffffffffffffffffffffffffffff1673ffffffffffffffffffffffffffffffffffffffff16815260200190815260200160002081905550612054600354838381518110151561204557fe5b90602001906020020151611433565b600381905550828181518110151561206857fe5b9060200190602002015173ffffffffffffffffffffffffffffffffffffffff167f6f3bf3fa84e4763a43b3d23f9d79be242d6d5c834941ff4c1111b67469e1150c83838151811015156120b757fe5b906020019060200201516040518082815260200191505060405180910390a28080600101915050611e82565b5050505600a165627a7a723058207c94ad0d97ab8f7819ada6024902bed85553c0a52b2fc4336159ead8c5a257a90029",
  "source": "pragma solidity ^0.4.18;\n\nimport './ownership/Ownable.sol';\nimport './vault/RefundVault.sol';\nimport './ATC.sol';\nimport './kyc/PresaleKYC.sol';\nimport './lifecycle/Pausable.sol';\nimport './math/SafeMath.sol';\n\ncontract PresaleFallbackReceiver {\n    function presaleFallBack(uint256 _presaleWeiRaised) public returns (bool);\n}\n\ncontract ATCPresale is Ownable, PresaleKYC, Pausable {\n  ATC public token;\n  RefundVault public vault;\n\n  uint256 public rate;\n  uint256 public weiRaised;\n  uint256 public maxEtherCap;\n  uint64 public startTime;\n  uint64 public endTime;\n\n  bool public isFinalized;\n  mapping (address => uint256) public beneficiaryFunded;\n\n  event PresaleTokenPurchase(address indexed buyer, address indexed beneficiary, uint256 toFund, uint256 tokens);\n\n  function ATCPresale(\n    address _token,\n    address _vault,\n    uint64 _startTime,\n    uint64 _endTime,\n    uint256 _maxEtherCap,\n    uint256 _rate\n    ) {\n      require(_token != 0x00 && _vault != 0x00);\n      require(now < _startTime && _startTime < _endTime);\n      require(_maxEtherCap > 0);\n      require(_rate > 0);\n\n      token = ATC(_token);\n      vault = RefundVault(_vault);\n      startTime = _startTime;\n      endTime = _endTime;\n      maxEtherCap = _maxEtherCap;\n      rate = _rate;\n    }\n\n  function () payable {\n    buyPresale(msg.sender);\n  }\n\n  function register(address _addr, uint256 _maxGuaranteedLimit)\n    public\n    onlyOwner\n  {\n    uint256 postTotalPresaleGuaranteedLimit = add(totalPresaleGuaranteedLimit, _maxGuaranteedLimit);\n    require(maxEtherCap >= postTotalPresaleGuaranteedLimit);\n\n    super.register(_addr, _maxGuaranteedLimit);\n  }\n\n  function registerByList(address[] _addrs, uint256[] _maxGuaranteedLimits)\n    public\n    onlyOwner\n  {\n    uint256 postTotalPresaleGuaranteedLimit = totalPresaleGuaranteedLimit;\n    for(uint256 i = 0; i < _addrs.length; i++) {\n      postTotalPresaleGuaranteedLimit = add(postTotalPresaleGuaranteedLimit, _maxGuaranteedLimits[i]);\n    }\n    require(maxEtherCap >= postTotalPresaleGuaranteedLimit);\n\n    super.registerByList(_addrs, _maxGuaranteedLimits);\n  }\n\n  function unregister(address _addr)\n    public\n    onlyOwner\n    onlyRegistered(_addr)\n  {\n    require(beneficiaryFunded[_addr] == 0);\n    super.unregister(_addr);\n  }\n\n  /**\n   * @dev unregister the registered addresses\n   * @param _addrs address[] The addresses to unregister for token sale\n   */\n  function unregisterByList(address[] _addrs)\n    public\n    onlyOwner\n  {\n    uint256 totalbeneficiaryFunded;\n    for(uint256 i = 0; i < _addrs.length; i++) {\n      totalbeneficiaryFunded = add(totalbeneficiaryFunded, beneficiaryFunded[_addrs[i]]);\n    }\n    require(totalbeneficiaryFunded == 0);\n    super.unregisterByList(_addrs);\n  }\n\n  function buyPresale(address beneficiary)\n    payable\n    onlyRegistered(beneficiary)\n    whenNotPaused\n  {\n    // check validity\n    require(beneficiary != 0x00);\n    require(validPurchase());\n    uint guaranteedLimit = presaleGuaranteedLimit[beneficiary];\n    require(guaranteedLimit > 0);\n\n    // calculate eth amount\n    uint256 weiAmount = msg.value;\n    uint256 totalAmount = add(beneficiaryFunded[beneficiary], weiAmount);\n\n    uint256 toFund;\n\n    if (totalAmount > guaranteedLimit) {\n      toFund = sub(guaranteedLimit, beneficiaryFunded[beneficiary]);\n    } else {\n      toFund = weiAmount;\n    }\n\n    require(toFund > 0);\n    require(weiAmount >= toFund);\n\n    uint256 tokens = mul(toFund, rate);\n    uint256 toReturn = sub(weiAmount, toFund);\n\n    weiRaised = add(weiRaised, toFund);\n    beneficiaryFunded[beneficiary] = add(beneficiaryFunded[beneficiary], toFund);\n\n    //TODO: Error check\n    token.generateTokens(beneficiary, tokens);\n\n    if (toReturn > 0) {\n      msg.sender.transfer(toReturn);\n    }\n    forwardFunds(toFund);\n    PresaleTokenPurchase(msg.sender, beneficiary, toFund, tokens);\n  }\n\n  function validPurchase() internal constant returns (bool) {\n    bool nonZeroPurchase = msg.value != 0;\n    bool validTime = now >= startTime && now <= endTime;\n    return nonZeroPurchase && !maxReached() && validTime;\n  }\n\n  /**\n   * @dev Checks whether maxEtherCap is reached\n   * @return true if max ether cap is reaced\n   */\n  function maxReached() public constant returns (bool) {\n    return weiRaised == maxEtherCap;\n  }\n\n  function forwardFunds(uint256 toFund) internal {\n    vault.deposit.value(toFund)(msg.sender);\n  }\n\n  event Log(string messgae); // for dev\n\n  function finalizePresale(\n    address newOwner\n    ) onlyOwner {\n      require(!isFinalized);\n      require(now > endTime);\n\n      PresaleFallbackReceiver crowdsale = PresaleFallbackReceiver(newOwner);\n\n      require(crowdsale.presaleFallBack(weiRaised));\n\n      changeTokenController(newOwner);\n      changeVaultOwner(newOwner);\n\n      isFinalized = true;\n  }\n  function changeTokenController(address newOwner) onlyOwner internal {\n    token.changeController(newOwner);\n  }\n  function changeVaultOwner(address newOwner) onlyOwner internal {\n    vault.transferOwnership(newOwner);\n  }\n}\n",
  "sourcePath": "/Users/midinpa/workspace/dapps/aston-crowdsale/contracts/ATCPresale.sol",
  "compiler": {
    "name": "solc",
    "version": "0.4.18+commit.9cf6e910.Emscripten.clang"
  },
  "schemaVersion": "1.0.1",
  "updatedAt": "2017-11-23T05:43:28.837Z"
}