{
  "contractName": "ATCPresale",
  "abi": [
    {
      "constant": true,
      "inputs": [],
      "name": "rate",
      "outputs": [
        {
          "name": "",
          "type": "uint256"
        }
      ],
      "payable": false,
      "stateMutability": "view",
      "type": "function"
    },
    {
      "constant": false,
      "inputs": [
        {
          "name": "_addr",
          "type": "address"
        }
      ],
      "name": "unregister",
      "outputs": [],
      "payable": false,
      "stateMutability": "nonpayable",
      "type": "function"
    },
    {
      "constant": true,
      "inputs": [],
      "name": "endTime",
      "outputs": [
        {
          "name": "",
          "type": "uint64"
        }
      ],
      "payable": false,
      "stateMutability": "view",
      "type": "function"
    },
    {
      "constant": true,
      "inputs": [],
      "name": "maxEtherCap",
      "outputs": [
        {
          "name": "",
          "type": "uint256"
        }
      ],
      "payable": false,
      "stateMutability": "view",
      "type": "function"
    },
    {
      "constant": false,
      "inputs": [],
      "name": "unpause",
      "outputs": [],
      "payable": false,
      "stateMutability": "nonpayable",
      "type": "function"
    },
    {
      "constant": true,
      "inputs": [],
      "name": "weiRaised",
      "outputs": [
        {
          "name": "",
          "type": "uint256"
        }
      ],
      "payable": false,
      "stateMutability": "view",
      "type": "function"
    },
    {
      "constant": true,
      "inputs": [
        {
          "name": "",
          "type": "address"
        }
      ],
      "name": "presaleGuaranteedLimit",
      "outputs": [
        {
          "name": "",
          "type": "uint256"
        }
      ],
      "payable": false,
      "stateMutability": "view",
      "type": "function"
    },
    {
      "constant": true,
      "inputs": [],
      "name": "paused",
      "outputs": [
        {
          "name": "",
          "type": "bool"
        }
      ],
      "payable": false,
      "stateMutability": "view",
      "type": "function"
    },
    {
      "constant": false,
      "inputs": [
        {
          "name": "_addr",
          "type": "address"
        },
        {
          "name": "_maxGuaranteedLimit",
          "type": "uint256"
        }
      ],
      "name": "register",
      "outputs": [],
      "payable": false,
      "stateMutability": "nonpayable",
      "type": "function"
    },
    {
      "constant": true,
      "inputs": [],
      "name": "startTime",
      "outputs": [
        {
          "name": "",
          "type": "uint64"
        }
      ],
      "payable": false,
      "stateMutability": "view",
      "type": "function"
    },
    {
      "constant": true,
      "inputs": [],
      "name": "publicRate",
      "outputs": [
        {
          "name": "",
          "type": "uint256"
        }
      ],
      "payable": false,
      "stateMutability": "view",
      "type": "function"
    },
    {
      "constant": false,
      "inputs": [],
      "name": "pause",
      "outputs": [],
      "payable": false,
      "stateMutability": "nonpayable",
      "type": "function"
    },
    {
      "constant": false,
      "inputs": [
        {
          "name": "beneficiary",
          "type": "address"
        }
      ],
      "name": "buyPresale",
      "outputs": [],
      "payable": true,
      "stateMutability": "payable",
      "type": "function"
    },
    {
      "constant": true,
      "inputs": [],
      "name": "isFinalized",
      "outputs": [
        {
          "name": "",
          "type": "bool"
        }
      ],
      "payable": false,
      "stateMutability": "view",
      "type": "function"
    },
    {
      "constant": true,
      "inputs": [],
      "name": "owner",
      "outputs": [
        {
          "name": "",
          "type": "address"
        }
      ],
      "payable": false,
      "stateMutability": "view",
      "type": "function"
    },
    {
      "constant": true,
      "inputs": [],
      "name": "maxReached",
      "outputs": [
        {
          "name": "",
          "type": "bool"
        }
      ],
      "payable": false,
      "stateMutability": "view",
      "type": "function"
    },
    {
      "constant": true,
      "inputs": [],
      "name": "kyc",
      "outputs": [
        {
          "name": "",
          "type": "address"
        }
      ],
      "payable": false,
      "stateMutability": "view",
      "type": "function"
    },
    {
      "constant": false,
      "inputs": [
        {
          "name": "newOwner",
          "type": "address"
        }
      ],
      "name": "finalizePresale",
      "outputs": [],
      "payable": false,
      "stateMutability": "nonpayable",
      "type": "function"
    },
    {
      "constant": true,
      "inputs": [
        {
          "name": "",
          "type": "address"
        }
      ],
      "name": "beneficiaryFunded",
      "outputs": [
        {
          "name": "",
          "type": "uint256"
        }
      ],
      "payable": false,
      "stateMutability": "view",
      "type": "function"
    },
    {
      "constant": true,
      "inputs": [
        {
          "name": "",
          "type": "address"
        }
      ],
      "name": "registeredAddress",
      "outputs": [
        {
          "name": "",
          "type": "bool"
        }
      ],
      "payable": false,
      "stateMutability": "view",
      "type": "function"
    },
    {
      "constant": false,
      "inputs": [
        {
          "name": "_claimToken",
          "type": "address"
        }
      ],
      "name": "claimTokens",
      "outputs": [],
      "payable": false,
      "stateMutability": "nonpayable",
      "type": "function"
    },
    {
      "constant": false,
      "inputs": [
        {
          "name": "_addrs",
          "type": "address[]"
        }
      ],
      "name": "unregisterByList",
      "outputs": [],
      "payable": false,
      "stateMutability": "nonpayable",
      "type": "function"
    },
    {
      "constant": false,
      "inputs": [
        {
          "name": "newOwner",
          "type": "address"
        }
      ],
      "name": "transferOwnership",
      "outputs": [],
      "payable": false,
      "stateMutability": "nonpayable",
      "type": "function"
    },
    {
      "constant": true,
      "inputs": [],
      "name": "vault",
      "outputs": [
        {
          "name": "",
          "type": "address"
        }
      ],
      "payable": false,
      "stateMutability": "view",
      "type": "function"
    },
    {
      "constant": true,
      "inputs": [],
      "name": "token",
      "outputs": [
        {
          "name": "",
          "type": "address"
        }
      ],
      "payable": false,
      "stateMutability": "view",
      "type": "function"
    },
    {
      "constant": false,
      "inputs": [
        {
          "name": "_addrs",
          "type": "address[]"
        },
        {
          "name": "_maxGuaranteedLimits",
          "type": "uint256[]"
        }
      ],
      "name": "registerByList",
      "outputs": [],
      "payable": false,
      "stateMutability": "nonpayable",
      "type": "function"
    },
    {
      "inputs": [
        {
          "name": "_token",
          "type": "address"
        },
        {
          "name": "_vault",
          "type": "address"
        },
        {
          "name": "_kyc",
          "type": "address"
        },
        {
          "name": "_startTime",
          "type": "uint64"
        },
        {
          "name": "_endTime",
          "type": "uint64"
        },
        {
          "name": "_maxEtherCap",
          "type": "uint256"
        },
        {
          "name": "_rate",
          "type": "uint256"
        },
        {
          "name": "_publicRate",
          "type": "uint256"
        }
      ],
      "payable": false,
      "stateMutability": "nonpayable",
      "type": "constructor"
    },
    {
      "payable": true,
      "stateMutability": "payable",
      "type": "fallback"
    },
    {
      "anonymous": false,
      "inputs": [
        {
          "indexed": true,
          "name": "buyer",
          "type": "address"
        },
        {
          "indexed": true,
          "name": "beneficiary",
          "type": "address"
        },
        {
          "indexed": false,
          "name": "toFund",
          "type": "uint256"
        },
        {
          "indexed": false,
          "name": "tokens",
          "type": "uint256"
        }
      ],
      "name": "PresaleTokenPurchase",
      "type": "event"
    },
    {
      "anonymous": false,
      "inputs": [
        {
          "indexed": false,
          "name": "_claimToken",
          "type": "address"
        },
        {
          "indexed": false,
          "name": "owner",
          "type": "address"
        },
        {
          "indexed": false,
          "name": "balance",
          "type": "uint256"
        }
      ],
      "name": "ClaimedTokens",
      "type": "event"
    },
    {
      "anonymous": false,
      "inputs": [
        {
          "indexed": false,
          "name": "messgae",
          "type": "string"
        }
      ],
      "name": "Log",
      "type": "event"
    },
    {
      "anonymous": false,
      "inputs": [],
      "name": "Pause",
      "type": "event"
    },
    {
      "anonymous": false,
      "inputs": [],
      "name": "Unpause",
      "type": "event"
    },
    {
      "anonymous": false,
      "inputs": [
        {
          "indexed": true,
          "name": "_addr",
          "type": "address"
        },
        {
          "indexed": false,
          "name": "_amount",
          "type": "uint256"
        }
      ],
      "name": "Registered",
      "type": "event"
    },
    {
      "anonymous": false,
      "inputs": [
        {
          "indexed": true,
          "name": "_addr",
          "type": "address"
        }
      ],
      "name": "Unregistered",
      "type": "event"
    }
  ],
  "bytecode": "0x60606040526000600360006101000a81548160ff02191690831515021790555034156200002b57600080fd5b60405161010080620027f083398101604052808051906020019091908051906020019091908051906020019091908051906020019091908051906020019091908051906020019091908051906020019091908051906020019091905050336000806101000a81548173ffffffffffffffffffffffffffffffffffffffff021916908373ffffffffffffffffffffffffffffffffffffffff16021790555060008873ffffffffffffffffffffffffffffffffffffffff161415801562000107575060008773ffffffffffffffffffffffffffffffffffffffff1614155b80156200012b575060008673ffffffffffffffffffffffffffffffffffffffff1614155b15156200013757600080fd5b8467ffffffffffffffff16421080156200016457508367ffffffffffffffff168567ffffffffffffffff16105b15156200017057600080fd5b6000831115156200018057600080fd5b600082118015620001915750600081115b15156200019d57600080fd5b87600360016101000a81548173ffffffffffffffffffffffffffffffffffffffff021916908373ffffffffffffffffffffffffffffffffffffffff16021790555086600460006101000a81548173ffffffffffffffffffffffffffffffffffffffff021916908373ffffffffffffffffffffffffffffffffffffffff16021790555085600560006101000a81548173ffffffffffffffffffffffffffffffffffffffff021916908373ffffffffffffffffffffffffffffffffffffffff16021790555084600a60006101000a81548167ffffffffffffffff021916908367ffffffffffffffff16021790555083600a60086101000a81548167ffffffffffffffff021916908367ffffffffffffffff160217905550826009819055508160068190555080600781905550505050505050505061251180620002df6000396000f300606060405260043610610154576000357c0100000000000000000000000000000000000000000000000000000000900463ffffffff1680632c4e722e1461015f5780632ec2c246146101885780633197cbb6146101c1578063326fd584146101fe5780633f4ba83a146102275780634042b66f1461023c57806346c092b2146102655780635c975abb146102b25780636d705ebb146102df57806378e97925146103215780637f1f05071461035e5780638456cb59146103875780638bbb9fca1461039c5780638d4e4083146103ca5780638da5cb5b146103f757806390135fec1461044c57806390d6b45f14610479578063927c4151146104ce578063a743fa5014610507578063ad1def4214610554578063df8de3e7146105a5578063eb5a458e146105de578063f2fde38b14610638578063fbfa77cf14610671578063fc0c546a146106c6578063ffc52a1f1461071b575b61015d336107b5565b005b341561016a57600080fd5b610172610e53565b6040518082815260200191505060405180910390f35b341561019357600080fd5b6101bf600480803573ffffffffffffffffffffffffffffffffffffffff16906020019091905050610e59565b005b34156101cc57600080fd5b6101d4610ff1565b604051808267ffffffffffffffff1667ffffffffffffffff16815260200191505060405180910390f35b341561020957600080fd5b61021161100b565b6040518082815260200191505060405180910390f35b341561023257600080fd5b61023a611011565b005b341561024757600080fd5b61024f6110d0565b6040518082815260200191505060405180910390f35b341561027057600080fd5b61029c600480803573ffffffffffffffffffffffffffffffffffffffff169060200190919050506110d6565b6040518082815260200191505060405180910390f35b34156102bd57600080fd5b6102c56110ee565b604051808215151515815260200191505060405180910390f35b34156102ea57600080fd5b61031f600480803573ffffffffffffffffffffffffffffffffffffffff16906020019091908035906020019091905050611101565b005b341561032c57600080fd5b6103346112e1565b604051808267ffffffffffffffff1667ffffffffffffffff16815260200191505060405180910390f35b341561036957600080fd5b6103716112fb565b6040518082815260200191505060405180910390f35b341561039257600080fd5b61039a611301565b005b6103c8600480803573ffffffffffffffffffffffffffffffffffffffff169060200190919050506107b5565b005b34156103d557600080fd5b6103dd6113c1565b604051808215151515815260200191505060405180910390f35b341561040257600080fd5b61040a6113d4565b604051808273ffffffffffffffffffffffffffffffffffffffff1673ffffffffffffffffffffffffffffffffffffffff16815260200191505060405180910390f35b341561045757600080fd5b61045f6113f9565b604051808215151515815260200191505060405180910390f35b341561048457600080fd5b61048c611407565b604051808273ffffffffffffffffffffffffffffffffffffffff1673ffffffffffffffffffffffffffffffffffffffff16815260200191505060405180910390f35b34156104d957600080fd5b610505600480803573ffffffffffffffffffffffffffffffffffffffff1690602001909190505061142d565b005b341561051257600080fd5b61053e600480803573ffffffffffffffffffffffffffffffffffffffff169060200190919050506115a7565b6040518082815260200191505060405180910390f35b341561055f57600080fd5b61058b600480803573ffffffffffffffffffffffffffffffffffffffff169060200190919050506115bf565b604051808215151515815260200191505060405180910390f35b34156105b057600080fd5b6105dc600480803573ffffffffffffffffffffffffffffffffffffffff169060200190919050506115df565b005b34156105e957600080fd5b610636600480803590602001908201803590602001908080602002602001604051908101604052809392919081815260200183836020028082843782019150505050505091905050611af7565b005b341561064357600080fd5b61066f600480803573ffffffffffffffffffffffffffffffffffffffff16906020019091905050611d07565b005b341561067c57600080fd5b610684611de1565b604051808273ffffffffffffffffffffffffffffffffffffffff1673ffffffffffffffffffffffffffffffffffffffff16815260200191505060405180910390f35b34156106d157600080fd5b6106d9611e07565b604051808273ffffffffffffffffffffffffffffffffffffffff1673ffffffffffffffffffffffffffffffffffffffff16815260200191505060405180910390f35b341561072657600080fd5b6107b360048080359060200190820180359060200190808060200260200160405190810160405280939291908181526020018383602002808284378201915050505050509190803590602001908201803590602001908080602002602001604051908101604052809392919081815260200183836020028082843782019150505050505091905050611e2d565b005b600080600080600080600080600360009054906101000a900460ff161515156107dd57600080fd5b60008973ffffffffffffffffffffffffffffffffffffffff161415151561080357600080fd5b61080b6120cc565b151561081657600080fd5b600160008a73ffffffffffffffffffffffffffffffffffffffff1673ffffffffffffffffffffffffffffffffffffffff16815260200190815260200160002060009054906101000a900460ff168061094a5750600560009054906101000a900473ffffffffffffffffffffffffffffffffffffffff1673ffffffffffffffffffffffffffffffffffffffff1663ad1def428a6000604051602001526040518263ffffffff167c0100000000000000000000000000000000000000000000000000000000028152600401808273ffffffffffffffffffffffffffffffffffffffff1673ffffffffffffffffffffffffffffffffffffffff168152602001915050602060405180830381600087803b151561092e57600080fd5b6102c65a03f1151561093f57600080fd5b505050604051805190505b151561095557600080fd5b349650869550600160008a73ffffffffffffffffffffffffffffffffffffffff1673ffffffffffffffffffffffffffffffffffffffff16815260200190815260200160002060009054906101000a900460ff1615610aa757600260008a73ffffffffffffffffffffffffffffffffffffffff1673ffffffffffffffffffffffffffffffffffffffff1681526020019081526020016000205494506000851115156109fe57600080fd5b610a47600b60008b73ffffffffffffffffffffffffffffffffffffffff1673ffffffffffffffffffffffffffffffffffffffff168152602001908152602001600020548861214b565b935084841115610a9d57610a9a85600b60008c73ffffffffffffffffffffffffffffffffffffffff1673ffffffffffffffffffffffffffffffffffffffff16815260200190815260200160002054612169565b95505b6006549750610b93565b600560009054906101000a900473ffffffffffffffffffffffffffffffffffffffff1673ffffffffffffffffffffffffffffffffffffffff1663ad1def428a6000604051602001526040518263ffffffff167c0100000000000000000000000000000000000000000000000000000000028152600401808273ffffffffffffffffffffffffffffffffffffffff1673ffffffffffffffffffffffffffffffffffffffff168152602001915050602060405180830381600087803b1515610b6c57600080fd5b6102c65a03f11515610b7d57600080fd5b5050506040518051905015610b925760075497505b5b610b9f6008548761214b565b9250600954831115610bbc57610bb9600954600854612169565b95505b600086111515610bcb57600080fd5b858710151515610bda57600080fd5b600088111515610be957600080fd5b610bf38689612182565b9150610bff8787612169565b9050610c0d6008548761214b565b600881905550610c5c600b60008b73ffffffffffffffffffffffffffffffffffffffff1673ffffffffffffffffffffffffffffffffffffffff168152602001908152602001600020548761214b565b600b60008b73ffffffffffffffffffffffffffffffffffffffff1673ffffffffffffffffffffffffffffffffffffffff16815260200190815260200160002081905550600360019054906101000a900473ffffffffffffffffffffffffffffffffffffffff1673ffffffffffffffffffffffffffffffffffffffff1663827f32c08a846000604051602001526040518363ffffffff167c0100000000000000000000000000000000000000000000000000000000028152600401808373ffffffffffffffffffffffffffffffffffffffff1673ffffffffffffffffffffffffffffffffffffffff16815260200182815260200192505050602060405180830381600087803b1515610d6c57600080fd5b6102c65a03f11515610d7d57600080fd5b50505060405180519050506000811115610dd2573373ffffffffffffffffffffffffffffffffffffffff166108fc829081150290604051600060405180830381858888f193505050501515610dd157600080fd5b5b610ddb866121b5565b8873ffffffffffffffffffffffffffffffffffffffff163373ffffffffffffffffffffffffffffffffffffffff167f892886e12c91004a98b529d090d33b1fbcd7f0a2c7179a18ff621623d7979c208885604051808381526020018281526020019250505060405180910390a3505050505050505050565b60065481565b6000809054906101000a900473ffffffffffffffffffffffffffffffffffffffff1673ffffffffffffffffffffffffffffffffffffffff163373ffffffffffffffffffffffffffffffffffffffff16141515610eb457600080fd5b80600160008273ffffffffffffffffffffffffffffffffffffffff1673ffffffffffffffffffffffffffffffffffffffff16815260200190815260200160002060009054906101000a900460ff161515610f0d57600080fd5b6000600160008473ffffffffffffffffffffffffffffffffffffffff1673ffffffffffffffffffffffffffffffffffffffff16815260200190815260200160002060006101000a81548160ff0219169083151502179055506000600260008473ffffffffffffffffffffffffffffffffffffffff1673ffffffffffffffffffffffffffffffffffffffff168152602001908152602001600020819055508173ffffffffffffffffffffffffffffffffffffffff167f75cd6de711483e11488a1cd9b66172abccb9e5c19572f92015a7880f0c8c0edc60405160405180910390a25050565b600a60089054906101000a900467ffffffffffffffff1681565b60095481565b6000809054906101000a900473ffffffffffffffffffffffffffffffffffffffff1673ffffffffffffffffffffffffffffffffffffffff163373ffffffffffffffffffffffffffffffffffffffff1614151561106c57600080fd5b600360009054906101000a900460ff16151561108757600080fd5b6000600360006101000a81548160ff0219169083151502179055507f7805862f689e2f13df9f062ff482ad3ad112aca9e0847911ed832e158c525b3360405160405180910390a1565b60085481565b60026020528060005260406000206000915090505481565b600360009054906101000a900460ff1681565b6000809054906101000a900473ffffffffffffffffffffffffffffffffffffffff1673ffffffffffffffffffffffffffffffffffffffff163373ffffffffffffffffffffffffffffffffffffffff1614151561115c57600080fd5b600073ffffffffffffffffffffffffffffffffffffffff168273ffffffffffffffffffffffffffffffffffffffff16141580156111e9575060001515600160008473ffffffffffffffffffffffffffffffffffffffff1673ffffffffffffffffffffffffffffffffffffffff16815260200190815260200160002060009054906101000a900460ff161515145b15156111f457600080fd5b60018060008473ffffffffffffffffffffffffffffffffffffffff1673ffffffffffffffffffffffffffffffffffffffff16815260200190815260200160002060006101000a81548160ff02191690831515021790555080600260008473ffffffffffffffffffffffffffffffffffffffff1673ffffffffffffffffffffffffffffffffffffffff168152602001908152602001600020819055508173ffffffffffffffffffffffffffffffffffffffff167f6f3bf3fa84e4763a43b3d23f9d79be242d6d5c834941ff4c1111b67469e1150c826040518082815260200191505060405180910390a25050565b600a60009054906101000a900467ffffffffffffffff1681565b60075481565b6000809054906101000a900473ffffffffffffffffffffffffffffffffffffffff1673ffffffffffffffffffffffffffffffffffffffff163373ffffffffffffffffffffffffffffffffffffffff1614151561135c57600080fd5b600360009054906101000a900460ff1615151561137857600080fd5b6001600360006101000a81548160ff0219169083151502179055507f6985a02210a168e66602d3235cb6db0e70f92b3ba4d376a33c0f3d9434bff62560405160405180910390a1565b600a60109054906101000a900460ff1681565b6000809054906101000a900473ffffffffffffffffffffffffffffffffffffffff1681565b600060095460085414905090565b600560009054906101000a900473ffffffffffffffffffffffffffffffffffffffff1681565b60008060009054906101000a900473ffffffffffffffffffffffffffffffffffffffff1673ffffffffffffffffffffffffffffffffffffffff163373ffffffffffffffffffffffffffffffffffffffff1614151561148a57600080fd5b600a60109054906101000a900460ff161515156114a657600080fd5b600a60089054906101000a900467ffffffffffffffff1667ffffffffffffffff16421115156114d457600080fd5b8190508073ffffffffffffffffffffffffffffffffffffffff1663ad2261226008546000604051602001526040518263ffffffff167c010000000000000000000000000000000000000000000000000000000002815260040180828152602001915050602060405180830381600087803b151561155057600080fd5b6102c65a03f1151561156157600080fd5b50505060405180519050151561157657600080fd5b61157f82612289565b611588826123b7565b6001600a60106101000a81548160ff0219169083151502179055505050565b600b6020528060005260406000206000915090505481565b60016020528060005260406000206000915054906101000a900460ff1681565b6000806000809054906101000a900473ffffffffffffffffffffffffffffffffffffffff1673ffffffffffffffffffffffffffffffffffffffff163373ffffffffffffffffffffffffffffffffffffffff1614151561163d57600080fd5b3073ffffffffffffffffffffffffffffffffffffffff16600360019054906101000a900473ffffffffffffffffffffffffffffffffffffffff1673ffffffffffffffffffffffffffffffffffffffff1663f77c47916000604051602001526040518163ffffffff167c0100000000000000000000000000000000000000000000000000000000028152600401602060405180830381600087803b15156116e257600080fd5b6102c65a03f115156116f357600080fd5b5050506040518051905073ffffffffffffffffffffffffffffffffffffffff1614156117ea57600360019054906101000a900473ffffffffffffffffffffffffffffffffffffffff1673ffffffffffffffffffffffffffffffffffffffff1663df8de3e7846040518263ffffffff167c0100000000000000000000000000000000000000000000000000000000028152600401808273ffffffffffffffffffffffffffffffffffffffff1673ffffffffffffffffffffffffffffffffffffffff168152602001915050600060405180830381600087803b15156117d557600080fd5b6102c65a03f115156117e657600080fd5b5050505b60008373ffffffffffffffffffffffffffffffffffffffff161415611886576000809054906101000a900473ffffffffffffffffffffffffffffffffffffffff1673ffffffffffffffffffffffffffffffffffffffff166108fc3073ffffffffffffffffffffffffffffffffffffffff16319081150290604051600060405180830381858888f19350505050151561188157600080fd5b611af2565b8291508173ffffffffffffffffffffffffffffffffffffffff166370a08231306000604051602001526040518263ffffffff167c0100000000000000000000000000000000000000000000000000000000028152600401808273ffffffffffffffffffffffffffffffffffffffff1673ffffffffffffffffffffffffffffffffffffffff168152602001915050602060405180830381600087803b151561192c57600080fd5b6102c65a03f1151561193d57600080fd5b5050506040518051905090508173ffffffffffffffffffffffffffffffffffffffff1663a9059cbb6000809054906101000a900473ffffffffffffffffffffffffffffffffffffffff16836000604051602001526040518363ffffffff167c0100000000000000000000000000000000000000000000000000000000028152600401808373ffffffffffffffffffffffffffffffffffffffff1673ffffffffffffffffffffffffffffffffffffffff16815260200182815260200192505050602060405180830381600087803b1515611a1557600080fd5b6102c65a03f11515611a2657600080fd5b50505060405180519050507ff931edb47c50b4b4104c187b5814a9aef5f709e17e2ecf9617e860cacade929c836000809054906101000a900473ffffffffffffffffffffffffffffffffffffffff1683604051808473ffffffffffffffffffffffffffffffffffffffff1673ffffffffffffffffffffffffffffffffffffffff1681526020018373ffffffffffffffffffffffffffffffffffffffff1673ffffffffffffffffffffffffffffffffffffffff168152602001828152602001935050505060405180910390a15b505050565b60008060009054906101000a900473ffffffffffffffffffffffffffffffffffffffff1673ffffffffffffffffffffffffffffffffffffffff163373ffffffffffffffffffffffffffffffffffffffff16141515611b5457600080fd5b600090505b8151811015611d0357600160008383815181101515611b7457fe5b9060200190602002015173ffffffffffffffffffffffffffffffffffffffff1673ffffffffffffffffffffffffffffffffffffffff16815260200190815260200160002060009054906101000a900460ff161515611bd157600080fd5b6000600160008484815181101515611be557fe5b9060200190602002015173ffffffffffffffffffffffffffffffffffffffff1673ffffffffffffffffffffffffffffffffffffffff16815260200190815260200160002060006101000a81548160ff0219169083151502179055506000600260008484815181101515611c5457fe5b9060200190602002015173ffffffffffffffffffffffffffffffffffffffff1673ffffffffffffffffffffffffffffffffffffffff168152602001908152602001600020819055508181815181101515611caa57fe5b9060200190602002015173ffffffffffffffffffffffffffffffffffffffff167f75cd6de711483e11488a1cd9b66172abccb9e5c19572f92015a7880f0c8c0edc60405160405180910390a28080600101915050611b59565b5050565b6000809054906101000a900473ffffffffffffffffffffffffffffffffffffffff1673ffffffffffffffffffffffffffffffffffffffff163373ffffffffffffffffffffffffffffffffffffffff16141515611d6257600080fd5b600073ffffffffffffffffffffffffffffffffffffffff168173ffffffffffffffffffffffffffffffffffffffff1614151515611d9e57600080fd5b806000806101000a81548173ffffffffffffffffffffffffffffffffffffffff021916908373ffffffffffffffffffffffffffffffffffffffff16021790555050565b600460009054906101000a900473ffffffffffffffffffffffffffffffffffffffff1681565b600360019054906101000a900473ffffffffffffffffffffffffffffffffffffffff1681565b60008060009054906101000a900473ffffffffffffffffffffffffffffffffffffffff1673ffffffffffffffffffffffffffffffffffffffff163373ffffffffffffffffffffffffffffffffffffffff16141515611e8a57600080fd5b600090505b82518110156120c757600073ffffffffffffffffffffffffffffffffffffffff168382815181101515611ebe57fe5b9060200190602002015173ffffffffffffffffffffffffffffffffffffffff1614158015611f53575060001515600160008584815181101515611efd57fe5b9060200190602002015173ffffffffffffffffffffffffffffffffffffffff1673ffffffffffffffffffffffffffffffffffffffff16815260200190815260200160002060009054906101000a900460ff161515145b1515611f5e57600080fd5b60018060008584815181101515611f7157fe5b9060200190602002015173ffffffffffffffffffffffffffffffffffffffff1673ffffffffffffffffffffffffffffffffffffffff16815260200190815260200160002060006101000a81548160ff0219169083151502179055508181815181101515611fda57fe5b90602001906020020151600260008584815181101515611ff657fe5b9060200190602002015173ffffffffffffffffffffffffffffffffffffffff1673ffffffffffffffffffffffffffffffffffffffff16815260200190815260200160002081905550828181518110151561204c57fe5b9060200190602002015173ffffffffffffffffffffffffffffffffffffffff167f6f3bf3fa84e4763a43b3d23f9d79be242d6d5c834941ff4c1111b67469e1150c838381518110151561209b57fe5b906020019060200201516040518082815260200191505060405180910390a28080600101915050611e8f565b505050565b6000806000803414159150600a60009054906101000a900467ffffffffffffffff1667ffffffffffffffff1642101580156121275750600a60089054906101000a900467ffffffffffffffff1667ffffffffffffffff164211155b905081801561213b57506121396113f9565b155b80156121445750805b9250505090565b600080828401905083811015151561215f57fe5b8091505092915050565b600082821115151561217757fe5b818303905092915050565b600080828402905060008414806121a357508284828115156121a057fe5b04145b15156121ab57fe5b8091505092915050565b600460009054906101000a900473ffffffffffffffffffffffffffffffffffffffff1673ffffffffffffffffffffffffffffffffffffffff1663f340fa0182336040518363ffffffff167c0100000000000000000000000000000000000000000000000000000000028152600401808273ffffffffffffffffffffffffffffffffffffffff1673ffffffffffffffffffffffffffffffffffffffff1681526020019150506000604051808303818588803b151561227157600080fd5b6125ee5a03f1151561228257600080fd5b5050505050565b6000809054906101000a900473ffffffffffffffffffffffffffffffffffffffff1673ffffffffffffffffffffffffffffffffffffffff163373ffffffffffffffffffffffffffffffffffffffff161415156122e457600080fd5b600360019054906101000a900473ffffffffffffffffffffffffffffffffffffffff1673ffffffffffffffffffffffffffffffffffffffff16633cebb823826040518263ffffffff167c0100000000000000000000000000000000000000000000000000000000028152600401808273ffffffffffffffffffffffffffffffffffffffff1673ffffffffffffffffffffffffffffffffffffffff168152602001915050600060405180830381600087803b15156123a057600080fd5b6102c65a03f115156123b157600080fd5b50505050565b6000809054906101000a900473ffffffffffffffffffffffffffffffffffffffff1673ffffffffffffffffffffffffffffffffffffffff163373ffffffffffffffffffffffffffffffffffffffff1614151561241257600080fd5b600460009054906101000a900473ffffffffffffffffffffffffffffffffffffffff1673ffffffffffffffffffffffffffffffffffffffff1663f2fde38b826040518263ffffffff167c0100000000000000000000000000000000000000000000000000000000028152600401808273ffffffffffffffffffffffffffffffffffffffff1673ffffffffffffffffffffffffffffffffffffffff168152602001915050600060405180830381600087803b15156124ce57600080fd5b6102c65a03f115156124df57600080fd5b505050505600a165627a7a72305820b1b77e46bd9f2e9df61edc99bafdce4a2033330cb71944506262f157abf4f4560029",
  "source": "pragma solidity ^0.4.18;\n\nimport './ownership/Ownable.sol';\nimport './vault/RefundVault.sol';\nimport './ATC.sol';\nimport './kyc/PresaleKYC.sol';\nimport './lifecycle/Pausable.sol';\nimport './math/SafeMath.sol';\nimport './kyc/KYC.sol';\nimport './token/ERC20Basic.sol';\n\ncontract PresaleFallbackReceiver {\n    function presaleFallBack(uint256 _presaleWeiRaised) public returns (bool);\n}\n\ncontract ATCPresale is Ownable, PresaleKYC, Pausable {\n  ATC public token;\n  RefundVault public vault;\n  KYC public kyc;\n\n  uint256 public rate;\n  uint256 public publicRate;\n  uint256 public weiRaised;\n  uint256 public maxEtherCap;\n  uint64 public startTime;\n  uint64 public endTime;\n\n  bool public isFinalized;\n  mapping (address => uint256) public beneficiaryFunded;\n\n  event PresaleTokenPurchase(address indexed buyer, address indexed beneficiary, uint256 toFund, uint256 tokens);\n  event ClaimedTokens(address _claimToken, address owner, uint256 balance);\n\n  function ATCPresale(\n    address _token,\n    address _vault,\n    address _kyc,\n    uint64 _startTime,\n    uint64 _endTime,\n    uint256 _maxEtherCap,\n    uint256 _rate,\n    uint256 _publicRate\n    ) {\n      require(_token != 0x00 && _vault != 0x00 && _kyc != 0x00);\n      require(now < _startTime && _startTime < _endTime);\n      require(_maxEtherCap > 0);\n      require(_rate > 0 && _publicRate > 0);\n\n      token = ATC(_token);\n      vault = RefundVault(_vault);\n      kyc = KYC(_kyc);\n      startTime = _startTime;\n      endTime = _endTime;\n      maxEtherCap = _maxEtherCap;\n      rate = _rate;\n      publicRate = _publicRate;\n    }\n\n  function () payable {\n    buyPresale(msg.sender);\n  }\n\n  function buyPresale(address beneficiary)\n    payable\n    whenNotPaused\n  {\n    // check validity\n    require(beneficiary != 0x00);\n    require(validPurchase());\n\n    require(registeredAddress[beneficiary] || kyc.registeredAddress(beneficiary));\n\n    uint256 myRate;\n    uint256 weiAmount = msg.value;\n    uint256 toFund = weiAmount;\n\n    if (registeredAddress[beneficiary]) {\n      uint256 guaranteedLimit = presaleGuaranteedLimit[beneficiary];\n      require(guaranteedLimit > 0);\n\n      uint256 totalAmount = add(beneficiaryFunded[beneficiary], weiAmount);\n      if (totalAmount > guaranteedLimit) {\n        toFund = sub(guaranteedLimit, beneficiaryFunded[beneficiary]);\n      }\n      myRate = rate;\n\n    } else if (kyc.registeredAddress(beneficiary)) {\n      myRate = publicRate;\n    }\n\n    uint256 postWeiRaised = add(weiRaised, toFund);\n    if (postWeiRaised > maxEtherCap) {\n      toFund = sub(maxEtherCap, weiRaised);\n    }\n\n    require(toFund > 0);\n    require(weiAmount >= toFund);\n    require(myRate > 0);\n\n    uint256 tokens = mul(toFund, myRate);\n    uint256 toReturn = sub(weiAmount, toFund);\n\n    weiRaised = add(weiRaised, toFund);\n    beneficiaryFunded[beneficiary] = add(beneficiaryFunded[beneficiary], toFund);\n\n    //TODO: Error check\n    token.generateTokens(beneficiary, tokens);\n\n    if (toReturn > 0) {\n      msg.sender.transfer(toReturn);\n    }\n    forwardFunds(toFund);\n    PresaleTokenPurchase(msg.sender, beneficiary, toFund, tokens);\n  }\n\n  function validPurchase() internal constant returns (bool) {\n    bool nonZeroPurchase = msg.value != 0;\n    bool validTime = now >= startTime && now <= endTime;\n    return nonZeroPurchase && !maxReached() && validTime;\n  }\n\n  /**\n   * @dev Checks whether maxEtherCap is reached\n   * @return true if max ether cap is reaced\n   */\n  function maxReached() public constant returns (bool) {\n    return weiRaised == maxEtherCap;\n  }\n\n  function forwardFunds(uint256 toFund) internal {\n    vault.deposit.value(toFund)(msg.sender);\n  }\n\n  event Log(string messgae); // for dev\n\n  function finalizePresale(\n    address newOwner\n    ) onlyOwner {\n      require(!isFinalized);\n      require(now > endTime);\n\n      PresaleFallbackReceiver crowdsale = PresaleFallbackReceiver(newOwner);\n\n      require(crowdsale.presaleFallBack(weiRaised));\n\n      changeTokenController(newOwner);\n      changeVaultOwner(newOwner);\n\n      isFinalized = true;\n  }\n  function changeTokenController(address newOwner) onlyOwner internal {\n    token.changeController(newOwner);\n  }\n  function changeVaultOwner(address newOwner) onlyOwner internal {\n    vault.transferOwnership(newOwner);\n  }\n\n  function claimTokens(address _claimToken) public onlyOwner {\n\n    if (token.controller() == address(this)) {\n         token.claimTokens(_claimToken);\n    }\n\n    if (_claimToken == 0x0) {\n        owner.transfer(this.balance);\n        return;\n    }\n\n    ERC20Basic claimToken = ERC20Basic(_claimToken);\n    uint256 balance = claimToken.balanceOf(this);\n    claimToken.transfer(owner, balance);\n\n    ClaimedTokens(_claimToken, owner, balance);\n  }\n}\n",
  "sourcePath": "/Users/midinpa/workspace/dapps/aston-crowdsale/contracts/ATCPresale.sol",
  "compiler": {
    "name": "solc",
    "version": "0.4.18+commit.9cf6e910.Emscripten.clang"
  },
  "schemaVersion": "1.0.1",
  "updatedAt": "2017-11-27T09:08:50.497Z"
}