{
  "contractName": "ATCPresale",
  "abi": [
    {
      "constant": true,
      "inputs": [],
      "name": "rate",
      "outputs": [
        {
          "name": "",
          "type": "uint256"
        }
      ],
      "payable": false,
      "stateMutability": "view",
      "type": "function"
    },
    {
      "constant": false,
      "inputs": [
        {
          "name": "_addr",
          "type": "address"
        }
      ],
      "name": "unregister",
      "outputs": [],
      "payable": false,
      "stateMutability": "nonpayable",
      "type": "function"
    },
    {
      "constant": true,
      "inputs": [],
      "name": "endTime",
      "outputs": [
        {
          "name": "",
          "type": "uint64"
        }
      ],
      "payable": false,
      "stateMutability": "view",
      "type": "function"
    },
    {
      "constant": true,
      "inputs": [],
      "name": "maxEtherCap",
      "outputs": [
        {
          "name": "",
          "type": "uint256"
        }
      ],
      "payable": false,
      "stateMutability": "view",
      "type": "function"
    },
    {
      "constant": false,
      "inputs": [],
      "name": "unpause",
      "outputs": [],
      "payable": false,
      "stateMutability": "nonpayable",
      "type": "function"
    },
    {
      "constant": true,
      "inputs": [],
      "name": "weiRaised",
      "outputs": [
        {
          "name": "",
          "type": "uint256"
        }
      ],
      "payable": false,
      "stateMutability": "view",
      "type": "function"
    },
    {
      "constant": true,
      "inputs": [
        {
          "name": "",
          "type": "address"
        }
      ],
      "name": "presaleGuaranteedLimit",
      "outputs": [
        {
          "name": "",
          "type": "uint256"
        }
      ],
      "payable": false,
      "stateMutability": "view",
      "type": "function"
    },
    {
      "constant": true,
      "inputs": [
        {
          "name": "",
          "type": "address"
        }
      ],
      "name": "buyerFunded",
      "outputs": [
        {
          "name": "",
          "type": "uint256"
        }
      ],
      "payable": false,
      "stateMutability": "view",
      "type": "function"
    },
    {
      "constant": true,
      "inputs": [],
      "name": "paused",
      "outputs": [
        {
          "name": "",
          "type": "bool"
        }
      ],
      "payable": false,
      "stateMutability": "view",
      "type": "function"
    },
    {
      "constant": false,
      "inputs": [
        {
          "name": "_addr",
          "type": "address"
        },
        {
          "name": "_maxGuaranteedLimit",
          "type": "uint256"
        }
      ],
      "name": "register",
      "outputs": [],
      "payable": false,
      "stateMutability": "nonpayable",
      "type": "function"
    },
    {
      "constant": true,
      "inputs": [],
      "name": "startTime",
      "outputs": [
        {
          "name": "",
          "type": "uint64"
        }
      ],
      "payable": false,
      "stateMutability": "view",
      "type": "function"
    },
    {
      "constant": false,
      "inputs": [],
      "name": "pause",
      "outputs": [],
      "payable": false,
      "stateMutability": "nonpayable",
      "type": "function"
    },
    {
      "constant": false,
      "inputs": [
        {
          "name": "beneficiary",
          "type": "address"
        }
      ],
      "name": "buyPresale",
      "outputs": [],
      "payable": true,
      "stateMutability": "payable",
      "type": "function"
    },
    {
      "constant": true,
      "inputs": [],
      "name": "owner",
      "outputs": [
        {
          "name": "",
          "type": "address"
        }
      ],
      "payable": false,
      "stateMutability": "view",
      "type": "function"
    },
    {
      "constant": true,
      "inputs": [],
      "name": "maxReached",
      "outputs": [
        {
          "name": "",
          "type": "bool"
        }
      ],
      "payable": false,
      "stateMutability": "view",
      "type": "function"
    },
    {
      "constant": false,
      "inputs": [
        {
          "name": "newOwner",
          "type": "address"
        }
      ],
      "name": "finalizePresale",
      "outputs": [],
      "payable": false,
      "stateMutability": "nonpayable",
      "type": "function"
    },
    {
      "constant": true,
      "inputs": [
        {
          "name": "",
          "type": "address"
        }
      ],
      "name": "registeredAddress",
      "outputs": [
        {
          "name": "",
          "type": "bool"
        }
      ],
      "payable": false,
      "stateMutability": "view",
      "type": "function"
    },
    {
      "constant": false,
      "inputs": [
        {
          "name": "_addrs",
          "type": "address[]"
        }
      ],
      "name": "unregisterByList",
      "outputs": [],
      "payable": false,
      "stateMutability": "nonpayable",
      "type": "function"
    },
    {
      "constant": false,
      "inputs": [
        {
          "name": "newOwner",
          "type": "address"
        }
      ],
      "name": "transferOwnership",
      "outputs": [],
      "payable": false,
      "stateMutability": "nonpayable",
      "type": "function"
    },
    {
      "constant": true,
      "inputs": [],
      "name": "vault",
      "outputs": [
        {
          "name": "",
          "type": "address"
        }
      ],
      "payable": false,
      "stateMutability": "view",
      "type": "function"
    },
    {
      "constant": true,
      "inputs": [],
      "name": "token",
      "outputs": [
        {
          "name": "",
          "type": "address"
        }
      ],
      "payable": false,
      "stateMutability": "view",
      "type": "function"
    },
    {
      "constant": false,
      "inputs": [
        {
          "name": "_addrs",
          "type": "address[]"
        },
        {
          "name": "_maxGuaranteedLimits",
          "type": "uint256[]"
        }
      ],
      "name": "registerByList",
      "outputs": [],
      "payable": false,
      "stateMutability": "nonpayable",
      "type": "function"
    },
    {
      "inputs": [
        {
          "name": "_token",
          "type": "address"
        },
        {
          "name": "_vault",
          "type": "address"
        },
        {
          "name": "_reserveWallet",
          "type": "address[]"
        },
        {
          "name": "_startTime",
          "type": "uint64"
        },
        {
          "name": "_endTime",
          "type": "uint64"
        },
        {
          "name": "_maxEtherCap",
          "type": "uint256"
        },
        {
          "name": "_rate",
          "type": "uint256"
        }
      ],
      "payable": false,
      "stateMutability": "nonpayable",
      "type": "constructor"
    },
    {
      "payable": true,
      "stateMutability": "payable",
      "type": "fallback"
    },
    {
      "anonymous": false,
      "inputs": [
        {
          "indexed": true,
          "name": "buyer",
          "type": "address"
        },
        {
          "indexed": true,
          "name": "beneficiary",
          "type": "address"
        },
        {
          "indexed": false,
          "name": "toFund",
          "type": "uint256"
        },
        {
          "indexed": false,
          "name": "tokens",
          "type": "uint256"
        }
      ],
      "name": "PresaleTokenPurchase",
      "type": "event"
    },
    {
      "anonymous": false,
      "inputs": [],
      "name": "Pause",
      "type": "event"
    },
    {
      "anonymous": false,
      "inputs": [],
      "name": "Unpause",
      "type": "event"
    },
    {
      "anonymous": false,
      "inputs": [
        {
          "indexed": true,
          "name": "_addr",
          "type": "address"
        }
      ],
      "name": "Registered",
      "type": "event"
    },
    {
      "anonymous": false,
      "inputs": [
        {
          "indexed": true,
          "name": "_addr",
          "type": "address"
        }
      ],
      "name": "Unregistered",
      "type": "event"
    }
  ],
  "bytecode": "0x60606040526000600360006101000a81548160ff02191690831515021790555034156200002b57600080fd5b60405162001e1938038062001e1983398101604052808051906020019091908051906020019091908051820191906020018051906020019091908051906020019091908051906020019091908051906020019091905050336000806101000a81548173ffffffffffffffffffffffffffffffffffffffff021916908373ffffffffffffffffffffffffffffffffffffffff16021790555086600360016101000a81548173ffffffffffffffffffffffffffffffffffffffff021916908373ffffffffffffffffffffffffffffffffffffffff16021790555085600460006101000a81548173ffffffffffffffffffffffffffffffffffffffff021916908373ffffffffffffffffffffffffffffffffffffffff16021790555084600590805190602001906200015c929190620001ca565b5083600960006101000a81548167ffffffffffffffff021916908367ffffffffffffffff16021790555082600960086101000a81548167ffffffffffffffff021916908367ffffffffffffffff1602179055508160088190555080600681905550505050505050506200029f565b82805482825590600052602060002090810192821562000246579160200282015b82811115620002455782518260006101000a81548173ffffffffffffffffffffffffffffffffffffffff021916908373ffffffffffffffffffffffffffffffffffffffff16021790555091602001919060010190620001eb565b5b50905062000255919062000259565b5090565b6200029c91905b808211156200029857600081816101000a81549073ffffffffffffffffffffffffffffffffffffffff02191690555060010162000260565b5090565b90565b611b6a80620002af6000396000f300606060405260043610610128576000357c0100000000000000000000000000000000000000000000000000000000900463ffffffff1680632c4e722e146101335780632ec2c2461461015c5780633197cbb614610195578063326fd584146101d25780633f4ba83a146101fb5780634042b66f1461021057806346c092b2146102395780635a16c310146102865780635c975abb146102d35780636d705ebb1461030057806378e97925146103425780638456cb591461037f5780638bbb9fca146103945780638da5cb5b146103c257806390135fec14610417578063927c415114610444578063ad1def421461047d578063eb5a458e146104ce578063f2fde38b14610528578063fbfa77cf14610561578063fc0c546a146105b6578063ffc52a1f1461060b575b610131336106a5565b005b341561013e57600080fd5b610146610b0c565b6040518082815260200191505060405180910390f35b341561016757600080fd5b610193600480803573ffffffffffffffffffffffffffffffffffffffff16906020019091905050610b12565b005b34156101a057600080fd5b6101a8610caa565b604051808267ffffffffffffffff1667ffffffffffffffff16815260200191505060405180910390f35b34156101dd57600080fd5b6101e5610cc4565b6040518082815260200191505060405180910390f35b341561020657600080fd5b61020e610cca565b005b341561021b57600080fd5b610223610d89565b6040518082815260200191505060405180910390f35b341561024457600080fd5b610270600480803573ffffffffffffffffffffffffffffffffffffffff16906020019091905050610d8f565b6040518082815260200191505060405180910390f35b341561029157600080fd5b6102bd600480803573ffffffffffffffffffffffffffffffffffffffff16906020019091905050610da7565b6040518082815260200191505060405180910390f35b34156102de57600080fd5b6102e6610dbf565b604051808215151515815260200191505060405180910390f35b341561030b57600080fd5b610340600480803573ffffffffffffffffffffffffffffffffffffffff16906020019091908035906020019091905050610dd2565b005b341561034d57600080fd5b610355610fa7565b604051808267ffffffffffffffff1667ffffffffffffffff16815260200191505060405180910390f35b341561038a57600080fd5b610392610fc1565b005b6103c0600480803573ffffffffffffffffffffffffffffffffffffffff169060200190919050506106a5565b005b34156103cd57600080fd5b6103d5611081565b604051808273ffffffffffffffffffffffffffffffffffffffff1673ffffffffffffffffffffffffffffffffffffffff16815260200191505060405180910390f35b341561042257600080fd5b61042a6110a6565b604051808215151515815260200191505060405180910390f35b341561044f57600080fd5b61047b600480803573ffffffffffffffffffffffffffffffffffffffff169060200190919050506110b4565b005b341561048857600080fd5b6104b4600480803573ffffffffffffffffffffffffffffffffffffffff16906020019091905050611152565b604051808215151515815260200191505060405180910390f35b34156104d957600080fd5b610526600480803590602001908201803590602001908080602002602001604051908101604052809392919081815260200183836020028082843782019150505050505091905050611172565b005b341561053357600080fd5b61055f600480803573ffffffffffffffffffffffffffffffffffffffff16906020019091905050611382565b005b341561056c57600080fd5b61057461145c565b604051808273ffffffffffffffffffffffffffffffffffffffff1673ffffffffffffffffffffffffffffffffffffffff16815260200191505060405180910390f35b34156105c157600080fd5b6105c9611482565b604051808273ffffffffffffffffffffffffffffffffffffffff1673ffffffffffffffffffffffffffffffffffffffff16815260200191505060405180910390f35b341561061657600080fd5b6106a3600480803590602001908201803590602001908080602002602001604051908101604052809392919081815260200183836020028082843782019150505050505091908035906020019082018035906020019080806020026020016040519081016040528093929190818152602001838360200280828437820191505050505050919050506114a8565b005b600080600080600080600087600160008273ffffffffffffffffffffffffffffffffffffffff1673ffffffffffffffffffffffffffffffffffffffff16815260200190815260200160002060009054906101000a900460ff16151561070957600080fd5b600360009054906101000a900460ff1615151561072557600080fd5b60008973ffffffffffffffffffffffffffffffffffffffff161415151561074b57600080fd5b610753611725565b151561075e57600080fd5b600260008a73ffffffffffffffffffffffffffffffffffffffff1673ffffffffffffffffffffffffffffffffffffffff1681526020019081526020016000205497506000881115156107af57600080fd5b3496506107fb600a60008b73ffffffffffffffffffffffffffffffffffffffff1673ffffffffffffffffffffffffffffffffffffffff16815260200190815260200160002054886117a4565b9550878611156108555761084e88600a60008c73ffffffffffffffffffffffffffffffffffffffff1673ffffffffffffffffffffffffffffffffffffffff168152602001908152602001600020546117c2565b9450610859565b8694505b610865600754866117a4565b93506008548411156108825761087f6008546007546117c2565b94505b60008511151561089157600080fd5b8487101515156108a057600080fd5b6108ac856006546117db565b92506108b887866117c2565b91506108c6600754866117a4565b600781905550610915600a60008b73ffffffffffffffffffffffffffffffffffffffff1673ffffffffffffffffffffffffffffffffffffffff16815260200190815260200160002054866117a4565b600a60008b73ffffffffffffffffffffffffffffffffffffffff1673ffffffffffffffffffffffffffffffffffffffff16815260200190815260200160002081905550600360019054906101000a900473ffffffffffffffffffffffffffffffffffffffff1673ffffffffffffffffffffffffffffffffffffffff1663827f32c08a856000604051602001526040518363ffffffff167c0100000000000000000000000000000000000000000000000000000000028152600401808373ffffffffffffffffffffffffffffffffffffffff1673ffffffffffffffffffffffffffffffffffffffff16815260200182815260200192505050602060405180830381600087803b1515610a2557600080fd5b6102c65a03f11515610a3657600080fd5b50505060405180519050506000821115610a8b573373ffffffffffffffffffffffffffffffffffffffff166108fc839081150290604051600060405180830381858888f193505050501515610a8a57600080fd5b5b610a948561180e565b8873ffffffffffffffffffffffffffffffffffffffff163373ffffffffffffffffffffffffffffffffffffffff167f892886e12c91004a98b529d090d33b1fbcd7f0a2c7179a18ff621623d7979c208786604051808381526020018281526020019250505060405180910390a3505050505050505050565b60065481565b6000809054906101000a900473ffffffffffffffffffffffffffffffffffffffff1673ffffffffffffffffffffffffffffffffffffffff163373ffffffffffffffffffffffffffffffffffffffff16141515610b6d57600080fd5b80600160008273ffffffffffffffffffffffffffffffffffffffff1673ffffffffffffffffffffffffffffffffffffffff16815260200190815260200160002060009054906101000a900460ff161515610bc657600080fd5b6000600160008473ffffffffffffffffffffffffffffffffffffffff1673ffffffffffffffffffffffffffffffffffffffff16815260200190815260200160002060006101000a81548160ff0219169083151502179055506000600260008473ffffffffffffffffffffffffffffffffffffffff1673ffffffffffffffffffffffffffffffffffffffff168152602001908152602001600020819055508173ffffffffffffffffffffffffffffffffffffffff167f75cd6de711483e11488a1cd9b66172abccb9e5c19572f92015a7880f0c8c0edc60405160405180910390a25050565b600960089054906101000a900467ffffffffffffffff1681565b60085481565b6000809054906101000a900473ffffffffffffffffffffffffffffffffffffffff1673ffffffffffffffffffffffffffffffffffffffff163373ffffffffffffffffffffffffffffffffffffffff16141515610d2557600080fd5b600360009054906101000a900460ff161515610d4057600080fd5b6000600360006101000a81548160ff0219169083151502179055507f7805862f689e2f13df9f062ff482ad3ad112aca9e0847911ed832e158c525b3360405160405180910390a1565b60075481565b60026020528060005260406000206000915090505481565b600a6020528060005260406000206000915090505481565b600360009054906101000a900460ff1681565b6000809054906101000a900473ffffffffffffffffffffffffffffffffffffffff1673ffffffffffffffffffffffffffffffffffffffff163373ffffffffffffffffffffffffffffffffffffffff16141515610e2d57600080fd5b600073ffffffffffffffffffffffffffffffffffffffff168273ffffffffffffffffffffffffffffffffffffffff1614158015610eba575060001515600160008473ffffffffffffffffffffffffffffffffffffffff1673ffffffffffffffffffffffffffffffffffffffff16815260200190815260200160002060009054906101000a900460ff161515145b1515610ec557600080fd5b60018060008473ffffffffffffffffffffffffffffffffffffffff1673ffffffffffffffffffffffffffffffffffffffff16815260200190815260200160002060006101000a81548160ff02191690831515021790555080600260008473ffffffffffffffffffffffffffffffffffffffff1673ffffffffffffffffffffffffffffffffffffffff168152602001908152602001600020819055508173ffffffffffffffffffffffffffffffffffffffff167f2d3734a8e47ac8316e500ac231c90a6e1848ca2285f40d07eaa52005e4b3a0e960405160405180910390a25050565b600960009054906101000a900467ffffffffffffffff1681565b6000809054906101000a900473ffffffffffffffffffffffffffffffffffffffff1673ffffffffffffffffffffffffffffffffffffffff163373ffffffffffffffffffffffffffffffffffffffff1614151561101c57600080fd5b600360009054906101000a900460ff1615151561103857600080fd5b6001600360006101000a81548160ff0219169083151502179055507f6985a02210a168e66602d3235cb6db0e70f92b3ba4d376a33c0f3d9434bff62560405160405180910390a1565b6000809054906101000a900473ffffffffffffffffffffffffffffffffffffffff1681565b600060085460075414905090565b6000809054906101000a900473ffffffffffffffffffffffffffffffffffffffff1673ffffffffffffffffffffffffffffffffffffffff163373ffffffffffffffffffffffffffffffffffffffff1614151561110f57600080fd5b600960089054906101000a900467ffffffffffffffff1667ffffffffffffffff164211151561113d57600080fd5b611146816118e2565b61114f81611a10565b50565b60016020528060005260406000206000915054906101000a900460ff1681565b60008060009054906101000a900473ffffffffffffffffffffffffffffffffffffffff1673ffffffffffffffffffffffffffffffffffffffff163373ffffffffffffffffffffffffffffffffffffffff161415156111cf57600080fd5b600090505b815181101561137e576001600083838151811015156111ef57fe5b9060200190602002015173ffffffffffffffffffffffffffffffffffffffff1673ffffffffffffffffffffffffffffffffffffffff16815260200190815260200160002060009054906101000a900460ff16151561124c57600080fd5b600060016000848481518110151561126057fe5b9060200190602002015173ffffffffffffffffffffffffffffffffffffffff1673ffffffffffffffffffffffffffffffffffffffff16815260200190815260200160002060006101000a81548160ff02191690831515021790555060006002600084848151811015156112cf57fe5b9060200190602002015173ffffffffffffffffffffffffffffffffffffffff1673ffffffffffffffffffffffffffffffffffffffff16815260200190815260200160002081905550818181518110151561132557fe5b9060200190602002015173ffffffffffffffffffffffffffffffffffffffff167f75cd6de711483e11488a1cd9b66172abccb9e5c19572f92015a7880f0c8c0edc60405160405180910390a280806001019150506111d4565b5050565b6000809054906101000a900473ffffffffffffffffffffffffffffffffffffffff1673ffffffffffffffffffffffffffffffffffffffff163373ffffffffffffffffffffffffffffffffffffffff161415156113dd57600080fd5b600073ffffffffffffffffffffffffffffffffffffffff168173ffffffffffffffffffffffffffffffffffffffff161415151561141957600080fd5b806000806101000a81548173ffffffffffffffffffffffffffffffffffffffff021916908373ffffffffffffffffffffffffffffffffffffffff16021790555050565b600460009054906101000a900473ffffffffffffffffffffffffffffffffffffffff1681565b600360019054906101000a900473ffffffffffffffffffffffffffffffffffffffff1681565b60008060009054906101000a900473ffffffffffffffffffffffffffffffffffffffff1673ffffffffffffffffffffffffffffffffffffffff163373ffffffffffffffffffffffffffffffffffffffff1614151561150557600080fd5b600090505b825181101561172057600073ffffffffffffffffffffffffffffffffffffffff16838281518110151561153957fe5b9060200190602002015173ffffffffffffffffffffffffffffffffffffffff16141580156115ce57506000151560016000858481518110151561157857fe5b9060200190602002015173ffffffffffffffffffffffffffffffffffffffff1673ffffffffffffffffffffffffffffffffffffffff16815260200190815260200160002060009054906101000a900460ff161515145b15156115d957600080fd5b600180600085848151811015156115ec57fe5b9060200190602002015173ffffffffffffffffffffffffffffffffffffffff1673ffffffffffffffffffffffffffffffffffffffff16815260200190815260200160002060006101000a81548160ff021916908315150217905550818181518110151561165557fe5b9060200190602002015160026000858481518110151561167157fe5b9060200190602002015173ffffffffffffffffffffffffffffffffffffffff1673ffffffffffffffffffffffffffffffffffffffff1681526020019081526020016000208190555082818151811015156116c757fe5b9060200190602002015173ffffffffffffffffffffffffffffffffffffffff167f2d3734a8e47ac8316e500ac231c90a6e1848ca2285f40d07eaa52005e4b3a0e960405160405180910390a2808060010191505061150a565b505050565b6000806000803414159150600960009054906101000a900467ffffffffffffffff1667ffffffffffffffff1642101580156117805750600960089054906101000a900467ffffffffffffffff1667ffffffffffffffff164211155b905081801561179457506117926110a6565b155b801561179d5750805b9250505090565b60008082840190508381101515156117b857fe5b8091505092915050565b60008282111515156117d057fe5b818303905092915050565b600080828402905060008414806117fc57508284828115156117f957fe5b04145b151561180457fe5b8091505092915050565b600460009054906101000a900473ffffffffffffffffffffffffffffffffffffffff1673ffffffffffffffffffffffffffffffffffffffff1663f340fa0182336040518363ffffffff167c0100000000000000000000000000000000000000000000000000000000028152600401808273ffffffffffffffffffffffffffffffffffffffff1673ffffffffffffffffffffffffffffffffffffffff1681526020019150506000604051808303818588803b15156118ca57600080fd5b6125ee5a03f115156118db57600080fd5b5050505050565b6000809054906101000a900473ffffffffffffffffffffffffffffffffffffffff1673ffffffffffffffffffffffffffffffffffffffff163373ffffffffffffffffffffffffffffffffffffffff1614151561193d57600080fd5b600360019054906101000a900473ffffffffffffffffffffffffffffffffffffffff1673ffffffffffffffffffffffffffffffffffffffff16633cebb823826040518263ffffffff167c0100000000000000000000000000000000000000000000000000000000028152600401808273ffffffffffffffffffffffffffffffffffffffff1673ffffffffffffffffffffffffffffffffffffffff168152602001915050600060405180830381600087803b15156119f957600080fd5b6102c65a03f11515611a0a57600080fd5b50505050565b6000809054906101000a900473ffffffffffffffffffffffffffffffffffffffff1673ffffffffffffffffffffffffffffffffffffffff163373ffffffffffffffffffffffffffffffffffffffff16141515611a6b57600080fd5b600460009054906101000a900473ffffffffffffffffffffffffffffffffffffffff1673ffffffffffffffffffffffffffffffffffffffff1663f2fde38b826040518263ffffffff167c0100000000000000000000000000000000000000000000000000000000028152600401808273ffffffffffffffffffffffffffffffffffffffff1673ffffffffffffffffffffffffffffffffffffffff168152602001915050600060405180830381600087803b1515611b2757600080fd5b6102c65a03f11515611b3857600080fd5b505050505600a165627a7a723058208e7055ffb507d101cf46ed6536ba60862d7dbacc6942dfedbd86dccdd488a2c20029",
  "source": "pragma solidity ^0.4.18;\n\nimport './crowdsale/RefundVault.sol';\nimport './ATC.sol';\nimport './kyc/PresaleKYC.sol';\nimport './lifecycle/Pausable.sol';\nimport './math/SafeMath.sol';\n\ncontract ATCPresale is PresaleKYC, Pausable, SafeMath {\n  ATC public token;\n  RefundVault public vault;\n\n  address[] reserveWallet;\n\n  uint256 public rate;\n  uint256 public weiRaised;\n  uint256 public maxEtherCap;\n  uint64 public startTime;\n  uint64 public endTime;\n\n\n  mapping (address => uint256) public buyerFunded;\n\n  event PresaleTokenPurchase(address indexed buyer, address indexed beneficiary, uint256 toFund, uint256 tokens);\n\n  function ATCPresale(\n    address _token,\n    address _vault,\n    address[] _reserveWallet,\n    uint64 _startTime,\n    uint64 _endTime,\n    uint256 _maxEtherCap,\n    uint256 _rate\n    ) {\n      token = ATC(_token);\n      vault = RefundVault(_vault);\n      reserveWallet = _reserveWallet;\n      startTime = _startTime;\n      endTime = _endTime;\n      maxEtherCap = _maxEtherCap;\n      rate = _rate;\n    }\n\n  function () payable {\n    buyPresale(msg.sender);\n  }\n\n  function buyPresale(address beneficiary)\n    payable\n    onlyRegistered(beneficiary)\n    whenNotPaused\n  {\n    // check validity\n    require(beneficiary != 0x00);\n    require(validPurchase());\n    uint guaranteedLimit = presaleGuaranteedLimit[beneficiary];\n    require(guaranteedLimit > 0);\n\n    // calculate eth amount\n    uint256 weiAmount = msg.value;\n    uint256 totalAmount = add(buyerFunded[beneficiary], weiAmount);\n\n    uint256 toFund;\n\n    if (totalAmount > guaranteedLimit) {\n      toFund = sub(guaranteedLimit, buyerFunded[beneficiary]);\n    } else {\n      toFund = weiAmount;\n    }\n\n    uint256 postWeiRaised = add(weiRaised, toFund);\n\n    if (postWeiRaised > maxEtherCap) {\n      toFund = sub(maxEtherCap, weiRaised);\n    }\n\n    require(toFund > 0);\n    require(weiAmount >= toFund);\n\n    uint256 tokens = mul(toFund, rate);\n    uint256 toReturn = sub(weiAmount, toFund);\n\n    weiRaised = add(weiRaised, toFund);\n    buyerFunded[beneficiary] = add(buyerFunded[beneficiary], toFund);\n\n    //TODO: Error check\n    token.generateTokens(beneficiary, tokens);\n\n    if (toReturn > 0) {\n      msg.sender.transfer(toReturn);\n    }\n    forwardFunds(toFund);\n    PresaleTokenPurchase(msg.sender, beneficiary, toFund, tokens);\n  }\n\n  function validPurchase() internal constant returns (bool) {\n    bool nonZeroPurchase = msg.value != 0;\n    bool validTime = now >= startTime && now <= endTime;\n    return nonZeroPurchase && !maxReached() && validTime;\n  }\n\n  /**\n   * @dev Checks whether maxEtherCap is reached\n   * @return true if max ether cap is reaced\n   */\n  function maxReached() public constant returns (bool) {\n    return weiRaised == maxEtherCap;\n  }\n\n  function forwardFunds(uint256 toFund) internal {\n    vault.deposit.value(toFund)(msg.sender);\n  }\n\n  function finalizePresale(\n    address newOwner\n    ) onlyOwner {\n    require(now > endTime);\n    changeTokenController(newOwner);\n    changeVaultOwner(newOwner);\n  }\n  function changeTokenController(address newOwner) onlyOwner internal {\n    token.changeController(newOwner);\n  }\n  function changeVaultOwner(address newOwner) onlyOwner internal {\n    vault.transferOwnership(newOwner);\n  }\n}\n",
  "sourcePath": "/Users/midinpa/workspace/dapps/aston-crowdsale/contracts/ATCPresale.sol",
  "compiler": {
    "name": "solc",
    "version": "0.4.18+commit.9cf6e910.Emscripten.clang"
  },
  "schemaVersion": "1.0.1",
  "updatedAt": "2017-11-16T06:31:42.225Z"
}