{
  "contractName": "ATCPresale",
  "abi": [
    {
      "constant": true,
      "inputs": [],
      "name": "rate",
      "outputs": [
        {
          "name": "",
          "type": "uint256"
        }
      ],
      "payable": false,
      "stateMutability": "view",
      "type": "function"
    },
    {
      "constant": false,
      "inputs": [
        {
          "name": "_addr",
          "type": "address"
        }
      ],
      "name": "unregister",
      "outputs": [],
      "payable": false,
      "stateMutability": "nonpayable",
      "type": "function"
    },
    {
      "constant": true,
      "inputs": [],
      "name": "endTime",
      "outputs": [
        {
          "name": "",
          "type": "uint64"
        }
      ],
      "payable": false,
      "stateMutability": "view",
      "type": "function"
    },
    {
      "constant": true,
      "inputs": [],
      "name": "maxEtherCap",
      "outputs": [
        {
          "name": "",
          "type": "uint256"
        }
      ],
      "payable": false,
      "stateMutability": "view",
      "type": "function"
    },
    {
      "constant": false,
      "inputs": [],
      "name": "unpause",
      "outputs": [],
      "payable": false,
      "stateMutability": "nonpayable",
      "type": "function"
    },
    {
      "constant": true,
      "inputs": [],
      "name": "weiRaised",
      "outputs": [
        {
          "name": "",
          "type": "uint256"
        }
      ],
      "payable": false,
      "stateMutability": "view",
      "type": "function"
    },
    {
      "constant": true,
      "inputs": [
        {
          "name": "",
          "type": "address"
        }
      ],
      "name": "presaleGuaranteedLimit",
      "outputs": [
        {
          "name": "",
          "type": "uint256"
        }
      ],
      "payable": false,
      "stateMutability": "view",
      "type": "function"
    },
    {
      "constant": true,
      "inputs": [],
      "name": "paused",
      "outputs": [
        {
          "name": "",
          "type": "bool"
        }
      ],
      "payable": false,
      "stateMutability": "view",
      "type": "function"
    },
    {
      "constant": false,
      "inputs": [
        {
          "name": "_addr",
          "type": "address"
        },
        {
          "name": "_maxGuaranteedLimit",
          "type": "uint256"
        }
      ],
      "name": "register",
      "outputs": [],
      "payable": false,
      "stateMutability": "nonpayable",
      "type": "function"
    },
    {
      "constant": true,
      "inputs": [],
      "name": "startTime",
      "outputs": [
        {
          "name": "",
          "type": "uint64"
        }
      ],
      "payable": false,
      "stateMutability": "view",
      "type": "function"
    },
    {
      "constant": true,
      "inputs": [],
      "name": "publicRate",
      "outputs": [
        {
          "name": "",
          "type": "uint256"
        }
      ],
      "payable": false,
      "stateMutability": "view",
      "type": "function"
    },
    {
      "constant": false,
      "inputs": [],
      "name": "pause",
      "outputs": [],
      "payable": false,
      "stateMutability": "nonpayable",
      "type": "function"
    },
    {
      "constant": false,
      "inputs": [
        {
          "name": "beneficiary",
          "type": "address"
        }
      ],
      "name": "buyPresale",
      "outputs": [],
      "payable": true,
      "stateMutability": "payable",
      "type": "function"
    },
    {
      "constant": true,
      "inputs": [],
      "name": "isFinalized",
      "outputs": [
        {
          "name": "",
          "type": "bool"
        }
      ],
      "payable": false,
      "stateMutability": "view",
      "type": "function"
    },
    {
      "constant": true,
      "inputs": [],
      "name": "owner",
      "outputs": [
        {
          "name": "",
          "type": "address"
        }
      ],
      "payable": false,
      "stateMutability": "view",
      "type": "function"
    },
    {
      "constant": true,
      "inputs": [],
      "name": "maxReached",
      "outputs": [
        {
          "name": "",
          "type": "bool"
        }
      ],
      "payable": false,
      "stateMutability": "view",
      "type": "function"
    },
    {
      "constant": false,
      "inputs": [
        {
          "name": "newOwner",
          "type": "address"
        }
      ],
      "name": "finalizePresale",
      "outputs": [],
      "payable": false,
      "stateMutability": "nonpayable",
      "type": "function"
    },
    {
      "constant": true,
      "inputs": [
        {
          "name": "",
          "type": "address"
        }
      ],
      "name": "beneficiaryFunded",
      "outputs": [
        {
          "name": "",
          "type": "uint256"
        }
      ],
      "payable": false,
      "stateMutability": "view",
      "type": "function"
    },
    {
      "constant": true,
      "inputs": [
        {
          "name": "",
          "type": "address"
        }
      ],
      "name": "registeredAddress",
      "outputs": [
        {
          "name": "",
          "type": "bool"
        }
      ],
      "payable": false,
      "stateMutability": "view",
      "type": "function"
    },
    {
      "constant": false,
      "inputs": [
        {
          "name": "_claimToken",
          "type": "address"
        }
      ],
      "name": "claimTokens",
      "outputs": [],
      "payable": false,
      "stateMutability": "nonpayable",
      "type": "function"
    },
    {
      "constant": false,
      "inputs": [
        {
          "name": "_addrs",
          "type": "address[]"
        }
      ],
      "name": "unregisterByList",
      "outputs": [],
      "payable": false,
      "stateMutability": "nonpayable",
      "type": "function"
    },
    {
      "constant": false,
      "inputs": [
        {
          "name": "newOwner",
          "type": "address"
        }
      ],
      "name": "transferOwnership",
      "outputs": [],
      "payable": false,
      "stateMutability": "nonpayable",
      "type": "function"
    },
    {
      "constant": true,
      "inputs": [],
      "name": "vault",
      "outputs": [
        {
          "name": "",
          "type": "address"
        }
      ],
      "payable": false,
      "stateMutability": "view",
      "type": "function"
    },
    {
      "constant": true,
      "inputs": [],
      "name": "token",
      "outputs": [
        {
          "name": "",
          "type": "address"
        }
      ],
      "payable": false,
      "stateMutability": "view",
      "type": "function"
    },
    {
      "constant": false,
      "inputs": [
        {
          "name": "_addrs",
          "type": "address[]"
        },
        {
          "name": "_maxGuaranteedLimits",
          "type": "uint256[]"
        }
      ],
      "name": "registerByList",
      "outputs": [],
      "payable": false,
      "stateMutability": "nonpayable",
      "type": "function"
    },
    {
      "inputs": [
        {
          "name": "_token",
          "type": "address"
        },
        {
          "name": "_vault",
          "type": "address"
        },
        {
          "name": "_startTime",
          "type": "uint64"
        },
        {
          "name": "_endTime",
          "type": "uint64"
        },
        {
          "name": "_maxEtherCap",
          "type": "uint256"
        },
        {
          "name": "_rate",
          "type": "uint256"
        }
      ],
      "payable": false,
      "stateMutability": "nonpayable",
      "type": "constructor"
    },
    {
      "payable": true,
      "stateMutability": "payable",
      "type": "fallback"
    },
    {
      "anonymous": false,
      "inputs": [
        {
          "indexed": true,
          "name": "buyer",
          "type": "address"
        },
        {
          "indexed": true,
          "name": "beneficiary",
          "type": "address"
        },
        {
          "indexed": false,
          "name": "toFund",
          "type": "uint256"
        },
        {
          "indexed": false,
          "name": "tokens",
          "type": "uint256"
        }
      ],
      "name": "PresaleTokenPurchase",
      "type": "event"
    },
    {
      "anonymous": false,
      "inputs": [
        {
          "indexed": false,
          "name": "_claimToken",
          "type": "address"
        },
        {
          "indexed": false,
          "name": "owner",
          "type": "address"
        },
        {
          "indexed": false,
          "name": "balance",
          "type": "uint256"
        }
      ],
      "name": "ClaimedTokens",
      "type": "event"
    },
    {
      "anonymous": false,
      "inputs": [
        {
          "indexed": false,
          "name": "messgae",
          "type": "string"
        }
      ],
      "name": "Log",
      "type": "event"
    },
    {
      "anonymous": false,
      "inputs": [],
      "name": "Pause",
      "type": "event"
    },
    {
      "anonymous": false,
      "inputs": [],
      "name": "Unpause",
      "type": "event"
    },
    {
      "anonymous": false,
      "inputs": [
        {
          "indexed": true,
          "name": "_addr",
          "type": "address"
        },
        {
          "indexed": false,
          "name": "_amount",
          "type": "uint256"
        }
      ],
      "name": "Registered",
      "type": "event"
    },
    {
      "anonymous": false,
      "inputs": [
        {
          "indexed": true,
          "name": "_addr",
          "type": "address"
        }
      ],
      "name": "Unregistered",
      "type": "event"
    }
  ],
  "bytecode": "0x60606040526000600360006101000a81548160ff02191690831515021790555034156200002b57600080fd5b60405160c080620024a583398101604052808051906020019091908051906020019091908051906020019091908051906020019091908051906020019091908051906020019091905050336000806101000a81548173ffffffffffffffffffffffffffffffffffffffff021916908373ffffffffffffffffffffffffffffffffffffffff16021790555060008673ffffffffffffffffffffffffffffffffffffffff1614158015620000f4575060008573ffffffffffffffffffffffffffffffffffffffff1614155b15156200010057600080fd5b8367ffffffffffffffff16421080156200012d57508267ffffffffffffffff168467ffffffffffffffff16105b15156200013957600080fd5b6000821115156200014957600080fd5b6000811115156200015957600080fd5b85600360016101000a81548173ffffffffffffffffffffffffffffffffffffffff021916908373ffffffffffffffffffffffffffffffffffffffff16021790555084600460006101000a81548173ffffffffffffffffffffffffffffffffffffffff021916908373ffffffffffffffffffffffffffffffffffffffff16021790555083600960006101000a81548167ffffffffffffffff021916908367ffffffffffffffff16021790555082600960086101000a81548167ffffffffffffffff021916908367ffffffffffffffff160217905550816008819055508060058190555050505050505061225480620002516000396000f300606060405260043610610149576000357c0100000000000000000000000000000000000000000000000000000000900463ffffffff1680632c4e722e146101545780632ec2c2461461017d5780633197cbb6146101b6578063326fd584146101f35780633f4ba83a1461021c5780634042b66f1461023157806346c092b21461025a5780635c975abb146102a75780636d705ebb146102d457806378e97925146103165780637f1f0507146103535780638456cb591461037c5780638bbb9fca146103915780638d4e4083146103bf5780638da5cb5b146103ec57806390135fec14610441578063927c41511461046e578063a743fa50146104a7578063ad1def42146104f4578063df8de3e714610545578063eb5a458e1461057e578063f2fde38b146105d8578063fbfa77cf14610611578063fc0c546a14610666578063ffc52a1f146106bb575b61015233610755565b005b341561015f57600080fd5b610167610bbc565b6040518082815260200191505060405180910390f35b341561018857600080fd5b6101b4600480803573ffffffffffffffffffffffffffffffffffffffff16906020019091905050610bc2565b005b34156101c157600080fd5b6101c9610d5a565b604051808267ffffffffffffffff1667ffffffffffffffff16815260200191505060405180910390f35b34156101fe57600080fd5b610206610d74565b6040518082815260200191505060405180910390f35b341561022757600080fd5b61022f610d7a565b005b341561023c57600080fd5b610244610e39565b6040518082815260200191505060405180910390f35b341561026557600080fd5b610291600480803573ffffffffffffffffffffffffffffffffffffffff16906020019091905050610e3f565b6040518082815260200191505060405180910390f35b34156102b257600080fd5b6102ba610e57565b604051808215151515815260200191505060405180910390f35b34156102df57600080fd5b610314600480803573ffffffffffffffffffffffffffffffffffffffff16906020019091908035906020019091905050610e6a565b005b341561032157600080fd5b61032961104a565b604051808267ffffffffffffffff1667ffffffffffffffff16815260200191505060405180910390f35b341561035e57600080fd5b610366611064565b6040518082815260200191505060405180910390f35b341561038757600080fd5b61038f61106a565b005b6103bd600480803573ffffffffffffffffffffffffffffffffffffffff16906020019091905050610755565b005b34156103ca57600080fd5b6103d261112a565b604051808215151515815260200191505060405180910390f35b34156103f757600080fd5b6103ff61113d565b604051808273ffffffffffffffffffffffffffffffffffffffff1673ffffffffffffffffffffffffffffffffffffffff16815260200191505060405180910390f35b341561044c57600080fd5b610454611162565b604051808215151515815260200191505060405180910390f35b341561047957600080fd5b6104a5600480803573ffffffffffffffffffffffffffffffffffffffff16906020019091905050611170565b005b34156104b257600080fd5b6104de600480803573ffffffffffffffffffffffffffffffffffffffff169060200190919050506112ea565b6040518082815260200191505060405180910390f35b34156104ff57600080fd5b61052b600480803573ffffffffffffffffffffffffffffffffffffffff16906020019091905050611302565b604051808215151515815260200191505060405180910390f35b341561055057600080fd5b61057c600480803573ffffffffffffffffffffffffffffffffffffffff16906020019091905050611322565b005b341561058957600080fd5b6105d660048080359060200190820180359060200190808060200260200160405190810160405280939291908181526020018383602002808284378201915050505050509190505061183a565b005b34156105e357600080fd5b61060f600480803573ffffffffffffffffffffffffffffffffffffffff16906020019091905050611a4a565b005b341561061c57600080fd5b610624611b24565b604051808273ffffffffffffffffffffffffffffffffffffffff1673ffffffffffffffffffffffffffffffffffffffff16815260200191505060405180910390f35b341561067157600080fd5b610679611b4a565b604051808273ffffffffffffffffffffffffffffffffffffffff1673ffffffffffffffffffffffffffffffffffffffff16815260200191505060405180910390f35b34156106c657600080fd5b61075360048080359060200190820180359060200190808060200260200160405190810160405280939291908181526020018383602002808284378201915050505050509190803590602001908201803590602001908080602002602001604051908101604052809392919081815260200183836020028082843782019150505050505091905050611b70565b005b600080600080600080600087600160008273ffffffffffffffffffffffffffffffffffffffff1673ffffffffffffffffffffffffffffffffffffffff16815260200190815260200160002060009054906101000a900460ff1615156107b957600080fd5b600360009054906101000a900460ff161515156107d557600080fd5b60008973ffffffffffffffffffffffffffffffffffffffff16141515156107fb57600080fd5b610803611e0f565b151561080e57600080fd5b349750600260008a73ffffffffffffffffffffffffffffffffffffffff1673ffffffffffffffffffffffffffffffffffffffff16815260200190815260200160002054955060008611151561086257600080fd5b6108ab600a60008b73ffffffffffffffffffffffffffffffffffffffff1673ffffffffffffffffffffffffffffffffffffffff1681526020019081526020016000205489611e8e565b945085851115610905576108fe86600a60008c73ffffffffffffffffffffffffffffffffffffffff1673ffffffffffffffffffffffffffffffffffffffff16815260200190815260200160002054611eac565b9650610909565b8796505b61091560075488611e8e565b93506008548411156109325761092f600854600754611eac565b96505b60008711151561094157600080fd5b86881015151561095057600080fd5b61095c87600554611ec5565b92506109688888611eac565b915061097660075488611e8e565b6007819055506109c5600a60008b73ffffffffffffffffffffffffffffffffffffffff1673ffffffffffffffffffffffffffffffffffffffff1681526020019081526020016000205488611e8e565b600a60008b73ffffffffffffffffffffffffffffffffffffffff1673ffffffffffffffffffffffffffffffffffffffff16815260200190815260200160002081905550600360019054906101000a900473ffffffffffffffffffffffffffffffffffffffff1673ffffffffffffffffffffffffffffffffffffffff1663827f32c08a856000604051602001526040518363ffffffff167c0100000000000000000000000000000000000000000000000000000000028152600401808373ffffffffffffffffffffffffffffffffffffffff1673ffffffffffffffffffffffffffffffffffffffff16815260200182815260200192505050602060405180830381600087803b1515610ad557600080fd5b6102c65a03f11515610ae657600080fd5b50505060405180519050506000821115610b3b573373ffffffffffffffffffffffffffffffffffffffff166108fc839081150290604051600060405180830381858888f193505050501515610b3a57600080fd5b5b610b4487611ef8565b8873ffffffffffffffffffffffffffffffffffffffff163373ffffffffffffffffffffffffffffffffffffffff167f892886e12c91004a98b529d090d33b1fbcd7f0a2c7179a18ff621623d7979c208986604051808381526020018281526020019250505060405180910390a3505050505050505050565b60055481565b6000809054906101000a900473ffffffffffffffffffffffffffffffffffffffff1673ffffffffffffffffffffffffffffffffffffffff163373ffffffffffffffffffffffffffffffffffffffff16141515610c1d57600080fd5b80600160008273ffffffffffffffffffffffffffffffffffffffff1673ffffffffffffffffffffffffffffffffffffffff16815260200190815260200160002060009054906101000a900460ff161515610c7657600080fd5b6000600160008473ffffffffffffffffffffffffffffffffffffffff1673ffffffffffffffffffffffffffffffffffffffff16815260200190815260200160002060006101000a81548160ff0219169083151502179055506000600260008473ffffffffffffffffffffffffffffffffffffffff1673ffffffffffffffffffffffffffffffffffffffff168152602001908152602001600020819055508173ffffffffffffffffffffffffffffffffffffffff167f75cd6de711483e11488a1cd9b66172abccb9e5c19572f92015a7880f0c8c0edc60405160405180910390a25050565b600960089054906101000a900467ffffffffffffffff1681565b60085481565b6000809054906101000a900473ffffffffffffffffffffffffffffffffffffffff1673ffffffffffffffffffffffffffffffffffffffff163373ffffffffffffffffffffffffffffffffffffffff16141515610dd557600080fd5b600360009054906101000a900460ff161515610df057600080fd5b6000600360006101000a81548160ff0219169083151502179055507f7805862f689e2f13df9f062ff482ad3ad112aca9e0847911ed832e158c525b3360405160405180910390a1565b60075481565b60026020528060005260406000206000915090505481565b600360009054906101000a900460ff1681565b6000809054906101000a900473ffffffffffffffffffffffffffffffffffffffff1673ffffffffffffffffffffffffffffffffffffffff163373ffffffffffffffffffffffffffffffffffffffff16141515610ec557600080fd5b600073ffffffffffffffffffffffffffffffffffffffff168273ffffffffffffffffffffffffffffffffffffffff1614158015610f52575060001515600160008473ffffffffffffffffffffffffffffffffffffffff1673ffffffffffffffffffffffffffffffffffffffff16815260200190815260200160002060009054906101000a900460ff161515145b1515610f5d57600080fd5b60018060008473ffffffffffffffffffffffffffffffffffffffff1673ffffffffffffffffffffffffffffffffffffffff16815260200190815260200160002060006101000a81548160ff02191690831515021790555080600260008473ffffffffffffffffffffffffffffffffffffffff1673ffffffffffffffffffffffffffffffffffffffff168152602001908152602001600020819055508173ffffffffffffffffffffffffffffffffffffffff167f6f3bf3fa84e4763a43b3d23f9d79be242d6d5c834941ff4c1111b67469e1150c826040518082815260200191505060405180910390a25050565b600960009054906101000a900467ffffffffffffffff1681565b60065481565b6000809054906101000a900473ffffffffffffffffffffffffffffffffffffffff1673ffffffffffffffffffffffffffffffffffffffff163373ffffffffffffffffffffffffffffffffffffffff161415156110c557600080fd5b600360009054906101000a900460ff161515156110e157600080fd5b6001600360006101000a81548160ff0219169083151502179055507f6985a02210a168e66602d3235cb6db0e70f92b3ba4d376a33c0f3d9434bff62560405160405180910390a1565b600960109054906101000a900460ff1681565b6000809054906101000a900473ffffffffffffffffffffffffffffffffffffffff1681565b600060085460075414905090565b60008060009054906101000a900473ffffffffffffffffffffffffffffffffffffffff1673ffffffffffffffffffffffffffffffffffffffff163373ffffffffffffffffffffffffffffffffffffffff161415156111cd57600080fd5b600960109054906101000a900460ff161515156111e957600080fd5b600960089054906101000a900467ffffffffffffffff1667ffffffffffffffff164211151561121757600080fd5b8190508073ffffffffffffffffffffffffffffffffffffffff1663ad2261226007546000604051602001526040518263ffffffff167c010000000000000000000000000000000000000000000000000000000002815260040180828152602001915050602060405180830381600087803b151561129357600080fd5b6102c65a03f115156112a457600080fd5b5050506040518051905015156112b957600080fd5b6112c282611fcc565b6112cb826120fa565b6001600960106101000a81548160ff0219169083151502179055505050565b600a6020528060005260406000206000915090505481565b60016020528060005260406000206000915054906101000a900460ff1681565b6000806000809054906101000a900473ffffffffffffffffffffffffffffffffffffffff1673ffffffffffffffffffffffffffffffffffffffff163373ffffffffffffffffffffffffffffffffffffffff1614151561138057600080fd5b3073ffffffffffffffffffffffffffffffffffffffff16600360019054906101000a900473ffffffffffffffffffffffffffffffffffffffff1673ffffffffffffffffffffffffffffffffffffffff1663f77c47916000604051602001526040518163ffffffff167c0100000000000000000000000000000000000000000000000000000000028152600401602060405180830381600087803b151561142557600080fd5b6102c65a03f1151561143657600080fd5b5050506040518051905073ffffffffffffffffffffffffffffffffffffffff16141561152d57600360019054906101000a900473ffffffffffffffffffffffffffffffffffffffff1673ffffffffffffffffffffffffffffffffffffffff1663df8de3e7846040518263ffffffff167c0100000000000000000000000000000000000000000000000000000000028152600401808273ffffffffffffffffffffffffffffffffffffffff1673ffffffffffffffffffffffffffffffffffffffff168152602001915050600060405180830381600087803b151561151857600080fd5b6102c65a03f1151561152957600080fd5b5050505b60008373ffffffffffffffffffffffffffffffffffffffff1614156115c9576000809054906101000a900473ffffffffffffffffffffffffffffffffffffffff1673ffffffffffffffffffffffffffffffffffffffff166108fc3073ffffffffffffffffffffffffffffffffffffffff16319081150290604051600060405180830381858888f1935050505015156115c457600080fd5b611835565b8291508173ffffffffffffffffffffffffffffffffffffffff166370a08231306000604051602001526040518263ffffffff167c0100000000000000000000000000000000000000000000000000000000028152600401808273ffffffffffffffffffffffffffffffffffffffff1673ffffffffffffffffffffffffffffffffffffffff168152602001915050602060405180830381600087803b151561166f57600080fd5b6102c65a03f1151561168057600080fd5b5050506040518051905090508173ffffffffffffffffffffffffffffffffffffffff1663a9059cbb6000809054906101000a900473ffffffffffffffffffffffffffffffffffffffff16836000604051602001526040518363ffffffff167c0100000000000000000000000000000000000000000000000000000000028152600401808373ffffffffffffffffffffffffffffffffffffffff1673ffffffffffffffffffffffffffffffffffffffff16815260200182815260200192505050602060405180830381600087803b151561175857600080fd5b6102c65a03f1151561176957600080fd5b50505060405180519050507ff931edb47c50b4b4104c187b5814a9aef5f709e17e2ecf9617e860cacade929c836000809054906101000a900473ffffffffffffffffffffffffffffffffffffffff1683604051808473ffffffffffffffffffffffffffffffffffffffff1673ffffffffffffffffffffffffffffffffffffffff1681526020018373ffffffffffffffffffffffffffffffffffffffff1673ffffffffffffffffffffffffffffffffffffffff168152602001828152602001935050505060405180910390a15b505050565b60008060009054906101000a900473ffffffffffffffffffffffffffffffffffffffff1673ffffffffffffffffffffffffffffffffffffffff163373ffffffffffffffffffffffffffffffffffffffff1614151561189757600080fd5b600090505b8151811015611a46576001600083838151811015156118b757fe5b9060200190602002015173ffffffffffffffffffffffffffffffffffffffff1673ffffffffffffffffffffffffffffffffffffffff16815260200190815260200160002060009054906101000a900460ff16151561191457600080fd5b600060016000848481518110151561192857fe5b9060200190602002015173ffffffffffffffffffffffffffffffffffffffff1673ffffffffffffffffffffffffffffffffffffffff16815260200190815260200160002060006101000a81548160ff021916908315150217905550600060026000848481518110151561199757fe5b9060200190602002015173ffffffffffffffffffffffffffffffffffffffff1673ffffffffffffffffffffffffffffffffffffffff1681526020019081526020016000208190555081818151811015156119ed57fe5b9060200190602002015173ffffffffffffffffffffffffffffffffffffffff167f75cd6de711483e11488a1cd9b66172abccb9e5c19572f92015a7880f0c8c0edc60405160405180910390a2808060010191505061189c565b5050565b6000809054906101000a900473ffffffffffffffffffffffffffffffffffffffff1673ffffffffffffffffffffffffffffffffffffffff163373ffffffffffffffffffffffffffffffffffffffff16141515611aa557600080fd5b600073ffffffffffffffffffffffffffffffffffffffff168173ffffffffffffffffffffffffffffffffffffffff1614151515611ae157600080fd5b806000806101000a81548173ffffffffffffffffffffffffffffffffffffffff021916908373ffffffffffffffffffffffffffffffffffffffff16021790555050565b600460009054906101000a900473ffffffffffffffffffffffffffffffffffffffff1681565b600360019054906101000a900473ffffffffffffffffffffffffffffffffffffffff1681565b60008060009054906101000a900473ffffffffffffffffffffffffffffffffffffffff1673ffffffffffffffffffffffffffffffffffffffff163373ffffffffffffffffffffffffffffffffffffffff16141515611bcd57600080fd5b600090505b8251811015611e0a57600073ffffffffffffffffffffffffffffffffffffffff168382815181101515611c0157fe5b9060200190602002015173ffffffffffffffffffffffffffffffffffffffff1614158015611c96575060001515600160008584815181101515611c4057fe5b9060200190602002015173ffffffffffffffffffffffffffffffffffffffff1673ffffffffffffffffffffffffffffffffffffffff16815260200190815260200160002060009054906101000a900460ff161515145b1515611ca157600080fd5b60018060008584815181101515611cb457fe5b9060200190602002015173ffffffffffffffffffffffffffffffffffffffff1673ffffffffffffffffffffffffffffffffffffffff16815260200190815260200160002060006101000a81548160ff0219169083151502179055508181815181101515611d1d57fe5b90602001906020020151600260008584815181101515611d3957fe5b9060200190602002015173ffffffffffffffffffffffffffffffffffffffff1673ffffffffffffffffffffffffffffffffffffffff168152602001908152602001600020819055508281815181101515611d8f57fe5b9060200190602002015173ffffffffffffffffffffffffffffffffffffffff167f6f3bf3fa84e4763a43b3d23f9d79be242d6d5c834941ff4c1111b67469e1150c8383815181101515611dde57fe5b906020019060200201516040518082815260200191505060405180910390a28080600101915050611bd2565b505050565b6000806000803414159150600960009054906101000a900467ffffffffffffffff1667ffffffffffffffff164210158015611e6a5750600960089054906101000a900467ffffffffffffffff1667ffffffffffffffff164211155b9050818015611e7e5750611e7c611162565b155b8015611e875750805b9250505090565b6000808284019050838110151515611ea257fe5b8091505092915050565b6000828211151515611eba57fe5b818303905092915050565b60008082840290506000841480611ee65750828482811515611ee357fe5b04145b1515611eee57fe5b8091505092915050565b600460009054906101000a900473ffffffffffffffffffffffffffffffffffffffff1673ffffffffffffffffffffffffffffffffffffffff1663f340fa0182336040518363ffffffff167c0100000000000000000000000000000000000000000000000000000000028152600401808273ffffffffffffffffffffffffffffffffffffffff1673ffffffffffffffffffffffffffffffffffffffff1681526020019150506000604051808303818588803b1515611fb457600080fd5b6125ee5a03f11515611fc557600080fd5b5050505050565b6000809054906101000a900473ffffffffffffffffffffffffffffffffffffffff1673ffffffffffffffffffffffffffffffffffffffff163373ffffffffffffffffffffffffffffffffffffffff1614151561202757600080fd5b600360019054906101000a900473ffffffffffffffffffffffffffffffffffffffff1673ffffffffffffffffffffffffffffffffffffffff16633cebb823826040518263ffffffff167c0100000000000000000000000000000000000000000000000000000000028152600401808273ffffffffffffffffffffffffffffffffffffffff1673ffffffffffffffffffffffffffffffffffffffff168152602001915050600060405180830381600087803b15156120e357600080fd5b6102c65a03f115156120f457600080fd5b50505050565b6000809054906101000a900473ffffffffffffffffffffffffffffffffffffffff1673ffffffffffffffffffffffffffffffffffffffff163373ffffffffffffffffffffffffffffffffffffffff1614151561215557600080fd5b600460009054906101000a900473ffffffffffffffffffffffffffffffffffffffff1673ffffffffffffffffffffffffffffffffffffffff1663f2fde38b826040518263ffffffff167c0100000000000000000000000000000000000000000000000000000000028152600401808273ffffffffffffffffffffffffffffffffffffffff1673ffffffffffffffffffffffffffffffffffffffff168152602001915050600060405180830381600087803b151561221157600080fd5b6102c65a03f1151561222257600080fd5b505050505600a165627a7a723058208ff59dc1187cf0d039de6e120e4bc1f92d435e8ebfc4d3430932130671ad13ae0029",
  "source": "pragma solidity ^0.4.18;\n\nimport './ownership/Ownable.sol';\nimport './vault/RefundVault.sol';\nimport './ATC.sol';\nimport './kyc/PresaleKYC.sol';\nimport './lifecycle/Pausable.sol';\nimport './math/SafeMath.sol';\nimport './token/ERC20Basic.sol';\n\ncontract PresaleFallbackReceiver {\n    function presaleFallBack(uint256 _presaleWeiRaised) public returns (bool);\n}\n\ncontract ATCPresale is Ownable, PresaleKYC, Pausable {\n  ATC public token;\n  RefundVault public vault;\n\n  uint256 public rate;\n  uint256 public publicRate;\n  uint256 public weiRaised;\n  uint256 public maxEtherCap;\n  uint64 public startTime;\n  uint64 public endTime;\n\n  bool public isFinalized;\n  mapping (address => uint256) public beneficiaryFunded;\n\n  event PresaleTokenPurchase(address indexed buyer, address indexed beneficiary, uint256 toFund, uint256 tokens);\n  event ClaimedTokens(address _claimToken, address owner, uint256 balance);\n\n  function ATCPresale(\n    address _token,\n    address _vault,\n    uint64 _startTime,\n    uint64 _endTime,\n    uint256 _maxEtherCap,\n    uint256 _rate\n    ) {\n      require(_token != 0x00 && _vault != 0x00);\n      require(now < _startTime && _startTime < _endTime);\n      require(_maxEtherCap > 0);\n      require(_rate > 0);\n\n      token = ATC(_token);\n      vault = RefundVault(_vault);\n      startTime = _startTime;\n      endTime = _endTime;\n      maxEtherCap = _maxEtherCap;\n      rate = _rate;\n    }\n\n  function () payable {\n    buyPresale(msg.sender);\n  }\n\n  function buyPresale(address beneficiary)\n    payable\n    onlyRegistered(beneficiary)\n    whenNotPaused\n  {\n    // check validity\n    require(beneficiary != 0x00);\n    require(validPurchase());\n\n    uint256 weiAmount = msg.value;\n    uint256 toFund;\n\n    uint256 guaranteedLimit = presaleGuaranteedLimit[beneficiary];\n    require(guaranteedLimit > 0);\n\n    uint256 totalAmount = add(beneficiaryFunded[beneficiary], weiAmount);\n    if (totalAmount > guaranteedLimit) {\n      toFund = sub(guaranteedLimit, beneficiaryFunded[beneficiary]);\n    } else {\n      toFund = weiAmount;\n    }\n\n    uint256 postWeiRaised = add(weiRaised, toFund);\n    if (postWeiRaised > maxEtherCap) {\n      toFund = sub(maxEtherCap, weiRaised);\n    }\n\n    require(toFund > 0);\n    require(weiAmount >= toFund);\n\n    uint256 tokens = mul(toFund, rate);\n    uint256 toReturn = sub(weiAmount, toFund);\n\n    weiRaised = add(weiRaised, toFund);\n    beneficiaryFunded[beneficiary] = add(beneficiaryFunded[beneficiary], toFund);\n\n    //TODO: Error check\n    token.generateTokens(beneficiary, tokens);\n\n    if (toReturn > 0) {\n      msg.sender.transfer(toReturn);\n    }\n    forwardFunds(toFund);\n    PresaleTokenPurchase(msg.sender, beneficiary, toFund, tokens);\n  }\n\n  function validPurchase() internal constant returns (bool) {\n    bool nonZeroPurchase = msg.value != 0;\n    bool validTime = now >= startTime && now <= endTime;\n    return nonZeroPurchase && !maxReached() && validTime;\n  }\n\n  /**\n   * @dev Checks whether maxEtherCap is reached\n   * @return true if max ether cap is reaced\n   */\n  function maxReached() public constant returns (bool) {\n    return weiRaised == maxEtherCap;\n  }\n\n  function forwardFunds(uint256 toFund) internal {\n    vault.deposit.value(toFund)(msg.sender);\n  }\n\n  event Log(string messgae); // for dev\n\n  function finalizePresale(\n    address newOwner\n    ) onlyOwner {\n      require(!isFinalized);\n      require(now > endTime);\n\n      PresaleFallbackReceiver crowdsale = PresaleFallbackReceiver(newOwner);\n      require(crowdsale.presaleFallBack(weiRaised));\n\n      changeTokenController(newOwner);\n      changeVaultOwner(newOwner);\n\n      isFinalized = true;\n  }\n  function changeTokenController(address newOwner) onlyOwner internal {\n    token.changeController(newOwner);\n  }\n  function changeVaultOwner(address newOwner) onlyOwner internal {\n    vault.transferOwnership(newOwner);\n  }\n\n  function claimTokens(address _claimToken) public onlyOwner {\n\n    if (token.controller() == address(this)) {\n         token.claimTokens(_claimToken);\n    }\n\n    if (_claimToken == 0x0) {\n        owner.transfer(this.balance);\n        return;\n    }\n\n    ERC20Basic claimToken = ERC20Basic(_claimToken);\n    uint256 balance = claimToken.balanceOf(this);\n    claimToken.transfer(owner, balance);\n\n    ClaimedTokens(_claimToken, owner, balance);\n  }\n}\n",
  "sourcePath": "/Users/midinpa/workspace/dapps/aston-crowdsale/contracts/ATCPresale.sol",
  "compiler": {
    "name": "solc",
    "version": "0.4.18+commit.9cf6e910.Emscripten.clang"
  },
  "schemaVersion": "1.0.1",
  "updatedAt": "2017-11-28T06:38:43.781Z"
}