{
  "contractName": "PresaleKYC",
  "abi": [
    {
      "constant": false,
      "inputs": [
        {
          "name": "_addr",
          "type": "address"
        }
      ],
      "name": "unregister",
      "outputs": [],
      "payable": false,
      "stateMutability": "nonpayable",
      "type": "function"
    },
    {
      "constant": true,
      "inputs": [
        {
          "name": "",
          "type": "address"
        }
      ],
      "name": "presaleGuaranteedLimit",
      "outputs": [
        {
          "name": "",
          "type": "uint256"
        }
      ],
      "payable": false,
      "stateMutability": "view",
      "type": "function"
    },
    {
      "constant": false,
      "inputs": [
        {
          "name": "_addr",
          "type": "address"
        },
        {
          "name": "_maxGuaranteedLimit",
          "type": "uint256"
        }
      ],
      "name": "register",
      "outputs": [],
      "payable": false,
      "stateMutability": "nonpayable",
      "type": "function"
    },
    {
      "constant": true,
      "inputs": [],
      "name": "owner",
      "outputs": [
        {
          "name": "",
          "type": "address"
        }
      ],
      "payable": false,
      "stateMutability": "view",
      "type": "function"
    },
    {
      "constant": true,
      "inputs": [
        {
          "name": "",
          "type": "address"
        }
      ],
      "name": "registeredAddress",
      "outputs": [
        {
          "name": "",
          "type": "bool"
        }
      ],
      "payable": false,
      "stateMutability": "view",
      "type": "function"
    },
    {
      "constant": false,
      "inputs": [
        {
          "name": "_addrs",
          "type": "address[]"
        }
      ],
      "name": "unregisterByList",
      "outputs": [],
      "payable": false,
      "stateMutability": "nonpayable",
      "type": "function"
    },
    {
      "constant": false,
      "inputs": [
        {
          "name": "newOwner",
          "type": "address"
        }
      ],
      "name": "transferOwnership",
      "outputs": [],
      "payable": false,
      "stateMutability": "nonpayable",
      "type": "function"
    },
    {
      "constant": false,
      "inputs": [
        {
          "name": "_addrs",
          "type": "address[]"
        },
        {
          "name": "_maxGuaranteedLimits",
          "type": "uint256[]"
        }
      ],
      "name": "registerByList",
      "outputs": [],
      "payable": false,
      "stateMutability": "nonpayable",
      "type": "function"
    },
    {
      "anonymous": false,
      "inputs": [
        {
          "indexed": true,
          "name": "_addr",
          "type": "address"
        },
        {
          "indexed": false,
          "name": "_amount",
          "type": "uint256"
        }
      ],
      "name": "Registered",
      "type": "event"
    },
    {
      "anonymous": false,
      "inputs": [
        {
          "indexed": true,
          "name": "_addr",
          "type": "address"
        }
      ],
      "name": "Unregistered",
      "type": "event"
    }
  ],
  "bytecode": "0x6060604052336000806101000a81548173ffffffffffffffffffffffffffffffffffffffff021916908373ffffffffffffffffffffffffffffffffffffffff160217905550610cb8806100536000396000f30060606040526004361061008e576000357c0100000000000000000000000000000000000000000000000000000000900463ffffffff1680632ec2c2461461009357806346c092b2146100cc5780636d705ebb146101195780638da5cb5b1461015b578063ad1def42146101b0578063eb5a458e14610201578063f2fde38b1461025b578063ffc52a1f14610294575b600080fd5b341561009e57600080fd5b6100ca600480803573ffffffffffffffffffffffffffffffffffffffff1690602001909190505061032e565b005b34156100d757600080fd5b610103600480803573ffffffffffffffffffffffffffffffffffffffff169060200190919050506104c6565b6040518082815260200191505060405180910390f35b341561012457600080fd5b610159600480803573ffffffffffffffffffffffffffffffffffffffff169060200190919080359060200190919050506104de565b005b341561016657600080fd5b61016e6106be565b604051808273ffffffffffffffffffffffffffffffffffffffff1673ffffffffffffffffffffffffffffffffffffffff16815260200191505060405180910390f35b34156101bb57600080fd5b6101e7600480803573ffffffffffffffffffffffffffffffffffffffff169060200190919050506106e3565b604051808215151515815260200191505060405180910390f35b341561020c57600080fd5b610259600480803590602001908201803590602001908080602002602001604051908101604052809392919081815260200183836020028082843782019150505050505091905050610703565b005b341561026657600080fd5b610292600480803573ffffffffffffffffffffffffffffffffffffffff16906020019091905050610913565b005b341561029f57600080fd5b61032c600480803590602001908201803590602001908080602002602001604051908101604052809392919081815260200183836020028082843782019150505050505091908035906020019082018035906020019080806020026020016040519081016040528093929190818152602001838360200280828437820191505050505050919050506109ed565b005b6000809054906101000a900473ffffffffffffffffffffffffffffffffffffffff1673ffffffffffffffffffffffffffffffffffffffff163373ffffffffffffffffffffffffffffffffffffffff1614151561038957600080fd5b80600160008273ffffffffffffffffffffffffffffffffffffffff1673ffffffffffffffffffffffffffffffffffffffff16815260200190815260200160002060009054906101000a900460ff1615156103e257600080fd5b6000600160008473ffffffffffffffffffffffffffffffffffffffff1673ffffffffffffffffffffffffffffffffffffffff16815260200190815260200160002060006101000a81548160ff0219169083151502179055506000600260008473ffffffffffffffffffffffffffffffffffffffff1673ffffffffffffffffffffffffffffffffffffffff168152602001908152602001600020819055508173ffffffffffffffffffffffffffffffffffffffff167f75cd6de711483e11488a1cd9b66172abccb9e5c19572f92015a7880f0c8c0edc60405160405180910390a25050565b60026020528060005260406000206000915090505481565b6000809054906101000a900473ffffffffffffffffffffffffffffffffffffffff1673ffffffffffffffffffffffffffffffffffffffff163373ffffffffffffffffffffffffffffffffffffffff1614151561053957600080fd5b600073ffffffffffffffffffffffffffffffffffffffff168273ffffffffffffffffffffffffffffffffffffffff16141580156105c6575060001515600160008473ffffffffffffffffffffffffffffffffffffffff1673ffffffffffffffffffffffffffffffffffffffff16815260200190815260200160002060009054906101000a900460ff161515145b15156105d157600080fd5b60018060008473ffffffffffffffffffffffffffffffffffffffff1673ffffffffffffffffffffffffffffffffffffffff16815260200190815260200160002060006101000a81548160ff02191690831515021790555080600260008473ffffffffffffffffffffffffffffffffffffffff1673ffffffffffffffffffffffffffffffffffffffff168152602001908152602001600020819055508173ffffffffffffffffffffffffffffffffffffffff167f6f3bf3fa84e4763a43b3d23f9d79be242d6d5c834941ff4c1111b67469e1150c826040518082815260200191505060405180910390a25050565b6000809054906101000a900473ffffffffffffffffffffffffffffffffffffffff1681565b60016020528060005260406000206000915054906101000a900460ff1681565b60008060009054906101000a900473ffffffffffffffffffffffffffffffffffffffff1673ffffffffffffffffffffffffffffffffffffffff163373ffffffffffffffffffffffffffffffffffffffff1614151561076057600080fd5b600090505b815181101561090f5760016000838381518110151561078057fe5b9060200190602002015173ffffffffffffffffffffffffffffffffffffffff1673ffffffffffffffffffffffffffffffffffffffff16815260200190815260200160002060009054906101000a900460ff1615156107dd57600080fd5b60006001600084848151811015156107f157fe5b9060200190602002015173ffffffffffffffffffffffffffffffffffffffff1673ffffffffffffffffffffffffffffffffffffffff16815260200190815260200160002060006101000a81548160ff021916908315150217905550600060026000848481518110151561086057fe5b9060200190602002015173ffffffffffffffffffffffffffffffffffffffff1673ffffffffffffffffffffffffffffffffffffffff1681526020019081526020016000208190555081818151811015156108b657fe5b9060200190602002015173ffffffffffffffffffffffffffffffffffffffff167f75cd6de711483e11488a1cd9b66172abccb9e5c19572f92015a7880f0c8c0edc60405160405180910390a28080600101915050610765565b5050565b6000809054906101000a900473ffffffffffffffffffffffffffffffffffffffff1673ffffffffffffffffffffffffffffffffffffffff163373ffffffffffffffffffffffffffffffffffffffff1614151561096e57600080fd5b600073ffffffffffffffffffffffffffffffffffffffff168173ffffffffffffffffffffffffffffffffffffffff16141515156109aa57600080fd5b806000806101000a81548173ffffffffffffffffffffffffffffffffffffffff021916908373ffffffffffffffffffffffffffffffffffffffff16021790555050565b60008060009054906101000a900473ffffffffffffffffffffffffffffffffffffffff1673ffffffffffffffffffffffffffffffffffffffff163373ffffffffffffffffffffffffffffffffffffffff16141515610a4a57600080fd5b600090505b8251811015610c8757600073ffffffffffffffffffffffffffffffffffffffff168382815181101515610a7e57fe5b9060200190602002015173ffffffffffffffffffffffffffffffffffffffff1614158015610b13575060001515600160008584815181101515610abd57fe5b9060200190602002015173ffffffffffffffffffffffffffffffffffffffff1673ffffffffffffffffffffffffffffffffffffffff16815260200190815260200160002060009054906101000a900460ff161515145b1515610b1e57600080fd5b60018060008584815181101515610b3157fe5b9060200190602002015173ffffffffffffffffffffffffffffffffffffffff1673ffffffffffffffffffffffffffffffffffffffff16815260200190815260200160002060006101000a81548160ff0219169083151502179055508181815181101515610b9a57fe5b90602001906020020151600260008584815181101515610bb657fe5b9060200190602002015173ffffffffffffffffffffffffffffffffffffffff1673ffffffffffffffffffffffffffffffffffffffff168152602001908152602001600020819055508281815181101515610c0c57fe5b9060200190602002015173ffffffffffffffffffffffffffffffffffffffff167f6f3bf3fa84e4763a43b3d23f9d79be242d6d5c834941ff4c1111b67469e1150c8383815181101515610c5b57fe5b906020019060200201516040518082815260200191505060405180910390a28080600101915050610a4f565b5050505600a165627a7a7230582045e84b58cb50faeeb91d6ee57f6cf2b5d8d0041e8a526f71825fd5f38bccfc730029",
  "source": "pragma solidity ^0.4.18;\n\nimport '../ownership/Ownable.sol';\nimport '../math/SafeMath.sol';\n\n/**\n * @title PresaleKYC\n * @dev PresaleKYC contract handles the white list for ASTPresale contract\n * Only accounts registered in PresaleKYC contract can buy AST token as Presale.\n */\ncontract PresaleKYC is Ownable, SafeMath {\n\n  // check the address is registered for token sale\n  mapping (address => bool) public registeredAddress;\n\n  // guaranteedlimit for each presale investor\n  mapping (address => uint256) public presaleGuaranteedLimit;\n\n  event Registered(address indexed _addr, uint256 _amount);\n  event Unregistered(address indexed _addr);\n\n  /**\n   * @dev check whether the address is registered for token sale or not.\n   * @param _addr address\n   */\n  modifier onlyRegistered(address _addr) {\n    require(registeredAddress[_addr]);\n    _;\n  }\n\n  /**\n   * @dev register the address for token sale\n   * @param _addr address The address to register for token sale\n   */\n  function register(address _addr, uint256 _maxGuaranteedLimit)\n    public\n    onlyOwner\n  {\n    require(_addr != address(0) && registeredAddress[_addr] == false);\n\n    registeredAddress[_addr] = true;\n    presaleGuaranteedLimit[_addr] = _maxGuaranteedLimit;\n\n    Registered(_addr, _maxGuaranteedLimit);\n  }\n\n  /**\n   * @dev register the addresses for token sale\n   * @param _addrs address[] The addresses to register for token sale\n   */\n  function registerByList(address[] _addrs, uint256[] _maxGuaranteedLimits)\n    public\n    onlyOwner\n  {\n    for(uint256 i = 0; i < _addrs.length; i++) {\n      require(_addrs[i] != address(0) && registeredAddress[_addrs[i]] == false);\n\n      registeredAddress[_addrs[i]] = true;\n      presaleGuaranteedLimit[_addrs[i]] = _maxGuaranteedLimits[i];\n\n      Registered(_addrs[i], _maxGuaranteedLimits[i]);\n    }\n  }\n\n  /**\n   * @dev unregister the registered address\n   * @param _addr address The address to unregister for token sale\n   */\n  function unregister(address _addr)\n    public\n    onlyOwner\n    onlyRegistered(_addr)\n  {\n\n    registeredAddress[_addr] = false;\n    presaleGuaranteedLimit[_addr] = 0;\n\n    Unregistered(_addr);\n  }\n\n  /**\n   * @dev unregister the registered addresses\n   * @param _addrs address[] The addresses to unregister for token sale\n   */\n  function unregisterByList(address[] _addrs)\n    public\n    onlyOwner\n  {\n    for(uint256 i = 0; i < _addrs.length; i++) {\n      require(registeredAddress[_addrs[i]]);\n\n      registeredAddress[_addrs[i]] = false;\n      presaleGuaranteedLimit[_addrs[i]] = 0;\n\n      Unregistered(_addrs[i]);\n    }\n\n  }\n}\n",
  "sourcePath": "/Users/midinpa/workspace/dapps/aston-crowdsale/contracts/kyc/PresaleKYC.sol",
  "compiler": {
    "name": "solc",
    "version": "0.4.18+commit.9cf6e910.Emscripten.clang"
  },
  "schemaVersion": "1.0.1",
  "updatedAt": "2017-11-29T04:39:36.937Z"
}