{
  "contractName": "PresaleKYC",
  "abi": [
    {
      "constant": false,
      "inputs": [
        {
          "name": "_addr",
          "type": "address"
        }
      ],
      "name": "unregister",
      "outputs": [],
      "payable": false,
      "stateMutability": "nonpayable",
      "type": "function"
    },
    {
      "constant": true,
      "inputs": [
        {
          "name": "",
          "type": "address"
        }
      ],
      "name": "presaleGuaranteedLimit",
      "outputs": [
        {
          "name": "",
          "type": "uint256"
        }
      ],
      "payable": false,
      "stateMutability": "view",
      "type": "function"
    },
    {
      "constant": false,
      "inputs": [
        {
          "name": "_addr",
          "type": "address"
        },
        {
          "name": "_maxGuaranteedLimit",
          "type": "uint256"
        }
      ],
      "name": "register",
      "outputs": [],
      "payable": false,
      "stateMutability": "nonpayable",
      "type": "function"
    },
    {
      "constant": true,
      "inputs": [],
      "name": "totalPresaleGuaranteedLimit",
      "outputs": [
        {
          "name": "",
          "type": "uint256"
        }
      ],
      "payable": false,
      "stateMutability": "view",
      "type": "function"
    },
    {
      "constant": true,
      "inputs": [],
      "name": "owner",
      "outputs": [
        {
          "name": "",
          "type": "address"
        }
      ],
      "payable": false,
      "stateMutability": "view",
      "type": "function"
    },
    {
      "constant": true,
      "inputs": [
        {
          "name": "",
          "type": "address"
        }
      ],
      "name": "registeredAddress",
      "outputs": [
        {
          "name": "",
          "type": "bool"
        }
      ],
      "payable": false,
      "stateMutability": "view",
      "type": "function"
    },
    {
      "constant": false,
      "inputs": [
        {
          "name": "_addrs",
          "type": "address[]"
        }
      ],
      "name": "unregisterByList",
      "outputs": [],
      "payable": false,
      "stateMutability": "nonpayable",
      "type": "function"
    },
    {
      "constant": false,
      "inputs": [
        {
          "name": "newOwner",
          "type": "address"
        }
      ],
      "name": "transferOwnership",
      "outputs": [],
      "payable": false,
      "stateMutability": "nonpayable",
      "type": "function"
    },
    {
      "constant": false,
      "inputs": [
        {
          "name": "_addrs",
          "type": "address[]"
        },
        {
          "name": "_maxGuaranteedLimits",
          "type": "uint256[]"
        }
      ],
      "name": "registerByList",
      "outputs": [],
      "payable": false,
      "stateMutability": "nonpayable",
      "type": "function"
    },
    {
      "anonymous": false,
      "inputs": [
        {
          "indexed": true,
          "name": "_addr",
          "type": "address"
        }
      ],
      "name": "Registered",
      "type": "event"
    },
    {
      "anonymous": false,
      "inputs": [
        {
          "indexed": true,
          "name": "_addr",
          "type": "address"
        }
      ],
      "name": "Unregistered",
      "type": "event"
    }
  ],
  "bytecode": "0x6060604052336000806101000a81548173ffffffffffffffffffffffffffffffffffffffff021916908373ffffffffffffffffffffffffffffffffffffffff160217905550610df0806100536000396000f300606060405260043610610099576000357c0100000000000000000000000000000000000000000000000000000000900463ffffffff1680632ec2c2461461009e57806346c092b2146100d75780636d705ebb146101245780637f69dc04146101665780638da5cb5b1461018f578063ad1def42146101e4578063eb5a458e14610235578063f2fde38b1461028f578063ffc52a1f146102c8575b600080fd5b34156100a957600080fd5b6100d5600480803573ffffffffffffffffffffffffffffffffffffffff16906020019091905050610362565b005b34156100e257600080fd5b61010e600480803573ffffffffffffffffffffffffffffffffffffffff1690602001909190505061054b565b6040518082815260200191505060405180910390f35b341561012f57600080fd5b610164600480803573ffffffffffffffffffffffffffffffffffffffff16906020019091908035906020019091905050610563565b005b341561017157600080fd5b61017961074a565b6040518082815260200191505060405180910390f35b341561019a57600080fd5b6101a2610750565b604051808273ffffffffffffffffffffffffffffffffffffffff1673ffffffffffffffffffffffffffffffffffffffff16815260200191505060405180910390f35b34156101ef57600080fd5b61021b600480803573ffffffffffffffffffffffffffffffffffffffff16906020019091905050610775565b604051808215151515815260200191505060405180910390f35b341561024057600080fd5b61028d600480803590602001908201803590602001908080602002602001604051908101604052809392919081815260200183836020028082843782019150505050505091905050610795565b005b341561029a57600080fd5b6102c6600480803573ffffffffffffffffffffffffffffffffffffffff16906020019091905050610a0d565b005b34156102d357600080fd5b61036060048080359060200190820180359060200190808060200260200160405190810160405280939291908181526020018383602002808284378201915050505050509190803590602001908201803590602001908080602002602001604051908101604052809392919081815260200183836020028082843782019150505050505091905050610ae7565b005b6000809054906101000a900473ffffffffffffffffffffffffffffffffffffffff1673ffffffffffffffffffffffffffffffffffffffff163373ffffffffffffffffffffffffffffffffffffffff161415156103bd57600080fd5b80600160008273ffffffffffffffffffffffffffffffffffffffff1673ffffffffffffffffffffffffffffffffffffffff16815260200190815260200160002060009054906101000a900460ff16151561041657600080fd5b610461600354600260008573ffffffffffffffffffffffffffffffffffffffff1673ffffffffffffffffffffffffffffffffffffffff16815260200190815260200160002054610d8d565b6003819055506000600160008473ffffffffffffffffffffffffffffffffffffffff1673ffffffffffffffffffffffffffffffffffffffff16815260200190815260200160002060006101000a81548160ff0219169083151502179055506000600260008473ffffffffffffffffffffffffffffffffffffffff1673ffffffffffffffffffffffffffffffffffffffff168152602001908152602001600020819055508173ffffffffffffffffffffffffffffffffffffffff167f75cd6de711483e11488a1cd9b66172abccb9e5c19572f92015a7880f0c8c0edc60405160405180910390a25050565b60026020528060005260406000206000915090505481565b6000809054906101000a900473ffffffffffffffffffffffffffffffffffffffff1673ffffffffffffffffffffffffffffffffffffffff163373ffffffffffffffffffffffffffffffffffffffff161415156105be57600080fd5b600073ffffffffffffffffffffffffffffffffffffffff168273ffffffffffffffffffffffffffffffffffffffff161415801561064b575060001515600160008473ffffffffffffffffffffffffffffffffffffffff1673ffffffffffffffffffffffffffffffffffffffff16815260200190815260200160002060009054906101000a900460ff161515145b151561065657600080fd5b60018060008473ffffffffffffffffffffffffffffffffffffffff1673ffffffffffffffffffffffffffffffffffffffff16815260200190815260200160002060006101000a81548160ff02191690831515021790555080600260008473ffffffffffffffffffffffffffffffffffffffff1673ffffffffffffffffffffffffffffffffffffffff168152602001908152602001600020819055506106fd60035482610da6565b6003819055508173ffffffffffffffffffffffffffffffffffffffff167f2d3734a8e47ac8316e500ac231c90a6e1848ca2285f40d07eaa52005e4b3a0e960405160405180910390a25050565b60035481565b6000809054906101000a900473ffffffffffffffffffffffffffffffffffffffff1681565b60016020528060005260406000206000915054906101000a900460ff1681565b60008060009054906101000a900473ffffffffffffffffffffffffffffffffffffffff1673ffffffffffffffffffffffffffffffffffffffff163373ffffffffffffffffffffffffffffffffffffffff161415156107f257600080fd5b600090505b8151811015610a095760016000838381518110151561081257fe5b9060200190602002015173ffffffffffffffffffffffffffffffffffffffff1673ffffffffffffffffffffffffffffffffffffffff16815260200190815260200160002060009054906101000a900460ff16151561086f57600080fd5b6108d160035460026000858581518110151561088757fe5b9060200190602002015173ffffffffffffffffffffffffffffffffffffffff1673ffffffffffffffffffffffffffffffffffffffff16815260200190815260200160002054610d8d565b60038190555060006001600084848151811015156108eb57fe5b9060200190602002015173ffffffffffffffffffffffffffffffffffffffff1673ffffffffffffffffffffffffffffffffffffffff16815260200190815260200160002060006101000a81548160ff021916908315150217905550600060026000848481518110151561095a57fe5b9060200190602002015173ffffffffffffffffffffffffffffffffffffffff1673ffffffffffffffffffffffffffffffffffffffff1681526020019081526020016000208190555081818151811015156109b057fe5b9060200190602002015173ffffffffffffffffffffffffffffffffffffffff167f75cd6de711483e11488a1cd9b66172abccb9e5c19572f92015a7880f0c8c0edc60405160405180910390a280806001019150506107f7565b5050565b6000809054906101000a900473ffffffffffffffffffffffffffffffffffffffff1673ffffffffffffffffffffffffffffffffffffffff163373ffffffffffffffffffffffffffffffffffffffff16141515610a6857600080fd5b600073ffffffffffffffffffffffffffffffffffffffff168173ffffffffffffffffffffffffffffffffffffffff1614151515610aa457600080fd5b806000806101000a81548173ffffffffffffffffffffffffffffffffffffffff021916908373ffffffffffffffffffffffffffffffffffffffff16021790555050565b60008060009054906101000a900473ffffffffffffffffffffffffffffffffffffffff1673ffffffffffffffffffffffffffffffffffffffff163373ffffffffffffffffffffffffffffffffffffffff16141515610b4457600080fd5b600090505b8251811015610d8857600073ffffffffffffffffffffffffffffffffffffffff168382815181101515610b7857fe5b9060200190602002015173ffffffffffffffffffffffffffffffffffffffff1614158015610c0d575060001515600160008584815181101515610bb757fe5b9060200190602002015173ffffffffffffffffffffffffffffffffffffffff1673ffffffffffffffffffffffffffffffffffffffff16815260200190815260200160002060009054906101000a900460ff161515145b1515610c1857600080fd5b60018060008584815181101515610c2b57fe5b9060200190602002015173ffffffffffffffffffffffffffffffffffffffff1673ffffffffffffffffffffffffffffffffffffffff16815260200190815260200160002060006101000a81548160ff0219169083151502179055508181815181101515610c9457fe5b90602001906020020151600260008584815181101515610cb057fe5b9060200190602002015173ffffffffffffffffffffffffffffffffffffffff1673ffffffffffffffffffffffffffffffffffffffff16815260200190815260200160002081905550610d1b6003548383815181101515610d0c57fe5b90602001906020020151610da6565b6003819055508281815181101515610d2f57fe5b9060200190602002015173ffffffffffffffffffffffffffffffffffffffff167f2d3734a8e47ac8316e500ac231c90a6e1848ca2285f40d07eaa52005e4b3a0e960405160405180910390a28080600101915050610b49565b505050565b6000828211151515610d9b57fe5b818303905092915050565b6000808284019050838110151515610dba57fe5b80915050929150505600a165627a7a72305820056ee4d05e45998229bf5ecacfd57d1319503367be02b35649688b8e34ae75cc0029",
  "source": "pragma solidity ^0.4.18;\n\nimport '../ownership/Ownable.sol';\nimport '../math/SafeMath.sol';\n\n/**\n * @title PresaleKYC\n * @dev PresaleKYC contract handles the white list for ASTPresale contract\n * Only accounts registered in PresaleKYC contract can buy AST token as Presale.\n */\ncontract PresaleKYC is Ownable, SafeMath {\n\n  // check the address is registered for token sale\n  mapping (address => bool) public registeredAddress;\n\n  // guaranteedlimit for each presale investor\n  mapping (address => uint256) public presaleGuaranteedLimit;\n  uint256 public totalPresaleGuaranteedLimit;\n\n  event Registered(address indexed _addr);\n  event Unregistered(address indexed _addr);\n\n  /**\n   * @dev check whether the address is registered for token sale or not.\n   * @param _addr address\n   */\n  modifier onlyRegistered(address _addr) {\n    require(registeredAddress[_addr]);\n    _;\n  }\n\n  /**\n   * @dev register the address for token sale\n   * @param _addr address The address to register for token sale\n   */\n  function register(address _addr, uint256 _maxGuaranteedLimit)\n    public\n    onlyOwner\n  {\n    require(_addr != address(0) && registeredAddress[_addr] == false);\n\n    registeredAddress[_addr] = true;\n    presaleGuaranteedLimit[_addr] = _maxGuaranteedLimit;\n\n    totalPresaleGuaranteedLimit = add(totalPresaleGuaranteedLimit, _maxGuaranteedLimit);\n\n    Registered(_addr);\n  }\n\n  /**\n   * @dev register the addresses for token sale\n   * @param _addrs address[] The addresses to register for token sale\n   */\n  function registerByList(address[] _addrs, uint256[] _maxGuaranteedLimits)\n    public\n    onlyOwner\n  {\n    for(uint256 i = 0; i < _addrs.length; i++) {\n      require(_addrs[i] != address(0) && registeredAddress[_addrs[i]] == false);\n\n      registeredAddress[_addrs[i]] = true;\n      presaleGuaranteedLimit[_addrs[i]] = _maxGuaranteedLimits[i];\n\n      totalPresaleGuaranteedLimit = add(totalPresaleGuaranteedLimit, _maxGuaranteedLimits[i]);\n\n      Registered(_addrs[i]);\n    }\n  }\n\n  /**\n   * @dev unregister the registered address\n   * @param _addr address The address to unregister for token sale\n   */\n  function unregister(address _addr)\n    public\n    onlyOwner\n    onlyRegistered(_addr)\n  {\n\n    totalPresaleGuaranteedLimit = sub(totalPresaleGuaranteedLimit, presaleGuaranteedLimit[_addr]);\n\n    registeredAddress[_addr] = false;\n    presaleGuaranteedLimit[_addr] = 0;\n\n    Unregistered(_addr);\n  }\n\n  /**\n   * @dev unregister the registered addresses\n   * @param _addrs address[] The addresses to unregister for token sale\n   */\n  function unregisterByList(address[] _addrs)\n    public\n    onlyOwner\n  {\n    for(uint256 i = 0; i < _addrs.length; i++) {\n      require(registeredAddress[_addrs[i]]);\n\n      totalPresaleGuaranteedLimit = sub(totalPresaleGuaranteedLimit, presaleGuaranteedLimit[_addrs[i]]);\n\n      registeredAddress[_addrs[i]] = false;\n      presaleGuaranteedLimit[_addrs[i]] = 0;\n\n      Unregistered(_addrs[i]);\n    }\n\n  }\n}\n",
  "sourcePath": "/Users/midinpa/workspace/dapps/aston-crowdsale/contracts/kyc/PresaleKYC.sol",
  "compiler": {
    "name": "solc",
    "version": "0.4.18+commit.9cf6e910.Emscripten.clang"
  },
  "schemaVersion": "1.0.1",
  "updatedAt": "2017-11-16T11:29:54.498Z"
}