{
  "contractName": "RefundVault",
  "abi": [
    {
      "constant": false,
      "inputs": [],
      "name": "close",
      "outputs": [],
      "payable": false,
      "stateMutability": "nonpayable",
      "type": "function"
    },
    {
      "constant": false,
      "inputs": [],
      "name": "enableRefunds",
      "outputs": [],
      "payable": false,
      "stateMutability": "nonpayable",
      "type": "function"
    },
    {
      "constant": true,
      "inputs": [],
      "name": "owner",
      "outputs": [
        {
          "name": "",
          "type": "address"
        }
      ],
      "payable": false,
      "stateMutability": "view",
      "type": "function"
    },
    {
      "constant": true,
      "inputs": [
        {
          "name": "",
          "type": "uint256"
        }
      ],
      "name": "reserveWallet",
      "outputs": [
        {
          "name": "",
          "type": "address"
        }
      ],
      "payable": false,
      "stateMutability": "view",
      "type": "function"
    },
    {
      "constant": true,
      "inputs": [
        {
          "name": "",
          "type": "address"
        }
      ],
      "name": "refunded",
      "outputs": [
        {
          "name": "",
          "type": "uint256"
        }
      ],
      "payable": false,
      "stateMutability": "view",
      "type": "function"
    },
    {
      "constant": true,
      "inputs": [],
      "name": "state",
      "outputs": [
        {
          "name": "",
          "type": "uint8"
        }
      ],
      "payable": false,
      "stateMutability": "view",
      "type": "function"
    },
    {
      "constant": true,
      "inputs": [
        {
          "name": "",
          "type": "address"
        }
      ],
      "name": "deposited",
      "outputs": [
        {
          "name": "",
          "type": "uint256"
        }
      ],
      "payable": false,
      "stateMutability": "view",
      "type": "function"
    },
    {
      "constant": false,
      "inputs": [
        {
          "name": "newOwner",
          "type": "address"
        }
      ],
      "name": "transferOwnership",
      "outputs": [],
      "payable": false,
      "stateMutability": "nonpayable",
      "type": "function"
    },
    {
      "constant": false,
      "inputs": [
        {
          "name": "investor",
          "type": "address"
        }
      ],
      "name": "deposit",
      "outputs": [],
      "payable": true,
      "stateMutability": "payable",
      "type": "function"
    },
    {
      "constant": false,
      "inputs": [
        {
          "name": "investor",
          "type": "address"
        }
      ],
      "name": "refund",
      "outputs": [
        {
          "name": "",
          "type": "bool"
        }
      ],
      "payable": false,
      "stateMutability": "nonpayable",
      "type": "function"
    },
    {
      "inputs": [
        {
          "name": "_reserveWallet",
          "type": "address[]"
        }
      ],
      "payable": false,
      "stateMutability": "nonpayable",
      "type": "constructor"
    },
    {
      "anonymous": false,
      "inputs": [],
      "name": "Closed",
      "type": "event"
    },
    {
      "anonymous": false,
      "inputs": [],
      "name": "RefundsEnabled",
      "type": "event"
    },
    {
      "anonymous": false,
      "inputs": [
        {
          "indexed": true,
          "name": "beneficiary",
          "type": "address"
        },
        {
          "indexed": false,
          "name": "weiAmount",
          "type": "uint256"
        }
      ],
      "name": "Refunded",
      "type": "event"
    },
    {
      "anonymous": false,
      "inputs": [
        {
          "indexed": false,
          "name": "_to",
          "type": "address"
        },
        {
          "indexed": false,
          "name": "_value",
          "type": "uint256"
        }
      ],
      "name": "Transferred",
      "type": "event"
    }
  ],
  "bytecode": "0x6060604052341561000f57600080fd5b604051610cc8380380610cc883398101604052808051820191905050336000806101000a81548173ffffffffffffffffffffffffffffffffffffffff021916908373ffffffffffffffffffffffffffffffffffffffff1602179055506000600360006101000a81548160ff0219169083600281111561008a57fe5b021790555080600490805190602001906100a59291906100ac565b5050610179565b828054828255906000526020600020908101928215610125579160200282015b828111156101245782518260006101000a81548173ffffffffffffffffffffffffffffffffffffffff021916908373ffffffffffffffffffffffffffffffffffffffff160217905550916020019190600101906100cc565b5b5090506101329190610136565b5090565b61017691905b8082111561017257600081816101000a81549073ffffffffffffffffffffffffffffffffffffffff02191690555060010161013c565b5090565b90565b610b40806101886000396000f3006060604052600436106100a4576000357c0100000000000000000000000000000000000000000000000000000000900463ffffffff16806343d726d6146100a95780638c52dc41146100be5780638da5cb5b146100d3578063a42ec1bc14610128578063c033a4901461018b578063c19d93fb146101d8578063cb13cddb1461020f578063f2fde38b1461025c578063f340fa0114610295578063fa89401a146102c3575b600080fd5b34156100b457600080fd5b6100bc610314565b005b34156100c957600080fd5b6100d161056f565b005b34156100de57600080fd5b6100e6610650565b604051808273ffffffffffffffffffffffffffffffffffffffff1673ffffffffffffffffffffffffffffffffffffffff16815260200191505060405180910390f35b341561013357600080fd5b6101496004808035906020019091905050610675565b604051808273ffffffffffffffffffffffffffffffffffffffff1673ffffffffffffffffffffffffffffffffffffffff16815260200191505060405180910390f35b341561019657600080fd5b6101c2600480803573ffffffffffffffffffffffffffffffffffffffff169060200190919050506106b4565b6040518082815260200191505060405180910390f35b34156101e357600080fd5b6101eb6106cc565b604051808260028111156101fb57fe5b60ff16815260200191505060405180910390f35b341561021a57600080fd5b610246600480803573ffffffffffffffffffffffffffffffffffffffff169060200190919050506106df565b6040518082815260200191505060405180910390f35b341561026757600080fd5b610293600480803573ffffffffffffffffffffffffffffffffffffffff169060200190919050506106f7565b005b6102c1600480803573ffffffffffffffffffffffffffffffffffffffff169060200190919050506107d1565b005b34156102ce57600080fd5b6102fa600480803573ffffffffffffffffffffffffffffffffffffffff169060200190919050506108ef565b604051808215151515815260200191505060405180910390f35b60008060008060009054906101000a900473ffffffffffffffffffffffffffffffffffffffff1673ffffffffffffffffffffffffffffffffffffffff163373ffffffffffffffffffffffffffffffffffffffff1614151561037457600080fd5b6000600281111561038157fe5b600360009054906101000a900460ff16600281111561039c57fe5b1415156103a857600080fd5b6002600360006101000a81548160ff021916908360028111156103c757fe5b02179055503073ffffffffffffffffffffffffffffffffffffffff163192506103f583600480549050610adb565b9150600090505b6004805490508160ff16101561053e5760048160ff1681548110151561041e57fe5b906000526020600020900160009054906101000a900473ffffffffffffffffffffffffffffffffffffffff1673ffffffffffffffffffffffffffffffffffffffff166108fc839081150290604051600060405180830381858888f19350505050151561048957600080fd5b7fe6d858f14d755446648a6e0c8ab8b5a0f58ccc7920d4c910b0454e4dcd869af060048260ff168154811015156104bc57fe5b906000526020600020900160009054906101000a900473ffffffffffffffffffffffffffffffffffffffff1683604051808373ffffffffffffffffffffffffffffffffffffffff1673ffffffffffffffffffffffffffffffffffffffff1681526020018281526020019250505060405180910390a180806001019150506103fc565b7f1cdde67b72a90f19919ac732a437ac2f7a10fc128d28c2a6e525d89ce5cd9d3a60405160405180910390a1505050565b6000809054906101000a900473ffffffffffffffffffffffffffffffffffffffff1673ffffffffffffffffffffffffffffffffffffffff163373ffffffffffffffffffffffffffffffffffffffff161415156105ca57600080fd5b600060028111156105d757fe5b600360009054906101000a900460ff1660028111156105f257fe5b1415156105fe57600080fd5b6001600360006101000a81548160ff0219169083600281111561061d57fe5b02179055507f599d8e5a83cffb867d051598c4d70e805d59802d8081c1c7d6dffc5b6aca2b8960405160405180910390a1565b6000809054906101000a900473ffffffffffffffffffffffffffffffffffffffff1681565b60048181548110151561068457fe5b90600052602060002090016000915054906101000a900473ffffffffffffffffffffffffffffffffffffffff1681565b60026020528060005260406000206000915090505481565b600360009054906101000a900460ff1681565b60016020528060005260406000206000915090505481565b6000809054906101000a900473ffffffffffffffffffffffffffffffffffffffff1673ffffffffffffffffffffffffffffffffffffffff163373ffffffffffffffffffffffffffffffffffffffff1614151561075257600080fd5b600073ffffffffffffffffffffffffffffffffffffffff168173ffffffffffffffffffffffffffffffffffffffff161415151561078e57600080fd5b806000806101000a81548173ffffffffffffffffffffffffffffffffffffffff021916908373ffffffffffffffffffffffffffffffffffffffff16021790555050565b6000809054906101000a900473ffffffffffffffffffffffffffffffffffffffff1673ffffffffffffffffffffffffffffffffffffffff163373ffffffffffffffffffffffffffffffffffffffff1614151561082c57600080fd5b6000600281111561083957fe5b600360009054906101000a900460ff16600281111561085457fe5b14151561086057600080fd5b6108a9600160008373ffffffffffffffffffffffffffffffffffffffff1673ffffffffffffffffffffffffffffffffffffffff1681526020019081526020016000205434610af6565b600160008373ffffffffffffffffffffffffffffffffffffffff1673ffffffffffffffffffffffffffffffffffffffff1681526020019081526020016000208190555050565b600080600160028111156108ff57fe5b600360009054906101000a900460ff16600281111561091a57fe5b14151561092657600080fd5b6000600260008573ffffffffffffffffffffffffffffffffffffffff1673ffffffffffffffffffffffffffffffffffffffff1681526020019081526020016000205411156109775760009150610ad5565b600160008473ffffffffffffffffffffffffffffffffffffffff1673ffffffffffffffffffffffffffffffffffffffff1681526020019081526020016000205490506000600160008573ffffffffffffffffffffffffffffffffffffffff1673ffffffffffffffffffffffffffffffffffffffff1681526020019081526020016000208190555080600260008573ffffffffffffffffffffffffffffffffffffffff1673ffffffffffffffffffffffffffffffffffffffff168152602001908152602001600020819055508273ffffffffffffffffffffffffffffffffffffffff166108fc829081150290604051600060405180830381858888f193505050501515610a8257600080fd5b8273ffffffffffffffffffffffffffffffffffffffff167fd7dee2702d63ad89917b6a4da9981c90c4d24f8c2bdfd64c604ecae57d8d0651826040518082815260200191505060405180910390a2600191505b50919050565b6000808284811515610ae957fe5b0490508091505092915050565b6000808284019050838110151515610b0a57fe5b80915050929150505600a165627a7a723058200622ce28c929c715e3e91a3ebfef272776186980e88a256b34825478d260a8cc0029",
  "source": "pragma solidity ^0.4.18;\n\nimport '../math/SafeMath.sol';\nimport '../ownership/Ownable.sol';\n\n/**\n * @title RefundVault\n * @dev This contract is used for storing funds while a crowdsale\n * is in progress. Supports refunding the money if crowdsale fails,\n * and forwarding it if crowdsale is successful.\n */\ncontract RefundVault is Ownable, SafeMath{\n\n  enum State { Active, Refunding, Closed }\n\n  mapping (address => uint256) public deposited;\n  mapping (address => uint256) public refunded;\n  State public state;\n\n  address[] public reserveWallet;\n\n  event Closed();\n  event RefundsEnabled();\n  event Refunded(address indexed beneficiary, uint256 weiAmount);\n\n  /**\n   * @dev This constructor sets the addresses of\n   * 10 reserve wallets.\n   * and forwarding it if crowdsale is successful.\n   * @param _reserveWallet address[5] The addresses of reserve wallet.\n   */\n  function RefundVault(address[] _reserveWallet) {\n    state = State.Active;\n    reserveWallet = _reserveWallet;\n  }\n\n  /**\n   * @dev This function is called when user buy tokens. Only RefundVault\n   * contract stores the Ether user sent which forwarded from crowdsale\n   * contract.\n   * @param investor address The address who buy the token from crowdsale.\n   */\n  function deposit(address investor) onlyOwner payable {\n    require(state == State.Active);\n    deposited[investor] = add(deposited[investor], msg.value);\n  }\n\n  event Transferred(address _to, uint _value);\n\n  /**\n   * @dev This function is called when crowdsale is successfully finalized.\n   */\n  function close() onlyOwner {\n    require(state == State.Active);\n    state = State.Closed;\n\n    uint256 balance = this.balance;\n\n    uint256 reserveAmountForEach = div(balance, reserveWallet.length);\n\n    for(uint8 i = 0; i < reserveWallet.length; i++){\n      reserveWallet[i].transfer(reserveAmountForEach);\n      Transferred(reserveWallet[i], reserveAmountForEach);\n    }\n\n    Closed();\n  }\n\n  /**\n   * @dev This function is called when crowdsale is unsuccessfully finalized\n   * and refund is required.\n   */\n  function enableRefunds() onlyOwner {\n    require(state == State.Active);\n    state = State.Refunding;\n    RefundsEnabled();\n  }\n\n  /**\n   * @dev This function allows for user to refund Ether.\n   */\n  function refund(address investor) returns (bool) {\n    require(state == State.Refunding);\n\n    if (refunded[investor] > 0) {\n      return false;\n    }\n\n    uint256 depositedValue = deposited[investor];\n    deposited[investor] = 0;\n    refunded[investor] = depositedValue;\n    investor.transfer(depositedValue);\n    Refunded(investor, depositedValue);\n\n    return true;\n  }\n\n}\n",
  "sourcePath": "/Users/midinpa/workspace/dapps/aston-crowdsale/contracts/vault/RefundVault.sol",
  "compiler": {
    "name": "solc",
    "version": "0.4.18+commit.9cf6e910.Emscripten.clang"
  },
  "schemaVersion": "1.0.1",
  "updatedAt": "2017-12-05T06:45:12.689Z"
}