{
  "contractName": "RefundVault",
  "abi": [
    {
      "constant": false,
      "inputs": [],
      "name": "close",
      "outputs": [],
      "payable": false,
      "stateMutability": "nonpayable",
      "type": "function"
    },
    {
      "constant": true,
      "inputs": [],
      "name": "devMultisig",
      "outputs": [
        {
          "name": "",
          "type": "address"
        }
      ],
      "payable": false,
      "stateMutability": "view",
      "type": "function"
    },
    {
      "constant": false,
      "inputs": [],
      "name": "enableRefunds",
      "outputs": [],
      "payable": false,
      "stateMutability": "nonpayable",
      "type": "function"
    },
    {
      "constant": true,
      "inputs": [],
      "name": "owner",
      "outputs": [
        {
          "name": "",
          "type": "address"
        }
      ],
      "payable": false,
      "stateMutability": "view",
      "type": "function"
    },
    {
      "constant": true,
      "inputs": [
        {
          "name": "",
          "type": "uint256"
        }
      ],
      "name": "reserveWallet",
      "outputs": [
        {
          "name": "",
          "type": "address"
        }
      ],
      "payable": false,
      "stateMutability": "view",
      "type": "function"
    },
    {
      "constant": true,
      "inputs": [
        {
          "name": "",
          "type": "address"
        }
      ],
      "name": "refunded",
      "outputs": [
        {
          "name": "",
          "type": "uint256"
        }
      ],
      "payable": false,
      "stateMutability": "view",
      "type": "function"
    },
    {
      "constant": true,
      "inputs": [],
      "name": "state",
      "outputs": [
        {
          "name": "",
          "type": "uint8"
        }
      ],
      "payable": false,
      "stateMutability": "view",
      "type": "function"
    },
    {
      "constant": true,
      "inputs": [
        {
          "name": "",
          "type": "address"
        }
      ],
      "name": "deposited",
      "outputs": [
        {
          "name": "",
          "type": "uint256"
        }
      ],
      "payable": false,
      "stateMutability": "view",
      "type": "function"
    },
    {
      "constant": false,
      "inputs": [
        {
          "name": "newOwner",
          "type": "address"
        }
      ],
      "name": "transferOwnership",
      "outputs": [],
      "payable": false,
      "stateMutability": "nonpayable",
      "type": "function"
    },
    {
      "constant": false,
      "inputs": [
        {
          "name": "investor",
          "type": "address"
        }
      ],
      "name": "deposit",
      "outputs": [],
      "payable": true,
      "stateMutability": "payable",
      "type": "function"
    },
    {
      "constant": false,
      "inputs": [
        {
          "name": "investor",
          "type": "address"
        }
      ],
      "name": "refund",
      "outputs": [
        {
          "name": "",
          "type": "bool"
        }
      ],
      "payable": false,
      "stateMutability": "nonpayable",
      "type": "function"
    },
    {
      "inputs": [
        {
          "name": "_devMultiSig",
          "type": "address"
        },
        {
          "name": "_reserveWallet",
          "type": "address[]"
        }
      ],
      "payable": false,
      "stateMutability": "nonpayable",
      "type": "constructor"
    },
    {
      "anonymous": false,
      "inputs": [],
      "name": "Closed",
      "type": "event"
    },
    {
      "anonymous": false,
      "inputs": [],
      "name": "RefundsEnabled",
      "type": "event"
    },
    {
      "anonymous": false,
      "inputs": [
        {
          "indexed": true,
          "name": "beneficiary",
          "type": "address"
        },
        {
          "indexed": false,
          "name": "weiAmount",
          "type": "uint256"
        }
      ],
      "name": "Refunded",
      "type": "event"
    },
    {
      "anonymous": false,
      "inputs": [
        {
          "indexed": false,
          "name": "_to",
          "type": "address"
        },
        {
          "indexed": false,
          "name": "_value",
          "type": "uint256"
        }
      ],
      "name": "Transferred",
      "type": "event"
    }
  ],
  "bytecode": "0x6060604052341561000f57600080fd5b604051610ee4380380610ee483398101604052808051906020019091908051820191905050336000806101000a81548173ffffffffffffffffffffffffffffffffffffffff021916908373ffffffffffffffffffffffffffffffffffffffff1602179055506000600360006101000a81548160ff0219169083600281111561009357fe5b021790555081600360016101000a81548173ffffffffffffffffffffffffffffffffffffffff021916908373ffffffffffffffffffffffffffffffffffffffff16021790555080600490805190602001906100ef9291906100f7565b5050506101c4565b828054828255906000526020600020908101928215610170579160200282015b8281111561016f5782518260006101000a81548173ffffffffffffffffffffffffffffffffffffffff021916908373ffffffffffffffffffffffffffffffffffffffff16021790555091602001919060010190610117565b5b50905061017d9190610181565b5090565b6101c191905b808211156101bd57600081816101000a81549073ffffffffffffffffffffffffffffffffffffffff021916905550600101610187565b5090565b90565b610d11806101d36000396000f3006060604052600436106100af576000357c0100000000000000000000000000000000000000000000000000000000900463ffffffff16806343d726d6146100b45780635d9d56ad146100c95780638c52dc411461011e5780638da5cb5b14610133578063a42ec1bc14610188578063c033a490146101eb578063c19d93fb14610238578063cb13cddb1461026f578063f2fde38b146102bc578063f340fa01146102f5578063fa89401a14610323575b600080fd5b34156100bf57600080fd5b6100c7610374565b005b34156100d457600080fd5b6100dc6106e7565b604051808273ffffffffffffffffffffffffffffffffffffffff1673ffffffffffffffffffffffffffffffffffffffff16815260200191505060405180910390f35b341561012957600080fd5b61013161070d565b005b341561013e57600080fd5b6101466107ee565b604051808273ffffffffffffffffffffffffffffffffffffffff1673ffffffffffffffffffffffffffffffffffffffff16815260200191505060405180910390f35b341561019357600080fd5b6101a96004808035906020019091905050610813565b604051808273ffffffffffffffffffffffffffffffffffffffff1673ffffffffffffffffffffffffffffffffffffffff16815260200191505060405180910390f35b34156101f657600080fd5b610222600480803573ffffffffffffffffffffffffffffffffffffffff16906020019091905050610852565b6040518082815260200191505060405180910390f35b341561024357600080fd5b61024b61086a565b6040518082600281111561025b57fe5b60ff16815260200191505060405180910390f35b341561027a57600080fd5b6102a6600480803573ffffffffffffffffffffffffffffffffffffffff1690602001909190505061087d565b6040518082815260200191505060405180910390f35b34156102c757600080fd5b6102f3600480803573ffffffffffffffffffffffffffffffffffffffff16906020019091905050610895565b005b610321600480803573ffffffffffffffffffffffffffffffffffffffff1690602001909190505061096f565b005b341561032e57600080fd5b61035a600480803573ffffffffffffffffffffffffffffffffffffffff16906020019091905050610a8d565b604051808215151515815260200191505060405180910390f35b60008060008060008060009054906101000a900473ffffffffffffffffffffffffffffffffffffffff1673ffffffffffffffffffffffffffffffffffffffff163373ffffffffffffffffffffffffffffffffffffffff161415156103d757600080fd5b600060028111156103e457fe5b600360009054906101000a900460ff1660028111156103ff57fe5b14151561040b57600080fd5b6002600360006101000a81548160ff0219169083600281111561042a57fe5b02179055503073ffffffffffffffffffffffffffffffffffffffff1631945061045485600a610c79565b9350600360019054906101000a900473ffffffffffffffffffffffffffffffffffffffff1673ffffffffffffffffffffffffffffffffffffffff166108fc859081150290604051600060405180830381858888f1935050505015156104b857600080fd5b7fe6d858f14d755446648a6e0c8ab8b5a0f58ccc7920d4c910b0454e4dcd869af0600360019054906101000a900473ffffffffffffffffffffffffffffffffffffffff1685604051808373ffffffffffffffffffffffffffffffffffffffff1673ffffffffffffffffffffffffffffffffffffffff1681526020018281526020019250505060405180910390a161055a610553866009610c94565b600a610c79565b925061056b83600480549050610c79565b9150600090505b6004805490508160ff1610156106b45760048160ff1681548110151561059457fe5b906000526020600020900160009054906101000a900473ffffffffffffffffffffffffffffffffffffffff1673ffffffffffffffffffffffffffffffffffffffff166108fc839081150290604051600060405180830381858888f1935050505015156105ff57600080fd5b7fe6d858f14d755446648a6e0c8ab8b5a0f58ccc7920d4c910b0454e4dcd869af060048260ff1681548110151561063257fe5b906000526020600020900160009054906101000a900473ffffffffffffffffffffffffffffffffffffffff1683604051808373ffffffffffffffffffffffffffffffffffffffff1673ffffffffffffffffffffffffffffffffffffffff1681526020018281526020019250505060405180910390a18080600101915050610572565b7f1cdde67b72a90f19919ac732a437ac2f7a10fc128d28c2a6e525d89ce5cd9d3a60405160405180910390a15050505050565b600360019054906101000a900473ffffffffffffffffffffffffffffffffffffffff1681565b6000809054906101000a900473ffffffffffffffffffffffffffffffffffffffff1673ffffffffffffffffffffffffffffffffffffffff163373ffffffffffffffffffffffffffffffffffffffff1614151561076857600080fd5b6000600281111561077557fe5b600360009054906101000a900460ff16600281111561079057fe5b14151561079c57600080fd5b6001600360006101000a81548160ff021916908360028111156107bb57fe5b02179055507f599d8e5a83cffb867d051598c4d70e805d59802d8081c1c7d6dffc5b6aca2b8960405160405180910390a1565b6000809054906101000a900473ffffffffffffffffffffffffffffffffffffffff1681565b60048181548110151561082257fe5b90600052602060002090016000915054906101000a900473ffffffffffffffffffffffffffffffffffffffff1681565b60026020528060005260406000206000915090505481565b600360009054906101000a900460ff1681565b60016020528060005260406000206000915090505481565b6000809054906101000a900473ffffffffffffffffffffffffffffffffffffffff1673ffffffffffffffffffffffffffffffffffffffff163373ffffffffffffffffffffffffffffffffffffffff161415156108f057600080fd5b600073ffffffffffffffffffffffffffffffffffffffff168173ffffffffffffffffffffffffffffffffffffffff161415151561092c57600080fd5b806000806101000a81548173ffffffffffffffffffffffffffffffffffffffff021916908373ffffffffffffffffffffffffffffffffffffffff16021790555050565b6000809054906101000a900473ffffffffffffffffffffffffffffffffffffffff1673ffffffffffffffffffffffffffffffffffffffff163373ffffffffffffffffffffffffffffffffffffffff161415156109ca57600080fd5b600060028111156109d757fe5b600360009054906101000a900460ff1660028111156109f257fe5b1415156109fe57600080fd5b610a47600160008373ffffffffffffffffffffffffffffffffffffffff1673ffffffffffffffffffffffffffffffffffffffff1681526020019081526020016000205434610cc7565b600160008373ffffffffffffffffffffffffffffffffffffffff1673ffffffffffffffffffffffffffffffffffffffff1681526020019081526020016000208190555050565b60008060016002811115610a9d57fe5b600360009054906101000a900460ff166002811115610ab857fe5b141515610ac457600080fd5b6000600260008573ffffffffffffffffffffffffffffffffffffffff1673ffffffffffffffffffffffffffffffffffffffff168152602001908152602001600020541115610b155760009150610c73565b600160008473ffffffffffffffffffffffffffffffffffffffff1673ffffffffffffffffffffffffffffffffffffffff1681526020019081526020016000205490506000600160008573ffffffffffffffffffffffffffffffffffffffff1673ffffffffffffffffffffffffffffffffffffffff1681526020019081526020016000208190555080600260008573ffffffffffffffffffffffffffffffffffffffff1673ffffffffffffffffffffffffffffffffffffffff168152602001908152602001600020819055508273ffffffffffffffffffffffffffffffffffffffff166108fc829081150290604051600060405180830381858888f193505050501515610c2057600080fd5b8273ffffffffffffffffffffffffffffffffffffffff167fd7dee2702d63ad89917b6a4da9981c90c4d24f8c2bdfd64c604ecae57d8d0651826040518082815260200191505060405180910390a2600191505b50919050565b6000808284811515610c8757fe5b0490508091505092915050565b60008082840290506000841480610cb55750828482811515610cb257fe5b04145b1515610cbd57fe5b8091505092915050565b6000808284019050838110151515610cdb57fe5b80915050929150505600a165627a7a7230582034ce1dbc718f5ce4615c1a7b40e10f611b1f01611395b28722480d595fc457640029",
  "source": "pragma solidity ^0.4.18;\n\nimport '../math/SafeMath.sol';\nimport '../ownership/Ownable.sol';\n\n/**\n * @title RefundVault\n * @dev This contract is used for storing funds while a crowdsale\n * is in progress. Supports refunding the money if crowdsale fails,\n * and forwarding it if crowdsale is successful.\n */\ncontract RefundVault is Ownable, SafeMath{\n\n  enum State { Active, Refunding, Closed }\n\n  mapping (address => uint256) public deposited;\n  mapping (address => uint256) public refunded;\n  State public state;\n\n  address public devMultisig;\n\n  address[] public reserveWallet;\n\n  event Closed();\n  event RefundsEnabled();\n  event Refunded(address indexed beneficiary, uint256 weiAmount);\n\n  /**\n   * @dev This constructor sets the addresses of multi-signature wallet and\n   * 5 reserve wallets.\n   * and forwarding it if crowdsale is successful.\n   * @param _devMultiSig address The address of multi-signature wallet.\n   * @param _reserveWallet address[5] The addresses of reserve wallet.\n   */\n  function RefundVault(address _devMultiSig, address[] _reserveWallet) {\n    state = State.Active;\n    devMultisig = _devMultiSig;\n    reserveWallet = _reserveWallet;\n  }\n\n  /**\n   * @dev This function is called when user buy tokens. Only RefundVault\n   * contract stores the Ether user sent which forwarded from crowdsale\n   * contract.\n   * @param investor address The address who buy the token from crowdsale.\n   */\n  function deposit(address investor) onlyOwner payable {\n    require(state == State.Active);\n    deposited[investor] = add(deposited[investor], msg.value);\n  }\n\n  event Transferred(address _to, uint _value);\n\n  /**\n   * @dev This function is called when crowdsale is successfully finalized.\n   */\n  function close() onlyOwner {\n    require(state == State.Active);\n    state = State.Closed;\n\n    uint256 balance = this.balance;\n\n    uint256 devAmount = div(balance, 10);\n    devMultisig.transfer(devAmount);\n    Transferred(devMultisig, devAmount);\n\n    uint256 reserveAmount = div(mul(balance, 9), 10);\n    uint256 reserveAmountForEach = div(reserveAmount, reserveWallet.length);\n\n    for(uint8 i = 0; i < reserveWallet.length; i++){\n      reserveWallet[i].transfer(reserveAmountForEach);\n      Transferred(reserveWallet[i], reserveAmountForEach);\n    }\n\n    Closed();\n  }\n\n  /**\n   * @dev This function is called when crowdsale is unsuccessfully finalized\n   * and refund is required.\n   */\n  function enableRefunds() onlyOwner {\n    require(state == State.Active);\n    state = State.Refunding;\n    RefundsEnabled();\n  }\n\n  /**\n   * @dev This function allows for user to refund Ether.\n   */\n  function refund(address investor) returns (bool) {\n    require(state == State.Refunding);\n\n    if (refunded[investor] > 0) {\n      return false;\n    }\n\n    uint256 depositedValue = deposited[investor];\n    deposited[investor] = 0;\n    refunded[investor] = depositedValue;\n    investor.transfer(depositedValue);\n    Refunded(investor, depositedValue);\n\n    return true;\n  }\n\n}\n",
  "sourcePath": "/Users/midinpa/workspace/dapps/aston-crowdsale/contracts/crowdsale/RefundVault.sol",
  "compiler": {
    "name": "solc",
    "version": "0.4.18+commit.9cf6e910.Emscripten.clang"
  },
  "schemaVersion": "1.0.1",
  "updatedAt": "2017-11-14T09:59:07.360Z"
}