{
  "contractName": "ReserveLockerForDemoInMainnet",
  "abi": [
    {
      "constant": false,
      "inputs": [
        {
          "name": "newToken",
          "type": "address"
        }
      ],
      "name": "setToken",
      "outputs": [],
      "payable": false,
      "stateMutability": "nonpayable",
      "type": "function"
    },
    {
      "constant": true,
      "inputs": [],
      "name": "beneficiary",
      "outputs": [
        {
          "name": "",
          "type": "address"
        }
      ],
      "payable": false,
      "stateMutability": "view",
      "type": "function"
    },
    {
      "constant": false,
      "inputs": [
        {
          "name": "_token",
          "type": "address"
        },
        {
          "name": "_crowdsale",
          "type": "address"
        },
        {
          "name": "_beneficiary",
          "type": "address"
        }
      ],
      "name": "ReserveLockerForDemo",
      "outputs": [],
      "payable": false,
      "stateMutability": "nonpayable",
      "type": "function"
    },
    {
      "constant": false,
      "inputs": [],
      "name": "release",
      "outputs": [],
      "payable": false,
      "stateMutability": "nonpayable",
      "type": "function"
    },
    {
      "constant": true,
      "inputs": [],
      "name": "crowdsale",
      "outputs": [
        {
          "name": "",
          "type": "address"
        }
      ],
      "payable": false,
      "stateMutability": "view",
      "type": "function"
    },
    {
      "constant": true,
      "inputs": [],
      "name": "token",
      "outputs": [
        {
          "name": "",
          "type": "address"
        }
      ],
      "payable": false,
      "stateMutability": "view",
      "type": "function"
    }
  ],
  "bytecode": "0x6060604052341561000f57600080fd5b6108028061001e6000396000f300606060405260043610610078576000357c0100000000000000000000000000000000000000000000000000000000900463ffffffff168063144fa6d71461007d57806338af3eed146100b65780635589869c1461010b57806386d1a69f146101825780639c1e03a014610197578063fc0c546a146101ec575b600080fd5b341561008857600080fd5b6100b4600480803573ffffffffffffffffffffffffffffffffffffffff16906020019091905050610241565b005b34156100c157600080fd5b6100c9610306565b604051808273ffffffffffffffffffffffffffffffffffffffff1673ffffffffffffffffffffffffffffffffffffffff16815260200191505060405180910390f35b341561011657600080fd5b610180600480803573ffffffffffffffffffffffffffffffffffffffff1690602001909190803573ffffffffffffffffffffffffffffffffffffffff1690602001909190803573ffffffffffffffffffffffffffffffffffffffff1690602001909190505061032c565b005b341561018d57600080fd5b610195610465565b005b34156101a257600080fd5b6101aa61069a565b604051808273ffffffffffffffffffffffffffffffffffffffff1673ffffffffffffffffffffffffffffffffffffffff16815260200191505060405180910390f35b34156101f757600080fd5b6101ff6106c0565b604051808273ffffffffffffffffffffffffffffffffffffffff1673ffffffffffffffffffffffffffffffffffffffff16815260200191505060405180910390f35b600260009054906101000a900473ffffffffffffffffffffffffffffffffffffffff1673ffffffffffffffffffffffffffffffffffffffff163373ffffffffffffffffffffffffffffffffffffffff1614151561029d57600080fd5b60008173ffffffffffffffffffffffffffffffffffffffff16141515156102c357600080fd5b806000806101000a81548173ffffffffffffffffffffffffffffffffffffffff021916908373ffffffffffffffffffffffffffffffffffffffff16021790555050565b600260009054906101000a900473ffffffffffffffffffffffffffffffffffffffff1681565b60008373ffffffffffffffffffffffffffffffffffffffff161415151561035257600080fd5b60008273ffffffffffffffffffffffffffffffffffffffff161415151561037857600080fd5b60008173ffffffffffffffffffffffffffffffffffffffff161415151561039e57600080fd5b826000806101000a81548173ffffffffffffffffffffffffffffffffffffffff021916908373ffffffffffffffffffffffffffffffffffffffff16021790555081600160006101000a81548173ffffffffffffffffffffffffffffffffffffffff021916908373ffffffffffffffffffffffffffffffffffffffff16021790555080600260006101000a81548173ffffffffffffffffffffffffffffffffffffffff021916908373ffffffffffffffffffffffffffffffffffffffff160217905550505050565b600080600160009054906101000a900473ffffffffffffffffffffffffffffffffffffffff1673ffffffffffffffffffffffffffffffffffffffff1663fe67a1896000604051602001526040518163ffffffff167c0100000000000000000000000000000000000000000000000000000000028152600401602060405180830381600087803b15156104f657600080fd5b6102c65a03f1151561050757600080fd5b50505060405180519050915060008211801561052d575061052a82610e106106e5565b42115b151561053857600080fd5b6000809054906101000a900473ffffffffffffffffffffffffffffffffffffffff1673ffffffffffffffffffffffffffffffffffffffff166370a08231306000604051602001526040518263ffffffff167c0100000000000000000000000000000000000000000000000000000000028152600401808273ffffffffffffffffffffffffffffffffffffffff1673ffffffffffffffffffffffffffffffffffffffff168152602001915050602060405180830381600087803b15156105fc57600080fd5b6102c65a03f1151561060d57600080fd5b50505060405180519050905060008111151561062857600080fd5b610696600260009054906101000a900473ffffffffffffffffffffffffffffffffffffffff16826000809054906101000a900473ffffffffffffffffffffffffffffffffffffffff1673ffffffffffffffffffffffffffffffffffffffff166107039092919063ffffffff16565b5050565b600160009054906101000a900473ffffffffffffffffffffffffffffffffffffffff1681565b6000809054906101000a900473ffffffffffffffffffffffffffffffffffffffff1681565b60008082840190508381101515156106f957fe5b8091505092915050565b8273ffffffffffffffffffffffffffffffffffffffff1663a9059cbb83836000604051602001526040518363ffffffff167c0100000000000000000000000000000000000000000000000000000000028152600401808373ffffffffffffffffffffffffffffffffffffffff1673ffffffffffffffffffffffffffffffffffffffff16815260200182815260200192505050602060405180830381600087803b15156107ae57600080fd5b6102c65a03f115156107bf57600080fd5b5050506040518051905015156107d157fe5b5050505600a165627a7a723058206803f6012d25fd0b71c78abbbd1db9989e1695dd922533cf1a5c16713f11f1630029",
  "source": "pragma solidity ^0.4.18;\n\nimport \"./token/ERC20Basic.sol\";\nimport \"./token/SafeERC20.sol\";\nimport \"./math/SafeMath.sol\";\nimport './ATCCrowdSale.sol';\n\n/**\n * @title TokenTimelock\n * @dev TokenTimelock is a token holder contract that will allow a\n * beneficiary to extract the tokens after a given release time\n */\ncontract ReserveLockerForDemoInMainnet is SafeMath{\n  using SafeERC20 for ERC20Basic;\n\n  ERC20Basic public token;\n  ATCCrowdSale public crowdsale;\n  address public beneficiary;\n\n\n  function ReserveLockerForDemo(address _token, address _crowdsale, address _beneficiary) {\n\n    require(_token != 0x00);\n    require(_crowdsale != 0x00);\n    require(_beneficiary != 0x00);\n\n\n    token = ERC20Basic(_token);\n    crowdsale = ATCCrowdSale(_crowdsale);\n    beneficiary = _beneficiary;\n  }\n\n  /**\n   * @notice Transfers tokens held by timelock to beneficiary.\n   */\n   function release() public {\n     uint256 finalizedTime = crowdsale.finalizedTime();\n     require(finalizedTime > 0 && now > add(finalizedTime, 60 minutes));\n\n     uint256 amount = token.balanceOf(this);\n     require(amount > 0);\n\n     token.safeTransfer(beneficiary, amount);\n   }\n\n  function setToken(address newToken) public {\n    require(msg.sender == beneficiary);\n    require(newToken != 0x00);\n\n    token = ERC20Basic(newToken);\n  }\n\n}\n",
  "sourcePath": "/Users/midinpa/workspace/dapps/aston-crowdsale/contracts/ReserveLockerForDemoInMainnet.sol",
  "compiler": {
    "name": "solc",
    "version": "0.4.18+commit.9cf6e910.Emscripten.clang"
  },
  "schemaVersion": "1.0.1",
  "updatedAt": "2017-12-07T06:51:27.904Z"
}