{
  "contractName": "ReserveLockerForDemoInMainnet",
  "abi": [
    {
      "constant": false,
      "inputs": [
        {
          "name": "newToken",
          "type": "address"
        }
      ],
      "name": "setToken",
      "outputs": [],
      "payable": false,
      "stateMutability": "nonpayable",
      "type": "function"
    },
    {
      "constant": true,
      "inputs": [],
      "name": "beneficiary",
      "outputs": [
        {
          "name": "",
          "type": "address"
        }
      ],
      "payable": false,
      "stateMutability": "view",
      "type": "function"
    },
    {
      "constant": false,
      "inputs": [
        {
          "name": "_token",
          "type": "address"
        },
        {
          "name": "_crowdsale",
          "type": "address"
        },
        {
          "name": "_beneficiary",
          "type": "address"
        }
      ],
      "name": "release",
      "outputs": [],
      "payable": false,
      "stateMutability": "nonpayable",
      "type": "function"
    },
    {
      "constant": true,
      "inputs": [],
      "name": "crowdsale",
      "outputs": [
        {
          "name": "",
          "type": "address"
        }
      ],
      "payable": false,
      "stateMutability": "view",
      "type": "function"
    },
    {
      "constant": true,
      "inputs": [],
      "name": "token",
      "outputs": [
        {
          "name": "",
          "type": "address"
        }
      ],
      "payable": false,
      "stateMutability": "view",
      "type": "function"
    },
    {
      "constant": true,
      "inputs": [
        {
          "name": "_token",
          "type": "address"
        },
        {
          "name": "_crowdsale",
          "type": "address"
        },
        {
          "name": "_beneficiary",
          "type": "address"
        }
      ],
      "name": "token",
      "outputs": [
        {
          "name": "",
          "type": "address"
        }
      ],
      "payable": false,
      "stateMutability": "nonpayable",
      "type": "constructor"
    }
  ],
  "bytecode": "0x6060604052341561000f57600080fd5b6040516060806107ca8339810160405280805190602001909190805190602001909190805190602001909190505060008373ffffffffffffffffffffffffffffffffffffffff161415151561006357600080fd5b60008273ffffffffffffffffffffffffffffffffffffffff161415151561008957600080fd5b60008173ffffffffffffffffffffffffffffffffffffffff16141515156100af57600080fd5b826000806101000a81548173ffffffffffffffffffffffffffffffffffffffff021916908373ffffffffffffffffffffffffffffffffffffffff16021790555081600160006101000a81548173ffffffffffffffffffffffffffffffffffffffff021916908373ffffffffffffffffffffffffffffffffffffffff16021790555080600260006101000a81548173ffffffffffffffffffffffffffffffffffffffff021916908373ffffffffffffffffffffffffffffffffffffffff160217905550505050610647806101836000396000f30060606040526004361061006d576000357c0100000000000000000000000000000000000000000000000000000000900463ffffffff168063144fa6d71461007257806338af3eed146100ab57806386d1a69f146101005780639c1e03a014610115578063fc0c546a1461016a575b600080fd5b341561007d57600080fd5b6100a9600480803573ffffffffffffffffffffffffffffffffffffffff169060200190919050506101bf565b005b34156100b657600080fd5b6100be610284565b604051808273ffffffffffffffffffffffffffffffffffffffff1673ffffffffffffffffffffffffffffffffffffffff16815260200191505060405180910390f35b341561010b57600080fd5b6101136102aa565b005b341561012057600080fd5b6101286104df565b604051808273ffffffffffffffffffffffffffffffffffffffff1673ffffffffffffffffffffffffffffffffffffffff16815260200191505060405180910390f35b341561017557600080fd5b61017d610505565b604051808273ffffffffffffffffffffffffffffffffffffffff1673ffffffffffffffffffffffffffffffffffffffff16815260200191505060405180910390f35b600260009054906101000a900473ffffffffffffffffffffffffffffffffffffffff1673ffffffffffffffffffffffffffffffffffffffff163373ffffffffffffffffffffffffffffffffffffffff1614151561021b57600080fd5b60008173ffffffffffffffffffffffffffffffffffffffff161415151561024157600080fd5b806000806101000a81548173ffffffffffffffffffffffffffffffffffffffff021916908373ffffffffffffffffffffffffffffffffffffffff16021790555050565b600260009054906101000a900473ffffffffffffffffffffffffffffffffffffffff1681565b600080600160009054906101000a900473ffffffffffffffffffffffffffffffffffffffff1673ffffffffffffffffffffffffffffffffffffffff1663fe67a1896000604051602001526040518163ffffffff167c0100000000000000000000000000000000000000000000000000000000028152600401602060405180830381600087803b151561033b57600080fd5b6102c65a03f1151561034c57600080fd5b505050604051805190509150600082118015610372575061036f82610e1061052a565b42115b151561037d57600080fd5b6000809054906101000a900473ffffffffffffffffffffffffffffffffffffffff1673ffffffffffffffffffffffffffffffffffffffff166370a08231306000604051602001526040518263ffffffff167c0100000000000000000000000000000000000000000000000000000000028152600401808273ffffffffffffffffffffffffffffffffffffffff1673ffffffffffffffffffffffffffffffffffffffff168152602001915050602060405180830381600087803b151561044157600080fd5b6102c65a03f1151561045257600080fd5b50505060405180519050905060008111151561046d57600080fd5b6104db600260009054906101000a900473ffffffffffffffffffffffffffffffffffffffff16826000809054906101000a900473ffffffffffffffffffffffffffffffffffffffff1673ffffffffffffffffffffffffffffffffffffffff166105489092919063ffffffff16565b5050565b600160009054906101000a900473ffffffffffffffffffffffffffffffffffffffff1681565b6000809054906101000a900473ffffffffffffffffffffffffffffffffffffffff1681565b600080828401905083811015151561053e57fe5b8091505092915050565b8273ffffffffffffffffffffffffffffffffffffffff1663a9059cbb83836000604051602001526040518363ffffffff167c0100000000000000000000000000000000000000000000000000000000028152600401808373ffffffffffffffffffffffffffffffffffffffff1673ffffffffffffffffffffffffffffffffffffffff16815260200182815260200192505050602060405180830381600087803b15156105f357600080fd5b6102c65a03f1151561060457600080fd5b50505060405180519050151561061657fe5b5050505600a165627a7a72305820400c0b86e262aca51649c19f3403e8b3fb49228cb1e898cb5a1ff3812bda4a910029",
  "source": "pragma solidity ^0.4.18;\n\nimport \"./token/ERC20Basic.sol\";\nimport \"./token/SafeERC20.sol\";\nimport \"./math/SafeMath.sol\";\nimport './ATCCrowdSale.sol';\n\n/**\n * @title TokenTimelock\n * @dev TokenTimelock is a token holder contract that will allow a\n * beneficiary to extract the tokens after a given release time\n */\ncontract ReserveLockerForDemoInMainnet is SafeMath{\n  using SafeERC20 for ERC20Basic;\n\n  ERC20Basic public token;\n  ATCCrowdSale public crowdsale;\n  address public beneficiary;\n\n\n  function ReserveLockerForDemoInMainnet(address _token, address _crowdsale, address _beneficiary) {\n\n    require(_token != 0x00);\n    require(_crowdsale != 0x00);\n    require(_beneficiary != 0x00);\n\n\n    token = ERC20Basic(_token);\n    crowdsale = ATCCrowdSale(_crowdsale);\n    beneficiary = _beneficiary;\n  }\n\n  /**\n   * @notice Transfers tokens held by timelock to beneficiary.\n   */\n   function release() public {\n     uint256 finalizedTime = crowdsale.finalizedTime();\n     require(finalizedTime > 0 && now > add(finalizedTime, 60 minutes));\n\n     uint256 amount = token.balanceOf(this);\n     require(amount > 0);\n\n     token.safeTransfer(beneficiary, amount);\n   }\n\n  function setToken(address newToken) public {\n    require(msg.sender == beneficiary);\n    require(newToken != 0x00);\n\n    token = ERC20Basic(newToken);\n  }\n\n}\n",
  "sourcePath": "/Users/midinpa/workspace/dapps/aston-crowdsale/contracts/ReserveLockerForDemoInMainnet.sol",
  "compiler": {
    "name": "solc",
    "version": "0.4.18+commit.9cf6e910.Emscripten.clang"
  },
  "schemaVersion": "1.0.1",
  "updatedAt": "2017-12-08T05:10:18.373Z"
}