{
  "contractName": "TeamLocker",
  "abi": [
    {
      "constant": false,
      "inputs": [
        {
          "name": "newToken",
          "type": "address"
        }
      ],
      "name": "setToken",
      "outputs": [],
      "payable": false,
      "stateMutability": "nonpayable",
      "type": "function"
    },
    {
      "constant": true,
      "inputs": [],
      "name": "collectedTokens",
      "outputs": [
        {
          "name": "",
          "type": "uint256"
        }
      ],
      "payable": false,
      "stateMutability": "view",
      "type": "function"
    },
    {
      "constant": false,
      "inputs": [],
      "name": "release",
      "outputs": [],
      "payable": false,
      "stateMutability": "nonpayable",
      "type": "function"
    },
    {
      "constant": true,
      "inputs": [
        {
          "name": "",
          "type": "uint256"
        }
      ],
      "name": "timelines",
      "outputs": [
        {
          "name": "",
          "type": "uint64"
        }
      ],
      "payable": false,
      "stateMutability": "view",
      "type": "function"
    },
    {
      "constant": true,
      "inputs": [
        {
          "name": "",
          "type": "uint256"
        }
      ],
      "name": "releaseRatios",
      "outputs": [
        {
          "name": "",
          "type": "uint256"
        }
      ],
      "payable": false,
      "stateMutability": "view",
      "type": "function"
    },
    {
      "constant": true,
      "inputs": [
        {
          "name": "",
          "type": "uint256"
        }
      ],
      "name": "beneficiaries",
      "outputs": [
        {
          "name": "",
          "type": "address"
        }
      ],
      "payable": false,
      "stateMutability": "view",
      "type": "function"
    },
    {
      "constant": true,
      "inputs": [],
      "name": "token",
      "outputs": [
        {
          "name": "",
          "type": "address"
        }
      ],
      "payable": false,
      "stateMutability": "view",
      "type": "function"
    },
    {
      "inputs": [
        {
          "name": "_token",
          "type": "address"
        },
        {
          "name": "_beneficiaries",
          "type": "address[]"
        },
        {
          "name": "_timelines",
          "type": "uint64[]"
        },
        {
          "name": "_releaseRatios",
          "type": "uint256[]"
        }
      ],
      "payable": false,
      "stateMutability": "nonpayable",
      "type": "constructor"
    }
  ],
  "bytecode": "0x606060405234156200001057600080fd5b60405162000d4b38038062000d4b8339810160405280805190602001909190805182019190602001805182019190602001805182019190505060008090505b6001845103811015620000a957600084828151811015156200006d57fe5b9060200190602002015173ffffffffffffffffffffffffffffffffffffffff16141515156200009b57600080fd5b80806001019150506200004f565b826000815181101515620000b957fe5b9060200190602002015167ffffffffffffffff1642101515620000db57600080fd5b600090505b600183510381101562000151578260018201815181101515620000ff57fe5b9060200190602002015167ffffffffffffffff1683828151811015156200012257fe5b9060200190602002015167ffffffffffffffff161015156200014357600080fd5b8080600101915050620000e0565b8160008151811015156200016157fe5b9060200190602002015160001015156200017a57600080fd5b600090505b6001825103811015620001dc5781600182018151811015156200019e57fe5b906020019060200201518282815181101515620001b757fe5b90602001906020020151101515620001ce57600080fd5b80806001019150506200017f565b81518351141515620001ed57600080fd5b846000806101000a81548173ffffffffffffffffffffffffffffffffffffffff021916908373ffffffffffffffffffffffffffffffffffffffff16021790555083600190805190602001906200024592919062000283565b5082600290805190602001906200025e92919062000312565b50816003908051906020019062000277929190620003d5565b505050505050620004cf565b828054828255906000526020600020908101928215620002ff579160200282015b82811115620002fe5782518260006101000a81548173ffffffffffffffffffffffffffffffffffffffff021916908373ffffffffffffffffffffffffffffffffffffffff16021790555091602001919060010190620002a4565b5b5090506200030e919062000427565b5090565b82805482825590600052602060002090600301600490048101928215620003c25791602002820160005b838211156200038a57835183826101000a81548167ffffffffffffffff021916908367ffffffffffffffff16021790555092602001926008016020816007010492830192600103026200033c565b8015620003c05782816101000a81549067ffffffffffffffff02191690556008016020816007010492830192600103026200038a565b505b509050620003d191906200046d565b5090565b82805482825590600052602060002090810192821562000414579160200282015b8281111562000413578251825591602001919060010190620003f6565b5b509050620004239190620004a7565b5090565b6200046a91905b808211156200046657600081816101000a81549073ffffffffffffffffffffffffffffffffffffffff0219169055506001016200042e565b5090565b90565b620004a491905b80821115620004a057600081816101000a81549067ffffffffffffffff02191690555060010162000474565b5090565b90565b620004cc91905b80821115620004c8576000816000905550600101620004ae565b5090565b90565b61086c80620004df6000396000f300606060405260043610610083576000357c0100000000000000000000000000000000000000000000000000000000900463ffffffff168063144fa6d714610088578063787e9137146100c157806386d1a69f146100ea578063954f6254146100ff578063b23066401461014a578063efeb5e5814610181578063fc0c546a146101e4575b600080fd5b341561009357600080fd5b6100bf600480803573ffffffffffffffffffffffffffffffffffffffff16906020019091905050610239565b005b34156100cc57600080fd5b6100d461031f565b6040518082815260200191505060405180910390f35b34156100f557600080fd5b6100fd610325565b005b341561010a57600080fd5b6101206004808035906020019091905050610623565b604051808267ffffffffffffffff1667ffffffffffffffff16815260200191505060405180910390f35b341561015557600080fd5b61016b6004808035906020019091905050610660565b6040518082815260200191505060405180910390f35b341561018c57600080fd5b6101a26004808035906020019091905050610684565b604051808273ffffffffffffffffffffffffffffffffffffffff1673ffffffffffffffffffffffffffffffffffffffff16815260200191505060405180910390f35b34156101ef57600080fd5b6101f76106c3565b604051808273ffffffffffffffffffffffffffffffffffffffff1673ffffffffffffffffffffffffffffffffffffffff16815260200191505060405180910390f35b600080600090505b6001805490508110156102ce5760018181548110151561025d57fe5b906000526020600020900160009054906101000a900473ffffffffffffffffffffffffffffffffffffffff1673ffffffffffffffffffffffffffffffffffffffff163373ffffffffffffffffffffffffffffffffffffffff1614156102c157600191505b8080600101915050610241565b8115156102da57600080fd5b826000806101000a81548173ffffffffffffffffffffffffffffffffffffffff021916908373ffffffffffffffffffffffffffffffffffffffff160217905550505050565b60045481565b60008060008060008060008060009054906101000a900473ffffffffffffffffffffffffffffffffffffffff1673ffffffffffffffffffffffffffffffffffffffff166370a08231306000604051602001526040518263ffffffff167c0100000000000000000000000000000000000000000000000000000000028152600401808273ffffffffffffffffffffffffffffffffffffffff1673ffffffffffffffffffffffffffffffffffffffff168152602001915050602060405180830381600087803b15156103f457600080fd5b6102c65a03f1151561040557600080fd5b50505060405180519050965061041d876004546106e8565b95506003600081548110151561042f57fe5b9060005260206000209001549450600093505b6001600280549050038410156104cb5760028481548110151561046157fe5b90600052602060002090600491828204019190066008029054906101000a900467ffffffffffffffff1667ffffffffffffffff16421015156104be576003600185018154811015156104af57fe5b90600052602060002090015494505b8380600101945050610442565b60026001600280549050038154811015156104e257fe5b90600052602060002090600491828204019190066008029054906101000a900467ffffffffffffffff1667ffffffffffffffff164210151561052357606494505b6105376105308787610706565b6064610739565b925060008311151561054857600080fd5b61055483600454610754565b9150610562600454836106e8565b600481905550610573826003610739565b9050600093505b60018054905084101561061a5761060d60018581548110151561059957fe5b906000526020600020900160009054906101000a900473ffffffffffffffffffffffffffffffffffffffff16826000809054906101000a900473ffffffffffffffffffffffffffffffffffffffff1673ffffffffffffffffffffffffffffffffffffffff1661076d9092919063ffffffff16565b838060010194505061057a565b50505050505050565b60028181548110151561063257fe5b9060005260206000209060049182820401919006600802915054906101000a900467ffffffffffffffff1681565b60038181548110151561066f57fe5b90600052602060002090016000915090505481565b60018181548110151561069357fe5b90600052602060002090016000915054906101000a900473ffffffffffffffffffffffffffffffffffffffff1681565b6000809054906101000a900473ffffffffffffffffffffffffffffffffffffffff1681565b60008082840190508381101515156106fc57fe5b8091505092915050565b60008082840290506000841480610727575082848281151561072457fe5b04145b151561072f57fe5b8091505092915050565b600080828481151561074757fe5b0490508091505092915050565b600082821115151561076257fe5b818303905092915050565b8273ffffffffffffffffffffffffffffffffffffffff1663a9059cbb83836000604051602001526040518363ffffffff167c0100000000000000000000000000000000000000000000000000000000028152600401808373ffffffffffffffffffffffffffffffffffffffff1673ffffffffffffffffffffffffffffffffffffffff16815260200182815260200192505050602060405180830381600087803b151561081857600080fd5b6102c65a03f1151561082957600080fd5b50505060405180519050151561083b57fe5b5050505600a165627a7a723058209fd727fdb7444186fa1417b2ebce24983ee92042a127ec6baf34dc4dff103ebf0029",
  "source": "pragma solidity ^0.4.18;\n\nimport \"./token/ERC20Basic.sol\";\nimport \"./token/SafeERC20.sol\";\nimport \"./math/SafeMath.sol\";\n\n/**\n * @title TokenTimelock\n * @dev TokenTimelock is a token holder contract that will allow a\n * beneficiary to extract the tokens after a given release time\n */\ncontract TeamLocker is SafeMath{\n  using SafeERC20 for ERC20Basic;\n\n  // ERC20 basic token contract being held\n  ERC20Basic public token;\n\n  // beneficiary of tokens after they are released\n  address[] public beneficiaries;\n\n  // timestamp when token release level changes\n  uint64[] public timelines;\n\n  uint256[] public releaseRatios;\n\n  uint256 public collectedTokens;\n\n  function TeamLocker(ERC20Basic _token, address[] _beneficiaries, uint64[] _timelines, uint256[] _releaseRatios) {\n\n    for (uint i = 0; i < _beneficiaries.length - 1; i++) {\n      require(_beneficiaries[i] != 0x00);\n    }\n\n    require(now < _timelines[0]);\n    for (i = 0; i < _timelines.length - 1; i++) {\n      require(_timelines[i] < _timelines[i+1]);\n    }\n\n    require(0 < _releaseRatios[0]);\n    for (i = 0; i < _releaseRatios.length - 1; i++) {\n      require(_releaseRatios[i] < _releaseRatios[i+1]);\n    }\n\n    require(_timelines.length == _releaseRatios.length);\n\n    token = _token;\n    beneficiaries = _beneficiaries;\n    timelines = _timelines;\n    releaseRatios = _releaseRatios;\n  }\n\n  /**\n   * @notice Transfers tokens held by timelock to beneficiary.\n   */\n  function release() public {\n\n    uint256 balance = token.balanceOf(address(this));\n    uint256 total = add(balance, collectedTokens);\n    uint256 currentRatio = releaseRatios[0];\n\n    for (uint i = 0; i < timelines.length - 1; i++) {\n      if (now >= timelines[i]) {\n        currentRatio = releaseRatios[i+1];\n      }\n    }\n\n    if (now >= timelines[timelines.length - 1]) {\n      currentRatio = 100;\n    }\n\n    uint256 releasedAmount = div(mul(total, currentRatio), 100);\n    require(releasedAmount > 0);\n\n    uint256 grantAmount = sub(releasedAmount, collectedTokens);\n    collectedTokens = add(collectedTokens, grantAmount);\n    uint256 grantAmountForEach = div(grantAmount, 3);\n\n    for (i = 0; i < beneficiaries.length; i++) {\n        token.safeTransfer(beneficiaries[i], grantAmountForEach);\n    }\n  }\n\n  function setToken(ERC20Basic newToken) public {\n    bool isBeneficiary;\n\n    for (uint i = 0; i < beneficiaries.length; i++) {\n      if (msg.sender == beneficiaries[i]) {\n        isBeneficiary = true;\n      }\n    }\n    require(isBeneficiary);\n\n    token = newToken;\n  }\n\n}\n",
  "sourcePath": "/Users/midinpa/workspace/dapps/aston-crowdsale/contracts/TeamLocker.sol",
  "compiler": {
    "name": "solc",
    "version": "0.4.18+commit.9cf6e910.Emscripten.clang"
  },
  "schemaVersion": "1.0.1",
  "updatedAt": "2017-11-27T05:11:49.455Z"
}