{
  "contractName": "TeamLockerForDemoInMainnet",
  "abi": [
    {
      "constant": false,
      "inputs": [
        {
          "name": "newToken",
          "type": "address"
        }
      ],
      "name": "setToken",
      "outputs": [],
      "payable": false,
      "stateMutability": "nonpayable",
      "type": "function"
    },
    {
      "constant": true,
      "inputs": [],
      "name": "collectedTokens",
      "outputs": [
        {
          "name": "",
          "type": "uint256"
        }
      ],
      "payable": false,
      "stateMutability": "view",
      "type": "function"
    },
    {
      "constant": false,
      "inputs": [],
      "name": "release",
      "outputs": [],
      "payable": false,
      "stateMutability": "nonpayable",
      "type": "function"
    },
    {
      "constant": true,
      "inputs": [],
      "name": "crowdsale",
      "outputs": [
        {
          "name": "",
          "type": "address"
        }
      ],
      "payable": false,
      "stateMutability": "view",
      "type": "function"
    },
    {
      "constant": false,
      "inputs": [
        {
          "name": "_token",
          "type": "address"
        },
        {
          "name": "_crowdsale",
          "type": "address"
        },
        {
          "name": "_beneficiaries",
          "type": "address[]"
        }
      ],
      "name": "TeamLockerForDemo",
      "outputs": [],
      "payable": false,
      "stateMutability": "nonpayable",
      "type": "function"
    },
    {
      "constant": true,
      "inputs": [
        {
          "name": "",
          "type": "uint256"
        }
      ],
      "name": "beneficiaries",
      "outputs": [
        {
          "name": "",
          "type": "address"
        }
      ],
      "payable": false,
      "stateMutability": "view",
      "type": "function"
    },
    {
      "constant": true,
      "inputs": [],
      "name": "token",
      "outputs": [
        {
          "name": "",
          "type": "address"
        }
      ],
      "payable": false,
      "stateMutability": "view",
      "type": "function"
    }
  ],
  "bytecode": "0x6060604052341561000f57600080fd5b610acb8061001e6000396000f300606060405260043610610083576000357c0100000000000000000000000000000000000000000000000000000000900463ffffffff168063144fa6d714610088578063787e9137146100c157806386d1a69f146100ea5780639c1e03a0146100ff578063b7ec94b914610154578063efeb5e58146101ec578063fc0c546a1461024f575b600080fd5b341561009357600080fd5b6100bf600480803573ffffffffffffffffffffffffffffffffffffffff169060200190919050506102a4565b005b34156100cc57600080fd5b6100d46103b0565b6040518082815260200191505060405180910390f35b34156100f557600080fd5b6100fd6103b6565b005b341561010a57600080fd5b6101126106ad565b604051808273ffffffffffffffffffffffffffffffffffffffff1673ffffffffffffffffffffffffffffffffffffffff16815260200191505060405180910390f35b341561015f57600080fd5b6101ea600480803573ffffffffffffffffffffffffffffffffffffffff1690602001909190803573ffffffffffffffffffffffffffffffffffffffff16906020019091908035906020019082018035906020019080806020026020016040519081016040528093929190818152602001838360200280828437820191505050505050919050506106d3565b005b34156101f757600080fd5b61020d6004808035906020019091905050610816565b604051808273ffffffffffffffffffffffffffffffffffffffff1673ffffffffffffffffffffffffffffffffffffffff16815260200191505060405180910390f35b341561025a57600080fd5b610262610855565b604051808273ffffffffffffffffffffffffffffffffffffffff1673ffffffffffffffffffffffffffffffffffffffff16815260200191505060405180910390f35b60008060008373ffffffffffffffffffffffffffffffffffffffff16141515156102cd57600080fd5b600090505b60028054905081101561035f576002818154811015156102ee57fe5b906000526020600020900160009054906101000a900473ffffffffffffffffffffffffffffffffffffffff1673ffffffffffffffffffffffffffffffffffffffff163373ffffffffffffffffffffffffffffffffffffffff16141561035257600191505b80806001019150506102d2565b81151561036b57600080fd5b826000806101000a81548173ffffffffffffffffffffffffffffffffffffffff021916908373ffffffffffffffffffffffffffffffffffffffff160217905550505050565b60035481565b6000806000806000806000806000806000809054906101000a900473ffffffffffffffffffffffffffffffffffffffff1673ffffffffffffffffffffffffffffffffffffffff166370a08231306000604051602001526040518263ffffffff167c0100000000000000000000000000000000000000000000000000000000028152600401808273ffffffffffffffffffffffffffffffffffffffff1673ffffffffffffffffffffffffffffffffffffffff168152602001915050602060405180830381600087803b151561048957600080fd5b6102c65a03f1151561049a57600080fd5b5050506040518051905099506104b28a60035461087a565b9850600160009054906101000a900473ffffffffffffffffffffffffffffffffffffffff1673ffffffffffffffffffffffffffffffffffffffff1663fe67a1896000604051602001526040518163ffffffff167c0100000000000000000000000000000000000000000000000000000000028152600401602060405180830381600087803b151561054257600080fd5b6102c65a03f1151561055357600080fd5b50505060405180519050975060008811151561056e57600080fd5b61057a8861070861087a565b965061058888610e1061087a565b955060149450864210151561059c57603294505b85421015156105aa57606494505b6105be6105b78a87610898565b60646108cb565b93506105cc846003546108e6565b92506000831115156105dd57600080fd5b6105e96003548461087a565b6003819055506105fa8360036108cb565b9150600090505b6002805490508110156106a15761069460028281548110151561062057fe5b906000526020600020900160009054906101000a900473ffffffffffffffffffffffffffffffffffffffff16836000809054906101000a900473ffffffffffffffffffffffffffffffffffffffff1673ffffffffffffffffffffffffffffffffffffffff166108ff9092919063ffffffff16565b8080600101915050610601565b50505050505050505050565b600160009054906101000a900473ffffffffffffffffffffffffffffffffffffffff1681565b6000808473ffffffffffffffffffffffffffffffffffffffff16141515156106fa57600080fd5b60008373ffffffffffffffffffffffffffffffffffffffff161415151561072057600080fd5b600090505b8151811015610778576000828281518110151561073e57fe5b9060200190602002015173ffffffffffffffffffffffffffffffffffffffff161415151561076b57600080fd5b8080600101915050610725565b836000806101000a81548173ffffffffffffffffffffffffffffffffffffffff021916908373ffffffffffffffffffffffffffffffffffffffff16021790555082600160006101000a81548173ffffffffffffffffffffffffffffffffffffffff021916908373ffffffffffffffffffffffffffffffffffffffff160217905550816002908051906020019061080f9291906109d2565b5050505050565b60028181548110151561082557fe5b90600052602060002090016000915054906101000a900473ffffffffffffffffffffffffffffffffffffffff1681565b6000809054906101000a900473ffffffffffffffffffffffffffffffffffffffff1681565b600080828401905083811015151561088e57fe5b8091505092915050565b600080828402905060008414806108b957508284828115156108b657fe5b04145b15156108c157fe5b8091505092915050565b60008082848115156108d957fe5b0490508091505092915050565b60008282111515156108f457fe5b818303905092915050565b8273ffffffffffffffffffffffffffffffffffffffff1663a9059cbb83836000604051602001526040518363ffffffff167c0100000000000000000000000000000000000000000000000000000000028152600401808373ffffffffffffffffffffffffffffffffffffffff1673ffffffffffffffffffffffffffffffffffffffff16815260200182815260200192505050602060405180830381600087803b15156109aa57600080fd5b6102c65a03f115156109bb57600080fd5b5050506040518051905015156109cd57fe5b505050565b828054828255906000526020600020908101928215610a4b579160200282015b82811115610a4a5782518260006101000a81548173ffffffffffffffffffffffffffffffffffffffff021916908373ffffffffffffffffffffffffffffffffffffffff160217905550916020019190600101906109f2565b5b509050610a589190610a5c565b5090565b610a9c91905b80821115610a9857600081816101000a81549073ffffffffffffffffffffffffffffffffffffffff021916905550600101610a62565b5090565b905600a165627a7a72305820b125269b2bdf1a21675612ade64cb8a7cce1bdb24230f31f79708dace154e37b0029",
  "source": "pragma solidity ^0.4.18;\n\nimport \"./token/ERC20Basic.sol\";\nimport \"./token/SafeERC20.sol\";\nimport \"./math/SafeMath.sol\";\nimport './ATCCrowdSale.sol';\n\n/**\n * @title TokenTimelock\n * @dev TokenTimelock is a token holder contract that will allow a\n * beneficiary to extract the tokens after a given release time\n */\ncontract TeamLockerForDemoInMainnet is SafeMath{\n  using SafeERC20 for ERC20Basic;\n\n  ERC20Basic public token;\n\n  ATCCrowdSale public crowdsale;\n\n  address[] public beneficiaries;\n\n  uint256 public collectedTokens;\n\n  function TeamLockerForDemo(address _token, address _crowdsale, address[] _beneficiaries) {\n\n    require(_token != 0x00);\n    require(_crowdsale != 0x00);\n\n    for (uint i = 0; i < _beneficiaries.length; i++) {\n      require(_beneficiaries[i] != 0x00);\n    }\n\n    token = ERC20Basic(_token);\n    crowdsale = ATCCrowdSale(_crowdsale);\n    beneficiaries = _beneficiaries;\n  }\n\n  /**\n   * @notice Transfers tokens held by timelock to beneficiary.\n   */\n  function release() public {\n\n    uint256 balance = token.balanceOf(address(this));\n    uint256 total = add(balance, collectedTokens);\n\n    uint256 finalizedTime = crowdsale.finalizedTime();\n    require(finalizedTime > 0);\n\n    uint256 lockTime1 = add(finalizedTime, 30 minutes); // 6 months\n    uint256 lockTime2 = add(finalizedTime, 60 minutes); // 1 year\n\n    uint256 currentRatio = 20;\n\n    if (now >= lockTime1) {\n      currentRatio = 50;\n    }\n\n    if (now >= lockTime2) {\n      currentRatio = 100;\n    }\n\n    uint256 releasedAmount = div(mul(total, currentRatio), 100);\n    uint256 grantAmount = sub(releasedAmount, collectedTokens);\n    require(grantAmount > 0);\n    collectedTokens = add(collectedTokens, grantAmount);\n    uint256 grantAmountForEach = div(grantAmount, 3);\n\n    for (uint i = 0; i < beneficiaries.length; i++) {\n        token.safeTransfer(beneficiaries[i], grantAmountForEach);\n    }\n  }\n\n  function setToken(address newToken) public {\n    require(newToken != 0x00);\n\n    bool isBeneficiary;\n\n    for (uint i = 0; i < beneficiaries.length; i++) {\n      if (msg.sender == beneficiaries[i]) {\n        isBeneficiary = true;\n      }\n    }\n    require(isBeneficiary);\n\n    token = ERC20Basic(newToken);\n  }\n\n}\n",
  "sourcePath": "/Users/midinpa/workspace/dapps/aston-crowdsale/contracts/TeamLockerForDemoInMainnet.sol",
  "compiler": {
    "name": "solc",
    "version": "0.4.18+commit.9cf6e910.Emscripten.clang"
  },
  "schemaVersion": "1.0.1",
  "updatedAt": "2017-12-07T06:51:27.918Z"
}