{
  "contractName": "TeamLocker",
  "abi": [
    {
      "constant": false,
      "inputs": [
        {
          "name": "newToken",
          "type": "address"
        }
      ],
      "name": "setToken",
      "outputs": [],
      "payable": false,
      "stateMutability": "nonpayable",
      "type": "function"
    },
    {
      "constant": true,
      "inputs": [],
      "name": "collectedTokens",
      "outputs": [
        {
          "name": "",
          "type": "uint256"
        }
      ],
      "payable": false,
      "stateMutability": "view",
      "type": "function"
    },
    {
      "constant": false,
      "inputs": [],
      "name": "release",
      "outputs": [],
      "payable": false,
      "stateMutability": "nonpayable",
      "type": "function"
    },
    {
      "constant": true,
      "inputs": [],
      "name": "crowdsale",
      "outputs": [
        {
          "name": "",
          "type": "address"
        }
      ],
      "payable": false,
      "stateMutability": "view",
      "type": "function"
    },
    {
      "constant": true,
      "inputs": [
        {
          "name": "",
          "type": "uint256"
        }
      ],
      "name": "beneficiaries",
      "outputs": [
        {
          "name": "",
          "type": "address"
        }
      ],
      "payable": false,
      "stateMutability": "view",
      "type": "function"
    },
    {
      "constant": true,
      "inputs": [],
      "name": "token",
      "outputs": [
        {
          "name": "",
          "type": "address"
        }
      ],
      "payable": false,
      "stateMutability": "view",
      "type": "function"
    },
    {
      "inputs": [
        {
          "name": "_token",
          "type": "address"
        },
        {
          "name": "_crowdsale",
          "type": "address"
        },
        {
          "name": "_beneficiaries",
          "type": "address[]"
        }
      ],
      "payable": false,
      "stateMutability": "nonpayable",
      "type": "constructor"
    }
  ],
  "bytecode": "0x6060604052341561000f57600080fd5b604051610a7a380380610a7a833981016040528080519060200190919080519060200190919080518201919050506000808473ffffffffffffffffffffffffffffffffffffffff161415151561006457600080fd5b60008373ffffffffffffffffffffffffffffffffffffffff161415151561008a57600080fd5b600090505b81518110156100e257600082828151811015156100a857fe5b9060200190602002015173ffffffffffffffffffffffffffffffffffffffff16141515156100d557600080fd5b808060010191505061008f565b836000806101000a81548173ffffffffffffffffffffffffffffffffffffffff021916908373ffffffffffffffffffffffffffffffffffffffff16021790555082600160006101000a81548173ffffffffffffffffffffffffffffffffffffffff021916908373ffffffffffffffffffffffffffffffffffffffff1602179055508160029080519060200190610179929190610183565b5050505050610250565b8280548282559060005260206000209081019282156101fc579160200282015b828111156101fb5782518260006101000a81548173ffffffffffffffffffffffffffffffffffffffff021916908373ffffffffffffffffffffffffffffffffffffffff160217905550916020019190600101906101a3565b5b509050610209919061020d565b5090565b61024d91905b8082111561024957600081816101000a81549073ffffffffffffffffffffffffffffffffffffffff021916905550600101610213565b5090565b90565b61081b8061025f6000396000f300606060405260043610610078576000357c0100000000000000000000000000000000000000000000000000000000900463ffffffff168063144fa6d71461007d578063787e9137146100b657806386d1a69f146100df5780639c1e03a0146100f4578063efeb5e5814610149578063fc0c546a146101ac575b600080fd5b341561008857600080fd5b6100b4600480803573ffffffffffffffffffffffffffffffffffffffff16906020019091905050610201565b005b34156100c157600080fd5b6100c961030d565b6040518082815260200191505060405180910390f35b34156100ea57600080fd5b6100f2610313565b005b34156100ff57600080fd5b61010761060d565b604051808273ffffffffffffffffffffffffffffffffffffffff1673ffffffffffffffffffffffffffffffffffffffff16815260200191505060405180910390f35b341561015457600080fd5b61016a6004808035906020019091905050610633565b604051808273ffffffffffffffffffffffffffffffffffffffff1673ffffffffffffffffffffffffffffffffffffffff16815260200191505060405180910390f35b34156101b757600080fd5b6101bf610672565b604051808273ffffffffffffffffffffffffffffffffffffffff1673ffffffffffffffffffffffffffffffffffffffff16815260200191505060405180910390f35b60008060008373ffffffffffffffffffffffffffffffffffffffff161415151561022a57600080fd5b600090505b6002805490508110156102bc5760028181548110151561024b57fe5b906000526020600020900160009054906101000a900473ffffffffffffffffffffffffffffffffffffffff1673ffffffffffffffffffffffffffffffffffffffff163373ffffffffffffffffffffffffffffffffffffffff1614156102af57600191505b808060010191505061022f565b8115156102c857600080fd5b826000806101000a81548173ffffffffffffffffffffffffffffffffffffffff021916908373ffffffffffffffffffffffffffffffffffffffff160217905550505050565b60035481565b6000806000806000806000806000806000809054906101000a900473ffffffffffffffffffffffffffffffffffffffff1673ffffffffffffffffffffffffffffffffffffffff166370a08231306000604051602001526040518263ffffffff167c0100000000000000000000000000000000000000000000000000000000028152600401808273ffffffffffffffffffffffffffffffffffffffff1673ffffffffffffffffffffffffffffffffffffffff168152602001915050602060405180830381600087803b15156103e657600080fd5b6102c65a03f115156103f757600080fd5b50505060405180519050995061040f8a600354610697565b9850600160009054906101000a900473ffffffffffffffffffffffffffffffffffffffff1673ffffffffffffffffffffffffffffffffffffffff1663fe67a1896000604051602001526040518163ffffffff167c0100000000000000000000000000000000000000000000000000000000028152600401602060405180830381600087803b151561049f57600080fd5b6102c65a03f115156104b057600080fd5b5050506040518051905097506000881115156104cb57600080fd5b6104d88862f14280610697565b96506104e8886301e13380610697565b95506014945086421015156104fc57603294505b854210151561050a57606494505b61051e6105178a876106b5565b60646106e8565b935061052c84600354610703565b925060008311151561053d57600080fd5b61054960035484610697565b60038190555061055a8360036106e8565b9150600090505b600280549050811015610601576105f460028281548110151561058057fe5b906000526020600020900160009054906101000a900473ffffffffffffffffffffffffffffffffffffffff16836000809054906101000a900473ffffffffffffffffffffffffffffffffffffffff1673ffffffffffffffffffffffffffffffffffffffff1661071c9092919063ffffffff16565b8080600101915050610561565b50505050505050505050565b600160009054906101000a900473ffffffffffffffffffffffffffffffffffffffff1681565b60028181548110151561064257fe5b90600052602060002090016000915054906101000a900473ffffffffffffffffffffffffffffffffffffffff1681565b6000809054906101000a900473ffffffffffffffffffffffffffffffffffffffff1681565b60008082840190508381101515156106ab57fe5b8091505092915050565b600080828402905060008414806106d657508284828115156106d357fe5b04145b15156106de57fe5b8091505092915050565b60008082848115156106f657fe5b0490508091505092915050565b600082821115151561071157fe5b818303905092915050565b8273ffffffffffffffffffffffffffffffffffffffff1663a9059cbb83836000604051602001526040518363ffffffff167c0100000000000000000000000000000000000000000000000000000000028152600401808373ffffffffffffffffffffffffffffffffffffffff1673ffffffffffffffffffffffffffffffffffffffff16815260200182815260200192505050602060405180830381600087803b15156107c757600080fd5b6102c65a03f115156107d857600080fd5b5050506040518051905015156107ea57fe5b5050505600a165627a7a72305820eff790ec2b5c917dc360bb18d780005b51cd511ae889225104b2b48f16769eb80029",
  "source": "pragma solidity ^0.4.18;\n\nimport \"./token/ERC20Basic.sol\";\nimport \"./token/SafeERC20.sol\";\nimport \"./math/SafeMath.sol\";\nimport './ATCCrowdSale.sol';\n\n/**\n * @title TokenTimelock\n * @dev TokenTimelock is a token holder contract that will allow a\n * beneficiary to extract the tokens after a given release time\n */\ncontract TeamLocker is SafeMath{\n  using SafeERC20 for ERC20Basic;\n\n  ERC20Basic public token;\n\n  ATCCrowdSale public crowdsale;\n\n  address[] public beneficiaries;\n\n  uint256 public collectedTokens;\n\n  function TeamLocker(address _token, address _crowdsale, address[] _beneficiaries) {\n\n    require(_token != 0x00);\n    require(_crowdsale != 0x00);\n\n    for (uint i = 0; i < _beneficiaries.length; i++) {\n      require(_beneficiaries[i] != 0x00);\n    }\n\n    token = ERC20Basic(_token);\n    crowdsale = ATCCrowdSale(_crowdsale);\n    beneficiaries = _beneficiaries;\n  }\n\n  /**\n   * @notice Transfers tokens held by timelock to beneficiary.\n   */\n  function release() public {\n\n    uint256 balance = token.balanceOf(address(this));\n    uint256 total = add(balance, collectedTokens);\n\n    uint256 finalizedTime = crowdsale.finalizedTime();\n    require(finalizedTime > 0);\n\n    uint256 lockTime1 = add(finalizedTime, 183 days); // 6 months\n    uint256 lockTime2 = add(finalizedTime, 1 years); // 1 year\n\n    uint256 currentRatio = 20;\n\n    if (now >= lockTime1) {\n      currentRatio = 50;\n    }\n\n    if (now >= lockTime2) {\n      currentRatio = 100;\n    }\n\n    uint256 releasedAmount = div(mul(total, currentRatio), 100);\n    uint256 grantAmount = sub(releasedAmount, collectedTokens);\n    require(grantAmount > 0);\n    collectedTokens = add(collectedTokens, grantAmount);\n    uint256 grantAmountForEach = div(grantAmount, 3);\n\n    for (uint i = 0; i < beneficiaries.length; i++) {\n        token.safeTransfer(beneficiaries[i], grantAmountForEach);\n    }\n  }\n\n  function setToken(address newToken) public {\n    require(newToken != 0x00);\n\n    bool isBeneficiary;\n\n    for (uint i = 0; i < beneficiaries.length; i++) {\n      if (msg.sender == beneficiaries[i]) {\n        isBeneficiary = true;\n      }\n    }\n    require(isBeneficiary);\n\n    token = ERC20Basic(newToken);\n  }\n\n}\n",
  "sourcePath": "/Users/midinpa/workspace/dapps/aston-crowdsale/contracts/TeamLocker.sol",
  "compiler": {
    "name": "solc",
    "version": "0.4.18+commit.9cf6e910.Emscripten.clang"
  },
  "schemaVersion": "1.0.1",
  "updatedAt": "2017-12-08T05:12:32.715Z"
}