{
  "contractName": "TokenTimelock2",
  "abi": [
    {
      "constant": true,
      "inputs": [],
      "name": "beneficiary",
      "outputs": [
        {
          "name": "",
          "type": "address"
        }
      ],
      "payable": false,
      "stateMutability": "view",
      "type": "function"
    },
    {
      "constant": true,
      "inputs": [],
      "name": "collectedTokens",
      "outputs": [
        {
          "name": "",
          "type": "uint256"
        }
      ],
      "payable": false,
      "stateMutability": "view",
      "type": "function"
    },
    {
      "constant": false,
      "inputs": [],
      "name": "release",
      "outputs": [],
      "payable": false,
      "stateMutability": "nonpayable",
      "type": "function"
    },
    {
      "constant": true,
      "inputs": [
        {
          "name": "",
          "type": "uint256"
        }
      ],
      "name": "timelines",
      "outputs": [
        {
          "name": "",
          "type": "uint64"
        }
      ],
      "payable": false,
      "stateMutability": "view",
      "type": "function"
    },
    {
      "constant": true,
      "inputs": [
        {
          "name": "",
          "type": "uint256"
        }
      ],
      "name": "releaseRatios",
      "outputs": [
        {
          "name": "",
          "type": "uint256"
        }
      ],
      "payable": false,
      "stateMutability": "view",
      "type": "function"
    },
    {
      "constant": true,
      "inputs": [],
      "name": "token",
      "outputs": [
        {
          "name": "",
          "type": "address"
        }
      ],
      "payable": false,
      "stateMutability": "view",
      "type": "function"
    },
    {
      "inputs": [
        {
          "name": "_token",
          "type": "address"
        },
        {
          "name": "_beneficiary",
          "type": "address"
        },
        {
          "name": "_timelines",
          "type": "uint64[]"
        },
        {
          "name": "_releaseRatios",
          "type": "uint256[]"
        }
      ],
      "payable": false,
      "stateMutability": "nonpayable",
      "type": "constructor"
    }
  ],
  "bytecode": "0x606060405234156200001057600080fd5b60405162000b1f38038062000b1f8339810160405280805190602001909190805190602001909190805182019190602001805182019190505060008260008151811015156200005b57fe5b9060200190602002015167ffffffffffffffff16421015156200007d57600080fd5b600090505b6001835103811015620000f3578260018201815181101515620000a157fe5b9060200190602002015167ffffffffffffffff168382815181101515620000c457fe5b9060200190602002015167ffffffffffffffff16101515620000e557600080fd5b808060010191505062000082565b8160008151811015156200010357fe5b9060200190602002015160001015156200011c57600080fd5b600090505b60018251038110156200017e5781600182018151811015156200014057fe5b9060200190602002015182828151811015156200015957fe5b906020019060200201511015156200017057600080fd5b808060010191505062000121565b815183511415156200018f57600080fd5b60008473ffffffffffffffffffffffffffffffffffffffff1614151515620001b657600080fd5b846000806101000a81548173ffffffffffffffffffffffffffffffffffffffff021916908373ffffffffffffffffffffffffffffffffffffffff16021790555083600160006101000a81548173ffffffffffffffffffffffffffffffffffffffff021916908373ffffffffffffffffffffffffffffffffffffffff16021790555082600290805190602001906200024f92919062000274565b5081600390805190602001906200026892919062000337565b505050505050620003eb565b82805482825590600052602060002090600301600490048101928215620003245791602002820160005b83821115620002ec57835183826101000a81548167ffffffffffffffff021916908367ffffffffffffffff16021790555092602001926008016020816007010492830192600103026200029e565b8015620003225782816101000a81549067ffffffffffffffff0219169055600801602081600701049283019260010302620002ec565b505b50905062000333919062000389565b5090565b82805482825590600052602060002090810192821562000376579160200282015b828111156200037557825182559160200191906001019062000358565b5b509050620003859190620003c3565b5090565b620003c091905b80821115620003bc57600081816101000a81549067ffffffffffffffff02191690555060010162000390565b5090565b90565b620003e891905b80821115620003e4576000816000905550600101620003ca565b5090565b90565b61072480620003fb6000396000f300606060405260043610610078576000357c0100000000000000000000000000000000000000000000000000000000900463ffffffff16806338af3eed1461007d578063787e9137146100d257806386d1a69f146100fb578063954f625414610110578063b23066401461015b578063fc0c546a14610192575b600080fd5b341561008857600080fd5b6100906101e7565b604051808273ffffffffffffffffffffffffffffffffffffffff1673ffffffffffffffffffffffffffffffffffffffff16815260200191505060405180910390f35b34156100dd57600080fd5b6100e561020d565b6040518082815260200191505060405180910390f35b341561010657600080fd5b61010e610213565b005b341561011b57600080fd5b610131600480803590602001909190505061051a565b604051808267ffffffffffffffff1667ffffffffffffffff16815260200191505060405180910390f35b341561016657600080fd5b61017c6004808035906020019091905050610557565b6040518082815260200191505060405180910390f35b341561019d57600080fd5b6101a561057b565b604051808273ffffffffffffffffffffffffffffffffffffffff1673ffffffffffffffffffffffffffffffffffffffff16815260200191505060405180910390f35b600160009054906101000a900473ffffffffffffffffffffffffffffffffffffffff1681565b60045481565b6000806000806000806002600081548110151561022c57fe5b90600052602060002090600491828204019190066008029054906101000a900467ffffffffffffffff1667ffffffffffffffff16421015151561026e57600080fd5b6000809054906101000a900473ffffffffffffffffffffffffffffffffffffffff1673ffffffffffffffffffffffffffffffffffffffff166370a08231306000604051602001526040518263ffffffff167c0100000000000000000000000000000000000000000000000000000000028152600401808273ffffffffffffffffffffffffffffffffffffffff1673ffffffffffffffffffffffffffffffffffffffff168152602001915050602060405180830381600087803b151561033257600080fd5b6102c65a03f1151561034357600080fd5b50505060405180519050955061035b866004546105a0565b94506003600081548110151561036d57fe5b9060005260206000209001549350600092505b6001600280549050038310156104085760028381548110151561039f57fe5b90600052602060002090600491828204019190066008029054906101000a900467ffffffffffffffff1667ffffffffffffffff164211156103fb576003600184018154811015156103ec57fe5b90600052602060002090015493505b8280600101935050610380565b600260016002805490500381548110151561041f57fe5b90600052602060002090600491828204019190066008029054906101000a900467ffffffffffffffff1667ffffffffffffffff1642111561045f57606493505b61047361046c86866105be565b60646105f1565b915060008211151561048457600080fd5b6104908260045461060c565b905061049e600454826105a0565b600481905550610512600160009054906101000a900473ffffffffffffffffffffffffffffffffffffffff16826000809054906101000a900473ffffffffffffffffffffffffffffffffffffffff1673ffffffffffffffffffffffffffffffffffffffff166106259092919063ffffffff16565b505050505050565b60028181548110151561052957fe5b9060005260206000209060049182820401919006600802915054906101000a900467ffffffffffffffff1681565b60038181548110151561056657fe5b90600052602060002090016000915090505481565b6000809054906101000a900473ffffffffffffffffffffffffffffffffffffffff1681565b60008082840190508381101515156105b457fe5b8091505092915050565b600080828402905060008414806105df57508284828115156105dc57fe5b04145b15156105e757fe5b8091505092915050565b60008082848115156105ff57fe5b0490508091505092915050565b600082821115151561061a57fe5b818303905092915050565b8273ffffffffffffffffffffffffffffffffffffffff1663a9059cbb83836000604051602001526040518363ffffffff167c0100000000000000000000000000000000000000000000000000000000028152600401808373ffffffffffffffffffffffffffffffffffffffff1673ffffffffffffffffffffffffffffffffffffffff16815260200182815260200192505050602060405180830381600087803b15156106d057600080fd5b6102c65a03f115156106e157600080fd5b5050506040518051905015156106f357fe5b5050505600a165627a7a72305820244e52b0fff84fb0e35e56f60b8b37d806116bb318090b6b8c0d2ccb3a742c8f0029",
  "source": "pragma solidity ^0.4.18;\n\n\nimport \"../token/ERC20Basic.sol\";\nimport \"../token/SafeERC20.sol\";\nimport \"../math/SafeMath.sol\";\n\n/**\n * @title TokenTimelock\n * @dev TokenTimelock is a token holder contract that will allow a\n * beneficiary to extract the tokens after a given release time\n */\ncontract TokenTimelock2 is SafeMath{\n  using SafeERC20 for ERC20Basic;\n\n  // ERC20 basic token contract being held\n  ERC20Basic public token;\n\n  // beneficiary of tokens after they are released\n  address public beneficiary;\n\n  // timestamp when token release level changes\n  uint64[] public timelines;\n\n  uint256[] public releaseRatios;\n\n  uint256 public collectedTokens;\n\n  function TokenTimelock2(ERC20Basic _token, address _beneficiary, uint64[] _timelines, uint256[] _releaseRatios) {\n\n    require(now < _timelines[0]);\n    for (uint i = 0; i < _timelines.length - 1; i++) {\n      require(_timelines[i] < _timelines[i+1]);\n    }\n    require(0 < _releaseRatios[0]);\n    for (i = 0; i < _releaseRatios.length - 1; i++) {\n      require(_releaseRatios[i] < _releaseRatios[i+1]);\n    }\n    require(_timelines.length == _releaseRatios.length);\n    require(_beneficiary != 0x00);\n\n    token = _token;\n    beneficiary = _beneficiary;\n    timelines = _timelines;\n    releaseRatios = _releaseRatios;\n  }\n\n  /**\n   * @notice Transfers tokens held by timelock to beneficiary.\n   */\n  function release() public {\n\n    require(now >= timelines[0]);\n    uint256 balance = token.balanceOf(address(this));\n    uint256 total = add(balance, collectedTokens);\n    uint256 currentRatio = releaseRatios[0];\n\n    for (uint i = 0; i < timelines.length - 1; i++) {\n      if (now > timelines[i]) {\n        currentRatio = releaseRatios[i+1];\n      }\n    }\n\n    if (now > timelines[timelines.length - 1]) {\n      currentRatio = 100;\n    }\n\n    uint256 releasedAmount = div(mul(total, currentRatio), 100);\n    require(releasedAmount > 0);\n\n    uint256 grantAmount = sub(releasedAmount, collectedTokens);\n    collectedTokens = add(collectedTokens, grantAmount);\n\n    token.safeTransfer(beneficiary, grantAmount);\n  }\n}\n",
  "sourcePath": "/Users/midinpa/workspace/dapps/aston-crowdsale/contracts/tokenlock/TokenTimeLock2.sol",
  "compiler": {
    "name": "solc",
    "version": "0.4.18+commit.9cf6e910.Emscripten.clang"
  },
  "schemaVersion": "1.0.1",
  "updatedAt": "2017-11-23T05:43:28.832Z"
}